{
  "_format": "hh-sol-artifact-1",
  "contractName": "Hub",
  "sourceName": "contracts/Hub.sol",
  "abi": [
    {
      "inputs": [
        {
          "internalType": "uint256",
          "name": "fee",
          "type": "uint256"
        }
      ],
      "stateMutability": "nonpayable",
      "type": "constructor"
    },
    {
      "anonymous": false,
      "inputs": [
        {
          "indexed": true,
          "internalType": "address",
          "name": "tokenAddress",
          "type": "address"
        }
      ],
      "name": "AddToken",
      "type": "event"
    },
    {
      "anonymous": false,
      "inputs": [
        {
          "indexed": false,
          "internalType": "uint256",
          "name": "cid",
          "type": "uint256"
        },
        {
          "indexed": true,
          "internalType": "address",
          "name": "owner",
          "type": "address"
        },
        {
          "indexed": true,
          "internalType": "address",
          "name": "nftAddress",
          "type": "address"
        },
        {
          "indexed": true,
          "internalType": "string",
          "name": "metadata",
          "type": "string"
        }
      ],
      "name": "CollectionCreated",
      "type": "event"
    },
    {
      "anonymous": false,
      "inputs": [
        {
          "indexed": false,
          "internalType": "uint256",
          "name": "cid",
          "type": "uint256"
        },
        {
          "indexed": true,
          "internalType": "string",
          "name": "metadata",
          "type": "string"
        }
      ],
      "name": "CollectionEdited",
      "type": "event"
    },
    {
      "anonymous": false,
      "inputs": [
        {
          "indexed": false,
          "internalType": "uint256",
          "name": "cid",
          "type": "uint256"
        },
        {
          "indexed": true,
          "internalType": "address",
          "name": "owner",
          "type": "address"
        },
        {
          "indexed": true,
          "internalType": "address",
          "name": "nftAddress",
          "type": "address"
        },
        {
          "indexed": true,
          "internalType": "string",
          "name": "metadata",
          "type": "string"
        }
      ],
      "name": "CollectionListed",
      "type": "event"
    },
    {
      "anonymous": false,
      "inputs": [
        {
          "indexed": true,
          "internalType": "address",
          "name": "tokenAddress",
          "type": "address"
        }
      ],
      "name": "RemoveToken",
      "type": "event"
    },
    {
      "anonymous": false,
      "inputs": [
        {
          "indexed": true,
          "internalType": "bytes32",
          "name": "role",
          "type": "bytes32"
        },
        {
          "indexed": true,
          "internalType": "bytes32",
          "name": "previousAdminRole",
          "type": "bytes32"
        },
        {
          "indexed": true,
          "internalType": "bytes32",
          "name": "newAdminRole",
          "type": "bytes32"
        }
      ],
      "name": "RoleAdminChanged",
      "type": "event"
    },
    {
      "anonymous": false,
      "inputs": [
        {
          "indexed": true,
          "internalType": "bytes32",
          "name": "role",
          "type": "bytes32"
        },
        {
          "indexed": true,
          "internalType": "address",
          "name": "account",
          "type": "address"
        },
        {
          "indexed": true,
          "internalType": "address",
          "name": "sender",
          "type": "address"
        }
      ],
      "name": "RoleGranted",
      "type": "event"
    },
    {
      "anonymous": false,
      "inputs": [
        {
          "indexed": true,
          "internalType": "bytes32",
          "name": "role",
          "type": "bytes32"
        },
        {
          "indexed": true,
          "internalType": "address",
          "name": "account",
          "type": "address"
        },
        {
          "indexed": true,
          "internalType": "address",
          "name": "sender",
          "type": "address"
        }
      ],
      "name": "RoleRevoked",
      "type": "event"
    },
    {
      "inputs": [],
      "name": "ARTIST_ROLE",
      "outputs": [
        {
          "internalType": "bytes32",
          "name": "",
          "type": "bytes32"
        }
      ],
      "stateMutability": "view",
      "type": "function"
    },
    {
      "inputs": [],
      "name": "CREATE_FEE",
      "outputs": [
        {
          "internalType": "uint256",
          "name": "",
          "type": "uint256"
        }
      ],
      "stateMutability": "view",
      "type": "function"
    },
    {
      "inputs": [],
      "name": "DEFAULT_ADMIN_ROLE",
      "outputs": [
        {
          "internalType": "bytes32",
          "name": "",
          "type": "bytes32"
        }
      ],
      "stateMutability": "view",
      "type": "function"
    },
    {
      "inputs": [],
      "name": "ERC721INTERFACE",
      "outputs": [
        {
          "internalType": "bytes4",
          "name": "",
          "type": "bytes4"
        }
      ],
      "stateMutability": "view",
      "type": "function"
    },
    {
      "inputs": [],
      "name": "RATE_FEE",
      "outputs": [
        {
          "internalType": "uint256",
          "name": "",
          "type": "uint256"
        }
      ],
      "stateMutability": "view",
      "type": "function"
    },
    {
      "inputs": [
        {
          "internalType": "address",
          "name": "tokenAddr",
          "type": "address"
        }
      ],
      "name": "addAcceptToken",
      "outputs": [],
      "stateMutability": "nonpayable",
      "type": "function"
    },
    {
      "inputs": [
        {
          "internalType": "address",
          "name": "childAddress",
          "type": "address"
        }
      ],
      "name": "addHubChild",
      "outputs": [],
      "stateMutability": "nonpayable",
      "type": "function"
    },
    {
      "inputs": [
        {
          "internalType": "address",
          "name": "whitelistAddress",
          "type": "address"
        },
        {
          "internalType": "uint256",
          "name": "fee",
          "type": "uint256"
        }
      ],
      "name": "addWhitelistAddress",
      "outputs": [],
      "stateMutability": "nonpayable",
      "type": "function"
    },
    {
      "inputs": [
        {
          "internalType": "uint256",
          "name": "",
          "type": "uint256"
        }
      ],
      "name": "collectionIds",
      "outputs": [
        {
          "internalType": "uint256",
          "name": "",
          "type": "uint256"
        }
      ],
      "stateMutability": "view",
      "type": "function"
    },
    {
      "inputs": [
        {
          "internalType": "string",
          "name": "name",
          "type": "string"
        },
        {
          "internalType": "string",
          "name": "symbol",
          "type": "string"
        },
        {
          "internalType": "string",
          "name": "metadata",
          "type": "string"
        }
      ],
      "name": "createCollection",
      "outputs": [],
      "stateMutability": "payable",
      "type": "function"
    },
    {
      "inputs": [
        {
          "internalType": "uint256",
          "name": "cid",
          "type": "uint256"
        },
        {
          "internalType": "string",
          "name": "newHash",
          "type": "string"
        }
      ],
      "name": "editMetaData",
      "outputs": [],
      "stateMutability": "nonpayable",
      "type": "function"
    },
    {
      "inputs": [],
      "name": "getAllCollections",
      "outputs": [
        {
          "components": [
            {
              "internalType": "uint256",
              "name": "cid",
              "type": "uint256"
            },
            {
              "internalType": "address",
              "name": "contractAddress",
              "type": "address"
            },
            {
              "internalType": "string",
              "name": "name",
              "type": "string"
            },
            {
              "internalType": "string",
              "name": "symbol",
              "type": "string"
            },
            {
              "internalType": "string",
              "name": "metadata",
              "type": "string"
            },
            {
              "internalType": "address",
              "name": "owner",
              "type": "address"
            }
          ],
          "internalType": "struct Hub.Collection[]",
          "name": "",
          "type": "tuple[]"
        }
      ],
      "stateMutability": "view",
      "type": "function"
    },
    {
      "inputs": [
        {
          "internalType": "address",
          "name": "nftAddress",
          "type": "address"
        }
      ],
      "name": "getCollectionByAddress",
      "outputs": [
        {
          "components": [
            {
              "internalType": "uint256",
              "name": "cid",
              "type": "uint256"
            },
            {
              "internalType": "address",
              "name": "contractAddress",
              "type": "address"
            },
            {
              "internalType": "string",
              "name": "name",
              "type": "string"
            },
            {
              "internalType": "string",
              "name": "symbol",
              "type": "string"
            },
            {
              "internalType": "string",
              "name": "metadata",
              "type": "string"
            },
            {
              "internalType": "address",
              "name": "owner",
              "type": "address"
            }
          ],
          "internalType": "struct Hub.Collection",
          "name": "",
          "type": "tuple"
        }
      ],
      "stateMutability": "view",
      "type": "function"
    },
    {
      "inputs": [
        {
          "internalType": "uint256",
          "name": "cid",
          "type": "uint256"
        }
      ],
      "name": "getCollectionData",
      "outputs": [
        {
          "components": [
            {
              "internalType": "uint256",
              "name": "cid",
              "type": "uint256"
            },
            {
              "internalType": "address",
              "name": "contractAddress",
              "type": "address"
            },
            {
              "internalType": "string",
              "name": "name",
              "type": "string"
            },
            {
              "internalType": "string",
              "name": "symbol",
              "type": "string"
            },
            {
              "internalType": "string",
              "name": "metadata",
              "type": "string"
            },
            {
              "internalType": "address",
              "name": "owner",
              "type": "address"
            }
          ],
          "internalType": "struct Hub.Collection",
          "name": "",
          "type": "tuple"
        }
      ],
      "stateMutability": "view",
      "type": "function"
    },
    {
      "inputs": [
        {
          "internalType": "address",
          "name": "creator",
          "type": "address"
        }
      ],
      "name": "getCollectionsByOwner",
      "outputs": [
        {
          "components": [
            {
              "internalType": "uint256",
              "name": "cid",
              "type": "uint256"
            },
            {
              "internalType": "address",
              "name": "contractAddress",
              "type": "address"
            },
            {
              "internalType": "string",
              "name": "name",
              "type": "string"
            },
            {
              "internalType": "string",
              "name": "symbol",
              "type": "string"
            },
            {
              "internalType": "string",
              "name": "metadata",
              "type": "string"
            },
            {
              "internalType": "address",
              "name": "owner",
              "type": "address"
            }
          ],
          "internalType": "struct Hub.Collection[]",
          "name": "",
          "type": "tuple[]"
        }
      ],
      "stateMutability": "view",
      "type": "function"
    },
    {
      "inputs": [
        {
          "internalType": "uint256",
          "name": "startIndex",
          "type": "uint256"
        },
        {
          "internalType": "uint256",
          "name": "endIndex",
          "type": "uint256"
        }
      ],
      "name": "getCollectionsPaginated",
      "outputs": [
        {
          "components": [
            {
              "internalType": "uint256",
              "name": "cid",
              "type": "uint256"
            },
            {
              "internalType": "address",
              "name": "contractAddress",
              "type": "address"
            },
            {
              "internalType": "string",
              "name": "name",
              "type": "string"
            },
            {
              "internalType": "string",
              "name": "symbol",
              "type": "string"
            },
            {
              "internalType": "string",
              "name": "metadata",
              "type": "string"
            },
            {
              "internalType": "address",
              "name": "owner",
              "type": "address"
            }
          ],
          "internalType": "struct Hub.Collection[]",
          "name": "",
          "type": "tuple[]"
        }
      ],
      "stateMutability": "view",
      "type": "function"
    },
    {
      "inputs": [],
      "name": "getCreateFee",
      "outputs": [
        {
          "internalType": "uint256",
          "name": "",
          "type": "uint256"
        }
      ],
      "stateMutability": "view",
      "type": "function"
    },
    {
      "inputs": [],
      "name": "getHubChild",
      "outputs": [
        {
          "internalType": "address[]",
          "name": "",
          "type": "address[]"
        }
      ],
      "stateMutability": "view",
      "type": "function"
    },
    {
      "inputs": [
        {
          "internalType": "bytes32",
          "name": "role",
          "type": "bytes32"
        }
      ],
      "name": "getRoleAdmin",
      "outputs": [
        {
          "internalType": "bytes32",
          "name": "",
          "type": "bytes32"
        }
      ],
      "stateMutability": "view",
      "type": "function"
    },
    {
      "inputs": [
        {
          "internalType": "bytes32",
          "name": "role",
          "type": "bytes32"
        },
        {
          "internalType": "address",
          "name": "account",
          "type": "address"
        }
      ],
      "name": "grantRole",
      "outputs": [],
      "stateMutability": "nonpayable",
      "type": "function"
    },
    {
      "inputs": [
        {
          "internalType": "bytes32",
          "name": "role",
          "type": "bytes32"
        },
        {
          "internalType": "address",
          "name": "account",
          "type": "address"
        }
      ],
      "name": "hasRole",
      "outputs": [
        {
          "internalType": "bool",
          "name": "",
          "type": "bool"
        }
      ],
      "stateMutability": "view",
      "type": "function"
    },
    {
      "inputs": [
        {
          "internalType": "address",
          "name": "nftAddress",
          "type": "address"
        },
        {
          "internalType": "string",
          "name": "metadata",
          "type": "string"
        }
      ],
      "name": "listCollection",
      "outputs": [],
      "stateMutability": "payable",
      "type": "function"
    },
    {
      "inputs": [
        {
          "internalType": "address",
          "name": "childAddress",
          "type": "address"
        }
      ],
      "name": "removeHubChild",
      "outputs": [],
      "stateMutability": "nonpayable",
      "type": "function"
    },
    {
      "inputs": [
        {
          "internalType": "address",
          "name": "tokenAddr",
          "type": "address"
        }
      ],
      "name": "removeToken",
      "outputs": [],
      "stateMutability": "nonpayable",
      "type": "function"
    },
    {
      "inputs": [
        {
          "internalType": "address",
          "name": "whitelistAddress",
          "type": "address"
        }
      ],
      "name": "removeWhitelistAddress",
      "outputs": [],
      "stateMutability": "nonpayable",
      "type": "function"
    },
    {
      "inputs": [
        {
          "internalType": "bytes32",
          "name": "role",
          "type": "bytes32"
        },
        {
          "internalType": "address",
          "name": "account",
          "type": "address"
        }
      ],
      "name": "renounceRole",
      "outputs": [],
      "stateMutability": "nonpayable",
      "type": "function"
    },
    {
      "inputs": [
        {
          "internalType": "bytes32",
          "name": "role",
          "type": "bytes32"
        },
        {
          "internalType": "address",
          "name": "account",
          "type": "address"
        }
      ],
      "name": "revokeRole",
      "outputs": [],
      "stateMutability": "nonpayable",
      "type": "function"
    },
    {
      "inputs": [
        {
          "internalType": "uint256",
          "name": "newFee",
          "type": "uint256"
        }
      ],
      "name": "setFee",
      "outputs": [],
      "stateMutability": "nonpayable",
      "type": "function"
    },
    {
      "inputs": [
        {
          "internalType": "uint256",
          "name": "rateFee",
          "type": "uint256"
        }
      ],
      "name": "setRateFee",
      "outputs": [],
      "stateMutability": "nonpayable",
      "type": "function"
    },
    {
      "inputs": [
        {
          "internalType": "bytes4",
          "name": "interfaceId",
          "type": "bytes4"
        }
      ],
      "name": "supportsInterface",
      "outputs": [
        {
          "internalType": "bool",
          "name": "",
          "type": "bool"
        }
      ],
      "stateMutability": "view",
      "type": "function"
    },
    {
      "inputs": [],
      "name": "totalCollections",
      "outputs": [
        {
          "internalType": "uint256",
          "name": "",
          "type": "uint256"
        }
      ],
      "stateMutability": "view",
      "type": "function"
    },
    {
      "inputs": [
        {
          "internalType": "uint256",
          "name": "cid",
          "type": "uint256"
        },
        {
          "internalType": "address",
          "name": "newOwner",
          "type": "address"
        }
      ],
      "name": "transferCollection",
      "outputs": [],
      "stateMutability": "nonpayable",
      "type": "function"
    },
    {
      "inputs": [
        {
          "internalType": "address",
          "name": "to",
          "type": "address"
        },
        {
          "internalType": "address",
          "name": "tokenAddress",
          "type": "address"
        },
        {
          "internalType": "uint256",
          "name": "amount",
          "type": "uint256"
        }
      ],
      "name": "withdrawFee",
      "outputs": [],
      "stateMutability": "nonpayable",
      "type": "function"
    }
  ],
  "bytecode": "0x60806040523480156200001157600080fd5b50604051620061313803806200613183398101604081905262000034916200011e565b6001805560078190556200004a6000336200007d565b620000767f877a78dc988c0ec5f58453b44888a55eb39755c3d5ed8d8ea990912aa3ef29c6336200007d565b5062000138565b6000828152602081815260408083206001600160a01b038516845290915290205460ff166200011a576000828152602081815260408083206001600160a01b03851684529091529020805460ff19166001179055620000d93390565b6001600160a01b0316816001600160a01b0316837f2f8788117e7eff1d82e926ec794901d17c78024a50270940304540a733656f0d60405160405180910390a45b5050565b6000602082840312156200013157600080fd5b5051919050565b615fe980620001486000396000f3fe608060405260043610620002175760003560e01c806384195ec01162000123578063c56325bd11620000ad578063debd22721162000078578063debd22721462000645578063df6f5b20146200066a578063e178d60c146200069e578063ece86c2114620006c3578063f002804a14620006da57600080fd5b8063c56325bd14620005b1578063c6154e5b14620005d6578063d547741f14620005fb578063da4bd505146200062057600080fd5b8063a49a538911620000ee578063a49a5389146200052b578063a966a0df1462000542578063a9b566a31462000567578063b7ecbaae146200058c57600080fd5b806384195ec0146200048f5780638cba9e7614620004b457806391d1485414620004cc578063a217fddf146200051457600080fd5b80634244a6e211620001a55780635fa7b58411620001705780635fa7b584146200041557806361d9db2d146200043a5780636804a958146200045257806369fe0e2d146200046a57600080fd5b80634244a6e2146200038d578063502a676c14620003a45780635254aca914620003bc5780635df44c9214620003e157600080fd5b8063248a9ca311620001e6578063248a9ca314620002d95780632f2ff15d146200031c57806336568abe14620003415780633f9baa57146200036657600080fd5b806301ffc9a7146200021c57806307cb1a6e14620002565780630f15e9be146200028d5780631095b6d714620002b4575b600080fd5b3480156200022957600080fd5b50620002416200023b36600462002ca6565b620006ff565b60405190151581526020015b60405180910390f35b3480156200026357600080fd5b50620002736380ac58cd60e01b81565b6040516001600160e01b031990911681526020016200024d565b3480156200029a57600080fd5b50620002b2620002ac36600462002cd2565b62000737565b005b348015620002c157600080fd5b50620002b2620002d336600462002d02565b620007f0565b348015620002e657600080fd5b506200030d620002f836600462002cd2565b60009081526020819052604090206001015490565b6040519081526020016200024d565b3480156200032957600080fd5b50620002b26200033b36600462002d48565b6200080b565b3480156200034e57600080fd5b50620002b26200036036600462002d48565b62000839565b3480156200037357600080fd5b506200037e620008bf565b6040516200024d919062002d7b565b3480156200039a57600080fd5b506007546200030d565b348015620003b157600080fd5b506200030d60025481565b348015620003c957600080fd5b50620002b2620003db36600462002dca565b620008d2565b348015620003ee57600080fd5b50620004066200040036600462002df9565b6200098b565b6040516200024d919062002ef9565b3480156200042257600080fd5b50620002b26200043436600462002f5f565b62000d1c565b3480156200044757600080fd5b506200030d62000e01565b3480156200045f57600080fd5b506200040662000e0d565b3480156200047757600080fd5b50620002b26200048936600462002cd2565b620010fd565b3480156200049c57600080fd5b50620002b2620004ae36600462002f5f565b62001110565b348015620004c157600080fd5b506200030d60075481565b348015620004d957600080fd5b5062000241620004eb36600462002d48565b6000918252602082815260408084206001600160a01b0393909316845291905290205460ff1690565b3480156200052157600080fd5b506200030d600081565b620002b26200053c36600462002fcb565b6200112a565b3480156200054f57600080fd5b506200030d60008051602062005f9483398151915281565b3480156200057457600080fd5b506200030d6200058636600462002cd2565b6200168e565b3480156200059957600080fd5b50620002b2620005ab36600462002f5f565b620016b0565b348015620005be57600080fd5b50620002b2620005d036600462003026565b6200175b565b348015620005e357600080fd5b50620002b2620005f536600462002f5f565b620018b2565b3480156200060857600080fd5b50620002b26200061a36600462002d48565b620018cc565b3480156200062d57600080fd5b50620002b26200063f36600462002d48565b620018f5565b3480156200065257600080fd5b50620002b26200066436600462002f5f565b62001a0e565b3480156200067757600080fd5b506200068f6200068936600462002cd2565b62001af3565b6040516200024d91906200305b565b348015620006ab57600080fd5b5062000406620006bd36600462002f5f565b62001d20565b620002b2620006d436600462003070565b62002088565b348015620006e757600080fd5b506200068f620006f936600462002f5f565b620023a3565b60006001600160e01b03198216637965db0b60e01b14806200073157506301ffc9a760e01b6001600160e01b03198316145b92915050565b6000620007448162002405565b600062000752600562002414565b6002849055905060005b81811015620007ea57620007726005826200241f565b6001600160a01b0316630f15e9be856040518263ffffffff1660e01b8152600401620007a091815260200190565b600060405180830381600087803b158015620007bb57600080fd5b505af1158015620007d0573d6000803e3d6000fd5b505050508080620007e1906200312a565b9150506200075c565b50505050565b6000620007fd8162002405565b620007ea3085858562002434565b600082815260208190526040902060010154620008288162002405565b62000834838362002586565b505050565b6001600160a01b0381163314620008af5760405162461bcd60e51b815260206004820152602f60248201527f416363657373436f6e74726f6c3a2063616e206f6e6c792072656e6f756e636560448201526e103937b632b9903337b91039b2b63360891b60648201526084015b60405180910390fd5b620008bb828262002626565b5050565b6060620008cd6005620026a6565b905090565b6000620008df8162002405565b6000620008ed600562002414565b905060005b818110156200098457620009086005826200241f565b604051635254aca960e01b81526001600160a01b038781166004830152602482018790529190911690635254aca990604401600060405180830381600087803b1580156200095557600080fd5b505af11580156200096a573d6000803e3d6000fd5b5050505080806200097b906200312a565b915050620008f2565b5050505050565b60608282101562000a055760405162461bcd60e51b815260206004820152603a60248201527f456e6420496e646578206e6565647320746f206265206772656174657220746860448201527f616e206f7220657175616c20746f20737461727420496e6465780000000000006064820152608401620008a6565b60045482111562000a165760045491505b600062000a24848462003146565b62000a319060016200315c565b905060008167ffffffffffffffff81111562000a515762000a5162003172565b60405190808252806020026020018201604052801562000a8e57816020015b62000a7a62002c50565b81526020019060019003908162000a705790505b509050845b84811162000d1357600860006004838154811062000ab55762000ab562003188565b600091825260208083209091015483528281019390935260409182019020815160c0810183528154815260018201546001600160a01b031693810193909352600281018054919284019162000b0a906200319e565b80601f016020809104026020016040519081016040528092919081815260200182805462000b38906200319e565b801562000b895780601f1062000b5d5761010080835404028352916020019162000b89565b820191906000526020600020905b81548152906001019060200180831162000b6b57829003601f168201915b5050505050815260200160038201805462000ba4906200319e565b80601f016020809104026020016040519081016040528092919081815260200182805462000bd2906200319e565b801562000c235780601f1062000bf75761010080835404028352916020019162000c23565b820191906000526020600020905b81548152906001019060200180831162000c0557829003601f168201915b5050505050815260200160048201805462000c3e906200319e565b80601f016020809104026020016040519081016040528092919081815260200182805462000c6c906200319e565b801562000cbd5780601f1062000c915761010080835404028352916020019162000cbd565b820191906000526020600020905b81548152906001019060200180831162000c9f57829003601f168201915b5050509183525050600591909101546001600160a01b0316602090910152825183908390811062000cf25762000cf262003188565b6020026020010181905250808062000d0a906200312a565b91505062000a93565b50949350505050565b600062000d298162002405565b600062000d37600562002414565b905060005b8181101562000dc75762000d526005826200241f565b6040516317e9ed6160e21b81526001600160a01b0386811660048301529190911690635fa7b58490602401600060405180830381600087803b15801562000d9857600080fd5b505af115801562000dad573d6000803e3d6000fd5b50505050808062000dbe906200312a565b91505062000d3c565b506040516001600160a01b038416907f4eb129c82dcd3eedb52df2b0e6fb4cfa41ac64ee9d63ff081acbb1877e85d79b90600090a2505050565b6000620008cd60035490565b60045460609060009067ffffffffffffffff81111562000e315762000e3162003172565b60405190808252806020026020018201604052801562000e6e57816020015b62000e5a62002c50565b81526020019060019003908162000e505790505b50905060005b600454811015620010f757600860006004838154811062000e995762000e9962003188565b600091825260208083209091015483528281019390935260409182019020815160c0810183528154815260018201546001600160a01b031693810193909352600281018054919284019162000eee906200319e565b80601f016020809104026020016040519081016040528092919081815260200182805462000f1c906200319e565b801562000f6d5780601f1062000f415761010080835404028352916020019162000f6d565b820191906000526020600020905b81548152906001019060200180831162000f4f57829003601f168201915b5050505050815260200160038201805462000f88906200319e565b80601f016020809104026020016040519081016040528092919081815260200182805462000fb6906200319e565b8015620010075780601f1062000fdb5761010080835404028352916020019162001007565b820191906000526020600020905b81548152906001019060200180831162000fe957829003601f168201915b5050505050815260200160048201805462001022906200319e565b80601f016020809104026020016040519081016040528092919081815260200182805462001050906200319e565b8015620010a15780601f106200107557610100808354040283529160200191620010a1565b820191906000526020600020905b8154815290600101906020018083116200108357829003601f168201915b5050509183525050600591909101546001600160a01b03166020909101528251839083908110620010d657620010d662003188565b60200260200101819052508080620010ee906200312a565b91505062000e74565b50919050565b60006200110a8162002405565b50600755565b60006200111d8162002405565b62000834600583620026b5565b60008051602062005f94833981519152620011458162002405565b600260015403620011995760405162461bcd60e51b815260206004820152601f60248201527f5265656e7472616e637947756172643a207265656e7472616e742063616c6c006044820152606401620008a6565b60026001556007543414620011c25760405162461bcd60e51b8152600401620008a690620031d4565b620011d5846380ac58cd60e01b620026cc565b620012235760405162461bcd60e51b815260206004820152601b60248201527f436f6e7472616374206e6565647320746f2062652045524337323100000000006044820152606401620008a6565b6000849050336001600160a01b0316816001600160a01b0316638da5cb5b6040518163ffffffff1660e01b8152600401602060405180830381865afa15801562001271573d6000803e3d6000fd5b505050506040513d601f19601f8201168201806040525081019062001297919062003240565b6001600160a01b031614620012ef5760405162461bcd60e51b815260206004820152601860248201527f43616c6c6572206d757374206265204e4654206f776e657200000000000000006044820152606401620008a6565b6001600160a01b038516600090815260096020526040902054156200134c5760405162461bcd60e51b815260206004820152601260248201527110dbdb9d1c9858dd081a5cc81b1a5cdd195960721b6044820152606401620008a6565b60006200135860035490565b90508015620013de576000805260086020527f5eff886ea0ce6ca488a3d6e336d6c0f75f46d19b42c06ce5ee98e42c96d256c8546001600160a01b0390811690871603620013de5760405162461bcd60e51b815260206004820152601260248201527110dbdb9d1c9858dd081a5cc81b1a5cdd195960721b6044820152606401620008a6565b620013ed600380546001019055565b8060096000886001600160a01b03166001600160a01b03168152602001908152602001600020819055506040518060c00160405280828152602001876001600160a01b03168152602001836001600160a01b03166306fdde036040518163ffffffff1660e01b8152600401600060405180830381865afa15801562001476573d6000803e3d6000fd5b505050506040513d6000823e601f3d908101601f19168201604052620014a0919081019062003260565b8152602001836001600160a01b03166395d89b416040518163ffffffff1660e01b8152600401600060405180830381865afa158015620014e4573d6000803e3d6000fd5b505050506040513d6000823e601f3d908101601f191682016040526200150e919081019062003260565b815260200186868080601f0160208091040260200160405190810160405280939291908181526020018383808284376000920182905250938552505033602093840152508381526008825260409081902083518155918301516001830180546001600160a01b0319166001600160a01b0390921691909117905582015160028201906200159c90826200336b565b5060608201516003820190620015b390826200336b565b5060808201516004820190620015ca90826200336b565b5060a09190910151600590910180546001600160a01b0319166001600160a01b03909216919091179055600480546001810182556000919091527f8a35acfbc15ff81a39ae7d344fd709f28e8600b4aa8c65c6b64bfe7fe36bd19b018190556040516200163b908690869062003438565b604051908190038120828252906001600160a01b0388169033907ffd9fdb42246c073f4d07c7ec07b5e0fb9cf121eff741d4d2554e6e77a24871209060200160405180910390a450506001805550505050565b600481815481106200169f57600080fd5b600091825260209091200154905081565b6000620016bd8162002405565b6000620016cb600562002414565b905060005b81811015620007ea57620016e66005826200241f565b604051635bf65d5760e11b81526001600160a01b038681166004830152919091169063b7ecbaae90602401600060405180830381600087803b1580156200172c57600080fd5b505af115801562001741573d6000803e3d6000fd5b50505050808062001752906200312a565b915050620016d0565b60008051602062005f94833981519152620017768162002405565b60008481526008602052604090206005015484906001600160a01b03163314620017e35760405162461bcd60e51b815260206004820152601c60248201527f4f6e6c79206f776e65722063616e2065646974206d65746164617461000000006044820152606401620008a6565b600260015403620018375760405162461bcd60e51b815260206004820152601f60248201527f5265656e7472616e637947756172643a207265656e7472616e742063616c6c006044820152606401620008a6565b600260015560008581526008602052604090206004016200185a84868362003448565b5083836040516200186d92919062003438565b604051908190038120868252907f0455f3c11be6bd04ad201be113904d21960743bdad47547867a5316187315d5c9060200160405180910390a2505060018055505050565b6000620018bf8162002405565b62000834600583620026ed565b600082815260208190526040902060010154620018e98162002405565b62000834838362002626565b60008051602062005f94833981519152620019108162002405565b60008381526008602052604090206005015483906001600160a01b031633146200197d5760405162461bcd60e51b815260206004820152601c60248201527f4f6e6c79206f776e65722063616e2065646974206d65746164617461000000006044820152606401620008a6565b600260015403620019d15760405162461bcd60e51b815260206004820152601f60248201527f5265656e7472616e637947756172643a207265656e7472616e742063616c6c006044820152606401620008a6565b50506002600190815560009283526008602052604090922060050180546001600160a01b0319166001600160a01b03929092169190911790558055565b600062001a1b8162002405565b600062001a29600562002414565b905060005b8181101562001ab95762001a446005826200241f565b604051636f5e913960e11b81526001600160a01b038681166004830152919091169063debd227290602401600060405180830381600087803b15801562001a8a57600080fd5b505af115801562001a9f573d6000803e3d6000fd5b50505050808062001ab0906200312a565b91505062001a2e565b506040516001600160a01b038416907fe473c74f34be27c1464d6624f14a0d7fd4e301cbfa29c3eba425d378c8a7ebe090600090a2505050565b62001afd62002c50565b600082815260086020908152604091829020825160c0810184528154815260018201546001600160a01b031692810192909252600281018054929391929184019162001b49906200319e565b80601f016020809104026020016040519081016040528092919081815260200182805462001b77906200319e565b801562001bc85780601f1062001b9c5761010080835404028352916020019162001bc8565b820191906000526020600020905b81548152906001019060200180831162001baa57829003601f168201915b5050505050815260200160038201805462001be3906200319e565b80601f016020809104026020016040519081016040528092919081815260200182805462001c11906200319e565b801562001c625780601f1062001c365761010080835404028352916020019162001c62565b820191906000526020600020905b81548152906001019060200180831162001c4457829003601f168201915b5050505050815260200160048201805462001c7d906200319e565b80601f016020809104026020016040519081016040528092919081815260200182805462001cab906200319e565b801562001cfc5780601f1062001cd05761010080835404028352916020019162001cfc565b820191906000526020600020905b81548152906001019060200180831162001cde57829003601f168201915b5050509183525050600591909101546001600160a01b031660209091015292915050565b6060600062001d2e60035490565b90506000805b8281101562001d87576000818152600860205260409020600501546001600160a01b0380871691160362001d72578162001d6e816200312a565b9250505b8062001d7e816200312a565b91505062001d34565b5060008167ffffffffffffffff81111562001da65762001da662003172565b60405190808252806020026020018201604052801562001de357816020015b62001dcf62002c50565b81526020019060019003908162001dc55790505b5090506000805b848110156200207d576000818152600860205260409020600501546001600160a01b038089169116036200206857600081815260086020908152604091829020825160c0810184528154815260018201546001600160a01b031692810192909252600281018054929391929184019162001e64906200319e565b80601f016020809104026020016040519081016040528092919081815260200182805462001e92906200319e565b801562001ee35780601f1062001eb75761010080835404028352916020019162001ee3565b820191906000526020600020905b81548152906001019060200180831162001ec557829003601f168201915b5050505050815260200160038201805462001efe906200319e565b80601f016020809104026020016040519081016040528092919081815260200182805462001f2c906200319e565b801562001f7d5780601f1062001f515761010080835404028352916020019162001f7d565b820191906000526020600020905b81548152906001019060200180831162001f5f57829003601f168201915b5050505050815260200160048201805462001f98906200319e565b80601f016020809104026020016040519081016040528092919081815260200182805462001fc6906200319e565b8015620020175780601f1062001feb5761010080835404028352916020019162002017565b820191906000526020600020905b81548152906001019060200180831162001ff957829003601f168201915b5050509183525050600591909101546001600160a01b031660209091015283518490849081106200204c576200204c62003188565b6020026020010181905250818062002064906200312a565b9250505b8062002074816200312a565b91505062001dea565b509095945050505050565b60008051602062005f94833981519152620020a38162002405565b600260015403620020f75760405162461bcd60e51b815260206004820152601f60248201527f5265656e7472616e637947756172643a207265656e7472616e742063616c6c006044820152606401620008a6565b60026001556007543414620021205760405162461bcd60e51b8152600401620008a690620031d4565b60006200212c60035490565b90506200213d600380546001019055565b60008888888833604051620021529062002c98565b620021629594939291906200353e565b604051809103906000f0801580156200217f573d6000803e3d6000fd5b5090506040518060c00160405280838152602001826001600160a01b031681526020018a8a8080601f016020809104026020016040519081016040528093929190818152602001838380828437600092019190915250505090825250604080516020601f8b0181900481028201810190925289815291810191908a908a9081908401838280828437600092019190915250505090825250604080516020601f8901819004810282018101909252878152918101919088908890819084018382808284376000920182905250938552505033602093840152508481526008825260409081902083518155918301516001830180546001600160a01b0319166001600160a01b039092169190911790558201516002820190620022a190826200336b565b5060608201516003820190620022b890826200336b565b5060808201516004820190620022cf90826200336b565b5060a09190910151600590910180546001600160a01b0319166001600160a01b0392831617905581166000908152600960205260408082208490556004805460018101825592527f8a35acfbc15ff81a39ae7d344fd709f28e8600b4aa8c65c6b64bfe7fe36bd19b909101839055516200234d908690869062003438565b604051908190038120838252906001600160a01b0383169033907f302eb65a1fbff180da0f4fa83befd29ff62c2bff6765fcc04e6a5c2ffade88cd9060200160405180910390a450506001805550505050505050565b620023ad62002c50565b6001600160a01b0380831660009081526009602090815260408083205483526008825291829020825160c08101845281548152600182015490941691840191909152600281018054919284019162001b49906200319e565b62002411813362002704565b50565b600062000731825490565b60006200242d83836200278b565b9392505050565b6001600160a01b03821662002481576040516001600160a01b0384169082156108fc029083906000818181858888f193505050501580156200247a573d6000803e3d6000fd5b50620007ea565b6001600160a01b038416301462002510576040516323b872dd60e01b81526001600160a01b0385811660048301528481166024830152604482018390528316906323b872dd906064016020604051808303816000875af1158015620024ea573d6000803e3d6000fd5b505050506040513d601f19601f820116820180604052508101906200247a919062003585565b60405163a9059cbb60e01b81526001600160a01b0384811660048301526024820183905283169063a9059cbb906044016020604051808303816000875af115801562002560573d6000803e3d6000fd5b505050506040513d601f19601f8201168201806040525081019062000984919062003585565b6000828152602081815260408083206001600160a01b038516845290915290205460ff16620008bb576000828152602081815260408083206001600160a01b03851684529091529020805460ff19166001179055620025e23390565b6001600160a01b0316816001600160a01b0316837f2f8788117e7eff1d82e926ec794901d17c78024a50270940304540a733656f0d60405160405180910390a45050565b6000828152602081815260408083206001600160a01b038516845290915290205460ff1615620008bb576000828152602081815260408083206001600160a01b0385168085529252808320805460ff1916905551339285917ff6391f5c32d9c69d2a47ea670b442974b53935d1edc7fd64eb21e047a839171b9190a45050565b606060006200242d83620027b8565b60006200242d836001600160a01b03841662002816565b6000620026d9836200291a565b80156200242d57506200242d838362002952565b60006200242d836001600160a01b03841662002a44565b6000828152602081815260408083206001600160a01b038516845290915290205460ff16620008bb5762002743816001600160a01b0316601462002a96565b6200275083602062002a96565b60405160200162002763929190620035a9565b60408051601f198184030181529082905262461bcd60e51b8252620008a69160040162003622565b6000826000018281548110620027a557620027a562003188565b9060005260206000200154905092915050565b6060816000018054806020026020016040519081016040528092919081815260200182805480156200280a57602002820191906000526020600020905b815481526020019060010190808311620027f5575b50505050509050919050565b600081815260018301602052604081205480156200290f5760006200283d60018362003146565b8554909150600090620028539060019062003146565b9050818114620028bf57600086600001828154811062002877576200287762003188565b90600052602060002001549050808760000184815481106200289d576200289d62003188565b6000918252602080832090910192909255918252600188019052604090208390555b8554869080620028d357620028d362003637565b60019003818190600052602060002001600090559055856001016000868152602001908152602001600020600090556001935050505062000731565b600091505062000731565b60006200292f826301ffc9a760e01b62002952565b80156200073157506200294b826001600160e01b031962002952565b1592915050565b604080516001600160e01b0319831660248083019190915282518083039091018152604490910182526020810180516001600160e01b03166301ffc9a760e01b179052905160009190829081906001600160a01b0387169061753090620029bb9086906200364d565b6000604051808303818686fa925050503d8060008114620029f9576040519150601f19603f3d011682016040523d82523d6000602084013e620029fe565b606091505b509150915060208151101562002a1b576000935050505062000731565b81801562002a3a57508080602001905181019062002a3a919062003585565b9695505050505050565b600081815260018301602052604081205462002a8d5750815460018181018455600084815260208082209093018490558454848252828601909352604090209190915562000731565b50600062000731565b6060600062002aa78360026200366b565b62002ab49060026200315c565b67ffffffffffffffff81111562002acf5762002acf62003172565b6040519080825280601f01601f19166020018201604052801562002afa576020820181803683370190505b509050600360fc1b8160008151811062002b185762002b1862003188565b60200101906001600160f81b031916908160001a905350600f60fb1b8160018151811062002b4a5762002b4a62003188565b60200101906001600160f81b031916908160001a905350600062002b708460026200366b565b62002b7d9060016200315c565b90505b600181111562002bff576f181899199a1a9b1b9c1cb0b131b232b360811b85600f166010811062002bb55762002bb562003188565b1a60f81b82828151811062002bce5762002bce62003188565b60200101906001600160f81b031916908160001a90535060049490941c9362002bf78162003685565b905062002b80565b5083156200242d5760405162461bcd60e51b815260206004820181905260248201527f537472696e67733a20686578206c656e67746820696e73756666696369656e746044820152606401620008a6565b6040518060c001604052806000815260200160006001600160a01b0316815260200160608152602001606081526020016060815260200160006001600160a01b031681525090565b6128f480620036a083390190565b60006020828403121562002cb957600080fd5b81356001600160e01b0319811681146200242d57600080fd5b60006020828403121562002ce557600080fd5b5035919050565b6001600160a01b03811681146200241157600080fd5b60008060006060848603121562002d1857600080fd5b833562002d258162002cec565b9250602084013562002d378162002cec565b929592945050506040919091013590565b6000806040838503121562002d5c57600080fd5b82359150602083013562002d708162002cec565b809150509250929050565b6020808252825182820181905260009190848201906040850190845b8181101562002dbe5783516001600160a01b03168352928401929184019160010162002d97565b50909695505050505050565b6000806040838503121562002dde57600080fd5b823562002deb8162002cec565b946020939093013593505050565b6000806040838503121562002e0d57600080fd5b50508035926020909101359150565b60005b8381101562002e3957818101518382015260200162002e1f565b50506000910152565b6000815180845262002e5c81602086016020860162002e1c565b601f01601f19169290920160200192915050565b80518252600060208201516001600160a01b0380821660208601526040840151915060c0604086015262002ea860c086018362002e42565b91506060840151858303606087015262002ec3838262002e42565b9250506080840151858303608087015262002edf838262002e42565b9250508060a08501511660a0860152508091505092915050565b6000602080830181845280855180835260408601915060408160051b870101925083870160005b8281101562002f5257603f1988860301845262002f3f85835162002e70565b9450928501929085019060010162002f20565b5092979650505050505050565b60006020828403121562002f7257600080fd5b81356200242d8162002cec565b60008083601f84011262002f9257600080fd5b50813567ffffffffffffffff81111562002fab57600080fd5b60208301915083602082850101111562002fc457600080fd5b9250929050565b60008060006040848603121562002fe157600080fd5b833562002fee8162002cec565b9250602084013567ffffffffffffffff8111156200300b57600080fd5b620030198682870162002f7f565b9497909650939450505050565b6000806000604084860312156200303c57600080fd5b83359250602084013567ffffffffffffffff8111156200300b57600080fd5b6020815260006200242d602083018462002e70565b600080600080600080606087890312156200308a57600080fd5b863567ffffffffffffffff80821115620030a357600080fd5b620030b18a838b0162002f7f565b90985096506020890135915080821115620030cb57600080fd5b620030d98a838b0162002f7f565b90965094506040890135915080821115620030f357600080fd5b506200310289828a0162002f7f565b979a9699509497509295939492505050565b634e487b7160e01b600052601160045260246000fd5b6000600182016200313f576200313f62003114565b5060010190565b8181038181111562000731576200073162003114565b8082018082111562000731576200073162003114565b634e487b7160e01b600052604160045260246000fd5b634e487b7160e01b600052603260045260246000fd5b600181811c90821680620031b357607f821691505b602082108103620010f757634e487b7160e01b600052602260045260246000fd5b60208082526046908201527f4e656564206d6f72652066656520666f722063726561746520636f6c6c65637460408201527f696f6e2028696e636c7564652073746f726167652062616e6e65722c206c6f676060820152656f2c2e2e2e2960d01b608082015260a00190565b6000602082840312156200325357600080fd5b81516200242d8162002cec565b6000602082840312156200327357600080fd5b815167ffffffffffffffff808211156200328c57600080fd5b818401915084601f830112620032a157600080fd5b815181811115620032b657620032b662003172565b604051601f8201601f19908116603f01168101908382118183101715620032e157620032e162003172565b81604052828152876020848701011115620032fb57600080fd5b6200330e83602083016020880162002e1c565b979650505050505050565b601f8211156200083457600081815260208120601f850160051c81016020861015620033425750805b601f850160051c820191505b8181101562003363578281556001016200334e565b505050505050565b815167ffffffffffffffff81111562003388576200338862003172565b620033a0816200339984546200319e565b8462003319565b602080601f831160018114620033d85760008415620033bf5750858301515b600019600386901b1c1916600185901b17855562003363565b600085815260208120601f198616915b828110156200340957888601518255948401946001909101908401620033e8565b5085821015620034285787850151600019600388901b60f8161c191681555b5050505050600190811b01905550565b8183823760009101908152919050565b67ffffffffffffffff83111562003463576200346362003172565b6200347b836200347483546200319e565b8362003319565b6000601f841160018114620034b25760008515620034995750838201355b600019600387901b1c1916600186901b17835562000984565b600083815260209020601f19861690835b82811015620034e55786850135825560209485019460019092019101620034c3565b5086821015620035035760001960f88860031b161c19848701351681555b505060018560011b0183555050505050565b81835281816020850137506000828201602090810191909152601f909101601f19169091010190565b6060815260006200355460608301878962003515565b82810360208401526200356981868862003515565b9150506001600160a01b03831660408301529695505050505050565b6000602082840312156200359857600080fd5b815180151581146200242d57600080fd5b7f416363657373436f6e74726f6c3a206163636f756e7420000000000000000000815260008351620035e381601785016020880162002e1c565b7001034b99036b4b9b9b4b733903937b6329607d1b60179184019182015283516200361681602884016020880162002e1c565b01602801949350505050565b6020815260006200242d602083018462002e42565b634e487b7160e01b600052603160045260246000fd5b600082516200366181846020870162002e1c565b9190910192915050565b808202811582820484141762000731576200073162003114565b60008162003697576200369762003114565b50600019019056fe60806040523480156200001157600080fd5b50604051620028f4380380620028f483398101604081905262000034916200019f565b82826002620000448382620002bb565b506003620000538282620002bb565b505050620000706200006a6200008460201b60201c565b62000088565b6200007b8162000088565b50505062000387565b3390565b600d80546001600160a01b038381166001600160a01b0319831681179093556040519116919082907f8be0079c531659141344cd1fd0a4f28419497f9722a3daafe3b4186f6b6457e090600090a35050565b634e487b7160e01b600052604160045260246000fd5b600082601f8301126200010257600080fd5b81516001600160401b03808211156200011f576200011f620000da565b604051601f8301601f19908116603f011681019082821181831017156200014a576200014a620000da565b816040528381526020925086838588010111156200016757600080fd5b600091505b838210156200018b57858201830151818301840152908201906200016c565b600093810190920192909252949350505050565b600080600060608486031215620001b557600080fd5b83516001600160401b0380821115620001cd57600080fd5b620001db87838801620000f0565b94506020860151915080821115620001f257600080fd5b506200020186828701620000f0565b604086015190935090506001600160a01b03811681146200022157600080fd5b809150509250925092565b600181811c908216806200024157607f821691505b6020821081036200026257634e487b7160e01b600052602260045260246000fd5b50919050565b601f821115620002b657600081815260208120601f850160051c81016020861015620002915750805b601f850160051c820191505b81811015620002b2578281556001016200029d565b5050505b505050565b81516001600160401b03811115620002d757620002d7620000da565b620002ef81620002e884546200022c565b8462000268565b602080601f8311600181146200032757600084156200030e5750858301515b600019600386901b1c1916600185901b178555620002b2565b600085815260208120601f198616915b82811015620003585788860151825594840194600190910190840162000337565b5085821015620003775787850151600019600388901b60f8161c191681555b5050505050600190811b01905550565b61255d80620003976000396000f3fe608060405234801561001057600080fd5b50600436106101a35760003560e01c80636352211e116100ee578063a22cb46511610097578063c87b56dd11610071578063c87b56dd146103a3578063e985e9c5146103b6578063eaf05b16146103f2578063f2fde38b1461040557600080fd5b8063a22cb4651461036a578063b88d4fde1461037d578063c2f1f14a1461039057600080fd5b80638da5cb5b116100c85780638da5cb5b146103095780638fc88c481461031a57806395d89b411461036257600080fd5b80636352211e146102db57806370a08231146102ee578063715018a61461030157600080fd5b806323b872dd1161015057806342842e0e1161012a57806342842e0e146102a257806342966c68146102b55780634f6ccce7146102c857600080fd5b806323b872dd1461024a5780632a55205a1461025d5780632f745c591461028f57600080fd5b8063095ea7b311610181578063095ea7b31461021057806318160ddd146102255780631b2a61b71461023757600080fd5b806301ffc9a7146101a857806306fdde03146101d0578063081812fc146101e5575b600080fd5b6101bb6101b6366004611e58565b610418565b60405190151581526020015b60405180910390f35b6101d8610443565b6040516101c79190611ec5565b6101f86101f3366004611ed8565b6104d5565b6040516001600160a01b0390911681526020016101c7565b61022361021e366004611f08565b61056f565b005b600a545b6040519081526020016101c7565b610223610245366004611fd5565b610684565b610223610258366004612047565b61071e565b61027061026b366004612083565b610750565b604080516001600160a01b0390931683526020830191909152016101c7565b61022961029d366004611f08565b6107fc565b6102236102b0366004612047565b610892565b6102236102c3366004611ed8565b6108ad565b6102296102d6366004611ed8565b610927565b6101f86102e9366004611ed8565b6109ba565b6102296102fc3660046120a5565b610a31565b610223610ab8565b600d546001600160a01b03166101f8565b61034a610328366004611ed8565b6000908152600f6020526040902054600160a01b90046001600160601b031690565b6040516001600160601b0390911681526020016101c7565b6101d8610b1e565b6102236103783660046120c0565b610b2d565b61022361038b3660046120fc565b610b3c565b6101f861039e366004611ed8565b610b6e565b6101d86103b1366004611ed8565b610bbe565b6101bb6103c4366004612178565b6001600160a01b03918216600090815260076020908152604080832093909416825291909152205460ff1690565b6102236104003660046121ab565b610bc9565b6102236104133660046120a5565b610ca7565b60006001600160e01b031982166329f2498560e21b148061043d575061043d82610d6f565b92915050565b606060028054610452906121de565b80601f016020809104026020016040519081016040528092919081815260200182805461047e906121de565b80156104cb5780601f106104a0576101008083540402835291602001916104cb565b820191906000526020600020905b8154815290600101906020018083116104ae57829003601f168201915b5050505050905090565b6000818152600460205260408120546001600160a01b03166105535760405162461bcd60e51b815260206004820152602c60248201527f4552433732313a20617070726f76656420717565727920666f72206e6f6e657860448201526b34b9ba32b73a103a37b5b2b760a11b60648201526084015b60405180910390fd5b506000908152600660205260409020546001600160a01b031690565b600061057a826109ba565b9050806001600160a01b0316836001600160a01b0316036105e75760405162461bcd60e51b815260206004820152602160248201527f4552433732313a20617070726f76616c20746f2063757272656e74206f776e656044820152603960f91b606482015260840161054a565b336001600160a01b0382161480610603575061060381336103c4565b6106755760405162461bcd60e51b815260206004820152603860248201527f4552433732313a20617070726f76652063616c6c6572206973206e6f74206f7760448201527f6e6572206e6f7220617070726f76656420666f7220616c6c0000000000000000606482015260840161054a565b61067f8383610d7a565b505050565b600d546001600160a01b031633146106de5760405162461bcd60e51b815260206004820181905260248201527f4f776e61626c653a2063616c6c6572206973206e6f7420746865206f776e6572604482015260640161054a565b60006106e9600e5490565b90506106f9600e80546001019055565b6107038482610de8565b61070d8184610e02565b610718818584610e95565b50505050565b610729335b82610fa3565b6107455760405162461bcd60e51b815260040161054a90612218565b61067f83838361109a565b60008281526001602090815260408083208151808301909252546001600160a01b038116808352600160a01b9091046001600160601b03169282019290925282916107c55750604080518082019091526000546001600160a01b0381168252600160a01b90046001600160601b031660208201525b60208101516000906107d0906107e4906001600160601b03168761227f565b6107ee91906122ac565b915196919550909350505050565b600061080783610a31565b82106108695760405162461bcd60e51b815260206004820152602b60248201527f455243373231456e756d657261626c653a206f776e657220696e646578206f7560448201526a74206f6620626f756e647360a81b606482015260840161054a565b506001600160a01b03919091166000908152600860209081526040808320938352929052205490565b61067f83838360405180602001604052806000815250610b3c565b6108b633610723565b61091b5760405162461bcd60e51b815260206004820152603060248201527f4552433732314275726e61626c653a2063616c6c6572206973206e6f74206f7760448201526f1b995c881b9bdc88185c1c1c9bdd995960821b606482015260840161054a565b61092481611241565b50565b6000610932600a5490565b82106109955760405162461bcd60e51b815260206004820152602c60248201527f455243373231456e756d657261626c653a20676c6f62616c20696e646578206f60448201526b7574206f6620626f756e647360a01b606482015260840161054a565b600a82815481106109a8576109a86122c0565b90600052602060002001549050919050565b6000818152600460205260408120546001600160a01b03168061043d5760405162461bcd60e51b815260206004820152602960248201527f4552433732313a206f776e657220717565727920666f72206e6f6e657869737460448201526832b73a103a37b5b2b760b91b606482015260840161054a565b60006001600160a01b038216610a9c5760405162461bcd60e51b815260206004820152602a60248201527f4552433732313a2062616c616e636520717565727920666f7220746865207a65604482015269726f206164647265737360b01b606482015260840161054a565b506001600160a01b031660009081526005602052604090205490565b600d546001600160a01b03163314610b125760405162461bcd60e51b815260206004820181905260248201527f4f776e61626c653a2063616c6c6572206973206e6f7420746865206f776e6572604482015260640161054a565b610b1c600061124a565b565b606060038054610452906121de565b610b3833838361129c565b5050565b610b463383610fa3565b610b625760405162461bcd60e51b815260040161054a90612218565b6107188484848461136b565b6000818152600f602052604081205442600160a01b9091046001600160601b031610610bb057506000908152600f60205260409020546001600160a01b031690565b61043d826109ba565b919050565b606061043d8261139e565b610bd33384610fa3565b610c3a5760405162461bcd60e51b815260206004820152603260248201527f455243343930373a207472616e736665722063616c6c6572206973206e6f74206044820152711bdddb995c881b9bdc88185c1c1c9bdd995960721b606482015260840161054a565b6000838152600f60209081526040918290206001600160601b038416600160a01b81026001600160a01b0387169081178355935190815290929186917ff3eadda1a229156f3f0f663b8e3b1f2409cb8d447391afe7a1221b52401529ae910160405180910390a350505050565b600d546001600160a01b03163314610d015760405162461bcd60e51b815260206004820181905260248201527f4f776e61626c653a2063616c6c6572206973206e6f7420746865206f776e6572604482015260640161054a565b6001600160a01b038116610d665760405162461bcd60e51b815260206004820152602660248201527f4f776e61626c653a206e6577206f776e657220697320746865207a65726f206160448201526564647265737360d01b606482015260840161054a565b6109248161124a565b600061043d8261151c565b600081815260066020526040902080546001600160a01b0319166001600160a01b0384169081179091558190610daf826109ba565b6001600160a01b03167f8c5be1e5ebec7d5bd14f71427d1e84f3dd0314c0f7b2291e5b200ac8c7c3b92560405160405180910390a45050565b610b38828260405180602001604052806000815250611541565b6000828152600460205260409020546001600160a01b0316610e7d5760405162461bcd60e51b815260206004820152602e60248201527f45524337323155524953746f726167653a2055524920736574206f66206e6f6e60448201526d32bc34b9ba32b73a103a37b5b2b760911b606482015260840161054a565b6000828152600c6020526040902061067f8282612324565b6107d06001600160601b0382161115610f035760405162461bcd60e51b815260206004820152602a60248201527f455243323938313a20726f79616c7479206665652077696c6c206578636565646044820152692073616c65507269636560b01b606482015260840161054a565b6001600160a01b038216610f595760405162461bcd60e51b815260206004820152601b60248201527f455243323938313a20496e76616c696420706172616d65746572730000000000604482015260640161054a565b6040805180820182526001600160a01b0393841681526001600160601b0392831660208083019182526000968752600190529190942093519051909116600160a01b029116179055565b6000818152600460205260408120546001600160a01b031661101c5760405162461bcd60e51b815260206004820152602c60248201527f4552433732313a206f70657261746f7220717565727920666f72206e6f6e657860448201526b34b9ba32b73a103a37b5b2b760a11b606482015260840161054a565b6000611027836109ba565b9050806001600160a01b0316846001600160a01b0316148061106e57506001600160a01b0380821660009081526007602090815260408083209388168352929052205460ff165b806110925750836001600160a01b0316611087846104d5565b6001600160a01b0316145b949350505050565b826001600160a01b03166110ad826109ba565b6001600160a01b0316146111115760405162461bcd60e51b815260206004820152602560248201527f4552433732313a207472616e736665722066726f6d20696e636f72726563742060448201526437bbb732b960d91b606482015260840161054a565b6001600160a01b0382166111735760405162461bcd60e51b8152602060048201526024808201527f4552433732313a207472616e7366657220746f20746865207a65726f206164646044820152637265737360e01b606482015260840161054a565b61117e838383611574565b611189600082610d7a565b6001600160a01b03831660009081526005602052604081208054600192906111b29084906123e4565b90915550506001600160a01b03821660009081526005602052604081208054600192906111e09084906123f7565b909155505060008181526004602052604080822080546001600160a01b0319166001600160a01b0386811691821790925591518493918716917fddf252ad1be2c89b69c2b068fc378daa952ba7f163c4a11628f55a4df523b3ef91a4505050565b610924816115fe565b600d80546001600160a01b038381166001600160a01b0319831681179093556040519116919082907f8be0079c531659141344cd1fd0a4f28419497f9722a3daafe3b4186f6b6457e090600090a35050565b816001600160a01b0316836001600160a01b0316036112fd5760405162461bcd60e51b815260206004820152601960248201527f4552433732313a20617070726f766520746f2063616c6c657200000000000000604482015260640161054a565b6001600160a01b03838116600081815260076020908152604080832094871680845294825291829020805460ff191686151590811790915591519182527f17307eab39ab6107e8899845ad3d59bd9653f200f220920489ca2b5937696c3191015b60405180910390a3505050565b61137684848461109a565b61138284848484611618565b6107185760405162461bcd60e51b815260040161054a9061240a565b6000818152600460205260409020546060906001600160a01b031661141f5760405162461bcd60e51b815260206004820152603160248201527f45524337323155524953746f726167653a2055524920717565727920666f72206044820152703737b732bc34b9ba32b73a103a37b5b2b760791b606482015260840161054a565b6000828152600c602052604081208054611438906121de565b80601f0160208091040260200160405190810160405280929190818152602001828054611464906121de565b80156114b15780601f10611486576101008083540402835291602001916114b1565b820191906000526020600020905b81548152906001019060200180831161149457829003601f168201915b5050505050905060006114cf60408051602081019091526000815290565b905080516000036114e1575092915050565b8151156115135780826040516020016114fb92919061245c565b60405160208183030381529060405292505050919050565b61109284611719565b60006001600160e01b0319821663780e9d6360e01b148061043d575061043d82611801565b61154b8383611841565b6115586000848484611618565b61067f5760405162461bcd60e51b815260040161054a9061240a565b61157f83838361198f565b816001600160a01b0316836001600160a01b0316141580156115b757506000818152600f60205260409020546001600160a01b031615155b1561067f576000818152600f602090815260408083208390555182815283917ff3eadda1a229156f3f0f663b8e3b1f2409cb8d447391afe7a1221b52401529ae910161135e565b61160781611a47565b600090815260016020526040812055565b60006001600160a01b0384163b1561170e57604051630a85bd0160e11b81526001600160a01b0385169063150b7a029061165c90339089908890889060040161248b565b6020604051808303816000875af1925050508015611697575060408051601f3d908101601f19168201909252611694918101906124c7565b60015b6116f4573d8080156116c5576040519150601f19603f3d011682016040523d82523d6000602084013e6116ca565b606091505b5080516000036116ec5760405162461bcd60e51b815260040161054a9061240a565b805181602001fd5b6001600160e01b031916630a85bd0160e11b149050611092565b506001949350505050565b6000818152600460205260409020546060906001600160a01b03166117985760405162461bcd60e51b815260206004820152602f60248201527f4552433732314d657461646174613a2055524920717565727920666f72206e6f60448201526e3732bc34b9ba32b73a103a37b5b2b760891b606482015260840161054a565b60006117af60408051602081019091526000815290565b905060008151116117cf57604051806020016040528060008152506117fa565b806117d984611a87565b6040516020016117ea92919061245c565b6040516020818303038152906040525b9392505050565b60006001600160e01b031982166380ac58cd60e01b148061183257506001600160e01b03198216635b5e139f60e01b145b8061043d575061043d82611b88565b6001600160a01b0382166118975760405162461bcd60e51b815260206004820181905260248201527f4552433732313a206d696e7420746f20746865207a65726f2061646472657373604482015260640161054a565b6000818152600460205260409020546001600160a01b0316156118fc5760405162461bcd60e51b815260206004820152601c60248201527f4552433732313a20746f6b656e20616c7265616479206d696e74656400000000604482015260640161054a565b61190860008383611574565b6001600160a01b03821660009081526005602052604081208054600192906119319084906123f7565b909155505060008181526004602052604080822080546001600160a01b0319166001600160a01b03861690811790915590518392907fddf252ad1be2c89b69c2b068fc378daa952ba7f163c4a11628f55a4df523b3ef908290a45050565b6001600160a01b0383166119ea576119e581600a80546000838152600b60205260408120829055600182018355919091527fc65a7bb8d6351c1cf70c95a316cc6a92839c986682d98bc35f958f4883f9d2a80155565b611a0d565b816001600160a01b0316836001600160a01b031614611a0d57611a0d8382611bbd565b6001600160a01b038216611a245761067f81611c5a565b826001600160a01b0316826001600160a01b03161461067f5761067f8282611d09565b611a5081611d4d565b6000818152600c602052604090208054611a69906121de565b159050610924576000818152600c6020526040812061092491611df4565b606081600003611aae5750506040805180820190915260018152600360fc1b602082015290565b8160005b8115611ad85780611ac2816124e4565b9150611ad19050600a836122ac565b9150611ab2565b60008167ffffffffffffffff811115611af357611af3611f32565b6040519080825280601f01601f191660200182016040528015611b1d576020820181803683370190505b5090505b841561109257611b326001836123e4565b9150611b3f600a866124fd565b611b4a9060306123f7565b60f81b818381518110611b5f57611b5f6122c0565b60200101906001600160f81b031916908160001a905350611b81600a866122ac565b9450611b21565b60006001600160e01b0319821663152a902d60e11b148061043d57506301ffc9a760e01b6001600160e01b031983161461043d565b60006001611bca84610a31565b611bd491906123e4565b600083815260096020526040902054909150808214611c27576001600160a01b03841660009081526008602090815260408083208584528252808320548484528184208190558352600990915290208190555b5060009182526009602090815260408084208490556001600160a01b039094168352600881528383209183525290812055565b600a54600090611c6c906001906123e4565b6000838152600b6020526040812054600a8054939450909284908110611c9457611c946122c0565b9060005260206000200154905080600a8381548110611cb557611cb56122c0565b6000918252602080832090910192909255828152600b9091526040808220849055858252812055600a805480611ced57611ced612511565b6001900381819060005260206000200160009055905550505050565b6000611d1483610a31565b6001600160a01b039093166000908152600860209081526040808320868452825280832085905593825260099052919091209190915550565b6000611d58826109ba565b9050611d6681600084611574565b611d71600083610d7a565b6001600160a01b0381166000908152600560205260408120805460019290611d9a9084906123e4565b909155505060008281526004602052604080822080546001600160a01b0319169055518391906001600160a01b038416907fddf252ad1be2c89b69c2b068fc378daa952ba7f163c4a11628f55a4df523b3ef908390a45050565b508054611e00906121de565b6000825580601f10611e10575050565b601f01602090049060005260206000209081019061092491905b80821115611e3e5760008155600101611e2a565b5090565b6001600160e01b03198116811461092457600080fd5b600060208284031215611e6a57600080fd5b81356117fa81611e42565b60005b83811015611e90578181015183820152602001611e78565b50506000910152565b60008151808452611eb1816020860160208601611e75565b601f01601f19169290920160200192915050565b6020815260006117fa6020830184611e99565b600060208284031215611eea57600080fd5b5035919050565b80356001600160a01b0381168114610bb957600080fd5b60008060408385031215611f1b57600080fd5b611f2483611ef1565b946020939093013593505050565b634e487b7160e01b600052604160045260246000fd5b600067ffffffffffffffff80841115611f6357611f63611f32565b604051601f8501601f19908116603f01168101908282118183101715611f8b57611f8b611f32565b81604052809350858152868686011115611fa457600080fd5b858560208301376000602087830101525050509392505050565b80356001600160601b0381168114610bb957600080fd5b600080600060608486031215611fea57600080fd5b611ff384611ef1565b9250602084013567ffffffffffffffff81111561200f57600080fd5b8401601f8101861361202057600080fd5b61202f86823560208401611f48565b92505061203e60408501611fbe565b90509250925092565b60008060006060848603121561205c57600080fd5b61206584611ef1565b925061207360208501611ef1565b9150604084013590509250925092565b6000806040838503121561209657600080fd5b50508035926020909101359150565b6000602082840312156120b757600080fd5b6117fa82611ef1565b600080604083850312156120d357600080fd5b6120dc83611ef1565b9150602083013580151581146120f157600080fd5b809150509250929050565b6000806000806080858703121561211257600080fd5b61211b85611ef1565b935061212960208601611ef1565b925060408501359150606085013567ffffffffffffffff81111561214c57600080fd5b8501601f8101871361215d57600080fd5b61216c87823560208401611f48565b91505092959194509250565b6000806040838503121561218b57600080fd5b61219483611ef1565b91506121a260208401611ef1565b90509250929050565b6000806000606084860312156121c057600080fd5b833592506121d060208501611ef1565b915061203e60408501611fbe565b600181811c908216806121f257607f821691505b60208210810361221257634e487b7160e01b600052602260045260246000fd5b50919050565b60208082526031908201527f4552433732313a207472616e736665722063616c6c6572206973206e6f74206f6040820152701ddb995c881b9bdc88185c1c1c9bdd9959607a1b606082015260800190565b634e487b7160e01b600052601160045260246000fd5b808202811582820484141761043d5761043d612269565b634e487b7160e01b600052601260045260246000fd5b6000826122bb576122bb612296565b500490565b634e487b7160e01b600052603260045260246000fd5b601f82111561067f57600081815260208120601f850160051c810160208610156122fd5750805b601f850160051c820191505b8181101561231c57828155600101612309565b505050505050565b815167ffffffffffffffff81111561233e5761233e611f32565b6123528161234c84546121de565b846122d6565b602080601f831160018114612387576000841561236f5750858301515b600019600386901b1c1916600185901b17855561231c565b600085815260208120601f198616915b828110156123b657888601518255948401946001909101908401612397565b50858210156123d45787850151600019600388901b60f8161c191681555b5050505050600190811b01905550565b8181038181111561043d5761043d612269565b8082018082111561043d5761043d612269565b60208082526032908201527f4552433732313a207472616e7366657220746f206e6f6e20455243373231526560408201527131b2b4bb32b91034b6b83632b6b2b73a32b960711b606082015260800190565b6000835161246e818460208801611e75565b835190830190612482818360208801611e75565b01949350505050565b60006001600160a01b038087168352808616602084015250836040830152608060608301526124bd6080830184611e99565b9695505050505050565b6000602082840312156124d957600080fd5b81516117fa81611e42565b6000600182016124f6576124f6612269565b5060010190565b60008261250c5761250c612296565b500690565b634e487b7160e01b600052603160045260246000fdfea264697066735822122031858a4b4d30145e1eada99d9f82b2c487d427ca63a008a2749aaecc23b7757764736f6c63430008110033877a78dc988c0ec5f58453b44888a55eb39755c3d5ed8d8ea990912aa3ef29c6a2646970667358221220dd9628364ef58b30c361961baaf2b44ac938b500979ab6bcff60fd9aacf8e4af64736f6c63430008110033",
  "linkReferences": {},
  "deployedLinkReferences": {}
}