{
  "contractName": "Hub",
  "abi": [
    {
      "inputs": [
        {
          "internalType": "uint256",
          "name": "fee",
          "type": "uint256"
        }
      ],
      "stateMutability": "nonpayable",
      "type": "constructor"
    },
    {
      "anonymous": false,
      "inputs": [
        {
          "indexed": true,
          "internalType": "address",
          "name": "tokenAddress",
          "type": "address"
        }
      ],
      "name": "AddToken",
      "type": "event"
    },
    {
      "anonymous": false,
      "inputs": [
        {
          "indexed": false,
          "internalType": "uint256",
          "name": "cid",
          "type": "uint256"
        },
        {
          "indexed": true,
          "internalType": "address",
          "name": "owner",
          "type": "address"
        },
        {
          "indexed": true,
          "internalType": "address",
          "name": "nftAddress",
          "type": "address"
        },
        {
          "indexed": false,
          "internalType": "string",
          "name": "metadata",
          "type": "string"
        }
      ],
      "name": "CollectionCreated",
      "type": "event"
    },
    {
      "anonymous": false,
      "inputs": [
        {
          "indexed": false,
          "internalType": "uint256",
          "name": "cid",
          "type": "uint256"
        },
        {
          "indexed": false,
          "internalType": "string",
          "name": "metadata",
          "type": "string"
        }
      ],
      "name": "CollectionEdited",
      "type": "event"
    },
    {
      "anonymous": false,
      "inputs": [
        {
          "indexed": false,
          "internalType": "uint256",
          "name": "cid",
          "type": "uint256"
        },
        {
          "indexed": true,
          "internalType": "address",
          "name": "owner",
          "type": "address"
        },
        {
          "indexed": true,
          "internalType": "address",
          "name": "nftAddress",
          "type": "address"
        },
        {
          "indexed": false,
          "internalType": "string",
          "name": "metadata",
          "type": "string"
        }
      ],
      "name": "CollectionListed",
      "type": "event"
    },
    {
      "anonymous": false,
      "inputs": [
        {
          "indexed": true,
          "internalType": "address",
          "name": "tokenAddress",
          "type": "address"
        }
      ],
      "name": "RemoveToken",
      "type": "event"
    },
    {
      "anonymous": false,
      "inputs": [
        {
          "indexed": true,
          "internalType": "bytes32",
          "name": "role",
          "type": "bytes32"
        },
        {
          "indexed": true,
          "internalType": "bytes32",
          "name": "previousAdminRole",
          "type": "bytes32"
        },
        {
          "indexed": true,
          "internalType": "bytes32",
          "name": "newAdminRole",
          "type": "bytes32"
        }
      ],
      "name": "RoleAdminChanged",
      "type": "event"
    },
    {
      "anonymous": false,
      "inputs": [
        {
          "indexed": true,
          "internalType": "bytes32",
          "name": "role",
          "type": "bytes32"
        },
        {
          "indexed": true,
          "internalType": "address",
          "name": "account",
          "type": "address"
        },
        {
          "indexed": true,
          "internalType": "address",
          "name": "sender",
          "type": "address"
        }
      ],
      "name": "RoleGranted",
      "type": "event"
    },
    {
      "anonymous": false,
      "inputs": [
        {
          "indexed": true,
          "internalType": "bytes32",
          "name": "role",
          "type": "bytes32"
        },
        {
          "indexed": true,
          "internalType": "address",
          "name": "account",
          "type": "address"
        },
        {
          "indexed": true,
          "internalType": "address",
          "name": "sender",
          "type": "address"
        }
      ],
      "name": "RoleRevoked",
      "type": "event"
    },
    {
      "inputs": [],
      "name": "ARTIST_ROLE",
      "outputs": [
        {
          "internalType": "bytes32",
          "name": "",
          "type": "bytes32"
        }
      ],
      "stateMutability": "view",
      "type": "function"
    },
    {
      "inputs": [],
      "name": "CREATE_FEE",
      "outputs": [
        {
          "internalType": "uint256",
          "name": "",
          "type": "uint256"
        }
      ],
      "stateMutability": "view",
      "type": "function"
    },
    {
      "inputs": [],
      "name": "DEFAULT_ADMIN_ROLE",
      "outputs": [
        {
          "internalType": "bytes32",
          "name": "",
          "type": "bytes32"
        }
      ],
      "stateMutability": "view",
      "type": "function"
    },
    {
      "inputs": [],
      "name": "ERC721INTERFACE",
      "outputs": [
        {
          "internalType": "bytes4",
          "name": "",
          "type": "bytes4"
        }
      ],
      "stateMutability": "view",
      "type": "function"
    },
    {
      "inputs": [],
      "name": "RATE_FEE",
      "outputs": [
        {
          "internalType": "uint256",
          "name": "",
          "type": "uint256"
        }
      ],
      "stateMutability": "view",
      "type": "function"
    },
    {
      "inputs": [
        {
          "internalType": "uint256",
          "name": "",
          "type": "uint256"
        }
      ],
      "name": "collectionIds",
      "outputs": [
        {
          "internalType": "uint256",
          "name": "",
          "type": "uint256"
        }
      ],
      "stateMutability": "view",
      "type": "function"
    },
    {
      "inputs": [
        {
          "internalType": "bytes32",
          "name": "role",
          "type": "bytes32"
        }
      ],
      "name": "getRoleAdmin",
      "outputs": [
        {
          "internalType": "bytes32",
          "name": "",
          "type": "bytes32"
        }
      ],
      "stateMutability": "view",
      "type": "function"
    },
    {
      "inputs": [
        {
          "internalType": "bytes32",
          "name": "role",
          "type": "bytes32"
        },
        {
          "internalType": "address",
          "name": "account",
          "type": "address"
        }
      ],
      "name": "grantRole",
      "outputs": [],
      "stateMutability": "nonpayable",
      "type": "function"
    },
    {
      "inputs": [
        {
          "internalType": "bytes32",
          "name": "role",
          "type": "bytes32"
        },
        {
          "internalType": "address",
          "name": "account",
          "type": "address"
        }
      ],
      "name": "hasRole",
      "outputs": [
        {
          "internalType": "bool",
          "name": "",
          "type": "bool"
        }
      ],
      "stateMutability": "view",
      "type": "function"
    },
    {
      "inputs": [
        {
          "internalType": "bytes32",
          "name": "role",
          "type": "bytes32"
        },
        {
          "internalType": "address",
          "name": "account",
          "type": "address"
        }
      ],
      "name": "renounceRole",
      "outputs": [],
      "stateMutability": "nonpayable",
      "type": "function"
    },
    {
      "inputs": [
        {
          "internalType": "bytes32",
          "name": "role",
          "type": "bytes32"
        },
        {
          "internalType": "address",
          "name": "account",
          "type": "address"
        }
      ],
      "name": "revokeRole",
      "outputs": [],
      "stateMutability": "nonpayable",
      "type": "function"
    },
    {
      "inputs": [
        {
          "internalType": "bytes4",
          "name": "interfaceId",
          "type": "bytes4"
        }
      ],
      "name": "supportsInterface",
      "outputs": [
        {
          "internalType": "bool",
          "name": "",
          "type": "bool"
        }
      ],
      "stateMutability": "view",
      "type": "function"
    },
    {
      "inputs": [
        {
          "internalType": "uint256",
          "name": "newFee",
          "type": "uint256"
        }
      ],
      "name": "setFee",
      "outputs": [],
      "stateMutability": "nonpayable",
      "type": "function"
    },
    {
      "inputs": [],
      "name": "getCreateFee",
      "outputs": [
        {
          "internalType": "uint256",
          "name": "",
          "type": "uint256"
        }
      ],
      "stateMutability": "view",
      "type": "function"
    },
    {
      "inputs": [
        {
          "internalType": "address",
          "name": "childAddress",
          "type": "address"
        }
      ],
      "name": "addHubChild",
      "outputs": [],
      "stateMutability": "nonpayable",
      "type": "function"
    },
    {
      "inputs": [
        {
          "internalType": "address",
          "name": "childAddress",
          "type": "address"
        }
      ],
      "name": "removeHubChild",
      "outputs": [],
      "stateMutability": "nonpayable",
      "type": "function"
    },
    {
      "inputs": [],
      "name": "getHubChild",
      "outputs": [
        {
          "internalType": "address[]",
          "name": "",
          "type": "address[]"
        }
      ],
      "stateMutability": "view",
      "type": "function"
    },
    {
      "inputs": [
        {
          "internalType": "address",
          "name": "tokenAddr",
          "type": "address"
        }
      ],
      "name": "addAcceptToken",
      "outputs": [],
      "stateMutability": "nonpayable",
      "type": "function"
    },
    {
      "inputs": [
        {
          "internalType": "address",
          "name": "tokenAddr",
          "type": "address"
        }
      ],
      "name": "removeToken",
      "outputs": [],
      "stateMutability": "nonpayable",
      "type": "function"
    },
    {
      "inputs": [
        {
          "internalType": "address",
          "name": "whitelistAddress",
          "type": "address"
        },
        {
          "internalType": "uint256",
          "name": "fee",
          "type": "uint256"
        }
      ],
      "name": "addWhitelistAddress",
      "outputs": [],
      "stateMutability": "nonpayable",
      "type": "function"
    },
    {
      "inputs": [
        {
          "internalType": "address",
          "name": "whitelistAddress",
          "type": "address"
        }
      ],
      "name": "removeWhitelistAddress",
      "outputs": [],
      "stateMutability": "nonpayable",
      "type": "function"
    },
    {
      "inputs": [
        {
          "internalType": "uint256",
          "name": "rateFee",
          "type": "uint256"
        }
      ],
      "name": "setRateFee",
      "outputs": [],
      "stateMutability": "nonpayable",
      "type": "function"
    },
    {
      "inputs": [
        {
          "internalType": "string",
          "name": "name",
          "type": "string"
        },
        {
          "internalType": "string",
          "name": "symbol",
          "type": "string"
        },
        {
          "internalType": "string",
          "name": "metadata",
          "type": "string"
        }
      ],
      "name": "createCollection",
      "outputs": [],
      "stateMutability": "payable",
      "type": "function"
    },
    {
      "inputs": [
        {
          "internalType": "address",
          "name": "nftAddress",
          "type": "address"
        },
        {
          "internalType": "string",
          "name": "metadata",
          "type": "string"
        }
      ],
      "name": "listCollection",
      "outputs": [],
      "stateMutability": "payable",
      "type": "function"
    },
    {
      "inputs": [
        {
          "internalType": "uint256",
          "name": "cid",
          "type": "uint256"
        },
        {
          "internalType": "string",
          "name": "newHash",
          "type": "string"
        }
      ],
      "name": "editMetaData",
      "outputs": [],
      "stateMutability": "nonpayable",
      "type": "function"
    },
    {
      "inputs": [
        {
          "internalType": "uint256",
          "name": "cid",
          "type": "uint256"
        },
        {
          "internalType": "address",
          "name": "newOwner",
          "type": "address"
        }
      ],
      "name": "transferCollection",
      "outputs": [],
      "stateMutability": "nonpayable",
      "type": "function"
    },
    {
      "inputs": [],
      "name": "totalCollections",
      "outputs": [
        {
          "internalType": "uint256",
          "name": "",
          "type": "uint256"
        }
      ],
      "stateMutability": "view",
      "type": "function"
    },
    {
      "inputs": [
        {
          "internalType": "uint256",
          "name": "cid",
          "type": "uint256"
        }
      ],
      "name": "getCollectionData",
      "outputs": [
        {
          "components": [
            {
              "internalType": "uint256",
              "name": "cid",
              "type": "uint256"
            },
            {
              "internalType": "address",
              "name": "contractAddress",
              "type": "address"
            },
            {
              "internalType": "string",
              "name": "name",
              "type": "string"
            },
            {
              "internalType": "string",
              "name": "symbol",
              "type": "string"
            },
            {
              "internalType": "string",
              "name": "metadata",
              "type": "string"
            },
            {
              "internalType": "address",
              "name": "owner",
              "type": "address"
            }
          ],
          "internalType": "struct Hub.Collection",
          "name": "",
          "type": "tuple"
        }
      ],
      "stateMutability": "view",
      "type": "function"
    },
    {
      "inputs": [
        {
          "internalType": "address",
          "name": "nftAddress",
          "type": "address"
        }
      ],
      "name": "getCollectionByAddress",
      "outputs": [
        {
          "components": [
            {
              "internalType": "uint256",
              "name": "cid",
              "type": "uint256"
            },
            {
              "internalType": "address",
              "name": "contractAddress",
              "type": "address"
            },
            {
              "internalType": "string",
              "name": "name",
              "type": "string"
            },
            {
              "internalType": "string",
              "name": "symbol",
              "type": "string"
            },
            {
              "internalType": "string",
              "name": "metadata",
              "type": "string"
            },
            {
              "internalType": "address",
              "name": "owner",
              "type": "address"
            }
          ],
          "internalType": "struct Hub.Collection",
          "name": "",
          "type": "tuple"
        }
      ],
      "stateMutability": "view",
      "type": "function"
    },
    {
      "inputs": [
        {
          "internalType": "address",
          "name": "creator",
          "type": "address"
        }
      ],
      "name": "getCollectionsByOwner",
      "outputs": [
        {
          "components": [
            {
              "internalType": "uint256",
              "name": "cid",
              "type": "uint256"
            },
            {
              "internalType": "address",
              "name": "contractAddress",
              "type": "address"
            },
            {
              "internalType": "string",
              "name": "name",
              "type": "string"
            },
            {
              "internalType": "string",
              "name": "symbol",
              "type": "string"
            },
            {
              "internalType": "string",
              "name": "metadata",
              "type": "string"
            },
            {
              "internalType": "address",
              "name": "owner",
              "type": "address"
            }
          ],
          "internalType": "struct Hub.Collection[]",
          "name": "",
          "type": "tuple[]"
        }
      ],
      "stateMutability": "view",
      "type": "function"
    },
    {
      "inputs": [
        {
          "internalType": "uint256",
          "name": "startIndex",
          "type": "uint256"
        },
        {
          "internalType": "uint256",
          "name": "endIndex",
          "type": "uint256"
        }
      ],
      "name": "getCollectionsPaginated",
      "outputs": [
        {
          "components": [
            {
              "internalType": "uint256",
              "name": "cid",
              "type": "uint256"
            },
            {
              "internalType": "address",
              "name": "contractAddress",
              "type": "address"
            },
            {
              "internalType": "string",
              "name": "name",
              "type": "string"
            },
            {
              "internalType": "string",
              "name": "symbol",
              "type": "string"
            },
            {
              "internalType": "string",
              "name": "metadata",
              "type": "string"
            },
            {
              "internalType": "address",
              "name": "owner",
              "type": "address"
            }
          ],
          "internalType": "struct Hub.Collection[]",
          "name": "",
          "type": "tuple[]"
        }
      ],
      "stateMutability": "view",
      "type": "function"
    },
    {
      "inputs": [],
      "name": "getAllCollections",
      "outputs": [
        {
          "components": [
            {
              "internalType": "uint256",
              "name": "cid",
              "type": "uint256"
            },
            {
              "internalType": "address",
              "name": "contractAddress",
              "type": "address"
            },
            {
              "internalType": "string",
              "name": "name",
              "type": "string"
            },
            {
              "internalType": "string",
              "name": "symbol",
              "type": "string"
            },
            {
              "internalType": "string",
              "name": "metadata",
              "type": "string"
            },
            {
              "internalType": "address",
              "name": "owner",
              "type": "address"
            }
          ],
          "internalType": "struct Hub.Collection[]",
          "name": "",
          "type": "tuple[]"
        }
      ],
      "stateMutability": "view",
      "type": "function"
    },
    {
      "inputs": [
        {
          "internalType": "address",
          "name": "to",
          "type": "address"
        },
        {
          "internalType": "address",
          "name": "tokenAddress",
          "type": "address"
        },
        {
          "internalType": "uint256",
          "name": "amount",
          "type": "uint256"
        }
      ],
      "name": "withdrawFee",
      "outputs": [],
      "stateMutability": "nonpayable",
      "type": "function"
    }
  ],
  "bytecode": "0x60806040523480156200001157600080fd5b5060405162005f2438038062005f2483398101604081905262000034916200011e565b6001805560078190556200004a6000336200007d565b620000767f877a78dc988c0ec5f58453b44888a55eb39755c3d5ed8d8ea990912aa3ef29c6336200007d565b5062000137565b6000828152602081815260408083206001600160a01b038516845290915290205460ff166200011a576000828152602081815260408083206001600160a01b03851684529091529020805460ff19166001179055620000d93390565b6001600160a01b0316816001600160a01b0316837f2f8788117e7eff1d82e926ec794901d17c78024a50270940304540a733656f0d60405160405180910390a45b5050565b60006020828403121562000130578081fd5b5051919050565b615ddd80620001476000396000f3fe608060405260043610620002175760003560e01c806384195ec01162000123578063c56325bd11620000ad578063debd22721162000078578063debd22721462000622578063df6f5b201462000647578063e178d60c146200067b578063ece86c2114620006a0578063f002804a14620006b757600080fd5b8063c56325bd146200058e578063c6154e5b14620005b3578063d547741f14620005d8578063da4bd50514620005fd57600080fd5b8063a49a538911620000ee578063a49a53891462000508578063a966a0df146200051f578063a9b566a31462000544578063b7ecbaae146200056957600080fd5b806384195ec0146200048f5780638cba9e7614620004b457806391d1485414620004cc578063a217fddf14620004f157600080fd5b80634244a6e211620001a55780635fa7b58411620001705780635fa7b584146200041557806361d9db2d146200043a5780636804a958146200045257806369fe0e2d146200046a57600080fd5b80634244a6e2146200038d578063502a676c14620003a45780635254aca914620003bc5780635df44c9214620003e157600080fd5b8063248a9ca311620001e6578063248a9ca314620002d95780632f2ff15d146200031c57806336568abe14620003415780633f9baa57146200036657600080fd5b806301ffc9a7146200021c57806307cb1a6e14620002565780630f15e9be146200028d5780631095b6d714620002b4575b600080fd5b3480156200022957600080fd5b50620002416200023b36600462002f9a565b620006dc565b60405190151581526020015b60405180910390f35b3480156200026357600080fd5b50620002736380ac58cd60e01b81565b6040516001600160e01b031990911681526020016200024d565b3480156200029a57600080fd5b50620002b2620002ac36600462002f4f565b62000714565b005b348015620002c157600080fd5b50620002b2620002d336600462002e61565b620007cd565b348015620002e657600080fd5b506200030d620002f836600462002f4f565b60009081526020819052604090206001015490565b6040519081526020016200024d565b3480156200032957600080fd5b50620002b26200033b36600462002f68565b620007e8565b3480156200034e57600080fd5b50620002b26200036036600462002f68565b62000816565b3480156200037357600080fd5b506200037e6200089c565b6040516200024d9190620032e4565b3480156200039a57600080fd5b506007546200030d565b348015620003b157600080fd5b506200030d60025481565b348015620003c957600080fd5b50620002b2620003db36600462002eff565b620008af565b348015620003ee57600080fd5b5062000406620004003660046200314c565b62000968565b6040516200024d919062003333565b3480156200042257600080fd5b50620002b26200043436600462002e23565b62000d1d565b3480156200044757600080fd5b506200030d62000e02565b3480156200045f57600080fd5b506200040662000e0e565b3480156200047757600080fd5b50620002b26200048936600462002f4f565b62001122565b3480156200049c57600080fd5b50620002b2620004ae36600462002e23565b62001135565b348015620004c157600080fd5b506200030d60075481565b348015620004d957600080fd5b5062000241620004eb36600462002f68565b6200114f565b348015620004fe57600080fd5b506200030d600081565b620002b26200051936600462002ea6565b62001178565b3480156200052c57600080fd5b506200030d60008051602062005d8883398151915281565b3480156200055157600080fd5b506200030d6200056336600462002f4f565b620016dc565b3480156200057657600080fd5b50620002b26200058836600462002e23565b620016fe565b3480156200059b57600080fd5b50620002b2620005ad36600462003119565b620017a9565b348015620005c057600080fd5b50620002b2620005d236600462002e23565b620018c3565b348015620005e557600080fd5b50620002b2620005f736600462002f68565b620018dd565b3480156200060a57600080fd5b50620002b26200061c36600462002f68565b62001906565b3480156200062f57600080fd5b50620002b26200064136600462002e23565b620019f1565b3480156200065457600080fd5b506200066c6200066636600462002f4f565b62001ad6565b6040516200024d919062003496565b3480156200068857600080fd5b50620004066200069a36600462002e23565b62001d03565b620002b2620006b136600462002fc4565b62002085565b348015620006c457600080fd5b506200066c620006d636600462002e23565b6200236f565b60006001600160e01b03198216637965db0b60e01b14806200070e57506301ffc9a760e01b6001600160e01b03198316145b92915050565b60006200072181620023d1565b60006200072f6005620023e0565b6002849055905060005b81811015620007c7576200074f600582620023eb565b6001600160a01b0316630f15e9be856040518263ffffffff1660e01b81526004016200077d91815260200190565b600060405180830381600087803b1580156200079857600080fd5b505af1158015620007ad573d6000803e3d6000fd5b505050508080620007be90620035a7565b91505062000739565b50505050565b6000620007da81620023d1565b620007c73085858562002400565b6000828152602081905260409020600101546200080581620023d1565b62000811838362002572565b505050565b6001600160a01b03811633146200088c5760405162461bcd60e51b815260206004820152602f60248201527f416363657373436f6e74726f6c3a2063616e206f6e6c792072656e6f756e636560448201526e103937b632b9903337b91039b2b63360891b60648201526084015b60405180910390fd5b620008988282620025fa565b5050565b6060620008aa600562002662565b905090565b6000620008bc81620023d1565b6000620008ca6005620023e0565b905060005b818110156200096157620008e5600582620023eb565b604051635254aca960e01b81526001600160a01b038781166004830152602482018790529190911690635254aca990604401600060405180830381600087803b1580156200093257600080fd5b505af115801562000947573d6000803e3d6000fd5b5050505080806200095890620035a7565b915050620008cf565b5050505050565b606082821015620009e25760405162461bcd60e51b815260206004820152603a60248201527f456e6420496e646578206e6565647320746f206265206772656174657220746860448201527f616e206f7220657175616c20746f20737461727420496e646578000000000000606482015260840162000883565b600454821115620009f35760045491505b600062000a0184846200350d565b62000a0e906001620034d0565b905060008167ffffffffffffffff81111562000a3a57634e487b7160e01b600052604160045260246000fd5b60405190808252806020026020018201604052801562000a7757816020015b62000a6362002c60565b81526020019060019003908162000a595790505b509050845b84811162000d1457600860006004838154811062000aaa57634e487b7160e01b600052603260045260246000fd5b600091825260208083209091015483528281019390935260409182019020815160c0810183528154815260018201546001600160a01b031693810193909352600281018054919284019162000aff9062003570565b80601f016020809104026020016040519081016040528092919081815260200182805462000b2d9062003570565b801562000b7e5780601f1062000b525761010080835404028352916020019162000b7e565b820191906000526020600020905b81548152906001019060200180831162000b6057829003601f168201915b5050505050815260200160038201805462000b999062003570565b80601f016020809104026020016040519081016040528092919081815260200182805462000bc79062003570565b801562000c185780601f1062000bec5761010080835404028352916020019162000c18565b820191906000526020600020905b81548152906001019060200180831162000bfa57829003601f168201915b5050505050815260200160048201805462000c339062003570565b80601f016020809104026020016040519081016040528092919081815260200182805462000c619062003570565b801562000cb25780601f1062000c865761010080835404028352916020019162000cb2565b820191906000526020600020905b81548152906001019060200180831162000c9457829003601f168201915b5050509183525050600591909101546001600160a01b0316602090910152825183908390811062000cf357634e487b7160e01b600052603260045260246000fd5b6020026020010181905250808062000d0b90620035a7565b91505062000a7c565b50949350505050565b600062000d2a81620023d1565b600062000d386005620023e0565b905060005b8181101562000dc85762000d53600582620023eb565b6040516317e9ed6160e21b81526001600160a01b0386811660048301529190911690635fa7b58490602401600060405180830381600087803b15801562000d9957600080fd5b505af115801562000dae573d6000803e3d6000fd5b50505050808062000dbf90620035a7565b91505062000d3d565b506040516001600160a01b038416907f4eb129c82dcd3eedb52df2b0e6fb4cfa41ac64ee9d63ff081acbb1877e85d79b90600090a2505050565b6000620008aa60035490565b60045460609060009067ffffffffffffffff81111562000e3e57634e487b7160e01b600052604160045260246000fd5b60405190808252806020026020018201604052801562000e7b57816020015b62000e6762002c60565b81526020019060019003908162000e5d5790505b50905060005b6004548110156200111c57600860006004838154811062000eb257634e487b7160e01b600052603260045260246000fd5b600091825260208083209091015483528281019390935260409182019020815160c0810183528154815260018201546001600160a01b031693810193909352600281018054919284019162000f079062003570565b80601f016020809104026020016040519081016040528092919081815260200182805462000f359062003570565b801562000f865780601f1062000f5a5761010080835404028352916020019162000f86565b820191906000526020600020905b81548152906001019060200180831162000f6857829003601f168201915b5050505050815260200160038201805462000fa19062003570565b80601f016020809104026020016040519081016040528092919081815260200182805462000fcf9062003570565b8015620010205780601f1062000ff45761010080835404028352916020019162001020565b820191906000526020600020905b8154815290600101906020018083116200100257829003601f168201915b505050505081526020016004820180546200103b9062003570565b80601f0160208091040260200160405190810160405280929190818152602001828054620010699062003570565b8015620010ba5780601f106200108e57610100808354040283529160200191620010ba565b820191906000526020600020905b8154815290600101906020018083116200109c57829003601f168201915b5050509183525050600591909101546001600160a01b03166020909101528251839083908110620010fb57634e487b7160e01b600052603260045260246000fd5b602002602001018190525080806200111390620035a7565b91505062000e81565b50919050565b60006200112f81620023d1565b50600755565b60006200114281620023d1565b6200081160058362002671565b6000918252602082815260408084206001600160a01b0393909316845291905290205460ff1690565b60008051602062005d888339815191526200119381620023d1565b60026001541415620011b95760405162461bcd60e51b815260040162000883906200345f565b60026001556007543414620011e25760405162461bcd60e51b81526004016200088390620033f3565b620011f5846380ac58cd60e01b62002688565b620012435760405162461bcd60e51b815260206004820152601b60248201527f436f6e7472616374206e6565647320746f206265204552433732310000000000604482015260640162000883565b6000849050336001600160a01b0316816001600160a01b0316638da5cb5b6040518163ffffffff1660e01b815260040160206040518083038186803b1580156200128c57600080fd5b505afa158015620012a1573d6000803e3d6000fd5b505050506040513d601f19601f82011682018060405250810190620012c7919062002e42565b6001600160a01b0316146200131f5760405162461bcd60e51b815260206004820152601860248201527f43616c6c6572206d757374206265204e4654206f776e65720000000000000000604482015260640162000883565b6001600160a01b038516600090815260096020526040902054156200137c5760405162461bcd60e51b815260206004820152601260248201527110dbdb9d1c9858dd081a5cc81b1a5cdd195960721b604482015260640162000883565b60006200138860035490565b905080156200140e576000805260086020527f5eff886ea0ce6ca488a3d6e336d6c0f75f46d19b42c06ce5ee98e42c96d256c8546001600160a01b03878116911614156200140e5760405162461bcd60e51b815260206004820152601260248201527110dbdb9d1c9858dd081a5cc81b1a5cdd195960721b604482015260640162000883565b6200141d600380546001019055565b8060096000886001600160a01b03166001600160a01b03168152602001908152602001600020819055506040518060c00160405280828152602001876001600160a01b03168152602001836001600160a01b03166306fdde036040518163ffffffff1660e01b815260040160006040518083038186803b158015620014a157600080fd5b505afa158015620014b6573d6000803e3d6000fd5b505050506040513d6000823e601f3d908101601f19168201604052620014e0919081019062003064565b8152602001836001600160a01b03166395d89b416040518163ffffffff1660e01b815260040160006040518083038186803b1580156200151f57600080fd5b505afa15801562001534573d6000803e3d6000fd5b505050506040513d6000823e601f3d908101601f191682016040526200155e919081019062003064565b815260200186868080601f0160208091040260200160405190810160405280939291908181526020018383808284376000920182905250938552505033602093840152508381526008825260409081902083518155838301516001820180546001600160a01b0319166001600160a01b039092169190911790559083015180519192620015f49260028501929091019062002ca8565b50606082015180516200161291600384019160209091019062002ca8565b50608082015180516200163091600484019160209091019062002ca8565b5060a09190910151600590910180546001600160a01b0319166001600160a01b03928316179055600480546001810182556000919091527f8a35acfbc15ff81a39ae7d344fd709f28e8600b4aa8c65c6b64bfe7fe36bd19b018290556040519087169033907ffd9fdb42246c073f4d07c7ec07b5e0fb9cf121eff741d4d2554e6e77a248712090620016c89085908a908a90620034ab565b60405180910390a350506001805550505050565b60048181548110620016ed57600080fd5b600091825260209091200154905081565b60006200170b81620023d1565b6000620017196005620023e0565b905060005b81811015620007c75762001734600582620023eb565b604051635bf65d5760e11b81526001600160a01b038681166004830152919091169063b7ecbaae90602401600060405180830381600087803b1580156200177a57600080fd5b505af11580156200178f573d6000803e3d6000fd5b505050508080620017a090620035a7565b9150506200171e565b60008051602062005d88833981519152620017c481620023d1565b60008481526008602052604090206005015484906001600160a01b03163314620018315760405162461bcd60e51b815260206004820152601c60248201527f4f6e6c79206f776e65722063616e2065646974206d6574616461746100000000604482015260640162000883565b60026001541415620018575760405162461bcd60e51b815260040162000883906200345f565b600260015560008581526008602052604090206200187a90600401858562002d37565b507f0455f3c11be6bd04ad201be113904d21960743bdad47547867a5316187315d5c858585604051620018b093929190620034ab565b60405180910390a1505060018055505050565b6000620018d081620023d1565b62000811600583620026a9565b600082815260208190526040902060010154620018fa81620023d1565b620008118383620025fa565b60008051602062005d888339815191526200192181620023d1565b60008381526008602052604090206005015483906001600160a01b031633146200198e5760405162461bcd60e51b815260206004820152601c60248201527f4f6e6c79206f776e65722063616e2065646974206d6574616461746100000000604482015260640162000883565b60026001541415620019b45760405162461bcd60e51b815260040162000883906200345f565b50506002600190815560009283526008602052604090922060050180546001600160a01b0319166001600160a01b03929092169190911790558055565b6000620019fe81620023d1565b600062001a0c6005620023e0565b905060005b8181101562001a9c5762001a27600582620023eb565b604051636f5e913960e11b81526001600160a01b038681166004830152919091169063debd227290602401600060405180830381600087803b15801562001a6d57600080fd5b505af115801562001a82573d6000803e3d6000fd5b50505050808062001a9390620035a7565b91505062001a11565b506040516001600160a01b038416907fe473c74f34be27c1464d6624f14a0d7fd4e301cbfa29c3eba425d378c8a7ebe090600090a2505050565b62001ae062002c60565b600082815260086020908152604091829020825160c0810184528154815260018201546001600160a01b031692810192909252600281018054929391929184019162001b2c9062003570565b80601f016020809104026020016040519081016040528092919081815260200182805462001b5a9062003570565b801562001bab5780601f1062001b7f5761010080835404028352916020019162001bab565b820191906000526020600020905b81548152906001019060200180831162001b8d57829003601f168201915b5050505050815260200160038201805462001bc69062003570565b80601f016020809104026020016040519081016040528092919081815260200182805462001bf49062003570565b801562001c455780601f1062001c195761010080835404028352916020019162001c45565b820191906000526020600020905b81548152906001019060200180831162001c2757829003601f168201915b5050505050815260200160048201805462001c609062003570565b80601f016020809104026020016040519081016040528092919081815260200182805462001c8e9062003570565b801562001cdf5780601f1062001cb35761010080835404028352916020019162001cdf565b820191906000526020600020905b81548152906001019060200180831162001cc157829003601f168201915b5050509183525050600591909101546001600160a01b031660209091015292915050565b6060600062001d1160035490565b90506000805b8281101562001d6b576000818152600860205260409020600501546001600160a01b038681169116141562001d56578162001d5281620035a7565b9250505b8062001d6281620035a7565b91505062001d17565b5060008167ffffffffffffffff81111562001d9657634e487b7160e01b600052604160045260246000fd5b60405190808252806020026020018201604052801562001dd357816020015b62001dbf62002c60565b81526020019060019003908162001db55790505b5090506000805b848110156200207a576000818152600860205260409020600501546001600160a01b03888116911614156200206557600081815260086020908152604091829020825160c0810184528154815260018201546001600160a01b031692810192909252600281018054929391929184019162001e559062003570565b80601f016020809104026020016040519081016040528092919081815260200182805462001e839062003570565b801562001ed45780601f1062001ea85761010080835404028352916020019162001ed4565b820191906000526020600020905b81548152906001019060200180831162001eb657829003601f168201915b5050505050815260200160038201805462001eef9062003570565b80601f016020809104026020016040519081016040528092919081815260200182805462001f1d9062003570565b801562001f6e5780601f1062001f425761010080835404028352916020019162001f6e565b820191906000526020600020905b81548152906001019060200180831162001f5057829003601f168201915b5050505050815260200160048201805462001f899062003570565b80601f016020809104026020016040519081016040528092919081815260200182805462001fb79062003570565b8015620020085780601f1062001fdc5761010080835404028352916020019162002008565b820191906000526020600020905b81548152906001019060200180831162001fea57829003601f168201915b5050509183525050600591909101546001600160a01b031660209091015283518490849081106200204957634e487b7160e01b600052603260045260246000fd5b602002602001018190525081806200206190620035a7565b9250505b806200207181620035a7565b91505062001dda565b509095945050505050565b60008051602062005d88833981519152620020a081620023d1565b60026001541415620020c65760405162461bcd60e51b815260040162000883906200345f565b60026001556007543414620020ef5760405162461bcd60e51b81526004016200088390620033f3565b6000620020fb60035490565b90506200210c600380546001019055565b60008888888833604051620021219062002db4565b6200213195949392919062003398565b604051809103906000f0801580156200214e573d6000803e3d6000fd5b5090506040518060c00160405280838152602001826001600160a01b031681526020018a8a8080601f016020809104026020016040519081016040528093929190818152602001838380828437600092019190915250505090825250604080516020601f8b0181900481028201810190925289815291810191908a908a9081908401838280828437600092019190915250505090825250604080516020601f8901819004810282018101909252878152918101919088908890819084018382808284376000920182905250938552505033602093840152508481526008825260409081902083518155838301516001820180546001600160a01b0319166001600160a01b039092169190911790559083015180519192620022789260028501929091019062002ca8565b50606082015180516200229691600384019160209091019062002ca8565b5060808201518051620022b491600484019160209091019062002ca8565b5060a09190910151600590910180546001600160a01b0319166001600160a01b0392831617905581166000818152600960205260408082208590556004805460018101825592527f8a35acfbc15ff81a39ae7d344fd709f28e8600b4aa8c65c6b64bfe7fe36bd19b9091018490555133907f302eb65a1fbff180da0f4fa83befd29ff62c2bff6765fcc04e6a5c2ffade88cd90620023589086908a908a90620034ab565b60405180910390a350506001805550505050505050565b6200237962002c60565b6001600160a01b0380831660009081526009602090815260408083205483526008825291829020825160c08101845281548152600182015490941691840191909152600281018054919284019162001b2c9062003570565b620023dd8133620026c0565b50565b60006200070e825490565b6000620023f983836200272f565b9392505050565b6001600160a01b0382166200244d576040516001600160a01b0384169082156108fc029083906000818181858888f1935050505015801562002446573d6000803e3d6000fd5b50620007c7565b6001600160a01b0384163014620024ec576040516323b872dd60e01b81526001600160a01b0385811660048301528481166024830152604482018390528316906323b872dd90606401602060405180830381600087803b158015620024b157600080fd5b505af1158015620024c6573d6000803e3d6000fd5b505050506040513d601f19601f8201168201806040525081019062002446919062002f2d565b60405163a9059cbb60e01b81526001600160a01b0384811660048301526024820183905283169063a9059cbb90604401602060405180830381600087803b1580156200253757600080fd5b505af11580156200254c573d6000803e3d6000fd5b505050506040513d601f19601f8201168201806040525081019062000961919062002f2d565b6200257e82826200114f565b62000898576000828152602081815260408083206001600160a01b03851684529091529020805460ff19166001179055620025b63390565b6001600160a01b0316816001600160a01b0316837f2f8788117e7eff1d82e926ec794901d17c78024a50270940304540a733656f0d60405160405180910390a45050565b6200260682826200114f565b1562000898576000828152602081815260408083206001600160a01b0385168085529252808320805460ff1916905551339285917ff6391f5c32d9c69d2a47ea670b442974b53935d1edc7fd64eb21e047a839171b9190a45050565b60606000620023f98362002768565b6000620023f9836001600160a01b038416620027c6565b60006200269583620028ee565b8015620023f95750620023f9838362002926565b6000620023f9836001600160a01b03841662002a18565b620026cc82826200114f565b6200089857620026e7816001600160a01b0316601462002a6a565b620026f483602062002a6a565b604051602001620027079291906200326b565b60408051601f198184030181529082905262461bcd60e51b82526200088391600401620033de565b60008260000182815481106200275557634e487b7160e01b600052603260045260246000fd5b9060005260206000200154905092915050565b606081600001805480602002602001604051908101604052809291908181526020018280548015620027ba57602002820191906000526020600020905b815481526020019060010190808311620027a5575b50505050509050919050565b60008181526001830160205260408120548015620028e3576000620027ed6001836200350d565b855490915060009062002803906001906200350d565b9050818114620028875760008660000182815481106200283357634e487b7160e01b600052603260045260246000fd5b90600052602060002001549050808760000184815481106200286557634e487b7160e01b600052603260045260246000fd5b6000918252602080832090910192909255918252600188019052604090208390555b8554869080620028a757634e487b7160e01b600052603160045260246000fd5b6001900381819060005260206000200160009055905585600101600086815260200190815260200160002060009055600193505050506200070e565b60009150506200070e565b600062002903826301ffc9a760e01b62002926565b80156200070e57506200291f826001600160e01b031962002926565b1592915050565b604080516001600160e01b0319831660248083019190915282518083039091018152604490910182526020810180516001600160e01b03166301ffc9a760e01b179052905160009190829081906001600160a01b03871690617530906200298f9086906200324d565b6000604051808303818686fa925050503d8060008114620029cd576040519150601f19603f3d011682016040523d82523d6000602084013e620029d2565b606091505b5091509150602081511015620029ef57600093505050506200070e565b81801562002a0e57508080602001905181019062002a0e919062002f2d565b9695505050505050565b600081815260018301602052604081205462002a61575081546001818101845560008481526020808220909301849055845484825282860190935260409020919091556200070e565b5060006200070e565b6060600062002a7b836002620034eb565b62002a88906002620034d0565b67ffffffffffffffff81111562002aaf57634e487b7160e01b600052604160045260246000fd5b6040519080825280601f01601f19166020018201604052801562002ada576020820181803683370190505b509050600360fc1b8160008151811062002b0457634e487b7160e01b600052603260045260246000fd5b60200101906001600160f81b031916908160001a905350600f60fb1b8160018151811062002b4257634e487b7160e01b600052603260045260246000fd5b60200101906001600160f81b031916908160001a905350600062002b68846002620034eb565b62002b75906001620034d0565b90505b600181111562002c0f576f181899199a1a9b1b9c1cb0b131b232b360811b85600f166010811062002bb957634e487b7160e01b600052603260045260246000fd5b1a60f81b82828151811062002bde57634e487b7160e01b600052603260045260246000fd5b60200101906001600160f81b031916908160001a90535060049490941c9362002c078162003556565b905062002b78565b508315620023f95760405162461bcd60e51b815260206004820181905260248201527f537472696e67733a20686578206c656e67746820696e73756666696369656e74604482015260640162000883565b6040518060c001604052806000815260200160006001600160a01b0316815260200160608152602001606081526020016060815260200160006001600160a01b031681525090565b82805462002cb69062003570565b90600052602060002090601f01602090048101928262002cda576000855562002d25565b82601f1062002cf557805160ff191683800117855562002d25565b8280016001018555821562002d25579182015b8281111562002d2557825182559160200191906001019062002d08565b5062002d3392915062002dc2565b5090565b82805462002d459062003570565b90600052602060002090601f01602090048101928262002d69576000855562002d25565b82601f1062002d845782800160ff1982351617855562002d25565b8280016001018555821562002d25579182015b8281111562002d2557823582559160200191906001019062002d97565b612780806200360883390190565b5b8082111562002d33576000815560010162002dc3565b60008083601f84011262002deb578182fd5b50813567ffffffffffffffff81111562002e03578182fd5b60208301915083602082850101111562002e1c57600080fd5b9250929050565b60006020828403121562002e35578081fd5b8135620023f981620035f1565b60006020828403121562002e54578081fd5b8151620023f981620035f1565b60008060006060848603121562002e76578182fd5b833562002e8381620035f1565b9250602084013562002e9581620035f1565b929592945050506040919091013590565b60008060006040848603121562002ebb578283fd5b833562002ec881620035f1565b9250602084013567ffffffffffffffff81111562002ee4578283fd5b62002ef28682870162002dd9565b9497909650939450505050565b6000806040838503121562002f12578182fd5b823562002f1f81620035f1565b946020939093013593505050565b60006020828403121562002f3f578081fd5b81518015158114620023f9578182fd5b60006020828403121562002f61578081fd5b5035919050565b6000806040838503121562002f7b578182fd5b82359150602083013562002f8f81620035f1565b809150509250929050565b60006020828403121562002fac578081fd5b81356001600160e01b031981168114620023f9578182fd5b6000806000806000806060878903121562002fdd578182fd5b863567ffffffffffffffff8082111562002ff5578384fd5b620030038a838b0162002dd9565b909850965060208901359150808211156200301c578384fd5b6200302a8a838b0162002dd9565b9096509450604089013591508082111562003043578384fd5b506200305289828a0162002dd9565b979a9699509497509295939492505050565b60006020828403121562003076578081fd5b815167ffffffffffffffff808211156200308e578283fd5b818401915084601f830112620030a2578283fd5b815181811115620030b757620030b7620035db565b604051601f8201601f19908116603f01168101908382118183101715620030e257620030e2620035db565b81604052828152876020848701011115620030fb578586fd5b6200310e83602083016020880162003527565b979650505050505050565b6000806000604084860312156200312e578283fd5b83359250602084013567ffffffffffffffff81111562002ee4578283fd5b600080604083850312156200315f578182fd5b50508035926020909101359150565b81835281816020850137506000828201602090810191909152601f909101601f19169091010190565b60008151808452620031b181602086016020860162003527565b601f01601f19169290920160200192915050565b805182526000602082015160018060a01b0380821660208601526040840151915060c06040860152620031fc60c086018362003197565b91506060840151858303606087015262003217838262003197565b9250506080840151858303608087015262003233838262003197565b9250508060a08501511660a0860152508091505092915050565b600082516200326181846020870162003527565b9190910192915050565b7f416363657373436f6e74726f6c3a206163636f756e7420000000000000000000815260008351620032a581601785016020880162003527565b7001034b99036b4b9b9b4b733903937b6329607d1b6017918401918201528351620032d881602884016020880162003527565b01602801949350505050565b6020808252825182820181905260009190848201906040850190845b81811015620033275783516001600160a01b03168352928401929184019160010162003300565b50909695505050505050565b6000602080830181845280855180835260408601915060408160051b8701019250838701855b828110156200338b57603f1988860301845262003378858351620031c5565b9450928501929085019060010162003359565b5092979650505050505050565b606081526000620033ae6060830187896200316e565b8281036020840152620033c38186886200316e565b91505060018060a01b03831660408301529695505050505050565b602081526000620023f9602083018462003197565b60208082526046908201527f4e656564206d6f72652066656520666f722063726561746520636f6c6c65637460408201527f696f6e2028696e636c7564652073746f726167652062616e6e65722c206c6f676060820152656f2c2e2e2e2960d01b608082015260a00190565b6020808252601f908201527f5265656e7472616e637947756172643a207265656e7472616e742063616c6c00604082015260600190565b602081526000620023f96020830184620031c5565b838152604060208201526000620034c76040830184866200316e565b95945050505050565b60008219821115620034e657620034e6620035c5565b500190565b6000816000190483118215151615620035085762003508620035c5565b500290565b600082821015620035225762003522620035c5565b500390565b60005b83811015620035445781810151838201526020016200352a565b83811115620007c75750506000910152565b600081620035685762003568620035c5565b506000190190565b600181811c908216806200358557607f821691505b602082108114156200111c57634e487b7160e01b600052602260045260246000fd5b6000600019821415620035be57620035be620035c5565b5060010190565b634e487b7160e01b600052601160045260246000fd5b634e487b7160e01b600052604160045260246000fd5b6001600160a01b0381168114620023dd57600080fdfe60806040523480156200001157600080fd5b506040516200278038038062002780833981016040819052620000349162000243565b8251839083906200004d906002906020850190620000ea565b50805162000063906003906020840190620000ea565b505050620000806200007a6200009460201b60201c565b62000098565b6200008b8162000098565b5050506200031f565b3390565b600d80546001600160a01b038381166001600160a01b0319831681179093556040519116919082907f8be0079c531659141344cd1fd0a4f28419497f9722a3daafe3b4186f6b6457e090600090a35050565b828054620000f890620002cc565b90600052602060002090601f0160209004810192826200011c576000855562000167565b82601f106200013757805160ff191683800117855562000167565b8280016001018555821562000167579182015b82811115620001675782518255916020019190600101906200014a565b506200017592915062000179565b5090565b5b808211156200017557600081556001016200017a565b600082601f830112620001a1578081fd5b81516001600160401b0380821115620001be57620001be62000309565b604051601f8301601f19908116603f01168101908282118183101715620001e957620001e962000309565b8160405283815260209250868385880101111562000205578485fd5b8491505b8382101562000228578582018301518183018401529082019062000209565b838211156200023957848385830101525b9695505050505050565b60008060006060848603121562000258578283fd5b83516001600160401b03808211156200026f578485fd5b6200027d8783880162000190565b9450602086015191508082111562000293578384fd5b50620002a28682870162000190565b604086015190935090506001600160a01b0381168114620002c1578182fd5b809150509250925092565b600181811c90821680620002e157607f821691505b602082108114156200030357634e487b7160e01b600052602260045260246000fd5b50919050565b634e487b7160e01b600052604160045260246000fd5b612451806200032f6000396000f3fe608060405234801561001057600080fd5b50600436106101735760003560e01c80636352211e116100de578063a22cb46511610097578063c87b56dd11610071578063c87b56dd14610373578063e985e9c514610386578063eaf05b16146103c2578063f2fde38b146103d557600080fd5b8063a22cb4651461033a578063b88d4fde1461034d578063c2f1f14a1461036057600080fd5b80636352211e146102ab57806370a08231146102be578063715018a6146102d15780638da5cb5b146102d95780638fc88c48146102ea57806395d89b411461033257600080fd5b806323b872dd1161013057806323b872dd1461021a5780632a55205a1461022d5780632f745c591461025f57806342842e0e1461027257806342966c68146102855780634f6ccce71461029857600080fd5b806301ffc9a71461017857806306fdde03146101a0578063081812fc146101b5578063095ea7b3146101e057806318160ddd146101f55780631b2a61b714610207575b600080fd5b61018b6101863660046120a5565b6103e8565b60405190151581526020015b60405180910390f35b6101a8610413565b60405161019791906121e0565b6101c86101c33660046120dd565b6104a5565b6040516001600160a01b039091168152602001610197565b6101f36101ee36600461207c565b610532565b005b600a545b604051908152602001610197565b6101f361021536600461200d565b610648565b6101f3610228366004611f1f565b6106b2565b61024061023b366004612127565b6106e4565b604080516001600160a01b039093168352602083019190915201610197565b6101f961026d36600461207c565b610790565b6101f3610280366004611f1f565b610826565b6101f36102933660046120dd565b610841565b6101f96102a63660046120dd565b6108bb565b6101c86102b93660046120dd565b61095c565b6101f96102cc366004611ed3565b6109d3565b6101f3610a5a565b600d546001600160a01b03166101c8565b61031a6102f83660046120dd565b6000908152600f6020526040902054600160a01b90046001600160601b031690565b6040516001600160601b039091168152602001610197565b6101a8610a90565b6101f3610348366004611fd3565b610a9f565b6101f361035b366004611f5a565b610aae565b6101c861036e3660046120dd565b610ae0565b6101a86103813660046120dd565b610b30565b61018b610394366004611eed565b6001600160a01b03918216600090815260076020908152604080832093909416825291909152205460ff1690565b6101f36103d03660046120f5565b610b3b565b6101f36103e3366004611ed3565b610c19565b60006001600160e01b031982166329f2498560e21b148061040d575061040d82610cb1565b92915050565b60606002805461042290612359565b80601f016020809104026020016040519081016040528092919081815260200182805461044e90612359565b801561049b5780601f106104705761010080835404028352916020019161049b565b820191906000526020600020905b81548152906001019060200180831161047e57829003601f168201915b5050505050905090565b60006104b082610cbc565b6105165760405162461bcd60e51b815260206004820152602c60248201527f4552433732313a20617070726f76656420717565727920666f72206e6f6e657860448201526b34b9ba32b73a103a37b5b2b760a11b60648201526084015b60405180910390fd5b506000908152600660205260409020546001600160a01b031690565b600061053d8261095c565b9050806001600160a01b0316836001600160a01b031614156105ab5760405162461bcd60e51b815260206004820152602160248201527f4552433732313a20617070726f76616c20746f2063757272656e74206f776e656044820152603960f91b606482015260840161050d565b336001600160a01b03821614806105c757506105c78133610394565b6106395760405162461bcd60e51b815260206004820152603860248201527f4552433732313a20617070726f76652063616c6c6572206973206e6f74206f7760448201527f6e6572206e6f7220617070726f76656420666f7220616c6c0000000000000000606482015260840161050d565b6106438383610cd9565b505050565b600d546001600160a01b031633146106725760405162461bcd60e51b815260040161050d90612245565b600061067d600e5490565b905061068d600e80546001019055565b6106978482610d47565b6106a18184610d61565b6106ac818584610dec565b50505050565b6106bd335b82610efa565b6106d95760405162461bcd60e51b815260040161050d9061227a565b610643838383610fe4565b60008281526001602090815260408083208151808301909252546001600160a01b038116808352600160a01b9091046001600160601b03169282019290925282916107595750604080518082019091526000546001600160a01b0381168252600160a01b90046001600160601b031660208201525b60208101516000906107d090610778906001600160601b0316876122f7565b61078291906122e3565b915196919550909350505050565b600061079b836109d3565b82106107fd5760405162461bcd60e51b815260206004820152602b60248201527f455243373231456e756d657261626c653a206f776e657220696e646578206f7560448201526a74206f6620626f756e647360a81b606482015260840161050d565b506001600160a01b03919091166000908152600860209081526040808320938352929052205490565b61064383838360405180602001604052806000815250610aae565b61084a336106b7565b6108af5760405162461bcd60e51b815260206004820152603060248201527f4552433732314275726e61626c653a2063616c6c6572206973206e6f74206f7760448201526f1b995c881b9bdc88185c1c1c9bdd995960821b606482015260840161050d565b6108b88161118b565b50565b60006108c6600a5490565b82106109295760405162461bcd60e51b815260206004820152602c60248201527f455243373231456e756d657261626c653a20676c6f62616c20696e646578206f60448201526b7574206f6620626f756e647360a01b606482015260840161050d565b600a828154811061094a57634e487b7160e01b600052603260045260246000fd5b90600052602060002001549050919050565b6000818152600460205260408120546001600160a01b03168061040d5760405162461bcd60e51b815260206004820152602960248201527f4552433732313a206f776e657220717565727920666f72206e6f6e657869737460448201526832b73a103a37b5b2b760b91b606482015260840161050d565b60006001600160a01b038216610a3e5760405162461bcd60e51b815260206004820152602a60248201527f4552433732313a2062616c616e636520717565727920666f7220746865207a65604482015269726f206164647265737360b01b606482015260840161050d565b506001600160a01b031660009081526005602052604090205490565b600d546001600160a01b03163314610a845760405162461bcd60e51b815260040161050d90612245565b610a8e6000611194565b565b60606003805461042290612359565b610aaa3383836111e6565b5050565b610ab83383610efa565b610ad45760405162461bcd60e51b815260040161050d9061227a565b6106ac848484846112b6565b6000818152600f602052604081205442600160a01b9091046001600160601b031610610b2257506000908152600f60205260409020546001600160a01b031690565b61040d8261095c565b919050565b606061040d826112e9565b610b453384610efa565b610bac5760405162461bcd60e51b815260206004820152603260248201527f455243343930373a207472616e736665722063616c6c6572206973206e6f74206044820152711bdddb995c881b9bdc88185c1c1c9bdd995960721b606482015260840161050d565b6000838152600f60209081526040918290206001600160601b038416600160a01b81026001600160a01b0387169081178355935190815290929186917ff3eadda1a229156f3f0f663b8e3b1f2409cb8d447391afe7a1221b52401529ae910160405180910390a350505050565b600d546001600160a01b03163314610c435760405162461bcd60e51b815260040161050d90612245565b6001600160a01b038116610ca85760405162461bcd60e51b815260206004820152602660248201527f4f776e61626c653a206e6577206f776e657220697320746865207a65726f206160448201526564647265737360d01b606482015260840161050d565b6108b881611194565b600061040d82611458565b6000908152600460205260409020546001600160a01b0316151590565b600081815260066020526040902080546001600160a01b0319166001600160a01b0384169081179091558190610d0e8261095c565b6001600160a01b03167f8c5be1e5ebec7d5bd14f71427d1e84f3dd0314c0f7b2291e5b200ac8c7c3b92560405160405180910390a45050565b610aaa82826040518060200160405280600081525061147d565b610d6a82610cbc565b610dcd5760405162461bcd60e51b815260206004820152602e60248201527f45524337323155524953746f726167653a2055524920736574206f66206e6f6e60448201526d32bc34b9ba32b73a103a37b5b2b760911b606482015260840161050d565b6000828152600c60209081526040909120825161064392840190611d60565b6107d06001600160601b0382161115610e5a5760405162461bcd60e51b815260206004820152602a60248201527f455243323938313a20726f79616c7479206665652077696c6c206578636565646044820152692073616c65507269636560b01b606482015260840161050d565b6001600160a01b038216610eb05760405162461bcd60e51b815260206004820152601b60248201527f455243323938313a20496e76616c696420706172616d65746572730000000000604482015260640161050d565b6040805180820182526001600160a01b0393841681526001600160601b0392831660208083019182526000968752600190529190942093519051909116600160a01b029116179055565b6000610f0582610cbc565b610f665760405162461bcd60e51b815260206004820152602c60248201527f4552433732313a206f70657261746f7220717565727920666f72206e6f6e657860448201526b34b9ba32b73a103a37b5b2b760a11b606482015260840161050d565b6000610f718361095c565b9050806001600160a01b0316846001600160a01b03161480610fb857506001600160a01b0380821660009081526007602090815260408083209388168352929052205460ff165b80610fdc5750836001600160a01b0316610fd1846104a5565b6001600160a01b0316145b949350505050565b826001600160a01b0316610ff78261095c565b6001600160a01b03161461105b5760405162461bcd60e51b815260206004820152602560248201527f4552433732313a207472616e736665722066726f6d20696e636f72726563742060448201526437bbb732b960d91b606482015260840161050d565b6001600160a01b0382166110bd5760405162461bcd60e51b8152602060048201526024808201527f4552433732313a207472616e7366657220746f20746865207a65726f206164646044820152637265737360e01b606482015260840161050d565b6110c88383836114b0565b6110d3600082610cd9565b6001600160a01b03831660009081526005602052604081208054600192906110fc908490612316565b90915550506001600160a01b038216600090815260056020526040812080546001929061112a9084906122cb565b909155505060008181526004602052604080822080546001600160a01b0319166001600160a01b0386811691821790925591518493918716917fddf252ad1be2c89b69c2b068fc378daa952ba7f163c4a11628f55a4df523b3ef91a4505050565b6108b88161153a565b600d80546001600160a01b038381166001600160a01b0319831681179093556040519116919082907f8be0079c531659141344cd1fd0a4f28419497f9722a3daafe3b4186f6b6457e090600090a35050565b816001600160a01b0316836001600160a01b031614156112485760405162461bcd60e51b815260206004820152601960248201527f4552433732313a20617070726f766520746f2063616c6c657200000000000000604482015260640161050d565b6001600160a01b03838116600081815260076020908152604080832094871680845294825291829020805460ff191686151590811790915591519182527f17307eab39ab6107e8899845ad3d59bd9653f200f220920489ca2b5937696c3191015b60405180910390a3505050565b6112c1848484610fe4565b6112cd84848484611554565b6106ac5760405162461bcd60e51b815260040161050d906121f3565b60606112f482610cbc565b61135a5760405162461bcd60e51b815260206004820152603160248201527f45524337323155524953746f726167653a2055524920717565727920666f72206044820152703737b732bc34b9ba32b73a103a37b5b2b760791b606482015260840161050d565b6000828152600c60205260408120805461137390612359565b80601f016020809104026020016040519081016040528092919081815260200182805461139f90612359565b80156113ec5780601f106113c1576101008083540402835291602001916113ec565b820191906000526020600020905b8154815290600101906020018083116113cf57829003601f168201915b50505050509050600061140a60408051602081019091526000815290565b905080516000141561141d575092915050565b81511561144f578082604051602001611437929190612174565b60405160208183030381529060405292505050919050565b610fdc84611661565b60006001600160e01b0319821663780e9d6360e01b148061040d575061040d82611739565b6114878383611779565b6114946000848484611554565b6106435760405162461bcd60e51b815260040161050d906121f3565b6114bb8383836118b8565b816001600160a01b0316836001600160a01b0316141580156114f357506000818152600f60205260409020546001600160a01b031615155b15610643576000818152600f602090815260408083208390555182815283917ff3eadda1a229156f3f0f663b8e3b1f2409cb8d447391afe7a1221b52401529ae91016112a9565b61154381611970565b600090815260016020526040812055565b60006001600160a01b0384163b1561165657604051630a85bd0160e11b81526001600160a01b0385169063150b7a02906115989033908990889088906004016121a3565b602060405180830381600087803b1580156115b257600080fd5b505af19250505080156115e2575060408051601f3d908101601f191682019092526115df918101906120c1565b60015b61163c573d808015611610576040519150601f19603f3d011682016040523d82523d6000602084013e611615565b606091505b5080516116345760405162461bcd60e51b815260040161050d906121f3565b805181602001fd5b6001600160e01b031916630a85bd0160e11b149050610fdc565b506001949350505050565b606061166c82610cbc565b6116d05760405162461bcd60e51b815260206004820152602f60248201527f4552433732314d657461646174613a2055524920717565727920666f72206e6f60448201526e3732bc34b9ba32b73a103a37b5b2b760891b606482015260840161050d565b60006116e760408051602081019091526000815290565b905060008151116117075760405180602001604052806000815250611732565b80611711846119b0565b604051602001611722929190612174565b6040516020818303038152906040525b9392505050565b60006001600160e01b031982166380ac58cd60e01b148061176a57506001600160e01b03198216635b5e139f60e01b145b8061040d575061040d82611aca565b6001600160a01b0382166117cf5760405162461bcd60e51b815260206004820181905260248201527f4552433732313a206d696e7420746f20746865207a65726f2061646472657373604482015260640161050d565b6117d881610cbc565b156118255760405162461bcd60e51b815260206004820152601c60248201527f4552433732313a20746f6b656e20616c7265616479206d696e74656400000000604482015260640161050d565b611831600083836114b0565b6001600160a01b038216600090815260056020526040812080546001929061185a9084906122cb565b909155505060008181526004602052604080822080546001600160a01b0319166001600160a01b03861690811790915590518392907fddf252ad1be2c89b69c2b068fc378daa952ba7f163c4a11628f55a4df523b3ef908290a45050565b6001600160a01b0383166119135761190e81600a80546000838152600b60205260408120829055600182018355919091527fc65a7bb8d6351c1cf70c95a316cc6a92839c986682d98bc35f958f4883f9d2a80155565b611936565b816001600160a01b0316836001600160a01b031614611936576119368382611aff565b6001600160a01b03821661194d5761064381611b9c565b826001600160a01b0316826001600160a01b031614610643576106438282611c75565b61197981611cb9565b6000818152600c60205260409020805461199290612359565b1590506108b8576000818152600c602052604081206108b891611de4565b6060816119d45750506040805180820190915260018152600360fc1b602082015290565b8160005b81156119fe57806119e881612394565b91506119f79050600a836122e3565b91506119d8565b60008167ffffffffffffffff811115611a2757634e487b7160e01b600052604160045260246000fd5b6040519080825280601f01601f191660200182016040528015611a51576020820181803683370190505b5090505b8415610fdc57611a66600183612316565b9150611a73600a866123af565b611a7e9060306122cb565b60f81b818381518110611aa157634e487b7160e01b600052603260045260246000fd5b60200101906001600160f81b031916908160001a905350611ac3600a866122e3565b9450611a55565b60006001600160e01b0319821663152a902d60e11b148061040d57506301ffc9a760e01b6001600160e01b031983161461040d565b60006001611b0c846109d3565b611b169190612316565b600083815260096020526040902054909150808214611b69576001600160a01b03841660009081526008602090815260408083208584528252808320548484528184208190558352600990915290208190555b5060009182526009602090815260408084208490556001600160a01b039094168352600881528383209183525290812055565b600a54600090611bae90600190612316565b6000838152600b6020526040812054600a8054939450909284908110611be457634e487b7160e01b600052603260045260246000fd5b9060005260206000200154905080600a8381548110611c1357634e487b7160e01b600052603260045260246000fd5b6000918252602080832090910192909255828152600b9091526040808220849055858252812055600a805480611c5957634e487b7160e01b600052603160045260246000fd5b6001900381819060005260206000200160009055905550505050565b6000611c80836109d3565b6001600160a01b039093166000908152600860209081526040808320868452825280832085905593825260099052919091209190915550565b6000611cc48261095c565b9050611cd2816000846114b0565b611cdd600083610cd9565b6001600160a01b0381166000908152600560205260408120805460019290611d06908490612316565b909155505060008281526004602052604080822080546001600160a01b0319169055518391906001600160a01b038416907fddf252ad1be2c89b69c2b068fc378daa952ba7f163c4a11628f55a4df523b3ef908390a45050565b828054611d6c90612359565b90600052602060002090601f016020900481019282611d8e5760008555611dd4565b82601f10611da757805160ff1916838001178555611dd4565b82800160010185558215611dd4579182015b82811115611dd4578251825591602001919060010190611db9565b50611de0929150611e1a565b5090565b508054611df090612359565b6000825580601f10611e00575050565b601f0160209004906000526020600020908101906108b891905b5b80821115611de05760008155600101611e1b565b600067ffffffffffffffff80841115611e4a57611e4a6123ef565b604051601f8501601f19908116603f01168101908282118183101715611e7257611e726123ef565b81604052809350858152868686011115611e8b57600080fd5b858560208301376000602087830101525050509392505050565b80356001600160a01b0381168114610b2b57600080fd5b80356001600160601b0381168114610b2b57600080fd5b600060208284031215611ee4578081fd5b61173282611ea5565b60008060408385031215611eff578081fd5b611f0883611ea5565b9150611f1660208401611ea5565b90509250929050565b600080600060608486031215611f33578081fd5b611f3c84611ea5565b9250611f4a60208501611ea5565b9150604084013590509250925092565b60008060008060808587031215611f6f578081fd5b611f7885611ea5565b9350611f8660208601611ea5565b925060408501359150606085013567ffffffffffffffff811115611fa8578182fd5b8501601f81018713611fb8578182fd5b611fc787823560208401611e2f565b91505092959194509250565b60008060408385031215611fe5578182fd5b611fee83611ea5565b915060208301358015158114612002578182fd5b809150509250929050565b600080600060608486031215612021578283fd5b61202a84611ea5565b9250602084013567ffffffffffffffff811115612045578283fd5b8401601f81018613612055578283fd5b61206486823560208401611e2f565b92505061207360408501611ebc565b90509250925092565b6000806040838503121561208e578182fd5b61209783611ea5565b946020939093013593505050565b6000602082840312156120b6578081fd5b813561173281612405565b6000602082840312156120d2578081fd5b815161173281612405565b6000602082840312156120ee578081fd5b5035919050565b600080600060608486031215612109578283fd5b8335925061211960208501611ea5565b915061207360408501611ebc565b60008060408385031215612139578182fd5b50508035926020909101359150565b6000815180845261216081602086016020860161232d565b601f01601f19169290920160200192915050565b6000835161218681846020880161232d565b83519083019061219a81836020880161232d565b01949350505050565b6001600160a01b03858116825284166020820152604081018390526080606082018190526000906121d690830184612148565b9695505050505050565b6020815260006117326020830184612148565b60208082526032908201527f4552433732313a207472616e7366657220746f206e6f6e20455243373231526560408201527131b2b4bb32b91034b6b83632b6b2b73a32b960711b606082015260800190565b6020808252818101527f4f776e61626c653a2063616c6c6572206973206e6f7420746865206f776e6572604082015260600190565b60208082526031908201527f4552433732313a207472616e736665722063616c6c6572206973206e6f74206f6040820152701ddb995c881b9bdc88185c1c1c9bdd9959607a1b606082015260800190565b600082198211156122de576122de6123c3565b500190565b6000826122f2576122f26123d9565b500490565b6000816000190483118215151615612311576123116123c3565b500290565b600082821015612328576123286123c3565b500390565b60005b83811015612348578181015183820152602001612330565b838111156106ac5750506000910152565b600181811c9082168061236d57607f821691505b6020821081141561238e57634e487b7160e01b600052602260045260246000fd5b50919050565b60006000198214156123a8576123a86123c3565b5060010190565b6000826123be576123be6123d9565b500690565b634e487b7160e01b600052601160045260246000fd5b634e487b7160e01b600052601260045260246000fd5b634e487b7160e01b600052604160045260246000fd5b6001600160e01b0319811681146108b857600080fdfea264697066735822122022e302ae04a767701be07b817a9823bd01ef06ffe16644e3fc49f3ce152fe73c64736f6c63430008040033877a78dc988c0ec5f58453b44888a55eb39755c3d5ed8d8ea990912aa3ef29c6a26469706673582212208591675505f24fa367fe82b94bbdf4f384fc9d2c385085a92b7801a30c03c0ab64736f6c63430008040033",
  "immutableReferences": {},
  "source": "// SPDX-License-Identifier: MIT\r\npragma solidity ^0.8.4;\r\nimport \"@openzeppelin/contracts/utils/Counters.sol\";\r\nimport \"@openzeppelin/contracts/access/AccessControl.sol\";\r\nimport \"@openzeppelin/contracts/security/ReentrancyGuard.sol\";\r\nimport \"@openzeppelin/contracts/token/ERC721/ERC721.sol\";\r\nimport \"@openzeppelin/contracts/utils/introspection/ERC165Checker.sol\";\r\nimport \"@openzeppelin/contracts/utils/structs/EnumerableSet.sol\";\r\nimport \"@openzeppelin/contracts/token/ERC20/IERC20.sol\";\r\nimport \"./standards/PNFT.sol\";\r\nimport \"./interfaces/INFT.sol\";\r\nimport \"./interfaces/IHub.sol\";\r\nimport \"./interfaces/IHubChild.sol\";\r\n\r\ncontract Hub is IHub, AccessControl, ReentrancyGuard {\r\n    using Counters for Counters.Counter;\r\n    using EnumerableSet for EnumerableSet.AddressSet;\r\n\r\n    bytes32 public constant ARTIST_ROLE = keccak256(\"ARTIST_ROLE\");\r\n    bytes4 public constant ERC721INTERFACE = type(IERC721).interfaceId;\r\n    uint256 public RATE_FEE;\r\n    Counters.Counter private _itemCount;\r\n    uint256[] public collectionIds;\r\n    EnumerableSet.AddressSet private _hubChild;\r\n\r\n    struct Collection {\r\n        uint256 cid;\r\n        address contractAddress;\r\n        string name;\r\n        string symbol;\r\n        string metadata;\r\n        address owner;\r\n    }\r\n\r\n    uint256 public CREATE_FEE;\r\n\r\n    mapping(uint256 => Collection) private _cidToCollection;\r\n    mapping(address => uint256) private _addressToCid;\r\n\r\n    event CollectionCreated(\r\n        uint256 cid,\r\n        address indexed owner,\r\n        address indexed nftAddress,\r\n        string metadata\r\n    );\r\n    \r\n    event CollectionListed(\r\n        uint256 cid,\r\n        address indexed owner,\r\n        address indexed nftAddress,\r\n        string metadata\r\n    );\r\n\r\n    event CollectionEdited(\r\n        uint256 cid,\r\n        string metadata\r\n    );\r\n\r\n    event AddToken(\r\n        address indexed tokenAddress\r\n    );\r\n\r\n    event RemoveToken(\r\n        address indexed tokenAddress\r\n    );\r\n\r\n    modifier onlyCollectionOwner(uint256 cid) {\r\n        require(\r\n            _cidToCollection[cid].owner == msg.sender,\r\n            \"Only owner can edit metadata\"\r\n        );\r\n        _;\r\n    }\r\n\r\n    constructor(uint256 fee) {\r\n        CREATE_FEE = fee;\r\n        _grantRole(DEFAULT_ADMIN_ROLE, msg.sender);\r\n        _grantRole(ARTIST_ROLE, msg.sender);\r\n    }\r\n\r\n    function setFee(uint256 newFee) public onlyRole(DEFAULT_ADMIN_ROLE) {\r\n        CREATE_FEE = newFee;\r\n    }\r\n\r\n    function getCreateFee() public view returns (uint256) {\r\n        return CREATE_FEE;\r\n    }\r\n\r\n    function addHubChild(address childAddress)\r\n        external\r\n        onlyRole(DEFAULT_ADMIN_ROLE)\r\n    {\r\n        _hubChild.add(childAddress);\r\n    }\r\n\r\n    function removeHubChild(address childAddress)\r\n        external\r\n        onlyRole(DEFAULT_ADMIN_ROLE)\r\n    {\r\n        _hubChild.remove(childAddress);\r\n    }\r\n\r\n    function getHubChild()\r\n        external\r\n        view\r\n        returns (address[] memory)\r\n    {\r\n        return _hubChild.values();\r\n    }\r\n\r\n    //IHub implement\r\n    function addAcceptToken(address tokenAddr)\r\n        external\r\n        override\r\n        onlyRole(DEFAULT_ADMIN_ROLE)\r\n    {\r\n        uint256 childLength = _hubChild.length();\r\n        for (uint256 i = 0; i < childLength; i++) {\r\n            IHubChild(_hubChild.at(i)).addAcceptToken(tokenAddr);\r\n        }\r\n        emit AddToken(tokenAddr);\r\n    }\r\n\r\n    function removeToken(address tokenAddr)\r\n        external\r\n        override\r\n        onlyRole(DEFAULT_ADMIN_ROLE)\r\n    {\r\n        uint256 childLength = _hubChild.length();\r\n        for (uint256 i = 0; i < childLength; i++) {\r\n            IHubChild(_hubChild.at(i)).removeToken(tokenAddr);\r\n        }\r\n        emit RemoveToken(tokenAddr);\r\n    }\r\n\r\n    //IPlatformFee implement\r\n    function addWhitelistAddress(address whitelistAddress, uint256 fee)\r\n        external\r\n        override\r\n        onlyRole(DEFAULT_ADMIN_ROLE)\r\n    {\r\n        uint256 childLength = _hubChild.length();\r\n        for (uint256 i = 0; i < childLength; i++) {\r\n            IHubChild(_hubChild.at(i)).addWhitelistAddress(\r\n                whitelistAddress,\r\n                fee\r\n            );\r\n        }\r\n    }\r\n\r\n    function removeWhitelistAddress(address whitelistAddress)\r\n        external\r\n        override\r\n        onlyRole(DEFAULT_ADMIN_ROLE)\r\n    {\r\n        uint256 childLength = _hubChild.length();\r\n        for (uint256 i = 0; i < childLength; i++) {\r\n            IHubChild(_hubChild.at(i)).removeWhitelistAddress(whitelistAddress);\r\n        }\r\n    }\r\n    \r\n    function setRateFee(uint256 rateFee) external override onlyRole(DEFAULT_ADMIN_ROLE) {\r\n        uint256 childLength = _hubChild.length();\r\n        RATE_FEE = rateFee;\r\n        for (uint256 i = 0; i < childLength; i++) {\r\n            IHubChild(_hubChild.at(i)).setRateFee(rateFee);\r\n        }\r\n    }\r\n\r\n    function createCollection(\r\n        string calldata name,\r\n        string calldata symbol,\r\n        string calldata metadata\r\n    ) public payable onlyRole(ARTIST_ROLE) nonReentrant {\r\n        require(\r\n            msg.value == CREATE_FEE,\r\n            \"Need more fee for create collection (include storage banner, logo,...)\"\r\n        );\r\n        uint256 itemId = _itemCount.current();\r\n        _itemCount.increment();\r\n        address newPNFT = address(new PNFT(name, symbol, msg.sender));\r\n\r\n        _cidToCollection[itemId] = Collection(\r\n            itemId,\r\n            newPNFT,\r\n            name,\r\n            symbol,\r\n            metadata,\r\n            msg.sender\r\n        );\r\n        _addressToCid[newPNFT] = itemId;\r\n        collectionIds.push(itemId);\r\n        emit CollectionCreated(itemId, msg.sender, newPNFT, metadata);\r\n    }\r\n\r\n    function listCollection(address nftAddress, string calldata metadata)\r\n        public\r\n        payable\r\n        onlyRole(ARTIST_ROLE)\r\n        nonReentrant\r\n    {\r\n        require(\r\n            msg.value == CREATE_FEE,\r\n            \"Need more fee for create collection (include storage banner, logo,...)\"\r\n        );\r\n        require(\r\n            ERC165Checker.supportsInterface(nftAddress, ERC721INTERFACE),\r\n            \"Contract needs to be ERC721\"\r\n        );\r\n        INFT newPNFT = INFT(nftAddress);\r\n\r\n        require(newPNFT.owner() == msg.sender, \"Caller must be NFT owner\");\r\n        require(_addressToCid[nftAddress] == 0, \"Contract is listed\");\r\n\r\n        uint256 itemId = _itemCount.current();\r\n        if (itemId != 0) {\r\n            require(\r\n                nftAddress != _cidToCollection[0].contractAddress,\r\n                \"Contract is listed\"\r\n            );\r\n        }\r\n\r\n        _itemCount.increment();\r\n        _addressToCid[nftAddress] = itemId;\r\n        _cidToCollection[itemId] = Collection(\r\n            itemId,\r\n            nftAddress,\r\n            newPNFT.name(),\r\n            newPNFT.symbol(),\r\n            metadata,\r\n            msg.sender\r\n        );\r\n        collectionIds.push(itemId);\r\n        emit CollectionListed(itemId, msg.sender, nftAddress, metadata);\r\n    }\r\n\r\n    function editMetaData(uint256 cid, string calldata newHash)\r\n        public\r\n        onlyRole(ARTIST_ROLE)\r\n        onlyCollectionOwner(cid)\r\n        nonReentrant\r\n    {\r\n        _cidToCollection[cid].metadata = newHash;\r\n        emit CollectionEdited(cid, newHash);\r\n    }\r\n\r\n    function transferCollection(uint256 cid, address newOwner)\r\n        public\r\n        onlyRole(ARTIST_ROLE)\r\n        onlyCollectionOwner(cid)\r\n        nonReentrant\r\n    {\r\n        _cidToCollection[cid].owner = newOwner;\r\n    }\r\n\r\n    function totalCollections() external view returns (uint256) {\r\n        return _itemCount.current();\r\n    }\r\n\r\n    function getCollectionData(uint256 cid)\r\n        public\r\n        view\r\n        returns (Collection memory)\r\n    {\r\n        return _cidToCollection[cid];\r\n    }\r\n\r\n    function getCollectionByAddress(address nftAddress)\r\n        public\r\n        view\r\n        returns (Collection memory)\r\n    {\r\n        return _cidToCollection[_addressToCid[nftAddress]];\r\n    }\r\n\r\n    function getCollectionsByOwner(address creator)\r\n        public\r\n        view\r\n        returns (Collection[] memory)\r\n    {\r\n        uint256 cCount = _itemCount.current();\r\n        uint256 myCollectionCount = 0;\r\n        for (uint256 i = 0; i < cCount; i++) {\r\n            if (_cidToCollection[i].owner == creator) {\r\n                myCollectionCount++;\r\n            }\r\n        }\r\n\r\n        Collection[] memory collections = new Collection[](myCollectionCount);\r\n        uint256 cIndex = 0;\r\n        for (uint256 i = 0; i < cCount; i++) {\r\n            if (_cidToCollection[i].owner == creator) {\r\n                collections[cIndex] = _cidToCollection[i];\r\n                cIndex++;\r\n            }\r\n        }\r\n        return collections;\r\n    }\r\n\r\n    function getCollectionsPaginated(uint256 startIndex, uint256 endIndex)\r\n        external\r\n        view\r\n        returns (Collection[] memory)\r\n    {\r\n        require(\r\n            endIndex >= startIndex,\r\n            \"End Index needs to be greater than or equal to start Index\"\r\n        );\r\n        if (endIndex > collectionIds.length) {\r\n            endIndex = collectionIds.length;\r\n        }\r\n        uint256 length = endIndex - startIndex + 1;\r\n        Collection[] memory info = new Collection[](length);\r\n        for (uint256 i = startIndex; i <= endIndex; i++) {\r\n            info[i] = _cidToCollection[collectionIds[i]];\r\n        }\r\n\r\n        return info;\r\n    }\r\n\r\n    function getAllCollections() external view returns (Collection[] memory) {\r\n        Collection[] memory collections = new Collection[](\r\n            collectionIds.length\r\n        );\r\n        for (uint256 i = 0; i < collectionIds.length; i++) {\r\n            collections[i] = _cidToCollection[collectionIds[i]];\r\n        }\r\n\r\n        return collections;\r\n    }\r\n\r\n    function withdrawFee(address to, address tokenAddress, uint256 amount) external onlyRole(DEFAULT_ADMIN_ROLE) {\r\n        sendAssets(address(this), to, tokenAddress, amount);\r\n    }\r\n    \r\n    function sendAssets(\r\n        address from,\r\n        address to,\r\n        address ftToken,\r\n        uint256 value\r\n    ) private {\r\n        if (ftToken == address(0)) {\r\n            payable(to).transfer(value);\r\n        } else {\r\n            if (from != address(this)) {\r\n                IERC20(ftToken).transferFrom(from, to, value);\r\n            } else {\r\n                IERC20(ftToken).transfer(to, value);\r\n            }\r\n        }\r\n    }\r\n}\r\n",
  "sourcePath": "G:\\Learning\\Project\\source\\picasarts-contracts\\contracts\\Hub.sol",
  "compiler": {
    "name": "solc",
    "version": "0.8.4+commit.c7e474f2.Emscripten.clang"
  },
  "schemaVersion": "3.4.10",
  "updatedAt": "2023-02-24T18:18:06.486Z",
  "devdoc": {
    "kind": "dev",
    "methods": {
      "getRoleAdmin(bytes32)": {
        "details": "Returns the admin role that controls `role`. See {grantRole} and {revokeRole}. To change a role's admin, use {_setRoleAdmin}."
      },
      "grantRole(bytes32,address)": {
        "details": "Grants `role` to `account`. If `account` had not been already granted `role`, emits a {RoleGranted} event. Requirements: - the caller must have ``role``'s admin role."
      },
      "hasRole(bytes32,address)": {
        "details": "Returns `true` if `account` has been granted `role`."
      },
      "renounceRole(bytes32,address)": {
        "details": "Revokes `role` from the calling account. Roles are often managed via {grantRole} and {revokeRole}: this function's purpose is to provide a mechanism for accounts to lose their privileges if they are compromised (such as when a trusted device is misplaced). If the calling account had been revoked `role`, emits a {RoleRevoked} event. Requirements: - the caller must be `account`."
      },
      "revokeRole(bytes32,address)": {
        "details": "Revokes `role` from `account`. If `account` had been granted `role`, emits a {RoleRevoked} event. Requirements: - the caller must have ``role``'s admin role."
      },
      "supportsInterface(bytes4)": {
        "details": "See {IERC165-supportsInterface}."
      }
    },
    "version": 1
  },
  "userdoc": {
    "kind": "user",
    "methods": {},
    "version": 1
  }
}