{
  "_format": "hh-sol-artifact-1",
  "contractName": "Marketplace",
  "sourceName": "contracts/Marketplace.sol",
  "abi": [
    {
      "inputs": [
        {
          "internalType": "uint256",
          "name": "fee",
          "type": "uint256"
        },
        {
          "internalType": "address",
          "name": "hub",
          "type": "address"
        }
      ],
      "stateMutability": "nonpayable",
      "type": "constructor"
    },
    {
      "anonymous": false,
      "inputs": [
        {
          "indexed": false,
          "internalType": "uint256",
          "name": "itemId",
          "type": "uint256"
        },
        {
          "indexed": false,
          "internalType": "address",
          "name": "nftContract",
          "type": "address"
        },
        {
          "indexed": false,
          "internalType": "uint256",
          "name": "tokenId",
          "type": "uint256"
        },
        {
          "indexed": false,
          "internalType": "address",
          "name": "bidder",
          "type": "address"
        },
        {
          "indexed": false,
          "internalType": "uint256",
          "name": "price",
          "type": "uint256"
        }
      ],
      "name": "NFTAddAuction",
      "type": "event"
    },
    {
      "anonymous": false,
      "inputs": [
        {
          "indexed": false,
          "internalType": "uint256",
          "name": "itemId",
          "type": "uint256"
        },
        {
          "indexed": false,
          "internalType": "address",
          "name": "nftContract",
          "type": "address"
        },
        {
          "indexed": false,
          "internalType": "uint256",
          "name": "tokenId",
          "type": "uint256"
        },
        {
          "indexed": false,
          "internalType": "address",
          "name": "seller",
          "type": "address"
        },
        {
          "indexed": false,
          "internalType": "address",
          "name": "owner",
          "type": "address"
        },
        {
          "indexed": false,
          "internalType": "address",
          "name": "ftContract",
          "type": "address"
        },
        {
          "indexed": false,
          "internalType": "uint256",
          "name": "price",
          "type": "uint256"
        },
        {
          "indexed": false,
          "internalType": "bool",
          "name": "auction",
          "type": "bool"
        }
      ],
      "name": "NFTListed",
      "type": "event"
    },
    {
      "anonymous": false,
      "inputs": [
        {
          "indexed": false,
          "internalType": "uint256",
          "name": "itemId",
          "type": "uint256"
        },
        {
          "indexed": false,
          "internalType": "address",
          "name": "nftContract",
          "type": "address"
        },
        {
          "indexed": false,
          "internalType": "uint256",
          "name": "tokenId",
          "type": "uint256"
        },
        {
          "indexed": false,
          "internalType": "address",
          "name": "seller",
          "type": "address"
        },
        {
          "indexed": false,
          "internalType": "address",
          "name": "owner",
          "type": "address"
        },
        {
          "indexed": false,
          "internalType": "uint256",
          "name": "price",
          "type": "uint256"
        }
      ],
      "name": "NFTSold",
      "type": "event"
    },
    {
      "anonymous": false,
      "inputs": [
        {
          "indexed": false,
          "internalType": "uint256",
          "name": "itemId",
          "type": "uint256"
        }
      ],
      "name": "NFTUnlisted",
      "type": "event"
    },
    {
      "anonymous": false,
      "inputs": [
        {
          "indexed": true,
          "internalType": "address",
          "name": "previousOwner",
          "type": "address"
        },
        {
          "indexed": true,
          "internalType": "address",
          "name": "newOwner",
          "type": "address"
        }
      ],
      "name": "OwnershipTransferred",
      "type": "event"
    },
    {
      "inputs": [],
      "name": "DENOMINATOR",
      "outputs": [
        {
          "internalType": "uint256",
          "name": "",
          "type": "uint256"
        }
      ],
      "stateMutability": "view",
      "type": "function"
    },
    {
      "inputs": [],
      "name": "ERC2981INTERFACE",
      "outputs": [
        {
          "internalType": "bytes4",
          "name": "",
          "type": "bytes4"
        }
      ],
      "stateMutability": "view",
      "type": "function"
    },
    {
      "inputs": [],
      "name": "ERC721INTERFACE",
      "outputs": [
        {
          "internalType": "bytes4",
          "name": "",
          "type": "bytes4"
        }
      ],
      "stateMutability": "view",
      "type": "function"
    },
    {
      "inputs": [],
      "name": "RATE_FEE",
      "outputs": [
        {
          "internalType": "uint256",
          "name": "",
          "type": "uint256"
        }
      ],
      "stateMutability": "view",
      "type": "function"
    },
    {
      "inputs": [
        {
          "internalType": "uint256",
          "name": "itemId",
          "type": "uint256"
        }
      ],
      "name": "acceptAuctionNft",
      "outputs": [],
      "stateMutability": "payable",
      "type": "function"
    },
    {
      "inputs": [
        {
          "internalType": "address",
          "name": "tokenAddr",
          "type": "address"
        }
      ],
      "name": "addAcceptToken",
      "outputs": [],
      "stateMutability": "nonpayable",
      "type": "function"
    },
    {
      "inputs": [
        {
          "internalType": "uint256",
          "name": "itemId",
          "type": "uint256"
        },
        {
          "internalType": "uint256",
          "name": "value",
          "type": "uint256"
        }
      ],
      "name": "addAuctionNft",
      "outputs": [],
      "stateMutability": "payable",
      "type": "function"
    },
    {
      "inputs": [
        {
          "internalType": "address",
          "name": "whitelistAddress",
          "type": "address"
        },
        {
          "internalType": "uint256",
          "name": "fee",
          "type": "uint256"
        }
      ],
      "name": "addWhitelistAddress",
      "outputs": [],
      "stateMutability": "nonpayable",
      "type": "function"
    },
    {
      "inputs": [
        {
          "internalType": "uint256",
          "name": "itemId",
          "type": "uint256"
        }
      ],
      "name": "buyNft",
      "outputs": [],
      "stateMutability": "payable",
      "type": "function"
    },
    {
      "inputs": [
        {
          "internalType": "address",
          "name": "walletAddress",
          "type": "address"
        },
        {
          "internalType": "address",
          "name": "tokenAddress",
          "type": "address"
        }
      ],
      "name": "feeOf",
      "outputs": [
        {
          "internalType": "uint256",
          "name": "",
          "type": "uint256"
        }
      ],
      "stateMutability": "view",
      "type": "function"
    },
    {
      "inputs": [],
      "name": "getAcceptTokens",
      "outputs": [
        {
          "internalType": "address[]",
          "name": "",
          "type": "address[]"
        }
      ],
      "stateMutability": "view",
      "type": "function"
    },
    {
      "inputs": [],
      "name": "getListAuction",
      "outputs": [
        {
          "components": [
            {
              "internalType": "address",
              "name": "bidder",
              "type": "address"
            },
            {
              "internalType": "uint256",
              "name": "highestBid",
              "type": "uint256"
            },
            {
              "internalType": "bool",
              "name": "limitTime",
              "type": "bool"
            },
            {
              "internalType": "uint256",
              "name": "timeEnd",
              "type": "uint256"
            }
          ],
          "internalType": "struct Marketplace.Auction[]",
          "name": "",
          "type": "tuple[]"
        }
      ],
      "stateMutability": "view",
      "type": "function"
    },
    {
      "inputs": [],
      "name": "getListedNfts",
      "outputs": [
        {
          "components": [
            {
              "internalType": "uint256",
              "name": "itemId",
              "type": "uint256"
            },
            {
              "internalType": "address",
              "name": "nftContract",
              "type": "address"
            },
            {
              "internalType": "uint256",
              "name": "tokenId",
              "type": "uint256"
            },
            {
              "internalType": "address",
              "name": "seller",
              "type": "address"
            },
            {
              "internalType": "address",
              "name": "owner",
              "type": "address"
            },
            {
              "internalType": "address",
              "name": "ftContract",
              "type": "address"
            },
            {
              "internalType": "uint256",
              "name": "price",
              "type": "uint256"
            },
            {
              "internalType": "bool",
              "name": "listed",
              "type": "bool"
            },
            {
              "internalType": "bool",
              "name": "auction",
              "type": "bool"
            }
          ],
          "internalType": "struct Marketplace.NFT[]",
          "name": "",
          "type": "tuple[]"
        }
      ],
      "stateMutability": "view",
      "type": "function"
    },
    {
      "inputs": [
        {
          "internalType": "address",
          "name": "contractAddress",
          "type": "address"
        },
        {
          "internalType": "uint256",
          "name": "tokenId",
          "type": "uint256"
        }
      ],
      "name": "getMarketData",
      "outputs": [
        {
          "components": [
            {
              "internalType": "uint256",
              "name": "itemId",
              "type": "uint256"
            },
            {
              "internalType": "address",
              "name": "nftContract",
              "type": "address"
            },
            {
              "internalType": "uint256",
              "name": "tokenId",
              "type": "uint256"
            },
            {
              "internalType": "address",
              "name": "seller",
              "type": "address"
            },
            {
              "internalType": "address",
              "name": "owner",
              "type": "address"
            },
            {
              "internalType": "address",
              "name": "ftContract",
              "type": "address"
            },
            {
              "internalType": "uint256",
              "name": "price",
              "type": "uint256"
            },
            {
              "internalType": "bool",
              "name": "listed",
              "type": "bool"
            },
            {
              "internalType": "bool",
              "name": "auction",
              "type": "bool"
            }
          ],
          "internalType": "struct Marketplace.NFT",
          "name": "",
          "type": "tuple"
        },
        {
          "components": [
            {
              "internalType": "address",
              "name": "bidder",
              "type": "address"
            },
            {
              "internalType": "uint256",
              "name": "highestBid",
              "type": "uint256"
            },
            {
              "internalType": "bool",
              "name": "limitTime",
              "type": "bool"
            },
            {
              "internalType": "uint256",
              "name": "timeEnd",
              "type": "uint256"
            }
          ],
          "internalType": "struct Marketplace.Auction",
          "name": "",
          "type": "tuple"
        }
      ],
      "stateMutability": "view",
      "type": "function"
    },
    {
      "inputs": [],
      "name": "getMyListedNfts",
      "outputs": [
        {
          "components": [
            {
              "internalType": "uint256",
              "name": "itemId",
              "type": "uint256"
            },
            {
              "internalType": "address",
              "name": "nftContract",
              "type": "address"
            },
            {
              "internalType": "uint256",
              "name": "tokenId",
              "type": "uint256"
            },
            {
              "internalType": "address",
              "name": "seller",
              "type": "address"
            },
            {
              "internalType": "address",
              "name": "owner",
              "type": "address"
            },
            {
              "internalType": "address",
              "name": "ftContract",
              "type": "address"
            },
            {
              "internalType": "uint256",
              "name": "price",
              "type": "uint256"
            },
            {
              "internalType": "bool",
              "name": "listed",
              "type": "bool"
            },
            {
              "internalType": "bool",
              "name": "auction",
              "type": "bool"
            }
          ],
          "internalType": "struct Marketplace.NFT[]",
          "name": "",
          "type": "tuple[]"
        }
      ],
      "stateMutability": "view",
      "type": "function"
    },
    {
      "inputs": [],
      "name": "getRateFee",
      "outputs": [
        {
          "internalType": "uint256",
          "name": "",
          "type": "uint256"
        }
      ],
      "stateMutability": "view",
      "type": "function"
    },
    {
      "inputs": [
        {
          "internalType": "address",
          "name": "tokenAddress",
          "type": "address"
        }
      ],
      "name": "getTokenFee",
      "outputs": [
        {
          "internalType": "uint256",
          "name": "",
          "type": "uint256"
        }
      ],
      "stateMutability": "view",
      "type": "function"
    },
    {
      "inputs": [],
      "name": "getUserBids",
      "outputs": [
        {
          "components": [
            {
              "internalType": "uint256",
              "name": "itemId",
              "type": "uint256"
            },
            {
              "internalType": "address",
              "name": "nftContract",
              "type": "address"
            },
            {
              "internalType": "uint256",
              "name": "tokenId",
              "type": "uint256"
            },
            {
              "internalType": "address",
              "name": "seller",
              "type": "address"
            },
            {
              "internalType": "address",
              "name": "owner",
              "type": "address"
            },
            {
              "internalType": "address",
              "name": "ftContract",
              "type": "address"
            },
            {
              "internalType": "uint256",
              "name": "price",
              "type": "uint256"
            },
            {
              "internalType": "bool",
              "name": "listed",
              "type": "bool"
            },
            {
              "internalType": "bool",
              "name": "auction",
              "type": "bool"
            }
          ],
          "internalType": "struct Marketplace.NFT[]",
          "name": "",
          "type": "tuple[]"
        },
        {
          "components": [
            {
              "internalType": "address",
              "name": "bidder",
              "type": "address"
            },
            {
              "internalType": "uint256",
              "name": "highestBid",
              "type": "uint256"
            },
            {
              "internalType": "bool",
              "name": "limitTime",
              "type": "bool"
            },
            {
              "internalType": "uint256",
              "name": "timeEnd",
              "type": "uint256"
            }
          ],
          "internalType": "struct Marketplace.Auction[]",
          "name": "",
          "type": "tuple[]"
        }
      ],
      "stateMutability": "view",
      "type": "function"
    },
    {
      "inputs": [],
      "name": "getWhitelist",
      "outputs": [
        {
          "components": [
            {
              "internalType": "address",
              "name": "addr",
              "type": "address"
            },
            {
              "internalType": "uint256",
              "name": "fee",
              "type": "uint256"
            }
          ],
          "internalType": "struct IHubChild.WhitelistVars[]",
          "name": "",
          "type": "tuple[]"
        }
      ],
      "stateMutability": "view",
      "type": "function"
    },
    {
      "inputs": [],
      "name": "hubAddr",
      "outputs": [
        {
          "internalType": "address",
          "name": "",
          "type": "address"
        }
      ],
      "stateMutability": "view",
      "type": "function"
    },
    {
      "inputs": [
        {
          "internalType": "address",
          "name": "nftContract",
          "type": "address"
        },
        {
          "internalType": "address",
          "name": "ftContract",
          "type": "address"
        },
        {
          "internalType": "uint256",
          "name": "tokenId",
          "type": "uint256"
        },
        {
          "internalType": "uint256",
          "name": "price",
          "type": "uint256"
        },
        {
          "internalType": "bool",
          "name": "limitTime",
          "type": "bool"
        },
        {
          "internalType": "uint256",
          "name": "timeHour",
          "type": "uint256"
        }
      ],
      "name": "listAuctionNft",
      "outputs": [],
      "stateMutability": "nonpayable",
      "type": "function"
    },
    {
      "inputs": [
        {
          "internalType": "address",
          "name": "nftContract",
          "type": "address"
        },
        {
          "internalType": "address",
          "name": "ftContract",
          "type": "address"
        },
        {
          "internalType": "uint256",
          "name": "tokenId",
          "type": "uint256"
        },
        {
          "internalType": "uint256",
          "name": "price",
          "type": "uint256"
        }
      ],
      "name": "listNft",
      "outputs": [],
      "stateMutability": "nonpayable",
      "type": "function"
    },
    {
      "inputs": [],
      "name": "owner",
      "outputs": [
        {
          "internalType": "address",
          "name": "",
          "type": "address"
        }
      ],
      "stateMutability": "view",
      "type": "function"
    },
    {
      "inputs": [
        {
          "internalType": "uint256",
          "name": "itemId",
          "type": "uint256"
        },
        {
          "internalType": "address",
          "name": "ftContract",
          "type": "address"
        },
        {
          "internalType": "uint256",
          "name": "price",
          "type": "uint256"
        },
        {
          "internalType": "bool",
          "name": "limitTime",
          "type": "bool"
        },
        {
          "internalType": "uint256",
          "name": "timeHour",
          "type": "uint256"
        }
      ],
      "name": "reauctionNft",
      "outputs": [],
      "stateMutability": "nonpayable",
      "type": "function"
    },
    {
      "inputs": [
        {
          "internalType": "uint256",
          "name": "itemId",
          "type": "uint256"
        },
        {
          "internalType": "address",
          "name": "ftContract",
          "type": "address"
        },
        {
          "internalType": "uint256",
          "name": "price",
          "type": "uint256"
        }
      ],
      "name": "relistNft",
      "outputs": [],
      "stateMutability": "nonpayable",
      "type": "function"
    },
    {
      "inputs": [
        {
          "internalType": "address",
          "name": "tokenAddr",
          "type": "address"
        }
      ],
      "name": "removeToken",
      "outputs": [],
      "stateMutability": "nonpayable",
      "type": "function"
    },
    {
      "inputs": [
        {
          "internalType": "address",
          "name": "whitelistAddress",
          "type": "address"
        }
      ],
      "name": "removeWhitelistAddress",
      "outputs": [],
      "stateMutability": "nonpayable",
      "type": "function"
    },
    {
      "inputs": [],
      "name": "renounceOwnership",
      "outputs": [],
      "stateMutability": "nonpayable",
      "type": "function"
    },
    {
      "inputs": [
        {
          "internalType": "address",
          "name": "hub",
          "type": "address"
        }
      ],
      "name": "setHub",
      "outputs": [],
      "stateMutability": "nonpayable",
      "type": "function"
    },
    {
      "inputs": [
        {
          "internalType": "uint256",
          "name": "rateFee",
          "type": "uint256"
        }
      ],
      "name": "setRateFee",
      "outputs": [],
      "stateMutability": "nonpayable",
      "type": "function"
    },
    {
      "inputs": [
        {
          "internalType": "uint256",
          "name": "itemId",
          "type": "uint256"
        },
        {
          "internalType": "address",
          "name": "ftContract",
          "type": "address"
        },
        {
          "internalType": "uint256",
          "name": "price",
          "type": "uint256"
        },
        {
          "internalType": "bool",
          "name": "limitTime",
          "type": "bool"
        },
        {
          "internalType": "uint256",
          "name": "timeHour",
          "type": "uint256"
        }
      ],
      "name": "switchToAuction",
      "outputs": [],
      "stateMutability": "nonpayable",
      "type": "function"
    },
    {
      "inputs": [
        {
          "internalType": "uint256",
          "name": "itemId",
          "type": "uint256"
        },
        {
          "internalType": "address",
          "name": "ftContract",
          "type": "address"
        },
        {
          "internalType": "uint256",
          "name": "price",
          "type": "uint256"
        }
      ],
      "name": "switchToListed",
      "outputs": [],
      "stateMutability": "nonpayable",
      "type": "function"
    },
    {
      "inputs": [
        {
          "internalType": "address",
          "name": "newOwner",
          "type": "address"
        }
      ],
      "name": "transferOwnership",
      "outputs": [],
      "stateMutability": "nonpayable",
      "type": "function"
    },
    {
      "inputs": [
        {
          "internalType": "uint256",
          "name": "itemId",
          "type": "uint256"
        }
      ],
      "name": "unlistItem",
      "outputs": [],
      "stateMutability": "nonpayable",
      "type": "function"
    }
  ],
  "bytecode": "0x60806040523480156200001157600080fd5b50604051620044e1380380620044e183398101604081905262000034916200012c565b6200003f336200005b565b6001805560078290556200005381620000ab565b50506200016b565b600080546001600160a01b038381166001600160a01b0319831681178455604051919092169283917f8be0079c531659141344cd1fd0a4f28419497f9722a3daafe3b4186f6b6457e09190a35050565b6000546001600160a01b031633146200010a5760405162461bcd60e51b815260206004820181905260248201527f4f776e61626c653a2063616c6c6572206973206e6f7420746865206f776e6572604482015260640160405180910390fd5b600880546001600160a01b0319166001600160a01b0392909216919091179055565b600080604083850312156200014057600080fd5b825160208401519092506001600160a01b03811681146200016057600080fd5b809150509250929050565b614366806200017b6000396000f3fe6080604052600436106101f95760003560e01c806383eb1f3b1161010d57806396b5c1d6116100a0578063b7ecbaae1161006f578063b7ecbaae14610591578063ca6ca485146105b1578063d01f63f5146105d3578063debd2272146105f5578063f2fde38b1461061557600080fd5b806396b5c1d614610503578063a432309b14610523578063a89eccfd14610551578063a91400991461057157600080fd5b80638d6cb3fb116100dc5780638d6cb3fb1461049a5780638da5cb5b146104af578063918f8674146104cd578063937054f6146104e357600080fd5b806383eb1f3b146104305780638563e10e1461045057806386164c4c1461047257806386c3b08a1461048557600080fd5b80634387d0f1116101905780635254aca91161015f5780635254aca91461039b5780635a599da8146103bb5780635fa7b584146103db578063715018a6146103fb57806375e1e4c71461041057600080fd5b80634387d0f11461030a57806349095a211461032a5780634f17ef8114610362578063502a676c1461038557600080fd5b80631f4cc4db116101cc5780631f4cc4db14610287578063243adbdd146102a9578063252154fa146102bc57806331962cdc146102ea57600080fd5b806307cb1a6e146101fe5780630f15e9be146102375780630fab2713146102595780631879c7501461026c575b600080fd5b34801561020a57600080fd5b506102196380ac58cd60e01b81565b6040516001600160e01b031990911681526020015b60405180910390f35b34801561024357600080fd5b50610257610252366004613c67565b610635565b005b610257610267366004613c67565b6106eb565b34801561027857600080fd5b5061021963152a902d60e11b81565b34801561029357600080fd5b5061029c610b8f565b60405161022e9190613d4f565b6102576102b7366004613c67565b610d85565b3480156102c857600080fd5b506102dc6102d7366004613d77565b61118d565b60405190815260200161022e565b3480156102f657600080fd5b50610257610305366004613d77565b6111a0565b34801561031657600080fd5b50610257610325366004613da2565b61121c565b34801561033657600080fd5b5060085461034a906001600160a01b031681565b6040516001600160a01b03909116815260200161022e565b34801561036e57600080fd5b5061037761147a565b60405161022e929190613e5a565b34801561039157600080fd5b506102dc60075481565b3480156103a757600080fd5b506102576103b6366004613e88565b611715565b3480156103c757600080fd5b506102576103d6366004613c67565b611777565b3480156103e757600080fd5b506102576103f6366004613d77565b6119f4565b34801561040757600080fd5b50610257611a54565b34801561041c57600080fd5b5061025761042b366004613eb4565b611aba565b34801561043c57600080fd5b5061025761044b366004613efa565b611ea3565b34801561045c57600080fd5b506104656122d0565b60405161022e9190613f61565b610257610480366004613fae565b612380565b34801561049157600080fd5b506007546102dc565b3480156104a657600080fd5b5061029c6126c6565b3480156104bb57600080fd5b506000546001600160a01b031661034a565b3480156104d957600080fd5b506102dc61271081565b3480156104ef57600080fd5b506102576104fe366004613fd0565b61285c565b34801561050f57600080fd5b5061025761051e366004613fd0565b612af2565b34801561052f57600080fd5b5061054361053e366004613e88565b612cef565b60405161022e929190614008565b34801561055d57600080fd5b506102dc61056c366004614050565b612e9f565b34801561057d57600080fd5b5061025761058c366004613da2565b612eb2565b34801561059d57600080fd5b506102576105ac366004613d77565b61310c565b3480156105bd57600080fd5b506105c6613168565b60405161022e9190614089565b3480156105df57600080fd5b506105e861328b565b60405161022e919061409c565b34801561060157600080fd5b50610257610610366004613d77565b61336b565b34801561062157600080fd5b50610257610630366004613d77565b6133c7565b6008546001600160a01b0316331461068b5760405162461bcd60e51b8152602060048201526014602482015273135d5cdd081899481a1d588818dbdb9d1c9858dd60621b60448201526064015b60405180910390fd5b61271081106106e65760405162461bcd60e51b815260206004820152602160248201527f466565206e756d657261746f72206d757374206c657373207468616e203130306044820152602560f81b6064820152608401610682565b600755565b60026001540361072b5760405162461bcd60e51b815260206004820152601f60248201526000805160206142d18339815191526044820152606401610682565b60026001556000818152600c60205260409020600781015460ff16801561075b57506007810154610100900460ff165b6107775760405162461bcd60e51b8152600401610682906140f4565b6000828152600d6020526040902060038201546001600160a01b031633146107d95760405162461bcd60e51b815260206004820152601560248201527429b2b73232b91036bab9ba1031329039b2b63632b960591b6044820152606401610682565b600281015460ff1615806107f05750428160030154105b61084c5760405162461bcd60e51b815260206004820152602760248201527f41756374696f6e206d75737420626520656e646564206f72206e6f74206c696d60448201526669742074696d6560c81b6064820152608401610682565b60058201546000906108689033906001600160a01b0316613492565b905061088d6127106108878385600101546134fc90919063ffffffff16565b90613508565b60018401549091506108af906001600160a01b031663152a902d60e11b613514565b156109ef5760018381015460028501549184015460405163152a902d60e11b81526004810193909352602483015260009182916001600160a01b031690632a55205a906044016040805180830381865afa158015610911573d6000803e3d6000fd5b505050506040513d601f19601f82011682018060405250810190610935919061413d565b600387015491935091506001600160a01b0380841691161480159061095a5750600081115b156109ba57600585015461097b90309084906001600160a01b031684613530565b600385015460058601546109b59130916001600160a01b0391821691166109b06109a58689613680565b60018a01549061368c565b613530565b6109e8565b6003850154600586015460018601546109e89230926001600160a01b03918216929116906109b0908861368c565b5050610a1d565b600383015460058401546001840154610a1d9230926001600160a01b03918216929116906109b0908661368c565b610a4733610a336000546001600160a01b031690565b60058601546001600160a01b031684613530565b6001830154825460028501546040516323b872dd60e01b81523060048201526001600160a01b03928316602482015260448101919091529116906323b872dd90606401600060405180830381600087803b158015610aa457600080fd5b505af1158015610ab8573d6000803e3d6000fd5b505083546004860180546001600160a01b03199081166001600160a01b039384161790915560078701805460ff199081169091558654909116865560006001808801829055600280890180549094169093556003808901839055908901549289015490890154604080518c815294861660208601528481019290925290931660608301526080820181905260a082015290517ffbd14ef83c9e36d4cd05cdc496d3b3a07da3041679b4142908d0ef3cef210dc493509081900360c0019150a1610b85600980546001019055565b5050600180555050565b60606000610b9c600a5490565b90506000805b82811015610c09576000818152600c60205260409020600301546001600160a01b031633148015610be457506000818152600c602052604090206007015460ff165b15610bf75781610bf381614181565b9250505b80610c0181614181565b915050610ba2565b5060008167ffffffffffffffff811115610c2557610c2561419a565b604051908082528060200260200182016040528015610c5e57816020015b610c4b613c1b565b815260200190600190039081610c435790505b5090506000805b84811015610d7b576000818152600c60205260409020600301546001600160a01b031633148015610ca757506000818152600c602052604090206007015460ff165b15610d69576000818152600c60209081526040918290208251610120810184528154815260018201546001600160a01b0390811693820193909352600282015493810193909352600381015482166060840152600481015482166080840152600581015490911660a0830152600681015460c08301526007015460ff808216151560e084015261010091829004161515908201528351849084908110610d4f57610d4f6141b0565b60200260200101819052508180610d6590614181565b9250505b80610d7381614181565b915050610c65565b5090949350505050565b600260015403610dc55760405162461bcd60e51b815260206004820152601f60248201526000805160206142d18339815191526044820152606401610682565b60026001556000818152600c6020526040902060058101546001600160a01b0316610e4d578060060154341015610e4d5760405162461bcd60e51b815260206004820152602660248201527f4e6f7420656e6f75676820657468657220746f20636f7665722061736b696e6760448201526520707269636560d01b6064820152608401610682565b600781015460ff168015610e6b57506007810154610100900460ff16155b610e875760405162461bcd60e51b8152600401610682906140f4565b60058101543390600090610ea59083906001600160a01b0316613492565b9050610ec46127106108878386600601546134fc90919063ffffffff16565b6001840154909150610ee6906001600160a01b031663152a902d60e11b613514565b156110235760018301546002840154600685015460405163152a902d60e11b81526004810192909252602482015260009182916001600160a01b0390911690632a55205a906044016040805180830381865afa158015610f4a573d6000803e3d6000fd5b505050506040513d601f19601f82011682018060405250810190610f6e919061413d565b600387015491935091506001600160a01b03808416911614801590610f935750600081115b15610fee576005850154610fb490339084906001600160a01b031684613530565b60038501546005860154610fe99133916001600160a01b0391821691166109b0610fde8689613680565b60068b01549061368c565b61101c565b60038501546005860154600687015461101c9233926001600160a01b03918216929116906109b0908861368c565b5050611051565b6003830154600584015460068501546110519233926001600160a01b03918216929116906109b0908661368c565b61106733610a336000546001600160a01b031690565b600183015460028401546040516323b872dd60e01b81523060048201526001600160a01b03858116602483015260448201929092529116906323b872dd90606401600060405180830381600087803b1580156110c257600080fd5b505af11580156110d6573d6000803e3d6000fd5b505050506004830180546001600160a01b0319166001600160a01b03841617905560078301805460ff191690556009805460010190556001830154600284015460038501546006860154604080518981526001600160a01b039586166020820152908101939093529083166060830152918416608082015260a08101919091527ffbd14ef83c9e36d4cd05cdc496d3b3a07da3041679b4142908d0ef3cef210dc49060c00160405180910390a15050600180555050565b600061119a600483613698565b92915050565b6000546001600160a01b031633146111fa5760405162461bcd60e51b815260206004820181905260248201527f4f776e61626c653a2063616c6c6572206973206e6f7420746865206f776e65726044820152606401610682565b600880546001600160a01b0319166001600160a01b0392909216919091179055565b836001600160a01b038116158061123957506112396002826136ad565b61127d5760405162461bcd60e51b8152602060048201526015602482015274151bdad95b881a5cc81b9bdd081858d8d95c1d1959605a1b6044820152606401610682565b6002600154036112bd5760405162461bcd60e51b815260206004820152601f60248201526000805160206142d18339815191526044820152606401610682565b6002600155836112fd5760405162461bcd60e51b815260206004820152601c60248201526000805160206143118339815191526044820152606401610682565b6000868152600c6020526040908190206001810154600282015492516323b872dd60e01b8152336004820152306024820152604481019390935290916001600160a01b03909116906323b872dd90606401600060405180830381600087803b15801561136857600080fd5b505af115801561137c573d6000803e3d6000fd5b50505050600381018054336001600160a01b031991821617909155600482018054309083161790556007820180546005840180549093166001600160a01b038a161790925561ffff199091166101011790556113d860096136cf565b6000878152600d602052604090206001810186905560028101805460ff19168615151790558461140957600061141f565b61141f61141885610e106134fc565b4290613680565b600382015560018083015460028401546040516000805160206142f183398151915293611464938d936001600160a01b03909116929091339130918f918f91906141c6565b60405180910390a1505060018055505050505050565b6060806000611488600a5490565b905060008060005b838110156114d8576000818152600d6020526040902054336001600160a01b03909116036114c6576114c360018461420f565b92505b806114d081614181565b915050611490565b5060008267ffffffffffffffff8111156114f4576114f461419a565b60405190808252806020026020018201604052801561152d57816020015b61151a613c1b565b8152602001906001900390816115125790505b50905060008367ffffffffffffffff81111561154b5761154b61419a565b60405190808252806020026020018201604052801561159d57816020015b6040805160808101825260008082526020808301829052928201819052606082015282526000199092019101816115695790505b50905060005b85811015611708576000818152600c6020526040902060040154336001600160a01b03909116036116f6576000818152600c60209081526040808320815161012081018352815481526001808301546001600160a01b0390811683870152600280850154848701526003808601548316606080870191909152600487015484166080808801919091526005880154851660a0880152600688015460c088015260079097015460ff808216151560e08901526101009182900481161515918801919091528b8b52600d8a52998890208851978801895280549094168752938301549786019790975281015490961615159383019390935293909201549082015284518392919082908790899081106116bc576116bc6141b0565b6020026020010181905250808588815181106116da576116da6141b0565b60209081029190910101526116f060018861420f565b96505050505b8061170081614181565b9150506115a3565b5090969095509350505050565b6008546001600160a01b031633146117665760405162461bcd60e51b8152602060048201526014602482015273135d5cdd081899481a1d588818dbdb9d1c9858dd60621b6044820152606401610682565b61177260048383613726565b505050565b6002600154036117b75760405162461bcd60e51b815260206004820152601f60248201526000805160206142d18339815191526044820152606401610682565b60026001556000818152600c60205260409020600301546001600160a01b031633146118255760405162461bcd60e51b815260206004820152601460248201527f53656e646572206973206e6f74206c69737465720000000000000000000000006044820152606401610682565b6000818152600c6020526040902060070154610100900460ff16156118d0576000818152600d6020526040902060018101541561189b57805460018201546040516001600160a01b039092169181156108fc0291906000818181858888f19350505050158015611899573d6000803e3d6000fd5b505b506000818152600d6020526040812080546001600160a01b03191681556001810182905560028101805460ff19169055600301555b6000818152600c602052604090819020600181015460029091015491516323b872dd60e01b815230600482015233602482015260448101929092526001600160a01b0316906323b872dd90606401600060405180830381600087803b15801561193857600080fd5b505af115801561194c573d6000803e3d6000fd5b5050506000828152600c602052604081208181556001810180546001600160a01b031990811690915560028201839055600382018054821690556004820180548216905560058201805490911690556006810191909155600701805461ffff19169055506119ba600b6136cf565b6040518181527fcd14eb7ebf273ed59a9fd1cf8651f3f40d9a04355b3511376f0d17b37ba224ff9060200160405180910390a15060018055565b6008546001600160a01b03163314611a455760405162461bcd60e51b8152602060048201526014602482015273135d5cdd081899481a1d588818dbdb9d1c9858dd60621b6044820152606401610682565b611a50600282613744565b5050565b6000546001600160a01b03163314611aae5760405162461bcd60e51b815260206004820181905260248201527f4f776e61626c653a2063616c6c6572206973206e6f7420746865206f776e65726044820152606401610682565b611ab86000613759565b565b826001600160a01b0381161580611ad75750611ad76002826136ad565b611b1b5760405162461bcd60e51b8152602060048201526015602482015274151bdad95b881a5cc81b9bdd081858d8d95c1d1959605a1b6044820152606401610682565b600260015403611b5b5760405162461bcd60e51b815260206004820152601f60248201526000805160206142d18339815191526044820152606401610682565b600260015581611b9b5760405162461bcd60e51b815260206004820152601c60248201526000805160206143118339815191526044820152606401610682565b6040516323b872dd60e01b8152336004820152306024820152604481018490526001600160a01b038616906323b872dd90606401600060405180830381600087803b158015611be957600080fd5b505af1158015611bfd573d6000803e3d6000fd5b50505050611c0f600a80546001019055565b611c1d600b80546001019055565b6000611c28600a5490565b9050604051806101200160405280828152602001876001600160a01b03168152602001858152602001336001600160a01b03168152602001306001600160a01b03168152602001866001600160a01b0316815260200184815260200160011515815260200160001515815250600c60008381526020019081526020016000206000820151816000015560208201518160010160006101000a8154816001600160a01b0302191690836001600160a01b031602179055506040820151816002015560608201518160030160006101000a8154816001600160a01b0302191690836001600160a01b0316021790555060808201518160040160006101000a8154816001600160a01b0302191690836001600160a01b0316021790555060a08201518160050160006101000a8154816001600160a01b0302191690836001600160a01b0316021790555060c0820151816006015560e08201518160070160006101000a81548160ff0219169083151502179055506101008201518160070160016101000a81548160ff021916908315150217905550905050604051806080016040528060006001600160a01b031681526020018481526020016000151581526020016000815250600d600083815260200190815260200160002060008201518160000160006101000a8154816001600160a01b0302191690836001600160a01b031602179055506020820151816001015560408201518160020160006101000a81548160ff021916908315150217905550606082015181600301559050506000805160206142f183398151915281878633308a896000604051611e8f9897969594939291906141c6565b60405180910390a150506001805550505050565b846001600160a01b0381161580611ec05750611ec06002826136ad565b611f045760405162461bcd60e51b8152602060048201526015602482015274151bdad95b881a5cc81b9bdd081858d8d95c1d1959605a1b6044820152606401610682565b600260015403611f445760405162461bcd60e51b815260206004820152601f60248201526000805160206142d18339815191526044820152606401610682565b600260015583611f845760405162461bcd60e51b815260206004820152601c60248201526000805160206143118339815191526044820152606401610682565b611f95876380ac58cd60e01b613514565b611fe15760405162461bcd60e51b815260206004820152601b60248201527f436f6e7472616374206e6565647320746f2062652045524337323100000000006044820152606401610682565b6040516323b872dd60e01b8152336004820152306024820152604481018690526001600160a01b038816906323b872dd90606401600060405180830381600087803b15801561202f57600080fd5b505af1158015612043573d6000803e3d6000fd5b50505050612055600a80546001019055565b612063600b80546001019055565b600061206e600a5490565b9050604051806101200160405280828152602001896001600160a01b03168152602001878152602001336001600160a01b03168152602001306001600160a01b03168152602001886001600160a01b0316815260200186815260200160011515815260200160011515815250600c60008381526020019081526020016000206000820151816000015560208201518160010160006101000a8154816001600160a01b0302191690836001600160a01b031602179055506040820151816002015560608201518160030160006101000a8154816001600160a01b0302191690836001600160a01b0316021790555060808201518160040160006101000a8154816001600160a01b0302191690836001600160a01b0316021790555060a08201518160050160006101000a8154816001600160a01b0302191690836001600160a01b0316021790555060c0820151816006015560e08201518160070160006101000a81548160ff0219169083151502179055506101008201518160070160016101000a81548160ff021916908315150217905550905050604051806080016040528060006001600160a01b03168152602001868152602001851515815260200185612238576000612247565b61224761141886610e106134fc565b90526000828152600d6020908152604091829020835181546001600160a01b0319166001600160a01b03909116178155908301516001808301919091558383015160028301805460ff1916911515919091179055606090930151600390910155516000805160206142f1833981519152916114649184918c918b91339130918f918e91906141c6565b606060006122de60026137a9565b905060008167ffffffffffffffff8111156122fb576122fb61419a565b604051908082528060200260200182016040528015612324578160200160208202803683370190505b50905060005b828110156123795761233d6002826137b3565b82828151811061234f5761234f6141b0565b6001600160a01b03909216602092830291909101909101528061237181614181565b91505061232a565b5092915050565b6002600154036123c05760405162461bcd60e51b815260206004820152601f60248201526000805160206142d18339815191526044820152606401610682565b60026001556000828152600c60205260409020600781015460ff1680156123f057506007810154610100900460ff165b61240c5760405162461bcd60e51b8152600401610682906140f4565b6000838152600d6020526040902080546001600160a01b03163314801590612441575060038201546001600160a01b03163314155b6124a15760405162461bcd60e51b815260206004820152602b60248201527f53656e646572206d757374206265206e6f742073656c6c6572206f722068696760448201526a3432b9ba103134b23232b960a91b6064820152608401610682565b600281015460ff1615806124b85750428160030154115b6125045760405162461bcd60e51b815260206004820152601960248201527f41756374696f6e2068617320616c726561647920656e646564000000000000006044820152606401610682565b8060010154831161256f5760405162461bcd60e51b815260206004820152602f60248201527f4e6f7420656e6f75676820657468657220746f20636f7665722068696768657360448201526e742061756374696f6e20707269636560881b6064820152608401610682565b600582015433906001600160a01b0316156126055760058301546040516323b872dd60e01b81526001600160a01b03838116600483015230602483015260448201879052909116906323b872dd906064016020604051808303816000875af11580156125df573d6000803e3d6000fd5b505050506040513d601f19601f820116820180604052508101906126039190614222565b505b81546001600160a01b03161561263b5781546005840154600184015461263b9230926001600160a01b0391821692911690613530565b81546001600160a01b0319166001600160a01b03828116918217845560018085018790558501546002860154604080518a8152929093166020830152918101919091526060810191909152608081018590527f1ec22f773eb11b65e580f47284fbf084529fa09c8c8b8b96cb76b665e38a72aa9060a0015b60405180910390a1505060018055505050565b606060006126d3600a5490565b905060006126e0600b5490565b905060006126ed60095490565b6126f7908361423f565b905060008167ffffffffffffffff8111156127145761271461419a565b60405190808252806020026020018201604052801561274d57816020015b61273a613c1b565b8152602001906001900390816127325790505b5090506000805b85811080156127635750838211155b15612851576000818152600c602052604090206007015460ff161561283f576000818152600c60209081526040918290208251610120810184528154815260018201546001600160a01b0390811693820193909352600282015493810193909352600381015482166060840152600481015482166080840152600581015490911660a0830152600681015460c08301526007015460ff808216151560e084015261010091829004161515908201528351849084908110612825576128256141b0565b6020026020010181905250818061283b90614181565b9250505b8061284981614181565b915050612754565b509095945050505050565b816001600160a01b038116158061287957506128796002826136ad565b6128bd5760405162461bcd60e51b8152602060048201526015602482015274151bdad95b881a5cc81b9bdd081858d8d95c1d1959605a1b6044820152606401610682565b6002600154036128fd5760405162461bcd60e51b815260206004820152601f60248201526000805160206142d18339815191526044820152606401610682565b60026001558161293d5760405162461bcd60e51b815260206004820152601c60248201526000805160206143118339815191526044820152606401610682565b6000848152600c6020526040902060038101546001600160a01b0316331461299f5760405162461bcd60e51b815260206004820152601560248201527429b2b73232b91036bab9ba1031329039b2b63632b960591b6044820152606401610682565b6007810154610100900460ff166129f85760405162461bcd60e51b815260206004820152601360248201527f4e4654206d7573742062652061756374696f6e000000000000000000000000006044820152606401610682565b6000858152600d602052604090206005820180546001600160a01b0319166001600160a01b03878116919091179091556006830185905560078301805461ff001916905581541615612a8357805460018201546040516001600160a01b039092169181156108fc0291906000818181858888f19350505050158015612a81573d6000803e3d6000fd5b505b80546001600160a01b0319168155600060018083018290556002808401805460ff1916905560038401839055908401549084015460058501546040516000805160206142f183398151915294611e8f948c946001600160a01b0391821694909333933093909216918d916141c6565b816001600160a01b0381161580612b0f5750612b0f6002826136ad565b612b535760405162461bcd60e51b8152602060048201526015602482015274151bdad95b881a5cc81b9bdd081858d8d95c1d1959605a1b6044820152606401610682565b600260015403612b935760405162461bcd60e51b815260206004820152601f60248201526000805160206142d18339815191526044820152606401610682565b600260015581612bd35760405162461bcd60e51b815260206004820152601c60248201526000805160206143118339815191526044820152606401610682565b6000848152600c6020526040908190206001810154600282015492516323b872dd60e01b8152336004820152306024820152604481019390935290916001600160a01b03909116906323b872dd90606401600060405180830381600087803b158015612c3e57600080fd5b505af1158015612c52573d6000803e3d6000fd5b50505050600381018054336001600160a01b0319918216179091556004820180543090831617905560078201805460ff191660011790556005820180549091166001600160a01b03861617905560068101839055612cb060096136cf565b600181015460028201546040516000805160206142f1833981519152926126b39289926001600160a01b0390921691339030908b908b906000906141c6565b612cf7613c1b565b604080516080810182526000808252602082018190529181018290526060810191909152612d23613c1b565b6040805160808101825260008082526020820181905291810182905260608101919091526000612d52600a5490565b905060005b81811015612e90576000818152600c60205260409020600101546001600160a01b038981169116148015612d9b57506000818152600c602052604090206002015487145b15612e7e576000818152600c60209081526040808320815161012081018352815481526001808301546001600160a01b0390811683870152600280850154848701526003808601548316606080870191909152600487015484166080808801919091526005880154851660a0880152600688015460c088015260079097015460ff808216151560e08901526101009182900481161515918801919091528b8b52600d8a5299889020885197880189528054909416875293830154978601979097528101549096161515938301939093529390920154908201529094509250612e90565b80612e8881614181565b915050612d57565b509193509150505b9250929050565b6000612eab8383613492565b9392505050565b836001600160a01b0381161580612ecf5750612ecf6002826136ad565b612f135760405162461bcd60e51b8152602060048201526015602482015274151bdad95b881a5cc81b9bdd081858d8d95c1d1959605a1b6044820152606401610682565b600260015403612f535760405162461bcd60e51b815260206004820152601f60248201526000805160206142d18339815191526044820152606401610682565b600260015583612f935760405162461bcd60e51b815260206004820152601c60248201526000805160206143118339815191526044820152606401610682565b6000868152600c6020526040902060038101546001600160a01b03163314612ff55760405162461bcd60e51b815260206004820152601560248201527429b2b73232b91036bab9ba1031329039b2b63632b960591b6044820152606401610682565b6007810154610100900460ff161561304f5760405162461bcd60e51b815260206004820152601760248201527f4e4654206d757374206e6f742062652061756374696f6e0000000000000000006044820152606401610682565b6000878152600d6020526040902060078201805461010061ff00199091161790556005820180546001600160a01b0319166001600160a01b0389161790556001810186905560028101805460ff1916861515179055846130b05760006130bf565b6130bf61141885610e106134fc565b60038201556001820154600283015460058401546040516000805160206142f183398151915293611464938d936001600160a01b0392831693919233923092909116908e906000906141c6565b6008546001600160a01b0316331461315d5760405162461bcd60e51b8152602060048201526014602482015273135d5cdd081899481a1d588818dbdb9d1c9858dd60621b6044820152606401610682565b611a506004826137bf565b60606000613175600a5490565b905060008167ffffffffffffffff8111156131925761319261419a565b6040519080825280602002602001820160405280156131e457816020015b6040805160808101825260008082526020808301829052928201819052606082015282526000199092019101816131b05790505b5090506000805b83811015613282576000818152600d6020908152604091829020825160808101845281546001600160a01b03168152600182015492810192909252600281015460ff1615159282019290925260039091015460608201528351849084908110613256576132566141b0565b6020026020010181905250818061326c90614181565b925050808061327a90614181565b9150506131eb565b50909392505050565b6060600061329960046137d4565b905060008167ffffffffffffffff8111156132b6576132b661419a565b6040519080825280602002602001820160405280156132fb57816020015b60408051808201909152600080825260208201528152602001906001900390816132d45790505b50905060005b82811015612379576000806133176004846137df565b915091506040518060400160405280836001600160a01b031681526020018281525084848151811061334b5761334b6141b0565b60200260200101819052505050808061336390614181565b915050613301565b6008546001600160a01b031633146133bc5760405162461bcd60e51b8152602060048201526014602482015273135d5cdd081899481a1d588818dbdb9d1c9858dd60621b6044820152606401610682565b611a506002826137fb565b6000546001600160a01b031633146134215760405162461bcd60e51b815260206004820181905260248201527f4f776e61626c653a2063616c6c6572206973206e6f7420746865206f776e65726044820152606401610682565b6001600160a01b0381166134865760405162461bcd60e51b815260206004820152602660248201527f4f776e61626c653a206e6577206f776e657220697320746865207a65726f206160448201526564647265737360d01b6064820152608401610682565b61348f81613759565b50565b60408051808201909152600080825260208201819052906134b4600485613810565b602083015215801582526134cd5760200151905061119a565b6134d8600484613810565b602083015215801582526134f15760200151905061119a565b505060075492915050565b6000612eab8284614252565b6000612eab8284614269565b600061351f83613828565b8015612eab5750612eab838361385b565b6001600160a01b03821661357a576040516001600160a01b0384169082156108fc029083906000818181858888f19350505050158015613574573d6000803e3d6000fd5b5061367a565b6001600160a01b0384163014613605576040516323b872dd60e01b81526001600160a01b0385811660048301528481166024830152604482018390528316906323b872dd906064016020604051808303816000875af11580156135e1573d6000803e3d6000fd5b505050506040513d601f19601f820116820180604052508101906135749190614222565b60405163a9059cbb60e01b81526001600160a01b0384811660048301526024820183905283169063a9059cbb906044016020604051808303816000875af1158015613654573d6000803e3d6000fd5b505050506040513d601f19601f820116820180604052508101906136789190614222565b505b50505050565b6000612eab828461420f565b6000612eab828461423f565b6000612eab836001600160a01b038416613959565b6001600160a01b03811660009081526001830160205260408120541515612eab565b80548061371e5760405162461bcd60e51b815260206004820152601b60248201527f436f756e7465723a2064656372656d656e74206f766572666c6f7700000000006044820152606401610682565b600019019055565b600061373c846001600160a01b038516846139c9565b949350505050565b6000612eab836001600160a01b0384166139e6565b600080546001600160a01b038381166001600160a01b0319831681178455604051919092169283917f8be0079c531659141344cd1fd0a4f28419497f9722a3daafe3b4186f6b6457e09190a35050565b600061119a825490565b6000612eab8383613ad9565b6000612eab836001600160a01b038416613b03565b600061119a82613b20565b60008080806137ee8686613b2b565b9097909650945050505050565b6000612eab836001600160a01b038416613b56565b60008080806137ee866001600160a01b038716613ba5565b600061383b826301ffc9a760e01b61385b565b801561119a5750613854826001600160e01b031961385b565b1592915050565b604080516001600160e01b0319831660248083019190915282518083039091018152604490910182526020810180517bffffffffffffffffffffffffffffffffffffffffffffffffffffffff166301ffc9a760e01b179052905160009190829081906001600160a01b03871690617530906138d790869061428b565b6000604051808303818686fa925050503d8060008114613913576040519150601f19603f3d011682016040523d82523d6000602084013e613918565b606091505b5091509150602081511015613933576000935050505061119a565b81801561394f57508080602001905181019061394f9190614222565b9695505050505050565b60008181526002830160205260408120548015158061397d575061397d8484613bdf565b612eab5760405162461bcd60e51b815260206004820152601e60248201527f456e756d657261626c654d61703a206e6f6e6578697374656e74206b657900006044820152606401610682565b6000828152600284016020526040812082905561373c8484613beb565b60008181526001830160205260408120548015613acf576000613a0a60018361423f565b8554909150600090613a1e9060019061423f565b9050818114613a83576000866000018281548110613a3e57613a3e6141b0565b9060005260206000200154905080876000018481548110613a6157613a616141b0565b6000918252602080832090910192909255918252600188019052604090208390555b8554869080613a9457613a946142ba565b60019003818190600052602060002001600090559055856001016000868152602001908152602001600020600090556001935050505061119a565b600091505061119a565b6000826000018281548110613af057613af06141b0565b9060005260206000200154905092915050565b60008181526002830160205260408120819055612eab8383613bf7565b600061119a826137a9565b60008080613b3985856137b3565b600081815260029690960160205260409095205494959350505050565b6000818152600183016020526040812054613b9d5750815460018181018455600084815260208082209093018490558454848252828601909352604090209190915561119a565b50600061119a565b6000818152600283016020526040812054819080613bd457613bc78585613bdf565b925060009150612e989050565b600192509050612e98565b6000612eab8383613c03565b6000612eab8383613b56565b6000612eab83836139e6565b60008181526001830160205260408120541515612eab565b6040805161012081018252600080825260208201819052918101829052606081018290526080810182905260a0810182905260c0810182905260e0810182905261010081019190915290565b600060208284031215613c7957600080fd5b5035919050565b8051825260208101516001600160a01b03808216602085015260408301516040850152806060840151166060850152806080840151166080850152505060a0810151613cd760a08401826001600160a01b03169052565b5060c081015160c083015260e0810151613cf560e084018215159052565b50610100818101518015158483015261367a565b600081518084526020808501945080840160005b83811015613d4457613d30878351613c80565b610120969096019590820190600101613d1d565b509495945050505050565b602081526000612eab6020830184613d09565b6001600160a01b038116811461348f57600080fd5b600060208284031215613d8957600080fd5b8135612eab81613d62565b801515811461348f57600080fd5b600080600080600060a08688031215613dba57600080fd5b853594506020860135613dcc81613d62565b9350604086013592506060860135613de381613d94565b949793965091946080013592915050565b600081518084526020808501945080840160005b83811015613d4457613e478783516001600160a01b03815116825260208101516020830152604081015115156040830152606081015160608301525050565b6080969096019590820190600101613e08565b604081526000613e6d6040830185613d09565b8281036020840152613e7f8185613df4565b95945050505050565b60008060408385031215613e9b57600080fd5b8235613ea681613d62565b946020939093013593505050565b60008060008060808587031215613eca57600080fd5b8435613ed581613d62565b93506020850135613ee581613d62565b93969395505050506040820135916060013590565b60008060008060008060c08789031215613f1357600080fd5b8635613f1e81613d62565b95506020870135613f2e81613d62565b945060408701359350606087013592506080870135613f4c81613d94565b8092505060a087013590509295509295509295565b6020808252825182820181905260009190848201906040850190845b81811015613fa25783516001600160a01b031683529284019291840191600101613f7d565b50909695505050505050565b60008060408385031215613fc157600080fd5b50508035926020909101359150565b600080600060608486031215613fe557600080fd5b833592506020840135613ff781613d62565b929592945050506040919091013590565b6101a081016140178285613c80565b82516001600160a01b03166101208301526020830151610140830152604083015115156101608301526060830151610180830152612eab565b6000806040838503121561406357600080fd5b823561406e81613d62565b9150602083013561407e81613d62565b809150509250929050565b602081526000612eab6020830184613df4565b602080825282518282018190526000919060409081850190868401855b828110156140e757815180516001600160a01b031685528601518685015292840192908501906001016140b9565b5091979650505050505050565b60208082526029908201527f4e6674206d757374206265206c697374656420616e64206e6f7420696e207468604082015268329030bab1ba34b7b760b91b606082015260800190565b6000806040838503121561415057600080fd5b825161415b81613d62565b6020939093015192949293505050565b634e487b7160e01b600052601160045260246000fd5b6000600182016141935761419361416b565b5060010190565b634e487b7160e01b600052604160045260246000fd5b634e487b7160e01b600052603260045260246000fd5b9788526001600160a01b03968716602089015260408801959095529285166060870152908416608086015290921660a084015260c0830191909152151560e08201526101000190565b8082018082111561119a5761119a61416b565b60006020828403121561423457600080fd5b8151612eab81613d94565b8181038181111561119a5761119a61416b565b808202811582820484141761119a5761119a61416b565b60008261428657634e487b7160e01b600052601260045260246000fd5b500490565b6000825160005b818110156142ac5760208186018101518583015201614292565b506000920191825250919050565b634e487b7160e01b600052603160045260246000fdfe5265656e7472616e637947756172643a207265656e7472616e742063616c6c0037c8bff89764d2cebea0401ba91b9a1c839ec661cccf84fed35c9b23512b6f295072696365206d757374206265206174206c6561737420312077656900000000a2646970667358221220f623e24176f021db7fc61ca65ee677aede332f940c44681dc2e24e8ff65a2eae64736f6c63430008110033",
  "linkReferences": {},
  "deployedLinkReferences": {}
}