{
  "contractName": "Marketplace",
  "abi": [
    {
      "inputs": [
        {
          "internalType": "uint256",
          "name": "fee",
          "type": "uint256"
        },
        {
          "internalType": "address",
          "name": "hub",
          "type": "address"
        }
      ],
      "stateMutability": "nonpayable",
      "type": "constructor"
    },
    {
      "anonymous": false,
      "inputs": [
        {
          "indexed": false,
          "internalType": "uint256",
          "name": "itemId",
          "type": "uint256"
        },
        {
          "indexed": false,
          "internalType": "address",
          "name": "nftContract",
          "type": "address"
        },
        {
          "indexed": false,
          "internalType": "uint256",
          "name": "tokenId",
          "type": "uint256"
        },
        {
          "indexed": false,
          "internalType": "address",
          "name": "bidder",
          "type": "address"
        },
        {
          "indexed": false,
          "internalType": "uint256",
          "name": "price",
          "type": "uint256"
        }
      ],
      "name": "NFTAddAuction",
      "type": "event"
    },
    {
      "anonymous": false,
      "inputs": [
        {
          "indexed": false,
          "internalType": "uint256",
          "name": "itemId",
          "type": "uint256"
        },
        {
          "indexed": false,
          "internalType": "address",
          "name": "nftContract",
          "type": "address"
        },
        {
          "indexed": false,
          "internalType": "uint256",
          "name": "tokenId",
          "type": "uint256"
        },
        {
          "indexed": false,
          "internalType": "address",
          "name": "seller",
          "type": "address"
        },
        {
          "indexed": false,
          "internalType": "address",
          "name": "ftContract",
          "type": "address"
        },
        {
          "indexed": false,
          "internalType": "uint256",
          "name": "price",
          "type": "uint256"
        },
        {
          "indexed": false,
          "internalType": "bool",
          "name": "auction",
          "type": "bool"
        }
      ],
      "name": "NFTListed",
      "type": "event"
    },
    {
      "anonymous": false,
      "inputs": [
        {
          "indexed": false,
          "internalType": "uint256",
          "name": "itemId",
          "type": "uint256"
        },
        {
          "indexed": false,
          "internalType": "address",
          "name": "nftContract",
          "type": "address"
        },
        {
          "indexed": false,
          "internalType": "uint256",
          "name": "tokenId",
          "type": "uint256"
        },
        {
          "indexed": false,
          "internalType": "address",
          "name": "seller",
          "type": "address"
        },
        {
          "indexed": false,
          "internalType": "address",
          "name": "buyer",
          "type": "address"
        },
        {
          "indexed": false,
          "internalType": "uint256",
          "name": "price",
          "type": "uint256"
        }
      ],
      "name": "NFTSold",
      "type": "event"
    },
    {
      "anonymous": false,
      "inputs": [
        {
          "indexed": false,
          "internalType": "uint256",
          "name": "itemId",
          "type": "uint256"
        }
      ],
      "name": "NFTUnlisted",
      "type": "event"
    },
    {
      "anonymous": false,
      "inputs": [
        {
          "indexed": true,
          "internalType": "address",
          "name": "previousOwner",
          "type": "address"
        },
        {
          "indexed": true,
          "internalType": "address",
          "name": "newOwner",
          "type": "address"
        }
      ],
      "name": "OwnershipTransferred",
      "type": "event"
    },
    {
      "inputs": [],
      "name": "DENOMINATOR",
      "outputs": [
        {
          "internalType": "uint256",
          "name": "",
          "type": "uint256"
        }
      ],
      "stateMutability": "view",
      "type": "function"
    },
    {
      "inputs": [],
      "name": "ERC2981INTERFACE",
      "outputs": [
        {
          "internalType": "bytes4",
          "name": "",
          "type": "bytes4"
        }
      ],
      "stateMutability": "view",
      "type": "function"
    },
    {
      "inputs": [],
      "name": "ERC721INTERFACE",
      "outputs": [
        {
          "internalType": "bytes4",
          "name": "",
          "type": "bytes4"
        }
      ],
      "stateMutability": "view",
      "type": "function"
    },
    {
      "inputs": [],
      "name": "RATE_FEE",
      "outputs": [
        {
          "internalType": "uint256",
          "name": "",
          "type": "uint256"
        }
      ],
      "stateMutability": "view",
      "type": "function"
    },
    {
      "inputs": [
        {
          "internalType": "address",
          "name": "tokenAddr",
          "type": "address"
        }
      ],
      "name": "addAcceptToken",
      "outputs": [],
      "stateMutability": "nonpayable",
      "type": "function"
    },
    {
      "inputs": [
        {
          "internalType": "address",
          "name": "whitelistAddress",
          "type": "address"
        },
        {
          "internalType": "uint256",
          "name": "fee",
          "type": "uint256"
        }
      ],
      "name": "addWhitelistAddress",
      "outputs": [],
      "stateMutability": "nonpayable",
      "type": "function"
    },
    {
      "inputs": [
        {
          "internalType": "address",
          "name": "walletAddress",
          "type": "address"
        },
        {
          "internalType": "address",
          "name": "tokenAddress",
          "type": "address"
        }
      ],
      "name": "feeOf",
      "outputs": [
        {
          "internalType": "uint256",
          "name": "",
          "type": "uint256"
        }
      ],
      "stateMutability": "view",
      "type": "function"
    },
    {
      "inputs": [],
      "name": "getAcceptTokens",
      "outputs": [
        {
          "internalType": "address[]",
          "name": "",
          "type": "address[]"
        }
      ],
      "stateMutability": "view",
      "type": "function"
    },
    {
      "inputs": [],
      "name": "getRateFee",
      "outputs": [
        {
          "internalType": "uint256",
          "name": "",
          "type": "uint256"
        }
      ],
      "stateMutability": "view",
      "type": "function"
    },
    {
      "inputs": [
        {
          "internalType": "address",
          "name": "tokenAddress",
          "type": "address"
        }
      ],
      "name": "getTokenFee",
      "outputs": [
        {
          "internalType": "uint256",
          "name": "",
          "type": "uint256"
        }
      ],
      "stateMutability": "view",
      "type": "function"
    },
    {
      "inputs": [],
      "name": "getWhitelist",
      "outputs": [
        {
          "components": [
            {
              "internalType": "address",
              "name": "addr",
              "type": "address"
            },
            {
              "internalType": "uint256",
              "name": "fee",
              "type": "uint256"
            }
          ],
          "internalType": "struct IHubChild.WhitelistVars[]",
          "name": "",
          "type": "tuple[]"
        }
      ],
      "stateMutability": "view",
      "type": "function"
    },
    {
      "inputs": [],
      "name": "hubAddr",
      "outputs": [
        {
          "internalType": "address",
          "name": "",
          "type": "address"
        }
      ],
      "stateMutability": "view",
      "type": "function"
    },
    {
      "inputs": [],
      "name": "owner",
      "outputs": [
        {
          "internalType": "address",
          "name": "",
          "type": "address"
        }
      ],
      "stateMutability": "view",
      "type": "function"
    },
    {
      "inputs": [
        {
          "internalType": "address",
          "name": "tokenAddr",
          "type": "address"
        }
      ],
      "name": "removeToken",
      "outputs": [],
      "stateMutability": "nonpayable",
      "type": "function"
    },
    {
      "inputs": [
        {
          "internalType": "address",
          "name": "whitelistAddress",
          "type": "address"
        }
      ],
      "name": "removeWhitelistAddress",
      "outputs": [],
      "stateMutability": "nonpayable",
      "type": "function"
    },
    {
      "inputs": [],
      "name": "renounceOwnership",
      "outputs": [],
      "stateMutability": "nonpayable",
      "type": "function"
    },
    {
      "inputs": [
        {
          "internalType": "address",
          "name": "hub",
          "type": "address"
        }
      ],
      "name": "setHub",
      "outputs": [],
      "stateMutability": "nonpayable",
      "type": "function"
    },
    {
      "inputs": [
        {
          "internalType": "uint256",
          "name": "rateFee",
          "type": "uint256"
        }
      ],
      "name": "setRateFee",
      "outputs": [],
      "stateMutability": "nonpayable",
      "type": "function"
    },
    {
      "inputs": [
        {
          "internalType": "address",
          "name": "newOwner",
          "type": "address"
        }
      ],
      "name": "transferOwnership",
      "outputs": [],
      "stateMutability": "nonpayable",
      "type": "function"
    },
    {
      "inputs": [
        {
          "internalType": "address",
          "name": "nftContract",
          "type": "address"
        },
        {
          "internalType": "address",
          "name": "ftContract",
          "type": "address"
        },
        {
          "internalType": "uint256",
          "name": "tokenId",
          "type": "uint256"
        },
        {
          "internalType": "uint256",
          "name": "price",
          "type": "uint256"
        }
      ],
      "name": "listNft",
      "outputs": [],
      "stateMutability": "nonpayable",
      "type": "function"
    },
    {
      "inputs": [
        {
          "internalType": "address",
          "name": "nftContract",
          "type": "address"
        },
        {
          "internalType": "address",
          "name": "ftContract",
          "type": "address"
        },
        {
          "internalType": "uint256",
          "name": "tokenId",
          "type": "uint256"
        },
        {
          "internalType": "uint256",
          "name": "price",
          "type": "uint256"
        },
        {
          "internalType": "bool",
          "name": "limitTime",
          "type": "bool"
        },
        {
          "internalType": "uint256",
          "name": "timeHour",
          "type": "uint256"
        }
      ],
      "name": "listAuctionNft",
      "outputs": [],
      "stateMutability": "nonpayable",
      "type": "function"
    },
    {
      "inputs": [
        {
          "internalType": "uint256",
          "name": "itemId",
          "type": "uint256"
        },
        {
          "internalType": "address",
          "name": "ftContract",
          "type": "address"
        },
        {
          "internalType": "uint256",
          "name": "price",
          "type": "uint256"
        }
      ],
      "name": "switchToListed",
      "outputs": [],
      "stateMutability": "nonpayable",
      "type": "function"
    },
    {
      "inputs": [
        {
          "internalType": "uint256",
          "name": "itemId",
          "type": "uint256"
        },
        {
          "internalType": "address",
          "name": "ftContract",
          "type": "address"
        },
        {
          "internalType": "uint256",
          "name": "price",
          "type": "uint256"
        },
        {
          "internalType": "bool",
          "name": "limitTime",
          "type": "bool"
        },
        {
          "internalType": "uint256",
          "name": "timeHour",
          "type": "uint256"
        }
      ],
      "name": "switchToAuction",
      "outputs": [],
      "stateMutability": "nonpayable",
      "type": "function"
    },
    {
      "inputs": [
        {
          "internalType": "uint256",
          "name": "itemId",
          "type": "uint256"
        },
        {
          "internalType": "address",
          "name": "ftContract",
          "type": "address"
        },
        {
          "internalType": "uint256",
          "name": "price",
          "type": "uint256"
        }
      ],
      "name": "relistNft",
      "outputs": [],
      "stateMutability": "nonpayable",
      "type": "function"
    },
    {
      "inputs": [
        {
          "internalType": "uint256",
          "name": "itemId",
          "type": "uint256"
        },
        {
          "internalType": "address",
          "name": "ftContract",
          "type": "address"
        },
        {
          "internalType": "uint256",
          "name": "price",
          "type": "uint256"
        },
        {
          "internalType": "bool",
          "name": "limitTime",
          "type": "bool"
        },
        {
          "internalType": "uint256",
          "name": "timeHour",
          "type": "uint256"
        }
      ],
      "name": "reauctionNft",
      "outputs": [],
      "stateMutability": "nonpayable",
      "type": "function"
    },
    {
      "inputs": [
        {
          "internalType": "uint256",
          "name": "itemId",
          "type": "uint256"
        }
      ],
      "name": "unlistItem",
      "outputs": [],
      "stateMutability": "nonpayable",
      "type": "function"
    },
    {
      "inputs": [
        {
          "internalType": "uint256",
          "name": "itemId",
          "type": "uint256"
        }
      ],
      "name": "buyNft",
      "outputs": [],
      "stateMutability": "payable",
      "type": "function"
    },
    {
      "inputs": [
        {
          "internalType": "uint256",
          "name": "itemId",
          "type": "uint256"
        },
        {
          "internalType": "uint256",
          "name": "value",
          "type": "uint256"
        }
      ],
      "name": "addAuctionNft",
      "outputs": [],
      "stateMutability": "payable",
      "type": "function"
    },
    {
      "inputs": [
        {
          "internalType": "uint256",
          "name": "itemId",
          "type": "uint256"
        }
      ],
      "name": "acceptAuctionNft",
      "outputs": [],
      "stateMutability": "payable",
      "type": "function"
    },
    {
      "inputs": [
        {
          "internalType": "uint256",
          "name": "itemId",
          "type": "uint256"
        }
      ],
      "name": "claimAuctionNft",
      "outputs": [],
      "stateMutability": "payable",
      "type": "function"
    },
    {
      "inputs": [],
      "name": "getListedNfts",
      "outputs": [
        {
          "components": [
            {
              "internalType": "uint256",
              "name": "itemId",
              "type": "uint256"
            },
            {
              "internalType": "address",
              "name": "nftContract",
              "type": "address"
            },
            {
              "internalType": "uint256",
              "name": "tokenId",
              "type": "uint256"
            },
            {
              "internalType": "address",
              "name": "seller",
              "type": "address"
            },
            {
              "internalType": "address",
              "name": "ftContract",
              "type": "address"
            },
            {
              "internalType": "uint256",
              "name": "price",
              "type": "uint256"
            },
            {
              "internalType": "bool",
              "name": "listed",
              "type": "bool"
            },
            {
              "internalType": "bool",
              "name": "auction",
              "type": "bool"
            }
          ],
          "internalType": "struct Marketplace.NFT[]",
          "name": "",
          "type": "tuple[]"
        }
      ],
      "stateMutability": "view",
      "type": "function"
    },
    {
      "inputs": [],
      "name": "getMyListedNfts",
      "outputs": [
        {
          "components": [
            {
              "internalType": "uint256",
              "name": "itemId",
              "type": "uint256"
            },
            {
              "internalType": "address",
              "name": "nftContract",
              "type": "address"
            },
            {
              "internalType": "uint256",
              "name": "tokenId",
              "type": "uint256"
            },
            {
              "internalType": "address",
              "name": "seller",
              "type": "address"
            },
            {
              "internalType": "address",
              "name": "ftContract",
              "type": "address"
            },
            {
              "internalType": "uint256",
              "name": "price",
              "type": "uint256"
            },
            {
              "internalType": "bool",
              "name": "listed",
              "type": "bool"
            },
            {
              "internalType": "bool",
              "name": "auction",
              "type": "bool"
            }
          ],
          "internalType": "struct Marketplace.NFT[]",
          "name": "",
          "type": "tuple[]"
        }
      ],
      "stateMutability": "view",
      "type": "function"
    },
    {
      "inputs": [],
      "name": "getUserBids",
      "outputs": [
        {
          "components": [
            {
              "internalType": "uint256",
              "name": "itemId",
              "type": "uint256"
            },
            {
              "internalType": "address",
              "name": "nftContract",
              "type": "address"
            },
            {
              "internalType": "uint256",
              "name": "tokenId",
              "type": "uint256"
            },
            {
              "internalType": "address",
              "name": "seller",
              "type": "address"
            },
            {
              "internalType": "address",
              "name": "ftContract",
              "type": "address"
            },
            {
              "internalType": "uint256",
              "name": "price",
              "type": "uint256"
            },
            {
              "internalType": "bool",
              "name": "listed",
              "type": "bool"
            },
            {
              "internalType": "bool",
              "name": "auction",
              "type": "bool"
            }
          ],
          "internalType": "struct Marketplace.NFT[]",
          "name": "",
          "type": "tuple[]"
        },
        {
          "components": [
            {
              "internalType": "address",
              "name": "bidder",
              "type": "address"
            },
            {
              "internalType": "uint256",
              "name": "highestBid",
              "type": "uint256"
            },
            {
              "internalType": "bool",
              "name": "limitTime",
              "type": "bool"
            },
            {
              "internalType": "uint256",
              "name": "timeEnd",
              "type": "uint256"
            }
          ],
          "internalType": "struct Marketplace.Auction[]",
          "name": "",
          "type": "tuple[]"
        }
      ],
      "stateMutability": "view",
      "type": "function"
    },
    {
      "inputs": [],
      "name": "getListAuction",
      "outputs": [
        {
          "components": [
            {
              "internalType": "address",
              "name": "bidder",
              "type": "address"
            },
            {
              "internalType": "uint256",
              "name": "highestBid",
              "type": "uint256"
            },
            {
              "internalType": "bool",
              "name": "limitTime",
              "type": "bool"
            },
            {
              "internalType": "uint256",
              "name": "timeEnd",
              "type": "uint256"
            }
          ],
          "internalType": "struct Marketplace.Auction[]",
          "name": "",
          "type": "tuple[]"
        }
      ],
      "stateMutability": "view",
      "type": "function"
    },
    {
      "inputs": [
        {
          "internalType": "address",
          "name": "contractAddress",
          "type": "address"
        },
        {
          "internalType": "uint256",
          "name": "tokenId",
          "type": "uint256"
        }
      ],
      "name": "getMarketData",
      "outputs": [
        {
          "components": [
            {
              "internalType": "uint256",
              "name": "itemId",
              "type": "uint256"
            },
            {
              "internalType": "address",
              "name": "nftContract",
              "type": "address"
            },
            {
              "internalType": "uint256",
              "name": "tokenId",
              "type": "uint256"
            },
            {
              "internalType": "address",
              "name": "seller",
              "type": "address"
            },
            {
              "internalType": "address",
              "name": "ftContract",
              "type": "address"
            },
            {
              "internalType": "uint256",
              "name": "price",
              "type": "uint256"
            },
            {
              "internalType": "bool",
              "name": "listed",
              "type": "bool"
            },
            {
              "internalType": "bool",
              "name": "auction",
              "type": "bool"
            }
          ],
          "internalType": "struct Marketplace.NFT",
          "name": "",
          "type": "tuple"
        },
        {
          "components": [
            {
              "internalType": "address",
              "name": "bidder",
              "type": "address"
            },
            {
              "internalType": "uint256",
              "name": "highestBid",
              "type": "uint256"
            },
            {
              "internalType": "bool",
              "name": "limitTime",
              "type": "bool"
            },
            {
              "internalType": "uint256",
              "name": "timeEnd",
              "type": "uint256"
            }
          ],
          "internalType": "struct Marketplace.Auction",
          "name": "",
          "type": "tuple"
        }
      ],
      "stateMutability": "view",
      "type": "function"
    }
  ],
  "bytecode": "0x60806040523480156200001157600080fd5b506040516200414d3803806200414d83398101604081905262000034916200012c565b6200003f336200005b565b6001805560078290556200005381620000ab565b505062000169565b600080546001600160a01b038381166001600160a01b0319831681178455604051919092169283917f8be0079c531659141344cd1fd0a4f28419497f9722a3daafe3b4186f6b6457e09190a35050565b6000546001600160a01b031633146200010a5760405162461bcd60e51b815260206004820181905260248201527f4f776e61626c653a2063616c6c6572206973206e6f7420746865206f776e6572604482015260640160405180910390fd5b600880546001600160a01b0319166001600160a01b0392909216919091179055565b600080604083850312156200013f578182fd5b825160208401519092506001600160a01b03811681146200015e578182fd5b809150509250929050565b613fd480620001796000396000f3fe6080604052600436106102045760003560e01c806383eb1f3b11610118578063a432309b116100a0578063b7ecbaae1161006f578063b7ecbaae146105af578063ca6ca485146105cf578063d01f63f5146105f1578063debd227214610613578063f2fde38b1461063357600080fd5b8063a432309b1461052e578063a4b7dd8e1461055c578063a89eccfd1461056f578063a91400991461058f57600080fd5b80638d6cb3fb116100e75780638d6cb3fb146104a55780638da5cb5b146104ba578063918f8674146104d8578063937054f6146104ee57806396b5c1d61461050e57600080fd5b806383eb1f3b1461043b5780638563e10e1461045b57806386164c4c1461047d57806386c3b08a1461049057600080fd5b80634387d0f11161019b5780635254aca91161016a5780635254aca9146103a65780635a599da8146103c65780635fa7b584146103e6578063715018a61461040657806375e1e4c71461041b57600080fd5b80634387d0f11461031557806349095a21146103355780634f17ef811461036d578063502a676c1461039057600080fd5b80631f4cc4db116101d75780631f4cc4db14610292578063243adbdd146102b4578063252154fa146102c757806331962cdc146102f557600080fd5b806307cb1a6e146102095780630f15e9be146102425780630fab2713146102645780631879c75014610277575b600080fd5b34801561021557600080fd5b506102246380ac58cd60e01b81565b6040516001600160e01b031990911681526020015b60405180910390f35b34801561024e57600080fd5b5061026261025d36600461399c565b610653565b005b61026261027236600461399c565b6106e6565b34801561028357600080fd5b5061022463152a902d60e11b81565b34801561029e57600080fd5b506102a7610b3c565b6040516102399190613c23565b6102626102c236600461399c565b610d42565b3480156102d357600080fd5b506102e76102e2366004613829565b61111c565b604051908152602001610239565b34801561030157600080fd5b50610262610310366004613829565b61112f565b34801561032157600080fd5b506102626103303660046139eb565b61117b565b34801561034157600080fd5b50600854610355906001600160a01b031681565b6040516001600160a01b039091168152602001610239565b34801561037957600080fd5b5061038261135f565b604051610239929190613c36565b34801561039c57600080fd5b506102e760075481565b3480156103b257600080fd5b506102626103c1366004613928565b611605565b3480156103d257600080fd5b506102626103e136600461399c565b611640565b3480156103f257600080fd5b50610262610401366004613829565b611889565b34801561041257600080fd5b506102626118c2565b34801561042757600080fd5b5061026261043636600461387d565b6118f8565b34801561044757600080fd5b506102626104563660046138c2565b611c3b565b34801561046757600080fd5b50610470611fc1565b6040516102399190613bc3565b61026261048b366004613a3c565b61208d565b34801561049c57600080fd5b506007546102e7565b3480156104b157600080fd5b506102a76123be565b3480156104c657600080fd5b506000546001600160a01b0316610355565b3480156104e457600080fd5b506102e761271081565b3480156104fa57600080fd5b506102626105093660046139b4565b612566565b34801561051a57600080fd5b506102626105293660046139b4565b612717565b34801561053a57600080fd5b5061054e610549366004613928565b61289f565b604051610239929190613e34565b61026261056a36600461399c565b612a08565b34801561057b57600080fd5b506102e761058a366004613845565b612b44565b34801561059b57600080fd5b506102626105aa3660046139eb565b612b57565b3480156105bb57600080fd5b506102626105ca366004613829565b612cc9565b3480156105db57600080fd5b506105e4612cfe565b6040516102399190613c10565b3480156105fd57600080fd5b50610606612e24565b6040516102399190613c64565b34801561061f57600080fd5b5061026261062e366004613829565b612f20565b34801561063f57600080fd5b5061026261064e366004613829565b612f55565b6008546001600160a01b031633146106865760405162461bcd60e51b815260040161067d90613d4f565b60405180910390fd5b61271081106106e15760405162461bcd60e51b815260206004820152602160248201527f466565206e756d657261746f72206d757374206c657373207468616e203130306044820152602560f81b606482015260840161067d565b600755565b600260015414156107095760405162461bcd60e51b815260040161067d90613d7d565b60026001556000818152600c60205260409020600681015460ff16801561073957506006810154610100900460ff165b6107555760405162461bcd60e51b815260040161067d90613deb565b6000828152600d6020526040902060038201546001600160a01b0316331461078f5760405162461bcd60e51b815260040161067d90613ceb565b600281015460ff1615806107a65750428160030154105b6108025760405162461bcd60e51b815260206004820152602760248201527f41756374696f6e206d75737420626520656e646564206f72206e6f74206c696d60448201526669742074696d6560c81b606482015260840161067d565b600482015460009061081e9033906001600160a01b0316612ff0565b905061084361271061083d83856001015461305a90919063ffffffff16565b90613066565b6001840154909150610865906001600160a01b031663152a902d60e11b613072565b156109b45760018381015460028501549184015460405163152a902d60e11b81526004810193909352602483015260009182916001600160a01b031690632a55205a90604401604080518083038186803b1580156108c257600080fd5b505afa1580156108d6573d6000803e3d6000fd5b505050506040513d601f19601f820116820180604052508101906108fa9190613953565b600387015491935091506001600160a01b0380841691161480159061091f5750600081115b1561097f57600485015461094090309084906001600160a01b03168461308e565b6003850154600486015461097a9130916001600160a01b03918216911661097561096a86896131f4565b60018a015490613200565b61308e565b6109ad565b6003850154600486015460018601546109ad9230926001600160a01b03918216929116906109759088613200565b50506109e2565b6003830154600484015460018401546109e29230926001600160a01b03918216929116906109759086613200565b610a0c336109f86000546001600160a01b031690565b60048601546001600160a01b03168461308e565b6001830154825460028501546040516323b872dd60e01b81526001600160a01b03938416936323b872dd93610a4a9330939290911691600401613b9f565b600060405180830381600087803b158015610a6457600080fd5b505af1158015610a78573d6000803e3d6000fd5b5050505060068301805460ff1990811690915582546001600160a01b031916835560006001848101829055600280860180549094169093556003808601839055908601549286015490860154604080518981526001600160a01b039586166020820152908101929092529290921660608301526080820181905260a08201527ffbd14ef83c9e36d4cd05cdc496d3b3a07da3041679b4142908d0ef3cef210dc49060c00160405180910390a1610b32600980546001019055565b5050600180555050565b60606000610b49600a5490565b9050600060015b828111610bb6576000818152600c60205260409020600301546001600160a01b031633148015610b9157506000818152600c602052604090206006015460ff165b15610ba45781610ba081613f2a565b9250505b80610bae81613f2a565b915050610b50565b5060008167ffffffffffffffff811115610be057634e487b7160e01b600052604160045260246000fd5b604051908082528060200260200182016040528015610c1957816020015b610c066137b2565b815260200190600190039081610bfe5790505b5090506000805b84811015610d38576000818152600c60205260409020600301546001600160a01b031633148015610c6257506000818152600c602052604090206006015460ff165b15610d26576000818152600c6020908152604091829020825161010080820185528254825260018301546001600160a01b039081169483019490945260028301549482019490945260038201548316606082015260048201549092166080830152600581015460a08301526006015460ff808216151560c0840152929004909116151560e08201528351849084908110610d0c57634e487b7160e01b600052603260045260246000fd5b60200260200101819052508180610d2290613f2a565b9250505b80610d3081613f2a565b915050610c20565b5090949350505050565b60026001541415610d655760405162461bcd60e51b815260040161067d90613d7d565b60026001556000818152600c6020526040902060048101546001600160a01b0316610ded578060050154341015610ded5760405162461bcd60e51b815260206004820152602660248201527f4e6f7420656e6f75676820657468657220746f20636f7665722061736b696e6760448201526520707269636560d01b606482015260840161067d565b600681015460ff168015610e0b57506006810154610100900460ff16155b610e275760405162461bcd60e51b815260040161067d90613deb565b60048101543390600090610e459083906001600160a01b0316612ff0565b9050610e6461271061083d83866005015461305a90919063ffffffff16565b6001840154909150610e86906001600160a01b031663152a902d60e11b613072565b15610fd25760018301546002840154600585015460405163152a902d60e11b81526004810192909252602482015260009182916001600160a01b0390911690632a55205a90604401604080518083038186803b158015610ee557600080fd5b505afa158015610ef9573d6000803e3d6000fd5b505050506040513d601f19601f82011682018060405250810190610f1d9190613953565b600387015491935091506001600160a01b03808416911614801590610f425750600081115b15610f9d576004850154610f6390339084906001600160a01b03168461308e565b60038501546004860154610f989133916001600160a01b039182169116610975610f8d86896131f4565b60058b015490613200565b610fcb565b600385015460048601546005870154610fcb9233926001600160a01b03918216929116906109759088613200565b5050611000565b6003830154600484015460058501546110009233926001600160a01b03918216929116906109759086613200565b611016336109f86000546001600160a01b031690565b600183015460028401546040516323b872dd60e01b81526001600160a01b03909216916323b872dd9161104f9130918791600401613b9f565b600060405180830381600087803b15801561106957600080fd5b505af115801561107d573d6000803e3d6000fd5b50505060068401805460ff191690555061109b600980546001019055565b6001830154600284015460038501546005860154604080518981526001600160a01b039586166020820152908101939093529083166060830152918416608082015260a08101919091527ffbd14ef83c9e36d4cd05cdc496d3b3a07da3041679b4142908d0ef3cef210dc49060c00160405180910390a15050600180555050565b600061112960048361320c565b92915050565b6000546001600160a01b031633146111595760405162461bcd60e51b815260040161067d90613d1a565b600880546001600160a01b0319166001600160a01b0392909216919091179055565b836001600160a01b03811615806111985750611198600282613221565b6111b45760405162461bcd60e51b815260040161067d90613cbc565b600260015414156111d75760405162461bcd60e51b815260040161067d90613d7d565b6002600155836111f95760405162461bcd60e51b815260040161067d90613db4565b6000868152600c6020526040908190206001810154600282015492516323b872dd60e01b815291926001600160a01b03909116916323b872dd916112439133913091600401613b9f565b600060405180830381600087803b15801561125d57600080fd5b505af1158015611271573d6000803e3d6000fd5b50505050600381018054336001600160a01b0319918216179091556006820180546004840180549093166001600160a01b038a161790925561ffff199091166101011790556112c06009613243565b6000878152600d602052604090206001810186905560028101805460ff1916861515179055846112f1576000611307565b61130761130085610e1061305a565b42906131f4565b60038201556001808301546002840154604051600080516020613f7f83398151915293611349938d936001600160a01b0390911692909133918e918e91613e7c565b60405180910390a1505060018055505050505050565b606080600061136d600a5490565b905060008060005b838110156113bc576000818152600d60205260409020546001600160a01b03163314156113aa576113a7600184613ebc565b92505b806113b481613f2a565b915050611375565b5060008267ffffffffffffffff8111156113e657634e487b7160e01b600052604160045260246000fd5b60405190808252806020026020018201604052801561141f57816020015b61140c6137b2565b8152602001906001900390816114045790505b50905060008367ffffffffffffffff81111561144b57634e487b7160e01b600052604160045260246000fd5b60405190808252806020026020018201604052801561148457816020015b6114716137f6565b8152602001906001900390816114695790505b50905060015b8581116115f8576000818152600d60205260409020546001600160a01b03163314156115e6576000818152600c6020908152604080832081516101008082018452825482526001808401546001600160a01b039081168488015260028086015485880152600380870154831660608088019190915260048801548416608080890191909152600589015460a089015260069098015460ff808216151560c08a01529690048616151560e08801528b8b52600d8a529988902088519788018952805490931687529282015497860197909752958601549091161515938301939093529290910154928101929092528451839290829087908990811061159e57634e487b7160e01b600052603260045260246000fd5b6020026020010181905250808588815181106115ca57634e487b7160e01b600052603260045260246000fd5b60209081029190910101526115e0600188613ebc565b96505050505b806115f081613f2a565b91505061148a565b5090969095509350505050565b6008546001600160a01b0316331461162f5760405162461bcd60e51b815260040161067d90613d4f565b61163b6004838361329a565b505050565b600260015414156116635760405162461bcd60e51b815260040161067d90613d7d565b60026001556000818152600c60205260409020600301546001600160a01b031633146116c85760405162461bcd60e51b815260206004820152601460248201527329b2b73232b91034b9903737ba103634b9ba32b960611b604482015260640161067d565b6000818152600c6020526040902060060154610100900460ff1615611773576000818152600d6020526040902060018101541561173e57805460018201546040516001600160a01b039092169181156108fc0291906000818181858888f1935050505015801561173c573d6000803e3d6000fd5b505b506000818152600d6020526040812080546001600160a01b03191681556001810182905560028101805460ff19169055600301555b6000818152600c602052604090819020600181015460029091015491516323b872dd60e01b81526001600160a01b03909116916323b872dd916117bd913091339190600401613b9f565b600060405180830381600087803b1580156117d757600080fd5b505af11580156117eb573d6000803e3d6000fd5b5050506000828152600c602052604081208181556001810180546001600160a01b0319908116909155600282018390556003820180548216905560048201805490911690556005810191909155600601805461ffff191690555061184f600b613243565b6040518181527fcd14eb7ebf273ed59a9fd1cf8651f3f40d9a04355b3511376f0d17b37ba224ff9060200160405180910390a15060018055565b6008546001600160a01b031633146118b35760405162461bcd60e51b815260040161067d90613d4f565b6118be6002826132b8565b5050565b6000546001600160a01b031633146118ec5760405162461bcd60e51b815260040161067d90613d1a565b6118f660006132cd565b565b826001600160a01b03811615806119155750611915600282613221565b6119315760405162461bcd60e51b815260040161067d90613cbc565b600260015414156119545760405162461bcd60e51b815260040161067d90613d7d565b6002600155816119765760405162461bcd60e51b815260040161067d90613db4565b6040516323b872dd60e01b81526001600160a01b038616906323b872dd906119a690339030908890600401613b9f565b600060405180830381600087803b1580156119c057600080fd5b505af11580156119d4573d6000803e3d6000fd5b505050506119e6600a80546001019055565b6119f4600b80546001019055565b60006119ff600a5490565b9050604051806101000160405280828152602001876001600160a01b03168152602001858152602001336001600160a01b03168152602001866001600160a01b0316815260200184815260200160011515815260200160001515815250600c60008381526020019081526020016000206000820151816000015560208201518160010160006101000a8154816001600160a01b0302191690836001600160a01b031602179055506040820151816002015560608201518160030160006101000a8154816001600160a01b0302191690836001600160a01b0316021790555060808201518160040160006101000a8154816001600160a01b0302191690836001600160a01b0316021790555060a0820151816005015560c08201518160060160006101000a81548160ff02191690831515021790555060e08201518160060160016101000a81548160ff021916908315150217905550905050604051806080016040528060006001600160a01b031681526020018481526020016000151581526020016000815250600d600083815260200190815260200160002060008201518160000160006101000a8154816001600160a01b0302191690836001600160a01b031602179055506020820151816001015560408201518160020160006101000a81548160ff02191690831515021790555060608201518160030155905050600080516020613f7f8339815191528187863389886000604051611c279796959493929190613e7c565b60405180910390a150506001805550505050565b846001600160a01b0381161580611c585750611c58600282613221565b611c745760405162461bcd60e51b815260040161067d90613cbc565b60026001541415611c975760405162461bcd60e51b815260040161067d90613d7d565b600260015583611cb95760405162461bcd60e51b815260040161067d90613db4565b611cca876380ac58cd60e01b613072565b611d165760405162461bcd60e51b815260206004820152601b60248201527f436f6e7472616374206e6565647320746f206265204552433732310000000000604482015260640161067d565b6040516323b872dd60e01b81526001600160a01b038816906323b872dd90611d4690339030908a90600401613b9f565b600060405180830381600087803b158015611d6057600080fd5b505af1158015611d74573d6000803e3d6000fd5b50505050611d86600a80546001019055565b611d94600b80546001019055565b6000611d9f600a5490565b9050604051806101000160405280828152602001896001600160a01b03168152602001878152602001336001600160a01b03168152602001886001600160a01b0316815260200186815260200160011515815260200160011515815250600c60008381526020019081526020016000206000820151816000015560208201518160010160006101000a8154816001600160a01b0302191690836001600160a01b031602179055506040820151816002015560608201518160030160006101000a8154816001600160a01b0302191690836001600160a01b0316021790555060808201518160040160006101000a8154816001600160a01b0302191690836001600160a01b0316021790555060a0820151816005015560c08201518160060160006101000a81548160ff02191690831515021790555060e08201518160060160016101000a81548160ff021916908315150217905550905050604051806080016040528060006001600160a01b03168152602001868152602001851515815260200185611f2c576000611f3b565b611f3b61130086610e1061305a565b90526000828152600d6020908152604091829020835181546001600160a01b0319166001600160a01b03909116178155908301516001808301919091558383015160028301805460ff191691151591909117905560609093015160039091015551600080516020613f7f833981519152916113499184918c918b9133918e918d91613e7c565b60606000611fcf600261331d565b905060008167ffffffffffffffff811115611ffa57634e487b7160e01b600052604160045260246000fd5b604051908082528060200260200182016040528015612023578160200160208202803683370190505b50905060005b828110156120865761203c600282613327565b82828151811061205c57634e487b7160e01b600052603260045260246000fd5b6001600160a01b03909216602092830291909101909101528061207e81613f2a565b915050612029565b5092915050565b600260015414156120b05760405162461bcd60e51b815260040161067d90613d7d565b60026001556000828152600c60205260409020600681015460ff1680156120e057506006810154610100900460ff165b6120fc5760405162461bcd60e51b815260040161067d90613deb565b6000838152600d6020526040902080546001600160a01b03163314801590612131575060038201546001600160a01b03163314155b6121915760405162461bcd60e51b815260206004820152602b60248201527f53656e646572206d757374206265206e6f742073656c6c6572206f722068696760448201526a3432b9ba103134b23232b960a91b606482015260840161067d565b600281015460ff1615806121a85750428160030154115b6121f45760405162461bcd60e51b815260206004820152601960248201527f41756374696f6e2068617320616c726561647920656e64656400000000000000604482015260640161067d565b8060010154831161225f5760405162461bcd60e51b815260206004820152602f60248201527f4e6f7420656e6f75676820657468657220746f20636f7665722068696768657360448201526e742061756374696f6e20707269636560881b606482015260840161067d565b600482015433906001600160a01b0316156122fd576004808401546040516323b872dd60e01b81526001600160a01b03909116916323b872dd916122a991859130918a9101613b9f565b602060405180830381600087803b1580156122c357600080fd5b505af11580156122d7573d6000803e3d6000fd5b505050506040513d601f19601f820116820180604052508101906122fb9190613980565b505b81546001600160a01b031615612333578154600484015460018401546123339230926001600160a01b039182169291169061308e565b81546001600160a01b0319166001600160a01b03828116918217845560018085018790558501546002860154604080518a8152929093166020830152918101919091526060810191909152608081018590527f1ec22f773eb11b65e580f47284fbf084529fa09c8c8b8b96cb76b665e38a72aa9060a0015b60405180910390a1505060018055505050565b606060006123cb600a5490565b905060006123d8600b5490565b905060006123e560095490565b6123ef9083613f13565b905060008167ffffffffffffffff81111561241a57634e487b7160e01b600052604160045260246000fd5b60405190808252806020026020018201604052801561245357816020015b6124406137b2565b8152602001906001900390816124385790505b509050600060015b85811115801561246b5750838211155b1561255b576000818152600c602052604090206006015460ff1615612549576000818152600c6020908152604091829020825161010080820185528254825260018301546001600160a01b039081169483019490945260028301549482019490945260038201548316606082015260048201549092166080830152600581015460a08301526006015460ff808216151560c0840152929004909116151560e0820152835184908490811061252f57634e487b7160e01b600052603260045260246000fd5b6020026020010181905250818061254590613f2a565b9250505b8061255381613f2a565b91505061245b565b509095945050505050565b816001600160a01b03811615806125835750612583600282613221565b61259f5760405162461bcd60e51b815260040161067d90613cbc565b600260015414156125c25760405162461bcd60e51b815260040161067d90613d7d565b6002600155816125e45760405162461bcd60e51b815260040161067d90613db4565b6000848152600c6020526040902060038101546001600160a01b0316331461261e5760405162461bcd60e51b815260040161067d90613ceb565b6000858152600d602052604090206004820180546001600160a01b0319166001600160a01b03878116919091179091556005830185905560068301805461ff0019169055815416156126a957805460018201546040516001600160a01b039092169181156108fc0291906000818181858888f193505050501580156126a7573d6000803e3d6000fd5b505b80546001600160a01b0319168155600060018083018290556002808401805460ff191690556003840183905590840154908401546004850154604051600080516020613f7f83398151915294611c27948c946001600160a01b03918216949093339392909116918c91613e7c565b816001600160a01b03811615806127345750612734600282613221565b6127505760405162461bcd60e51b815260040161067d90613cbc565b600260015414156127735760405162461bcd60e51b815260040161067d90613d7d565b6002600155816127955760405162461bcd60e51b815260040161067d90613db4565b6000848152600c6020526040908190206001810154600282015492516323b872dd60e01b815291926001600160a01b03909116916323b872dd916127df9133913091600401613b9f565b600060405180830381600087803b1580156127f957600080fd5b505af115801561280d573d6000803e3d6000fd5b50505050600381018054336001600160a01b0319918216179091556006820180546004840180549093166001600160a01b038816179092556005830185905561ffff1990911660011790556128626009613243565b60018101546002820154604051600080516020613f7f833981519152926123ab9289926001600160a01b039092169133908a908a90600090613e7c565b6128a76137b2565b6128af6137f6565b6128b76137b2565b6128bf6137f6565b60006128ca600a5490565b905060015b8181116129f9576000818152600c60205260409020600101546001600160a01b03898116911614801561291257506000818152600c602052604090206002015487145b156129e7576000818152600c6020908152604080832081516101008082018452825482526001808401546001600160a01b039081168488015260028086015485880152600380870154831660608088019190915260048801548416608080890191909152600589015460a089015260069098015460ff808216151560c08a01529690048616151560e08801528b8b52600d8a52998890208851978801895280549093168752928201549786019790975295860154909116151593830193909352929091015492810192909252945092506129f9565b806129f181613f2a565b9150506128cf565b509193509150505b9250929050565b60026001541415612a2b5760405162461bcd60e51b815260040161067d90613d7d565b60026001556000818152600c60205260409020600681015460ff168015612a5b57506006810154610100900460ff165b612a775760405162461bcd60e51b815260040161067d90613deb565b6000828152600d6020526040902080546001600160a01b03163314612ad65760405162461bcd60e51b815260206004820152601560248201527429b2b73232b91036bab9ba103132903134b23232b960591b604482015260640161067d565b600281015460ff1680612aec5750428160030154105b6108025760405162461bcd60e51b8152602060048201526024808201527f41756374696f6e206d75737420626520656e64656420616e64206c696d69742060448201526374696d6560e01b606482015260840161067d565b6000612b508383612ff0565b9392505050565b836001600160a01b0381161580612b745750612b74600282613221565b612b905760405162461bcd60e51b815260040161067d90613cbc565b60026001541415612bb35760405162461bcd60e51b815260040161067d90613d7d565b600260015583612bd55760405162461bcd60e51b815260040161067d90613db4565b6000868152600c6020526040902060038101546001600160a01b03163314612c0f5760405162461bcd60e51b815260040161067d90613ceb565b6000878152600d6020526040902060068201805461010061ff00199091161790556004820180546001600160a01b0319166001600160a01b0389161790556001810186905560028101805460ff191686151517905584612c70576000612c7f565b612c7f61130085610e1061305a565b6003820155600182015460028301546004840154604051600080516020613f7f83398151915293611349938d936001600160a01b0392831693919233929116908d90600090613e7c565b6008546001600160a01b03163314612cf35760405162461bcd60e51b815260040161067d90613d4f565b6118be600482613333565b60606000612d0b600a5490565b905060008167ffffffffffffffff811115612d3657634e487b7160e01b600052604160045260246000fd5b604051908082528060200260200182016040528015612d6f57816020015b612d5c6137f6565b815260200190600190039081612d545790505b509050600060015b838111612e1b576000818152600d6020908152604091829020825160808101845281546001600160a01b03168152600182015492810192909252600281015460ff1615159282019290925260039091015460608201528351849084908110612def57634e487b7160e01b600052603260045260246000fd5b60200260200101819052508180612e0590613f2a565b9250508080612e1390613f2a565b915050612d77565b50909392505050565b60606000612e326004613348565b905060008167ffffffffffffffff811115612e5d57634e487b7160e01b600052604160045260246000fd5b604051908082528060200260200182016040528015612ea257816020015b6040805180820190915260008082526020820152815260200190600190039081612e7b5790505b50905060005b8281101561208657600080612ebe600484613353565b915091506040518060400160405280836001600160a01b0316815260200182815250848481518110612f0057634e487b7160e01b600052603260045260246000fd5b602002602001018190525050508080612f1890613f2a565b915050612ea8565b6008546001600160a01b03163314612f4a5760405162461bcd60e51b815260040161067d90613d4f565b6118be60028261336f565b6000546001600160a01b03163314612f7f5760405162461bcd60e51b815260040161067d90613d1a565b6001600160a01b038116612fe45760405162461bcd60e51b815260206004820152602660248201527f4f776e61626c653a206e6577206f776e657220697320746865207a65726f206160448201526564647265737360d01b606482015260840161067d565b612fed816132cd565b50565b6040805180820190915260008082526020820181905290613012600485613384565b6020830152158015825261302b57602001519050611129565b613036600484613384565b6020830152158015825261304f57602001519050611129565b505060075492915050565b6000612b508284613ef4565b6000612b508284613ed4565b600061307d8361339c565b8015612b505750612b5083836133cf565b6001600160a01b0382166130d8576040516001600160a01b0384169082156108fc029083906000818181858888f193505050501580156130d2573d6000803e3d6000fd5b506131ee565b6001600160a01b038416301461316a576040516323b872dd60e01b81526001600160a01b038316906323b872dd9061311890879087908690600401613b9f565b602060405180830381600087803b15801561313257600080fd5b505af1158015613146573d6000803e3d6000fd5b505050506040513d601f19601f820116820180604052508101906130d29190613980565b60405163a9059cbb60e01b81526001600160a01b0384811660048301526024820183905283169063a9059cbb90604401602060405180830381600087803b1580156131b457600080fd5b505af11580156131c8573d6000803e3d6000fd5b505050506040513d601f19601f820116820180604052508101906131ec9190613980565b505b50505050565b6000612b508284613ebc565b6000612b508284613f13565b6000612b50836001600160a01b0384166134b8565b6001600160a01b03811660009081526001830160205260408120541515612b50565b8054806132925760405162461bcd60e51b815260206004820152601b60248201527f436f756e7465723a2064656372656d656e74206f766572666c6f770000000000604482015260640161067d565b600019019055565b60006132b0846001600160a01b03851684613528565b949350505050565b6000612b50836001600160a01b038416613545565b600080546001600160a01b038381166001600160a01b0319831681178455604051919092169283917f8be0079c531659141344cd1fd0a4f28419497f9722a3daafe3b4186f6b6457e09190a35050565b6000611129825490565b6000612b508383613662565b6000612b50836001600160a01b03841661369a565b6000611129826136b7565b600080808061336286866136c2565b9097909650945050505050565b6000612b50836001600160a01b0384166136ed565b6000808080613362866001600160a01b03871661373c565b60006133af826301ffc9a760e01b6133cf565b801561112957506133c8826001600160e01b03196133cf565b1592915050565b604080516001600160e01b0319831660248083019190915282518083039091018152604490910182526020810180516001600160e01b03166301ffc9a760e01b179052905160009190829081906001600160a01b0387169061753090613436908690613b66565b6000604051808303818686fa925050503d8060008114613472576040519150601f19603f3d011682016040523d82523d6000602084013e613477565b606091505b50915091506020815110156134925760009350505050611129565b8180156134ae5750808060200190518101906134ae9190613980565b9695505050505050565b6000818152600283016020526040812054801515806134dc57506134dc8484613776565b612b505760405162461bcd60e51b815260206004820152601e60248201527f456e756d657261626c654d61703a206e6f6e6578697374656e74206b65790000604482015260640161067d565b600082815260028401602052604081208290556132b08484613782565b60008181526001830160205260408120548015613658576000613569600183613f13565b855490915060009061357d90600190613f13565b90508181146135fe5760008660000182815481106135ab57634e487b7160e01b600052603260045260246000fd5b90600052602060002001549050808760000184815481106135dc57634e487b7160e01b600052603260045260246000fd5b6000918252602080832090910192909255918252600188019052604090208390555b855486908061361d57634e487b7160e01b600052603160045260246000fd5b600190038181906000526020600020016000905590558560010160008681526020019081526020016000206000905560019350505050611129565b6000915050611129565b600082600001828154811061368757634e487b7160e01b600052603260045260246000fd5b9060005260206000200154905092915050565b60008181526002830160205260408120819055612b50838361378e565b60006111298261331d565b600080806136d08585613327565b600081815260029690960160205260409095205494959350505050565b600081815260018301602052604081205461373457508154600181810184556000848152602080822090930184905584548482528286019093526040902091909155611129565b506000611129565b600081815260028301602052604081205481908061376b5761375e8585613776565b925060009150612a019050565b600192509050612a01565b6000612b50838361379a565b6000612b5083836136ed565b6000612b508383613545565b60008181526001830160205260408120541515612b50565b6040805161010081018252600080825260208201819052918101829052606081018290526080810182905260a0810182905260c0810182905260e081019190915290565b604051806080016040528060006001600160a01b0316815260200160008152602001600015158152602001600081525090565b60006020828403121561383a578081fd5b8135612b5081613f5b565b60008060408385031215613857578081fd5b823561386281613f5b565b9150602083013561387281613f5b565b809150509250929050565b60008060008060808587031215613892578182fd5b843561389d81613f5b565b935060208501356138ad81613f5b565b93969395505050506040820135916060013590565b60008060008060008060c087890312156138da578182fd5b86356138e581613f5b565b955060208701356138f581613f5b565b94506040870135935060608701359250608087013561391381613f70565b8092505060a087013590509295509295509295565b6000806040838503121561393a578182fd5b823561394581613f5b565b946020939093013593505050565b60008060408385031215613965578182fd5b825161397081613f5b565b6020939093015192949293505050565b600060208284031215613991578081fd5b8151612b5081613f70565b6000602082840312156139ad578081fd5b5035919050565b6000806000606084860312156139c8578283fd5b8335925060208401356139da81613f5b565b929592945050506040919091013590565b600080600080600060a08688031215613a02578081fd5b853594506020860135613a1481613f5b565b9350604086013592506060860135613a2b81613f70565b949793965091946080013592915050565b60008060408385031215613a4e578182fd5b50508035926020909101359150565b6000815180845260208085019450808401835b83811015613abf57613aac87835180516001600160a01b0316825260208082015190830152604080820151151590830152606090810151910152565b6080969096019590820190600101613a70565b509495945050505050565b6000815180845260208085019450808401835b83811015613abf57613af0878351613b04565b610100969096019590820190600101613add565b80518252602081015160018060a01b03808216602085015260408301516040850152806060840151166060850152806080840151166080850152505060a081015160a083015260c0810151151560c083015260e0810151151560e08301525050565b60008251815b81811015613b865760208186018101518583015201613b6c565b81811115613b945782828501525b509190910192915050565b6001600160a01b039384168152919092166020820152604081019190915260600190565b6020808252825182820181905260009190848201906040850190845b81811015613c045783516001600160a01b031683529284019291840191600101613bdf565b50909695505050505050565b602081526000612b506020830184613a5d565b602081526000612b506020830184613aca565b604081526000613c496040830185613aca565b8281036020840152613c5b8185613a5d565b95945050505050565b602080825282518282018190526000919060409081850190868401855b82811015613caf57815180516001600160a01b03168552860151868501529284019290850190600101613c81565b5091979650505050505050565b602080825260159082015274151bdad95b881a5cc81b9bdd081858d8d95c1d1959605a1b604082015260600190565b60208082526015908201527429b2b73232b91036bab9ba1031329039b2b63632b960591b604082015260600190565b6020808252818101527f4f776e61626c653a2063616c6c6572206973206e6f7420746865206f776e6572604082015260600190565b602080825260149082015273135d5cdd081899481a1d588818dbdb9d1c9858dd60621b604082015260600190565b6020808252601f908201527f5265656e7472616e637947756172643a207265656e7472616e742063616c6c00604082015260600190565b6020808252601c908201527f5072696365206d757374206265206174206c6561737420312077656900000000604082015260600190565b60208082526029908201527f4e6674206d757374206265206c697374656420616e64206e6f7420696e207468604082015268329030bab1ba34b7b760b91b606082015260800190565b6101808101613e438285613b04565b82516001600160a01b03166101008301526020830151610120830152604083015115156101408301526060830151610160830152612b50565b9687526001600160a01b03958616602088015260408701949094529184166060860152909216608084015260a0830191909152151560c082015260e00190565b60008219821115613ecf57613ecf613f45565b500190565b600082613eef57634e487b7160e01b81526012600452602481fd5b500490565b6000816000190483118215151615613f0e57613f0e613f45565b500290565b600082821015613f2557613f25613f45565b500390565b6000600019821415613f3e57613f3e613f45565b5060010190565b634e487b7160e01b600052601160045260246000fd5b6001600160a01b0381168114612fed57600080fd5b8015158114612fed57600080fdfef9b8a81a1bb3e12b4a9b295ae3f1d8b0255537c0feaafc43705b6954b5822d5ca2646970667358221220dc4b590a714890c42dd864a9074d2ff5184cbe286a0be1118f1827a2f627d43c64736f6c63430008040033",
  "immutableReferences": {},
  "source": "// SPDX-License-Identifier: MIT\r\npragma solidity ^0.8.4;\r\n\r\nimport \"@openzeppelin/contracts/utils/Counters.sol\";\r\nimport \"@openzeppelin/contracts/token/ERC721/ERC721.sol\";\r\nimport \"@openzeppelin/contracts/utils/introspection/ERC165Checker.sol\";\r\nimport \"@openzeppelin/contracts/interfaces/IERC2981.sol\";\r\nimport \"@openzeppelin/contracts/utils/math/SafeMath.sol\";\r\nimport \"@openzeppelin/contracts/token/ERC20/IERC20.sol\";\r\nimport \"./HubChild.sol\";\r\n\r\ncontract Marketplace is HubChild {\r\n    using Counters for Counters.Counter;\r\n    using SafeMath for uint256;\r\n\r\n    Counters.Counter private _nftsSold;\r\n    Counters.Counter private _nftCount;\r\n    Counters.Counter private _nftExisted;\r\n    mapping(uint256 => NFT) private _idToNFT;\r\n    mapping(uint256 => Auction) private _idToAuction;\r\n\r\n    bytes4 public constant ERC721INTERFACE = type(IERC721).interfaceId;\r\n    bytes4 public constant ERC2981INTERFACE = type(IERC2981).interfaceId;\r\n    struct NFT {\r\n        uint256 itemId;\r\n        address nftContract;\r\n        uint256 tokenId;\r\n        address seller;\r\n        address ftContract;\r\n        uint256 price;\r\n        bool listed;\r\n        bool auction;\r\n    }\r\n\r\n    struct Auction {\r\n        address bidder;\r\n        uint256 highestBid;\r\n        bool limitTime;\r\n        uint256 timeEnd;\r\n    }\r\n\r\n    event NFTListed(\r\n        uint256 itemId,\r\n        address nftContract,\r\n        uint256 tokenId,\r\n        address seller,\r\n        address ftContract,\r\n        uint256 price,\r\n        bool auction\r\n    );\r\n\r\n    event NFTUnlisted(uint256 itemId);\r\n\r\n    event NFTAddAuction(\r\n        uint256 itemId,\r\n        address nftContract,\r\n        uint256 tokenId,\r\n        address bidder,\r\n        uint256 price\r\n    );\r\n\r\n    event NFTSold(\r\n        uint256 itemId,\r\n        address nftContract,\r\n        uint256 tokenId,\r\n        address seller,\r\n        address buyer,\r\n        uint256 price\r\n    );\r\n\r\n    constructor(uint256 fee, address hub) {\r\n        RATE_FEE = fee;\r\n        setHub(hub);\r\n    }\r\n\r\n    // List the NFT on the marketplace\r\n    function listNft(\r\n        address nftContract,\r\n        address ftContract,\r\n        uint256 tokenId,\r\n        uint256 price\r\n    ) public isAcceptToken(ftContract) nonReentrant {\r\n        require(price > 0, \"Price must be at least 1 wei\");\r\n\r\n        IERC721(nftContract).transferFrom(msg.sender, address(this), tokenId);\r\n        _nftCount.increment();\r\n        _nftExisted.increment();\r\n        uint256 itemId = _nftCount.current();\r\n        _idToNFT[itemId] = NFT(\r\n            itemId,\r\n            nftContract,\r\n            tokenId,\r\n            msg.sender,\r\n            ftContract,\r\n            price,\r\n            true,\r\n            false\r\n        );\r\n\r\n        _idToAuction[itemId] = Auction(address(0), price, false, 0);\r\n\r\n        emit NFTListed(\r\n            itemId,\r\n            nftContract,\r\n            tokenId,\r\n            msg.sender,\r\n            ftContract,\r\n            price,\r\n            false\r\n        );\r\n    }\r\n\r\n    // List the NFT on the marketplace\r\n    function listAuctionNft(\r\n        address nftContract,\r\n        address ftContract,\r\n        uint256 tokenId,\r\n        uint256 price,\r\n        bool limitTime,\r\n        uint256 timeHour\r\n    ) public isAcceptToken(ftContract) nonReentrant {\r\n        require(price > 0, \"Price must be at least 1 wei\");\r\n        require(\r\n            ERC165Checker.supportsInterface(nftContract, ERC721INTERFACE),\r\n            \"Contract needs to be ERC721\"\r\n        );\r\n\r\n        IERC721(nftContract).transferFrom(msg.sender, address(this), tokenId);\r\n        _nftCount.increment();\r\n        _nftExisted.increment();\r\n        uint256 itemId = _nftCount.current();\r\n\r\n        _idToNFT[itemId] = NFT(\r\n            itemId,\r\n            nftContract,\r\n            tokenId,\r\n            msg.sender,\r\n            ftContract,\r\n            price,\r\n            true,\r\n            true\r\n        );\r\n\r\n        _idToAuction[itemId] = Auction(\r\n            address(0),\r\n            price,\r\n            limitTime,\r\n            limitTime ? block.timestamp.add(timeHour.mul(1 hours)) : 0\r\n        );\r\n\r\n        emit NFTListed(\r\n            itemId,\r\n            nftContract,\r\n            tokenId,\r\n            msg.sender,\r\n            ftContract,\r\n            price,\r\n            true\r\n        );\r\n    }\r\n\r\n    // Switch auction to simple listed\r\n    function switchToListed(\r\n        uint256 itemId,\r\n        address ftContract,\r\n        uint256 price\r\n    ) public isAcceptToken(ftContract) nonReentrant {\r\n        require(price > 0, \"Price must be at least 1 wei\");\r\n        NFT storage nft = _idToNFT[itemId];\r\n        require(msg.sender == nft.seller, \"Sender must be seller\");\r\n        Auction storage auction = _idToAuction[itemId];\r\n        nft.ftContract = ftContract;\r\n        nft.price = price;\r\n        nft.auction = false;\r\n        if (auction.bidder != address(0)) {\r\n            payable(auction.bidder).transfer(auction.highestBid);\r\n        }\r\n        auction.bidder = address(0);\r\n        auction.highestBid = 0;\r\n        auction.limitTime = false;\r\n        auction.timeEnd = 0;\r\n        emit NFTListed(\r\n            itemId,\r\n            nft.nftContract,\r\n            nft.tokenId,\r\n            msg.sender,\r\n            nft.ftContract,\r\n            price,\r\n            false\r\n        );\r\n    }\r\n\r\n    // Resell an NFT purchased from the marketplace\r\n    function switchToAuction(\r\n        uint256 itemId,\r\n        address ftContract,\r\n        uint256 price,\r\n        bool limitTime,\r\n        uint256 timeHour\r\n    ) public isAcceptToken(ftContract) nonReentrant {\r\n        require(price > 0, \"Price must be at least 1 wei\");\r\n        NFT storage nft = _idToNFT[itemId];\r\n        require(msg.sender == nft.seller, \"Sender must be seller\");\r\n        Auction storage auction = _idToAuction[itemId];\r\n        nft.auction = true;\r\n        nft.ftContract = ftContract;\r\n        auction.highestBid = price;\r\n        auction.limitTime = limitTime;\r\n        auction.timeEnd = limitTime\r\n            ? block.timestamp.add(timeHour.mul(1 hours))\r\n            : 0;\r\n\r\n        emit NFTListed(\r\n            itemId,\r\n            nft.nftContract,\r\n            nft.tokenId,\r\n            msg.sender,\r\n            nft.ftContract,\r\n            price,\r\n            false\r\n        );\r\n    }\r\n\r\n    // Resell an NFT purchased from the marketplace\r\n    function relistNft(\r\n        uint256 itemId,\r\n        address ftContract,\r\n        uint256 price\r\n    ) public isAcceptToken(ftContract) nonReentrant {\r\n        require(price > 0, \"Price must be at least 1 wei\");\r\n        NFT storage nft = _idToNFT[itemId];\r\n        IERC721(nft.nftContract).transferFrom(\r\n            msg.sender,\r\n            address(this),\r\n            nft.tokenId\r\n        );\r\n\r\n        nft.seller = msg.sender;\r\n        nft.listed = true;\r\n        nft.ftContract = ftContract;\r\n        nft.price = price;\r\n        nft.auction = false;\r\n        _nftsSold.decrement();\r\n        emit NFTListed(\r\n            itemId,\r\n            nft.nftContract,\r\n            nft.tokenId,\r\n            msg.sender,\r\n            ftContract,\r\n            price,\r\n            false\r\n        );\r\n    }\r\n\r\n    // Reauction an NFT purchased from the marketplace\r\n    function reauctionNft(\r\n        uint256 itemId,\r\n        address ftContract,\r\n        uint256 price,\r\n        bool limitTime,\r\n        uint256 timeHour\r\n    ) public isAcceptToken(ftContract) nonReentrant {\r\n        require(price > 0, \"Price must be at least 1 wei\");\r\n        NFT storage nft = _idToNFT[itemId];\r\n        IERC721(nft.nftContract).transferFrom(\r\n            msg.sender,\r\n            address(this),\r\n            nft.tokenId\r\n        );\r\n\r\n        nft.seller = msg.sender;\r\n        nft.listed = true;\r\n        nft.ftContract = ftContract;\r\n        nft.auction = true;\r\n        _nftsSold.decrement();\r\n\r\n        Auction storage auction = _idToAuction[itemId];\r\n        auction.highestBid = price;\r\n        auction.limitTime = limitTime;\r\n        auction.timeEnd = limitTime\r\n            ? block.timestamp.add(timeHour.mul(1 hours))\r\n            : 0;\r\n\r\n        emit NFTListed(\r\n            itemId,\r\n            nft.nftContract,\r\n            nft.tokenId,\r\n            msg.sender,\r\n            ftContract,\r\n            price,\r\n            true\r\n        );\r\n    }\r\n\r\n    function unlistItem(uint256 itemId) external nonReentrant {\r\n        require(_idToNFT[itemId].seller == msg.sender, \"Sender is not lister\");\r\n        if (_idToNFT[itemId].auction) {\r\n            Auction storage info = _idToAuction[itemId];\r\n            if (info.highestBid > 0) {\r\n                payable(info.bidder).transfer(info.highestBid);\r\n            }\r\n            delete _idToAuction[itemId];\r\n        }\r\n        IERC721(_idToNFT[itemId].nftContract).transferFrom(\r\n            address(this),\r\n            msg.sender,\r\n            _idToNFT[itemId].tokenId\r\n        );\r\n        delete _idToNFT[itemId];\r\n        _idToNFT[itemId].listed = false;\r\n        _nftExisted.decrement();\r\n        emit NFTUnlisted(itemId);\r\n    }\r\n\r\n    // Buy an NFT\r\n    function buyNft(uint256 itemId) public payable nonReentrant {\r\n        NFT storage nft = _idToNFT[itemId];\r\n        if (nft.ftContract == address(0)) {\r\n            require(\r\n                msg.value >= nft.price,\r\n                \"Not enough ether to cover asking price\"\r\n            );\r\n        }\r\n        require(\r\n            nft.listed && !nft.auction,\r\n            \"Nft must be listed and not in the auction\"\r\n        );\r\n        address payable buyer = payable(msg.sender);\r\n        uint256 fee = _feeOf(msg.sender, nft.ftContract);\r\n        fee = nft.price.mul(fee).div(DENOMINATOR);\r\n        if (\r\n            ERC165Checker.supportsInterface(nft.nftContract, ERC2981INTERFACE)\r\n        ) {\r\n            (address creator, uint256 royaltyAmount) = IERC2981(nft.nftContract)\r\n                .royaltyInfo(nft.tokenId, nft.price);\r\n            if (creator != nft.seller && royaltyAmount > 0) {\r\n                sendAssets(msg.sender, creator, nft.ftContract, royaltyAmount);\r\n                sendAssets(\r\n                    msg.sender,\r\n                    nft.seller,\r\n                    nft.ftContract,\r\n                    nft.price.sub(royaltyAmount.add(fee))\r\n                );\r\n            } else {\r\n                sendAssets(msg.sender, nft.seller, nft.ftContract, nft.price.sub(fee));\r\n            }\r\n        } else {\r\n            sendAssets(msg.sender, nft.seller, nft.ftContract, nft.price.sub(fee));\r\n        }\r\n        sendAssets(msg.sender, owner(), nft.ftContract, fee);\r\n\r\n        IERC721(nft.nftContract).transferFrom(\r\n            address(this),\r\n            buyer,\r\n            nft.tokenId\r\n        );\r\n        nft.listed = false;\r\n\r\n        _nftsSold.increment();\r\n        emit NFTSold(\r\n            itemId,\r\n            nft.nftContract,\r\n            nft.tokenId,\r\n            nft.seller,\r\n            buyer,\r\n            nft.price\r\n        );\r\n    }\r\n\r\n    function addAuctionNft(uint256 itemId, uint256 value)\r\n        public\r\n        payable\r\n        nonReentrant\r\n    {\r\n        NFT storage nft = _idToNFT[itemId];\r\n        require(\r\n            nft.listed && nft.auction,\r\n            \"Nft must be listed and not in the auction\"\r\n        );\r\n        Auction storage auction = _idToAuction[itemId];\r\n\r\n        require(\r\n            msg.sender != auction.bidder && msg.sender != nft.seller,\r\n            \"Sender must be not seller or highest bidder\"\r\n        );\r\n        require(\r\n            !auction.limitTime || (auction.timeEnd > block.timestamp),\r\n            \"Auction has already ended\"\r\n        );\r\n        require(\r\n            value > auction.highestBid,\r\n            \"Not enough ether to cover highest auction price\"\r\n        );\r\n\r\n        address bidder = msg.sender;\r\n        if (nft.ftContract != address(0)) {\r\n            IERC20(nft.ftContract).transferFrom(bidder, address(this), value);\r\n        }\r\n\r\n        if (auction.bidder != address(0)) {\r\n            sendAssets(\r\n                address(this),\r\n                auction.bidder,\r\n                nft.ftContract,\r\n                auction.highestBid\r\n            );\r\n        }\r\n\r\n        auction.bidder = bidder;\r\n        auction.highestBid = value;\r\n\r\n        emit NFTAddAuction(itemId, nft.nftContract, nft.tokenId, bidder, value);\r\n    }\r\n\r\n    function acceptAuctionNft(uint256 itemId) public payable nonReentrant {\r\n        NFT storage nft = _idToNFT[itemId];\r\n        require(\r\n            nft.listed && nft.auction,\r\n            \"Nft must be listed and not in the auction\"\r\n        );\r\n        Auction storage auction = _idToAuction[itemId];\r\n        require(msg.sender == nft.seller, \"Sender must be seller\");\r\n        require(\r\n            !auction.limitTime || (auction.timeEnd < block.timestamp),\r\n            \"Auction must be ended or not limit time\"\r\n        );\r\n        uint256 fee = _feeOf(msg.sender, nft.ftContract);\r\n        fee = auction.highestBid.mul(fee).div(DENOMINATOR);\r\n        if (\r\n            ERC165Checker.supportsInterface(nft.nftContract, ERC2981INTERFACE)\r\n        ) {\r\n            (address creator, uint256 royaltyAmount) = IERC2981(nft.nftContract)\r\n                .royaltyInfo(nft.tokenId, auction.highestBid);\r\n            if (creator != nft.seller && royaltyAmount > 0) {\r\n                sendAssets(\r\n                    address(this),\r\n                    creator,\r\n                    nft.ftContract,\r\n                    royaltyAmount\r\n                );\r\n                sendAssets(\r\n                    address(this),\r\n                    nft.seller,\r\n                    nft.ftContract,\r\n                    auction.highestBid.sub(royaltyAmount.add(fee))\r\n                );\r\n            } else {\r\n                sendAssets(\r\n                    address(this),\r\n                    nft.seller,\r\n                    nft.ftContract,\r\n                    auction.highestBid.sub(fee)\r\n                );\r\n            }\r\n        } else {\r\n            sendAssets(\r\n                address(this),\r\n                nft.seller,\r\n                nft.ftContract,\r\n                auction.highestBid.sub(fee)\r\n            );\r\n        }\r\n        sendAssets(msg.sender, owner(), nft.ftContract, fee);\r\n        IERC721(nft.nftContract).transferFrom(\r\n            address(this),\r\n            auction.bidder,\r\n            nft.tokenId\r\n        );\r\n        nft.listed = false;\r\n        auction.bidder = address(0);\r\n        auction.highestBid = 0;\r\n        auction.limitTime = false;\r\n        auction.timeEnd = 0;\r\n        emit NFTSold(\r\n            itemId,\r\n            nft.nftContract,\r\n            nft.tokenId,\r\n            nft.seller,\r\n            auction.bidder,\r\n            auction.highestBid\r\n        );\r\n        _nftsSold.increment();\r\n    }\r\n\r\n    function claimAuctionNft(uint256 itemId) public payable nonReentrant {\r\n        NFT storage nft = _idToNFT[itemId];\r\n        require(\r\n            nft.listed && nft.auction,\r\n            \"Nft must be listed and not in the auction\"\r\n        );\r\n        Auction storage auction = _idToAuction[itemId];\r\n        require(msg.sender == auction.bidder, \"Sender must be bidder\");\r\n        require(\r\n            auction.limitTime || (auction.timeEnd < block.timestamp),\r\n            \"Auction must be ended and limit time\"\r\n        );\r\n        uint256 fee = _feeOf(msg.sender, nft.ftContract);\r\n        fee = auction.highestBid.mul(fee).div(DENOMINATOR);\r\n        if (\r\n            ERC165Checker.supportsInterface(nft.nftContract, ERC2981INTERFACE)\r\n        ) {\r\n            (address creator, uint256 royaltyAmount) = IERC2981(nft.nftContract)\r\n                .royaltyInfo(nft.tokenId, auction.highestBid);\r\n            if (creator != nft.seller && royaltyAmount > 0) {\r\n                sendAssets(\r\n                    address(this),\r\n                    creator,\r\n                    nft.ftContract,\r\n                    royaltyAmount\r\n                );\r\n                sendAssets(\r\n                    address(this),\r\n                    nft.seller,\r\n                    nft.ftContract,\r\n                    auction.highestBid.sub(royaltyAmount.add(fee))\r\n                );\r\n            } else {\r\n                sendAssets(\r\n                    address(this),\r\n                    nft.seller,\r\n                    nft.ftContract,\r\n                    auction.highestBid.sub(fee)\r\n                );\r\n            }\r\n        } else {\r\n            sendAssets(\r\n                address(this),\r\n                nft.seller,\r\n                nft.ftContract,\r\n                auction.highestBid.sub(fee)\r\n            );\r\n        }\r\n        sendAssets(msg.sender, owner(), nft.ftContract, fee);\r\n        IERC721(nft.nftContract).transferFrom(\r\n            address(this),\r\n            auction.bidder,\r\n            nft.tokenId\r\n        );\r\n        nft.listed = false;\r\n        auction.bidder = address(0);\r\n        auction.highestBid = 0;\r\n        auction.limitTime = false;\r\n        auction.timeEnd = 0;\r\n        emit NFTSold(\r\n            itemId,\r\n            nft.nftContract,\r\n            nft.tokenId,\r\n            nft.seller,\r\n            auction.bidder,\r\n            auction.highestBid\r\n        );\r\n        _nftsSold.increment();\r\n    }\r\n\r\n    function getListedNfts() public view returns (NFT[] memory) {\r\n        uint256 nftCount = _nftCount.current();\r\n        uint256 existedItem = _nftExisted.current();\r\n        uint256 unsoldNftsCount = existedItem - _nftsSold.current();\r\n\r\n        NFT[] memory nfts = new NFT[](unsoldNftsCount);\r\n        uint256 nftsIndex = 0;\r\n        for (uint256 i = 1; i <= nftCount && nftsIndex<= unsoldNftsCount; i++) {\r\n            if (_idToNFT[i].listed) {\r\n                nfts[nftsIndex] = _idToNFT[i];\r\n                nftsIndex++;\r\n            }\r\n        }\r\n        return nfts;\r\n    }\r\n\r\n    function getMyListedNfts() public view returns (NFT[] memory) {\r\n        uint256 nftCount = _nftCount.current();\r\n        uint256 myListedNftCount = 0;\r\n        for (uint256 i = 1; i <= nftCount; i++) {\r\n            if (_idToNFT[i].seller == msg.sender && _idToNFT[i].listed) {\r\n                myListedNftCount++;\r\n            }\r\n        }\r\n\r\n        NFT[] memory nfts = new NFT[](myListedNftCount);\r\n        uint256 nftsIndex = 0;\r\n        for (uint256 i = 0; i < nftCount; i++) {\r\n            if (_idToNFT[i].seller == msg.sender && _idToNFT[i].listed) {\r\n                nfts[nftsIndex] = _idToNFT[i];\r\n                nftsIndex++;\r\n            }\r\n        }\r\n        return nfts;\r\n    }\r\n\r\n    /* Returns all of user bids */\r\n    function getUserBids()\r\n        external\r\n        view\r\n        returns (NFT[] memory, Auction[] memory)\r\n    {\r\n        uint256 totalItemCount = _nftCount.current();\r\n        uint256 itemCount = 0;\r\n        uint256 currentIndex = 0;\r\n\r\n        for (uint256 i = 0; i < totalItemCount; i++) {\r\n            if (_idToAuction[i].bidder == msg.sender) {\r\n                itemCount += 1;\r\n            }\r\n        }\r\n\r\n        NFT[] memory items = new NFT[](itemCount);\r\n        Auction[] memory info = new Auction[](itemCount);\r\n\r\n        for (uint256 i = 1; i <= totalItemCount; i++) {\r\n            if (_idToAuction[i].bidder == msg.sender) {\r\n                uint256 currentId = i;\r\n                NFT memory currentItem = _idToNFT[currentId];\r\n                Auction memory currentInfo = _idToAuction[currentId];\r\n                items[currentIndex] = currentItem;\r\n                info[currentIndex] = currentInfo;\r\n                currentIndex += 1;\r\n            }\r\n        }\r\n        return (items, info);\r\n    }\r\n\r\n    function getListAuction() public view returns (Auction[] memory) {\r\n        uint256 nftCount = _nftCount.current();\r\n\r\n        Auction[] memory auctions = new Auction[](nftCount);\r\n        uint256 nftsIndex = 0;\r\n        for (uint256 i = 1; i <= nftCount; i++) {\r\n            auctions[nftsIndex] = _idToAuction[i];\r\n            nftsIndex++;\r\n        }\r\n        return auctions;\r\n    }\r\n\r\n    function getMarketData(address contractAddress, uint256 tokenId)\r\n        public\r\n        view\r\n        returns (NFT memory, Auction memory)\r\n    {\r\n        NFT memory nft;\r\n        Auction memory auction;\r\n        uint256 nftCount = _nftCount.current();\r\n        for (uint256 i = 1; i <= nftCount; i++) {\r\n            if (\r\n                _idToNFT[i].nftContract == contractAddress &&\r\n                _idToNFT[i].tokenId == tokenId\r\n            ) {\r\n                nft = _idToNFT[i];\r\n                auction = _idToAuction[i];\r\n                break;\r\n            }\r\n        }\r\n\r\n        return (nft, auction);\r\n    }\r\n\r\n    function sendAssets(\r\n        address from,\r\n        address to,\r\n        address ftToken,\r\n        uint256 value\r\n    ) private {\r\n        if (ftToken == address(0)) {\r\n            payable(to).transfer(value);\r\n        } else {\r\n            if (from != address(this)) {\r\n                IERC20(ftToken).transferFrom(from, to, value);\r\n            } else {\r\n                IERC20(ftToken).transfer(to, value);\r\n            }\r\n        }\r\n    }\r\n}\r\n",
  "sourcePath": "G:\\Learning\\Project\\source\\picasarts-contracts\\contracts\\Marketplace.sol",
  "compiler": {
    "name": "solc",
    "version": "0.8.4+commit.c7e474f2.Emscripten.clang"
  },
  "schemaVersion": "3.4.10",
  "updatedAt": "2023-02-24T18:18:06.505Z",
  "devdoc": {
    "kind": "dev",
    "methods": {
      "owner()": {
        "details": "Returns the address of the current owner."
      },
      "renounceOwnership()": {
        "details": "Leaves the contract without owner. It will not be possible to call `onlyOwner` functions anymore. Can only be called by the current owner. NOTE: Renouncing ownership will leave the contract without an owner, thereby removing any functionality that is only available to the owner."
      },
      "transferOwnership(address)": {
        "details": "Transfers ownership of the contract to a new account (`newOwner`). Can only be called by the current owner."
      }
    },
    "version": 1
  },
  "userdoc": {
    "kind": "user",
    "methods": {},
    "version": 1
  }
}