{
  "contractName": "NFTLoan",
  "abi": [
    {
      "inputs": [
        {
          "internalType": "uint256",
          "name": "fee",
          "type": "uint256"
        },
        {
          "internalType": "address",
          "name": "hub",
          "type": "address"
        }
      ],
      "stateMutability": "nonpayable",
      "type": "constructor"
    },
    {
      "anonymous": false,
      "inputs": [
        {
          "indexed": false,
          "internalType": "uint256",
          "name": "itemId",
          "type": "uint256"
        },
        {
          "indexed": false,
          "internalType": "address",
          "name": "lender",
          "type": "address"
        },
        {
          "indexed": false,
          "internalType": "address",
          "name": "ftContract",
          "type": "address"
        },
        {
          "indexed": false,
          "internalType": "uint256",
          "name": "amount",
          "type": "uint256"
        },
        {
          "indexed": false,
          "internalType": "uint256",
          "name": "profit",
          "type": "uint256"
        },
        {
          "indexed": false,
          "internalType": "uint256",
          "name": "timeExpired",
          "type": "uint256"
        }
      ],
      "name": "CovenantAccept",
      "type": "event"
    },
    {
      "anonymous": false,
      "inputs": [
        {
          "indexed": false,
          "internalType": "uint256",
          "name": "itemId",
          "type": "uint256"
        },
        {
          "indexed": false,
          "internalType": "address",
          "name": "ftContract",
          "type": "address"
        },
        {
          "indexed": false,
          "internalType": "uint256",
          "name": "amount",
          "type": "uint256"
        },
        {
          "indexed": false,
          "internalType": "uint256",
          "name": "profit",
          "type": "uint256"
        },
        {
          "indexed": false,
          "internalType": "uint256",
          "name": "timeDays",
          "type": "uint256"
        }
      ],
      "name": "CovenantEdited",
      "type": "event"
    },
    {
      "anonymous": false,
      "inputs": [
        {
          "indexed": false,
          "internalType": "uint256",
          "name": "itemId",
          "type": "uint256"
        },
        {
          "indexed": false,
          "internalType": "address",
          "name": "nftContract",
          "type": "address"
        },
        {
          "indexed": false,
          "internalType": "uint256",
          "name": "tokenId",
          "type": "uint256"
        }
      ],
      "name": "CovenantLiquidate",
      "type": "event"
    },
    {
      "anonymous": false,
      "inputs": [
        {
          "indexed": false,
          "internalType": "uint256",
          "name": "itemId",
          "type": "uint256"
        },
        {
          "indexed": false,
          "internalType": "address",
          "name": "nftContract",
          "type": "address"
        },
        {
          "indexed": false,
          "internalType": "uint256",
          "name": "tokenId",
          "type": "uint256"
        },
        {
          "indexed": false,
          "internalType": "address",
          "name": "ftContract",
          "type": "address"
        },
        {
          "indexed": false,
          "internalType": "uint256",
          "name": "amount",
          "type": "uint256"
        },
        {
          "indexed": false,
          "internalType": "uint256",
          "name": "profit",
          "type": "uint256"
        },
        {
          "indexed": false,
          "internalType": "uint256",
          "name": "timeDays",
          "type": "uint256"
        },
        {
          "indexed": false,
          "internalType": "uint8",
          "name": "status",
          "type": "uint8"
        },
        {
          "indexed": false,
          "internalType": "address",
          "name": "borrower",
          "type": "address"
        },
        {
          "indexed": false,
          "internalType": "address",
          "name": "lender",
          "type": "address"
        }
      ],
      "name": "CovenantListed",
      "type": "event"
    },
    {
      "anonymous": false,
      "inputs": [
        {
          "indexed": false,
          "internalType": "uint256",
          "name": "itemId",
          "type": "uint256"
        },
        {
          "indexed": false,
          "internalType": "address",
          "name": "nftContract",
          "type": "address"
        },
        {
          "indexed": false,
          "internalType": "uint256",
          "name": "tokenId",
          "type": "uint256"
        },
        {
          "indexed": false,
          "internalType": "address",
          "name": "ftContract",
          "type": "address"
        },
        {
          "indexed": false,
          "internalType": "uint256",
          "name": "amount",
          "type": "uint256"
        },
        {
          "indexed": false,
          "internalType": "uint256",
          "name": "profit",
          "type": "uint256"
        }
      ],
      "name": "CovenantPayOff",
      "type": "event"
    },
    {
      "anonymous": false,
      "inputs": [
        {
          "indexed": false,
          "internalType": "uint256",
          "name": "itemId",
          "type": "uint256"
        }
      ],
      "name": "CovenantUnlisted",
      "type": "event"
    },
    {
      "anonymous": false,
      "inputs": [
        {
          "indexed": true,
          "internalType": "address",
          "name": "previousOwner",
          "type": "address"
        },
        {
          "indexed": true,
          "internalType": "address",
          "name": "newOwner",
          "type": "address"
        }
      ],
      "name": "OwnershipTransferred",
      "type": "event"
    },
    {
      "anonymous": false,
      "inputs": [
        {
          "indexed": false,
          "internalType": "uint256",
          "name": "itemId",
          "type": "uint256"
        },
        {
          "indexed": false,
          "internalType": "uint256",
          "name": "profit",
          "type": "uint256"
        },
        {
          "indexed": false,
          "internalType": "uint256",
          "name": "timeExpired",
          "type": "uint256"
        }
      ],
      "name": "ProposalAccepted",
      "type": "event"
    },
    {
      "anonymous": false,
      "inputs": [
        {
          "indexed": false,
          "internalType": "uint256",
          "name": "itemId",
          "type": "uint256"
        },
        {
          "indexed": false,
          "internalType": "uint256",
          "name": "profit",
          "type": "uint256"
        },
        {
          "indexed": false,
          "internalType": "uint256",
          "name": "timeExpired",
          "type": "uint256"
        }
      ],
      "name": "ProposalEdited",
      "type": "event"
    },
    {
      "inputs": [],
      "name": "DENOMINATOR",
      "outputs": [
        {
          "internalType": "uint256",
          "name": "",
          "type": "uint256"
        }
      ],
      "stateMutability": "view",
      "type": "function"
    },
    {
      "inputs": [],
      "name": "ERC2981INTERFACE",
      "outputs": [
        {
          "internalType": "bytes4",
          "name": "",
          "type": "bytes4"
        }
      ],
      "stateMutability": "view",
      "type": "function"
    },
    {
      "inputs": [],
      "name": "ERC721INTERFACE",
      "outputs": [
        {
          "internalType": "bytes4",
          "name": "",
          "type": "bytes4"
        }
      ],
      "stateMutability": "view",
      "type": "function"
    },
    {
      "inputs": [],
      "name": "RATE_FEE",
      "outputs": [
        {
          "internalType": "uint256",
          "name": "",
          "type": "uint256"
        }
      ],
      "stateMutability": "view",
      "type": "function"
    },
    {
      "inputs": [
        {
          "internalType": "address",
          "name": "tokenAddr",
          "type": "address"
        }
      ],
      "name": "addAcceptToken",
      "outputs": [],
      "stateMutability": "nonpayable",
      "type": "function"
    },
    {
      "inputs": [
        {
          "internalType": "address",
          "name": "whitelistAddress",
          "type": "address"
        },
        {
          "internalType": "uint256",
          "name": "fee",
          "type": "uint256"
        }
      ],
      "name": "addWhitelistAddress",
      "outputs": [],
      "stateMutability": "nonpayable",
      "type": "function"
    },
    {
      "inputs": [
        {
          "internalType": "address",
          "name": "walletAddress",
          "type": "address"
        },
        {
          "internalType": "address",
          "name": "tokenAddress",
          "type": "address"
        }
      ],
      "name": "feeOf",
      "outputs": [
        {
          "internalType": "uint256",
          "name": "",
          "type": "uint256"
        }
      ],
      "stateMutability": "view",
      "type": "function"
    },
    {
      "inputs": [],
      "name": "getAcceptTokens",
      "outputs": [
        {
          "internalType": "address[]",
          "name": "",
          "type": "address[]"
        }
      ],
      "stateMutability": "view",
      "type": "function"
    },
    {
      "inputs": [],
      "name": "getRateFee",
      "outputs": [
        {
          "internalType": "uint256",
          "name": "",
          "type": "uint256"
        }
      ],
      "stateMutability": "view",
      "type": "function"
    },
    {
      "inputs": [
        {
          "internalType": "address",
          "name": "tokenAddress",
          "type": "address"
        }
      ],
      "name": "getTokenFee",
      "outputs": [
        {
          "internalType": "uint256",
          "name": "",
          "type": "uint256"
        }
      ],
      "stateMutability": "view",
      "type": "function"
    },
    {
      "inputs": [],
      "name": "getWhitelist",
      "outputs": [
        {
          "components": [
            {
              "internalType": "address",
              "name": "addr",
              "type": "address"
            },
            {
              "internalType": "uint256",
              "name": "fee",
              "type": "uint256"
            }
          ],
          "internalType": "struct IHubChild.WhitelistVars[]",
          "name": "",
          "type": "tuple[]"
        }
      ],
      "stateMutability": "view",
      "type": "function"
    },
    {
      "inputs": [],
      "name": "hubAddr",
      "outputs": [
        {
          "internalType": "address",
          "name": "",
          "type": "address"
        }
      ],
      "stateMutability": "view",
      "type": "function"
    },
    {
      "inputs": [],
      "name": "owner",
      "outputs": [
        {
          "internalType": "address",
          "name": "",
          "type": "address"
        }
      ],
      "stateMutability": "view",
      "type": "function"
    },
    {
      "inputs": [
        {
          "internalType": "address",
          "name": "tokenAddr",
          "type": "address"
        }
      ],
      "name": "removeToken",
      "outputs": [],
      "stateMutability": "nonpayable",
      "type": "function"
    },
    {
      "inputs": [
        {
          "internalType": "address",
          "name": "whitelistAddress",
          "type": "address"
        }
      ],
      "name": "removeWhitelistAddress",
      "outputs": [],
      "stateMutability": "nonpayable",
      "type": "function"
    },
    {
      "inputs": [],
      "name": "renounceOwnership",
      "outputs": [],
      "stateMutability": "nonpayable",
      "type": "function"
    },
    {
      "inputs": [
        {
          "internalType": "address",
          "name": "hub",
          "type": "address"
        }
      ],
      "name": "setHub",
      "outputs": [],
      "stateMutability": "nonpayable",
      "type": "function"
    },
    {
      "inputs": [
        {
          "internalType": "uint256",
          "name": "rateFee",
          "type": "uint256"
        }
      ],
      "name": "setRateFee",
      "outputs": [],
      "stateMutability": "nonpayable",
      "type": "function"
    },
    {
      "inputs": [
        {
          "internalType": "address",
          "name": "newOwner",
          "type": "address"
        }
      ],
      "name": "transferOwnership",
      "outputs": [],
      "stateMutability": "nonpayable",
      "type": "function"
    },
    {
      "inputs": [
        {
          "internalType": "address",
          "name": "nftContract",
          "type": "address"
        },
        {
          "internalType": "uint256",
          "name": "tokenId",
          "type": "uint256"
        },
        {
          "internalType": "address",
          "name": "ftContract",
          "type": "address"
        },
        {
          "internalType": "uint256",
          "name": "amount",
          "type": "uint256"
        },
        {
          "internalType": "uint256",
          "name": "profit",
          "type": "uint256"
        },
        {
          "internalType": "uint256",
          "name": "timeDays",
          "type": "uint256"
        }
      ],
      "name": "listCovenant",
      "outputs": [],
      "stateMutability": "nonpayable",
      "type": "function"
    },
    {
      "inputs": [
        {
          "internalType": "uint256",
          "name": "itemId",
          "type": "uint256"
        }
      ],
      "name": "endListedItem",
      "outputs": [],
      "stateMutability": "nonpayable",
      "type": "function"
    },
    {
      "inputs": [
        {
          "internalType": "uint256",
          "name": "itemId",
          "type": "uint256"
        },
        {
          "internalType": "address",
          "name": "ftContract",
          "type": "address"
        },
        {
          "internalType": "uint256",
          "name": "amount",
          "type": "uint256"
        },
        {
          "internalType": "uint256",
          "name": "profit",
          "type": "uint256"
        },
        {
          "internalType": "uint256",
          "name": "timeDays",
          "type": "uint256"
        }
      ],
      "name": "editListingItem",
      "outputs": [],
      "stateMutability": "nonpayable",
      "type": "function"
    },
    {
      "inputs": [
        {
          "internalType": "uint256",
          "name": "itemId",
          "type": "uint256"
        },
        {
          "internalType": "uint256",
          "name": "profit",
          "type": "uint256"
        },
        {
          "internalType": "uint256",
          "name": "timeAdd",
          "type": "uint256"
        }
      ],
      "name": "editProposal",
      "outputs": [],
      "stateMutability": "nonpayable",
      "type": "function"
    },
    {
      "inputs": [
        {
          "internalType": "uint256",
          "name": "itemId",
          "type": "uint256"
        }
      ],
      "name": "acceptProposal",
      "outputs": [],
      "stateMutability": "nonpayable",
      "type": "function"
    },
    {
      "inputs": [
        {
          "internalType": "uint256",
          "name": "itemId",
          "type": "uint256"
        }
      ],
      "name": "acceptCovenant",
      "outputs": [],
      "stateMutability": "payable",
      "type": "function"
    },
    {
      "inputs": [
        {
          "internalType": "uint256",
          "name": "itemId",
          "type": "uint256"
        }
      ],
      "name": "payOff",
      "outputs": [],
      "stateMutability": "payable",
      "type": "function"
    },
    {
      "inputs": [
        {
          "internalType": "uint256",
          "name": "itemId",
          "type": "uint256"
        }
      ],
      "name": "liquidate",
      "outputs": [],
      "stateMutability": "payable",
      "type": "function"
    },
    {
      "inputs": [],
      "name": "getCovenants",
      "outputs": [
        {
          "components": [
            {
              "internalType": "uint256",
              "name": "itemId",
              "type": "uint256"
            },
            {
              "internalType": "address",
              "name": "nftContract",
              "type": "address"
            },
            {
              "internalType": "uint256",
              "name": "tokenId",
              "type": "uint256"
            },
            {
              "internalType": "address",
              "name": "ftContract",
              "type": "address"
            },
            {
              "internalType": "uint256",
              "name": "amount",
              "type": "uint256"
            },
            {
              "internalType": "uint256",
              "name": "profit",
              "type": "uint256"
            },
            {
              "internalType": "uint256",
              "name": "timeExpired",
              "type": "uint256"
            },
            {
              "internalType": "uint256",
              "name": "timeDays",
              "type": "uint256"
            },
            {
              "internalType": "enum NFTLoan.CovenantStatus",
              "name": "status",
              "type": "uint8"
            },
            {
              "internalType": "address",
              "name": "borrower",
              "type": "address"
            },
            {
              "internalType": "address",
              "name": "lender",
              "type": "address"
            },
            {
              "internalType": "bool",
              "name": "isLatest",
              "type": "bool"
            }
          ],
          "internalType": "struct NFTLoan.Covenant[]",
          "name": "",
          "type": "tuple[]"
        }
      ],
      "stateMutability": "view",
      "type": "function"
    },
    {
      "inputs": [
        {
          "internalType": "address",
          "name": "addr",
          "type": "address"
        }
      ],
      "name": "getCovenantsByAddress",
      "outputs": [
        {
          "components": [
            {
              "internalType": "uint256",
              "name": "itemId",
              "type": "uint256"
            },
            {
              "internalType": "address",
              "name": "nftContract",
              "type": "address"
            },
            {
              "internalType": "uint256",
              "name": "tokenId",
              "type": "uint256"
            },
            {
              "internalType": "address",
              "name": "ftContract",
              "type": "address"
            },
            {
              "internalType": "uint256",
              "name": "amount",
              "type": "uint256"
            },
            {
              "internalType": "uint256",
              "name": "profit",
              "type": "uint256"
            },
            {
              "internalType": "uint256",
              "name": "timeExpired",
              "type": "uint256"
            },
            {
              "internalType": "uint256",
              "name": "timeDays",
              "type": "uint256"
            },
            {
              "internalType": "enum NFTLoan.CovenantStatus",
              "name": "status",
              "type": "uint8"
            },
            {
              "internalType": "address",
              "name": "borrower",
              "type": "address"
            },
            {
              "internalType": "address",
              "name": "lender",
              "type": "address"
            },
            {
              "internalType": "bool",
              "name": "isLatest",
              "type": "bool"
            }
          ],
          "internalType": "struct NFTLoan.Covenant[]",
          "name": "",
          "type": "tuple[]"
        }
      ],
      "stateMutability": "view",
      "type": "function"
    },
    {
      "inputs": [
        {
          "internalType": "uint256",
          "name": "itemId",
          "type": "uint256"
        }
      ],
      "name": "getCovenant",
      "outputs": [
        {
          "components": [
            {
              "internalType": "uint256",
              "name": "itemId",
              "type": "uint256"
            },
            {
              "internalType": "address",
              "name": "nftContract",
              "type": "address"
            },
            {
              "internalType": "uint256",
              "name": "tokenId",
              "type": "uint256"
            },
            {
              "internalType": "address",
              "name": "ftContract",
              "type": "address"
            },
            {
              "internalType": "uint256",
              "name": "amount",
              "type": "uint256"
            },
            {
              "internalType": "uint256",
              "name": "profit",
              "type": "uint256"
            },
            {
              "internalType": "uint256",
              "name": "timeExpired",
              "type": "uint256"
            },
            {
              "internalType": "uint256",
              "name": "timeDays",
              "type": "uint256"
            },
            {
              "internalType": "enum NFTLoan.CovenantStatus",
              "name": "status",
              "type": "uint8"
            },
            {
              "internalType": "address",
              "name": "borrower",
              "type": "address"
            },
            {
              "internalType": "address",
              "name": "lender",
              "type": "address"
            },
            {
              "internalType": "bool",
              "name": "isLatest",
              "type": "bool"
            }
          ],
          "internalType": "struct NFTLoan.Covenant",
          "name": "",
          "type": "tuple"
        },
        {
          "components": [
            {
              "internalType": "uint256",
              "name": "itemId",
              "type": "uint256"
            },
            {
              "internalType": "uint256",
              "name": "profit",
              "type": "uint256"
            },
            {
              "internalType": "uint256",
              "name": "timeExpired",
              "type": "uint256"
            }
          ],
          "internalType": "struct NFTLoan.Proposal",
          "name": "",
          "type": "tuple"
        }
      ],
      "stateMutability": "view",
      "type": "function"
    },
    {
      "inputs": [
        {
          "internalType": "address",
          "name": "addr",
          "type": "address"
        }
      ],
      "name": "getUserHealth",
      "outputs": [
        {
          "internalType": "uint256",
          "name": "",
          "type": "uint256"
        },
        {
          "internalType": "uint256",
          "name": "",
          "type": "uint256"
        }
      ],
      "stateMutability": "view",
      "type": "function"
    },
    {
      "inputs": [
        {
          "internalType": "address",
          "name": "contractAddress",
          "type": "address"
        },
        {
          "internalType": "uint256",
          "name": "tokenId",
          "type": "uint256"
        }
      ],
      "name": "getLoanData",
      "outputs": [
        {
          "components": [
            {
              "internalType": "uint256",
              "name": "itemId",
              "type": "uint256"
            },
            {
              "internalType": "address",
              "name": "nftContract",
              "type": "address"
            },
            {
              "internalType": "uint256",
              "name": "tokenId",
              "type": "uint256"
            },
            {
              "internalType": "address",
              "name": "ftContract",
              "type": "address"
            },
            {
              "internalType": "uint256",
              "name": "amount",
              "type": "uint256"
            },
            {
              "internalType": "uint256",
              "name": "profit",
              "type": "uint256"
            },
            {
              "internalType": "uint256",
              "name": "timeExpired",
              "type": "uint256"
            },
            {
              "internalType": "uint256",
              "name": "timeDays",
              "type": "uint256"
            },
            {
              "internalType": "enum NFTLoan.CovenantStatus",
              "name": "status",
              "type": "uint8"
            },
            {
              "internalType": "address",
              "name": "borrower",
              "type": "address"
            },
            {
              "internalType": "address",
              "name": "lender",
              "type": "address"
            },
            {
              "internalType": "bool",
              "name": "isLatest",
              "type": "bool"
            }
          ],
          "internalType": "struct NFTLoan.Covenant",
          "name": "",
          "type": "tuple"
        }
      ],
      "stateMutability": "view",
      "type": "function"
    }
  ],
  "bytecode": "0x60806040523480156200001157600080fd5b50604051620035d8380380620035d883398101604081905262000034916200012c565b6200003f336200005b565b6001805560078290556200005381620000ab565b505062000169565b600080546001600160a01b038381166001600160a01b0319831681178455604051919092169283917f8be0079c531659141344cd1fd0a4f28419497f9722a3daafe3b4186f6b6457e09190a35050565b6000546001600160a01b031633146200010a5760405162461bcd60e51b815260206004820181905260248201527f4f776e61626c653a2063616c6c6572206973206e6f7420746865206f776e6572604482015260640160405180910390fd5b600880546001600160a01b0319166001600160a01b0392909216919091179055565b600080604083850312156200013f578182fd5b825160208401519092506001600160a01b03811681146200015e578182fd5b809150509250929050565b61345f80620001796000396000f3fe6080604052600436106101e35760003560e01c806360373f5c11610102578063a89eccfd11610095578063d01f63f511610064578063d01f63f514610574578063debd227214610596578063f2fde38b146105b6578063f9d6c03b146105d657600080fd5b8063a89eccfd146104e6578063b1c005fa14610506578063b40e38e914610534578063b7ecbaae1461055457600080fd5b806386c3b08a116100d157806386c3b08a146104885780638da5cb5b1461049d578063918f8674146104bb57806393e4626e146104d157600080fd5b806360373f5c1461041e57806360c5cc3a14610431578063715018a6146104515780638563e10e1461046657600080fd5b8063415f12401161017a57806354324456116101495780635432445614610391578063566207af146103b157806356874480146103d15780635fa7b584146103fe57600080fd5b8063415f12401461031057806349095a2114610323578063502a676c1461035b5780635254aca91461037157600080fd5b8063243582ff116101b6578063243582ff1461028f578063252154fa146102a257806331962cdc146102d0578063321c5e84146102f057600080fd5b8063042ca242146101e857806307cb1a6e1461021e5780630f15e9be146102525780631879c75014610274575b600080fd5b3480156101f457600080fd5b50610208610203366004612e57565b61062e565b6040516102159190613196565b60405180910390f35b34801561022a57600080fd5b506102396380ac58cd60e01b81565b6040516001600160e01b03199091168152602001610215565b34801561025e57600080fd5b5061027261026d366004612f7e565b6108dc565b005b34801561028057600080fd5b5061023963152a902d60e11b81565b61027261029d366004612f7e565b61096f565b3480156102ae57600080fd5b506102c26102bd366004612e57565b610e0b565b604051908152602001610215565b3480156102dc57600080fd5b506102726102eb366004612e57565b610e1e565b3480156102fc57600080fd5b5061027261030b366004612fdd565b610e6a565b61027261031e366004612f7e565b610fd7565b34801561032f57600080fd5b50600854610343906001600160a01b031681565b6040516001600160a01b039091168152602001610215565b34801561036757600080fd5b506102c260075481565b34801561037d57600080fd5b5061027261038c366004612eab565b61122b565b34801561039d57600080fd5b506102726103ac366004612f7e565b611266565b3480156103bd57600080fd5b506102726103cc366004612f03565b6113ea565b3480156103dd57600080fd5b506103f16103ec366004612eab565b6117cd565b6040516102159190613332565b34801561040a57600080fd5b50610272610419366004612e57565b611983565b61027261042c366004612f7e565b6119bc565b34801561043d57600080fd5b5061027261044c366004612f7e565b611cb0565b34801561045d57600080fd5b50610272611ec2565b34801561047257600080fd5b5061047b611ef8565b6040516102159190613149565b34801561049457600080fd5b506007546102c2565b3480156104a957600080fd5b506000546001600160a01b0316610343565b3480156104c757600080fd5b506102c261271081565b3480156104dd57600080fd5b50610208611fc4565b3480156104f257600080fd5b506102c2610501366004612e73565b6121a1565b34801561051257600080fd5b50610526610521366004612f7e565b6121b4565b604051610215929190613341565b34801561054057600080fd5b5061027261054f366004612f96565b612321565b34801561056057600080fd5b5061027261056f366004612e57565b612479565b34801561058057600080fd5b506105896124ae565b60405161021591906131d9565b3480156105a257600080fd5b506102726105b1366004612e57565b6125aa565b3480156105c257600080fd5b506102726105d1366004612e57565b6125df565b3480156105e257600080fd5b506106196105f1366004612e57565b6001600160a01b03166000908152600c6020908152604080832054600d909252909120549091565b60408051928352602083019190915201610215565b6060600061063b60095490565b90506000805b828110156106ba576000818152600a60205260409020600801546001600160a01b0386811661010090920416148061069557506000818152600a60205260409020600901546001600160a01b038681169116145b156106a857816106a4816133e3565b9250505b806106b2816133e3565b915050610641565b5060008267ffffffffffffffff8111156106e457634e487b7160e01b600052604160045260246000fd5b60405190808252806020026020018201604052801561071d57816020015b61070a612dc5565b8152602001906001900390816107025790505b5090506000805b838110156108d1576000818152600a60205260409020600801546001600160a01b0388811661010090920416148061077857506000818152600a60205260409020600901546001600160a01b038881169116145b156108bf576000818152600a60209081526040918290208251610180810184528154815260018201546001600160a01b0390811693820193909352600280830154948201949094526003820154909216606083015260048101546080830152600581015460a0830152600681015460c0830152600781015460e083015260088101549192909161010084019160ff9091169081111561082757634e487b7160e01b600052602160045260246000fd5b600281111561084657634e487b7160e01b600052602160045260246000fd5b8152600882015461010090046001600160a01b0390811660208301526009909201549182166040820152600160a01b90910460ff16151560609091015283518490849081106108a557634e487b7160e01b600052603260045260246000fd5b602002602001018190525081806108bb906133e3565b9250505b806108c9816133e3565b915050610724565b509095945050505050565b6008546001600160a01b0316331461090f5760405162461bcd60e51b8152600401610906906132cd565b60405180910390fd5b612710811061096a5760405162461bcd60e51b815260206004820152602160248201527f466565206e756d657261746f72206d757374206c657373207468616e203130306044820152602560f81b6064820152608401610906565b600755565b6000818152600a6020526040902060080154819061010090046001600160a01b031633146109af5760405162461bcd60e51b815260040161090690613231565b600260015414156109d25760405162461bcd60e51b8152600401610906906132fb565b600260019081556000838152600a602052604090206008015460ff166002811115610a0d57634e487b7160e01b600052602160045260246000fd5b148015610a2a57506000828152600a602052604090206006015442105b610a8a5760405162461bcd60e51b815260206004820152602b60248201527f54696d652069732075702e20436f6e74616374206c656e64657220666f72206560448201526a3c3a32b732103a34b6b29760a91b6064820152608401610906565b6000828152600a6020526040902060048101546005820154610aad90829061267a565b6003830154909150600090610acc9033906001600160a01b0316612686565b9050610af1612710610aeb8386600501546126f090919063ffffffff16565b906126fc565b60038401549091506001600160a01b0316610b6357813414610b635760405162461bcd60e51b815260206004820152602560248201527f596f75206d7573742061646420657861637420616d6f756e7420616e6420707260448201526437b334ba1760d91b6064820152608401610906565b6001830154610b82906001600160a01b031663152a902d60e11b612708565b15610ca95760018301546002840154600585015460405163152a902d60e11b81526004810192909252602482015260009182916001600160a01b0390911690632a55205a90604401604080518083038186803b158015610be157600080fd5b505afa158015610bf5573d6000803e3d6000fd5b505050506040513d601f19601f82011682018060405250810190610c199190612ed6565b90925090508015610c7b576003850154610c4090339084906001600160a01b031684612724565b60098501546003860154610c769133916001600160a01b039182169116610c71610c6a868961267a565b899061288a565b612724565b610ca2565b60098501546003860154610ca29133916001600160a01b039182169116610c71888861288a565b5050610cd0565b60098301546003840154610cd09133916001600160a01b039182169116610c71868661288a565b610cfa33610ce66000546001600160a01b031690565b60038601546001600160a01b031684612724565b600183015460028401546040516323b872dd60e01b81526001600160a01b03909216916323b872dd91610d339130913391600401613125565b600060405180830381600087803b158015610d4d57600080fd5b505af1158015610d61573d6000803e3d6000fd5b5050505060088301805460ff1916600290811790915560098401805460ff60a01b19169055600184015490840154600385015460048601546005870154604080518b81526001600160a01b03968716602082015290810194909452939091166060830152608082015260a08101919091527fbfd8ce7cf08422e89b830095bc43e7a55d15c9766d431c5d7500eb024b33a9819060c0015b60405180910390a1505060018055505050565b6000610e18600483612896565b92915050565b6000546001600160a01b03163314610e485760405162461bcd60e51b815260040161090690613298565b600880546001600160a01b0319166001600160a01b0392909216919091179055565b6000838152600a6020526040902060080154839061010090046001600160a01b03163314610eaa5760405162461bcd60e51b815260040161090690613231565b60026001541415610ecd5760405162461bcd60e51b8152600401610906906132fb565b600260019081556000858152600b60205260409020906000868152600a602052604090206008015460ff166002811115610f1757634e487b7160e01b600052602160045260246000fd5b14610f645760405162461bcd60e51b815260206004820152601c60248201527f4c6f616e20636f76656e616e74206973206e6f74206c6f636b65642e000000006044820152606401610906565b60018101849055610f91610f7984603c6126f0565b6000878152600a60205260409020600601549061267a565b600282018190556040805187815260208101879052908101919091527f41be7a7eec331566aaa888f4e2b06e04bff79d31fa0caa0dadff2fb85bd2f20a90606001610df8565b6000818152600a602052604090206009015481906001600160a01b031633146110395760405162461bcd60e51b815260206004820152601460248201527329b2b73232b91034b9903737ba103632b73232b960611b6044820152606401610906565b6002600154141561105c5760405162461bcd60e51b8152600401610906906132fb565b600260019081556000838152600a602052604090206008015460ff16600281111561109757634e487b7160e01b600052602160045260246000fd5b1480156110b457506000828152600a602052604090206006015442115b6111005760405162461bcd60e51b815260206004820152601f60248201527f4e6f742074696d6520666f72206c697175696461746520636f76656e616e74006044820152606401610906565b6000828152600a6020526040908190206001810154600282015492516323b872dd60e01b815291926001600160a01b03909116916323b872dd9161114a9130913391600401613125565b600060405180830381600087803b15801561116457600080fd5b505af1158015611178573d6000803e3d6000fd5b5050505060088101805460ff1916600217905560098101805460ff60a01b19169055336000908152600d60205260409020546111b590600161267a565b336000908152600d6020908152604091829020929092556001830154600284015482518781526001600160a01b0390921693820193909352908101919091527f7e4e6bd95b1f1a8350d728e47e6f4708166dd069a9fe805fbff548ec13f8fac3906060015b60405180910390a150506001805550565b6008546001600160a01b031633146112555760405162461bcd60e51b8152600401610906906132cd565b611261600483836128ab565b505050565b6000818152600a6020526040902060080154819061010090046001600160a01b031633146112a65760405162461bcd60e51b815260040161090690613231565b600260015414156112c95760405162461bcd60e51b8152600401610906906132fb565b6002600155600080838152600a602052604090206008015460ff16600281111561130357634e487b7160e01b600052602160045260246000fd5b146113205760405162461bcd60e51b815260040161090690613261565b6000828152600a6020526040908190206001810154600282015492516323b872dd60e01b815291926001600160a01b03909116916323b872dd9161136a9130913391600401613125565b600060405180830381600087803b15801561138457600080fd5b505af1158015611398573d6000803e3d6000fd5b5050505060088101805460ff1916600217905560098101805460ff60a01b191690556040518381527fcb2ea16eda1f7cedbfb69b422f48b5b5e71d11e0b1407a517dff82db913fdbce9060200161121a565b6002600154141561140d5760405162461bcd60e51b8152600401610906906132fb565b600260015582158015906114215750600082115b61147f5760405162461bcd60e51b815260206004820152602960248201527f4c6f616e20616d6f756e7420616e642070726f666974206d757374206265206160448201526874206c65617374203160b81b6064820152608401610906565b611490866380ac58cd60e01b612708565b6114dc5760405162461bcd60e51b815260206004820152601b60248201527f436f6e7472616374206e6565647320746f2062652045524337323100000000006044820152606401610906565b6040516323b872dd60e01b81526001600160a01b038716906323b872dd9061150c90339030908a90600401613125565b600060405180830381600087803b15801561152657600080fd5b505af115801561153a573d6000803e3d6000fd5b50505050600061154960095490565b9050604051806101800160405280828152602001886001600160a01b03168152602001878152602001866001600160a01b0316815260200185815260200184815260200160008152602001838152602001600060028111156115bb57634e487b7160e01b600052602160045260246000fd5b8152336020808301919091526000604080840182905260016060948501819052868352600a845291819020855181559285015183830180546001600160a01b03199081166001600160a01b0393841617909155918601516002808601919091559486015160038501805490931691161790556080840151600483015560a0840151600583015560c0840151600683015560e0840151600783015561010084015160088301805493949193909260ff1990911691849081111561168d57634e487b7160e01b600052602160045260246000fd5b02179055506101208201516008820180546001600160a01b0392831661010002610100600160a81b031990911617905561014083015160099283018054610160909501511515600160a01b026001600160a81b03199095169190921617929092179091556040805160608101825283815260006020808301828152838501838152878452600b90925293909120915182559151600182015590516002909101557f62a6f84d842436bc5e66e743bb90f02cc4c336f059709a5e6df843d402ca4c8590611757905490565b604080519182526001600160a01b03808b166020840152908201899052871660608201526080810186905260a0810185905260c08101849052600060e08201819052336101008301526101208201526101400160405180910390a16117c0600980546001019055565b5050600180555050505050565b6117d5612dc5565b6117dd612dc5565b60006117e860095490565b905060005b81811015611979576000818152600a60205260409020600101546001600160a01b03878116911614801561183157506000818152600a602052604090206002015485145b801561185557506000818152600a6020526040902060090154600160a01b900460ff165b15611967576000818152600a60209081526040918290208251610180810184528154815260018201546001600160a01b0390811693820193909352600280830154948201949094526003820154909216606083015260048101546080830152600581015460a0830152600681015460c0830152600781015460e083015260088101549192909161010084019160ff9091169081111561190457634e487b7160e01b600052602160045260246000fd5b600281111561192357634e487b7160e01b600052602160045260246000fd5b8152600882015461010090046001600160a01b0390811660208301526009909201549182166040820152600160a01b90910460ff1615156060909101529250611979565b80611971816133e3565b9150506117ed565b5090949350505050565b6008546001600160a01b031633146119ad5760405162461bcd60e51b8152600401610906906132cd565b6119b86002826128c9565b5050565b600260015414156119df5760405162461bcd60e51b8152600401610906906132fb565b60026001556000818152600a602052604090206008015461010090046001600160a01b0316331415611a535760405162461bcd60e51b815260206004820152601b60248201527f53656e646572206d757374206265206e6f7420626f72726f77657200000000006044820152606401610906565b6000818152600a602052604090206008015461010090046001600160a01b0316611abf5760405162461bcd60e51b815260206004820152601d60248201527f4c6f616e20636f76656e616e74206973206e6f7420657869737465642e0000006044820152606401610906565b6000818152600a60205260409020600901546001600160a01b0316158015611b1857506000818152600a602052604081206008015460ff166002811115611b1657634e487b7160e01b600052602160045260246000fd5b145b611b345760405162461bcd60e51b815260040161090690613261565b6000818152600a6020526040902060038101546001600160a01b0316611b9f5780600401543414611b9f5760405162461bcd60e51b8152602060048201526015602482015274131bd85b88185b5bdd5b9d081b9bdd08195e1858dd605a1b6044820152606401610906565b600881015460038201546004830154611bcd9233926001600160a01b03610100909204821692911690612724565b6009810180546001600160a01b031916331790556007810154611bfb42611bf583603c6126f0565b9061267a565b600683015560088201805460ff19166001908117909155336000908152600c6020526040902054611c2b9161267a565b336000818152600c602090815260409182902093909355600385015460048601546005870154600688015484518a8152968701959095526001600160a01b03909216928501929092526060840191909152608083015260a08201527f873c2e990e36955ded4605af1422f36b25a935eca109df3743cfb4ed2627b8fe9060c00161121a565b6000818152600a602052604090206009015481906001600160a01b03163314611d125760405162461bcd60e51b815260206004820152601460248201527329b2b73232b91034b9903737ba103632b73232b960611b6044820152606401610906565b60026001541415611d355760405162461bcd60e51b8152600401610906906132fb565b600260019081556000838152600a602052604090206008015460ff166002811115611d7057634e487b7160e01b600052602160045260246000fd5b14611dbd5760405162461bcd60e51b815260206004820152601c60248201527f4c6f616e20636f76656e616e74206973206e6f74206c6f636b65642e000000006044820152606401610906565b6000828152600b6020526040902060020154611e2a5760405162461bcd60e51b815260206004820152602660248201527f5468657265206973206e6f2070726f706f73616c20666f72207468697320636f6044820152651d995b985b9d60d21b6064820152608401610906565b6000828152600a60209081526040808320600b90925290912060018101546005830154611e5890829061267a565b600584019081556000868152600b60209081526040808320600290810154600689019081559087019390935592549154835189815291820192909252918201527f4e26d2058422e671478446da4522b7c1527f240c0b68519a064219769b062dce90606001610df8565b6000546001600160a01b03163314611eec5760405162461bcd60e51b815260040161090690613298565b611ef660006128de565b565b60606000611f06600261292e565b905060008167ffffffffffffffff811115611f3157634e487b7160e01b600052604160045260246000fd5b604051908082528060200260200182016040528015611f5a578160200160208202803683370190505b50905060005b82811015611fbd57611f73600282612938565b828281518110611f9357634e487b7160e01b600052603260045260246000fd5b6001600160a01b039092166020928302919091019091015280611fb5816133e3565b915050611f60565b5092915050565b60606000611fd160095490565b905060008167ffffffffffffffff811115611ffc57634e487b7160e01b600052604160045260246000fd5b60405190808252806020026020018201604052801561203557816020015b612022612dc5565b81526020019060019003908161201a5790505b5090506000805b83811015612198576000818152600a60209081526040918290208251610180810184528154815260018201546001600160a01b0390811693820193909352600280830154948201949094526003820154909216606083015260048101546080830152600581015460a0830152600681015460c0830152600781015460e083015260088101549192909161010084019160ff909116908111156120ee57634e487b7160e01b600052602160045260246000fd5b600281111561210d57634e487b7160e01b600052602160045260246000fd5b8152600882015461010090046001600160a01b0390811660208301526009909201549182166040820152600160a01b90910460ff161515606090910152835184908490811061216c57634e487b7160e01b600052603260045260246000fd5b60200260200101819052508180612182906133e3565b9250508080612190906133e3565b91505061203c565b50909392505050565b60006121ad8383612686565b9392505050565b6121bc612dc5565b6121e060405180606001604052806000815260200160008152602001600081525090565b6000838152600a602090815260408083208151610180810183528154815260018201546001600160a01b0390811694820194909452600280830154938201939093526003820154909316606084015260048101546080840152600581015460a0840152600681015460c0840152600781015460e08401526008810154909161010084019160ff169081111561228557634e487b7160e01b600052602160045260246000fd5b60028111156122a457634e487b7160e01b600052602160045260246000fd5b8152600882015461010090046001600160a01b03908116602080840191909152600990930154908116604080840191909152600160a01b90910460ff1615156060928301526000978852600b8352968790208751918201885280548252600181015492820192909252600290910154958101959095529492505050565b6000858152600a6020526040902060080154859061010090046001600160a01b031633146123615760405162461bcd60e51b815260040161090690613231565b600260015414156123845760405162461bcd60e51b8152600401610906906132fb565b6002600155600080878152600a602052604090206008015460ff1660028111156123be57634e487b7160e01b600052602160045260246000fd5b146123db5760405162461bcd60e51b815260040161090690613261565b6000868152600a60209081526040918290206003810180546001600160a01b0319166001600160a01b038a1690811790915560048201889055600582018790556007820186905583518a81529283015291810186905260608101859052608081018490527ff9446b7a84a28ecf6763156215f0e6d3497ffb8c67b25c2c90c6c7afdbefe3e39060a00160405180910390a15050600180555050505050565b6008546001600160a01b031633146124a35760405162461bcd60e51b8152600401610906906132cd565b6119b8600482612944565b606060006124bc6004612959565b905060008167ffffffffffffffff8111156124e757634e487b7160e01b600052604160045260246000fd5b60405190808252806020026020018201604052801561252c57816020015b60408051808201909152600080825260208201528152602001906001900390816125055790505b50905060005b82811015611fbd57600080612548600484612964565b915091506040518060400160405280836001600160a01b031681526020018281525084848151811061258a57634e487b7160e01b600052603260045260246000fd5b6020026020010181905250505080806125a2906133e3565b915050612532565b6008546001600160a01b031633146125d45760405162461bcd60e51b8152600401610906906132cd565b6119b8600282612982565b6000546001600160a01b031633146126095760405162461bcd60e51b815260040161090690613298565b6001600160a01b03811661266e5760405162461bcd60e51b815260206004820152602660248201527f4f776e61626c653a206e6577206f776e657220697320746865207a65726f206160448201526564647265737360d01b6064820152608401610906565b612677816128de565b50565b60006121ad8284613375565b60408051808201909152600080825260208201819052906126a8600485612997565b602083015215801582526126c157602001519050610e18565b6126cc600484612997565b602083015215801582526126e557602001519050610e18565b505060075492915050565b60006121ad82846133ad565b60006121ad828461338d565b6000612713836129af565b80156121ad57506121ad83836129e2565b6001600160a01b03821661276e576040516001600160a01b0384169082156108fc029083906000818181858888f19350505050158015612768573d6000803e3d6000fd5b50612884565b6001600160a01b0384163014612800576040516323b872dd60e01b81526001600160a01b038316906323b872dd906127ae90879087908690600401613125565b602060405180830381600087803b1580156127c857600080fd5b505af11580156127dc573d6000803e3d6000fd5b505050506040513d601f19601f820116820180604052508101906127689190612f5e565b60405163a9059cbb60e01b81526001600160a01b0384811660048301526024820183905283169063a9059cbb90604401602060405180830381600087803b15801561284a57600080fd5b505af115801561285e573d6000803e3d6000fd5b505050506040513d601f19601f820116820180604052508101906128829190612f5e565b505b50505050565b60006121ad82846133cc565b60006121ad836001600160a01b038416612acb565b60006128c1846001600160a01b03851684612b3b565b949350505050565b60006121ad836001600160a01b038416612b58565b600080546001600160a01b038381166001600160a01b0319831681178455604051919092169283917f8be0079c531659141344cd1fd0a4f28419497f9722a3daafe3b4186f6b6457e09190a35050565b6000610e18825490565b60006121ad8383612c75565b60006121ad836001600160a01b038416612cad565b6000610e1882612cca565b60008080806129738686612cd5565b909450925050505b9250929050565b60006121ad836001600160a01b038416612d00565b6000808080612973866001600160a01b038716612d4f565b60006129c2826301ffc9a760e01b6129e2565b8015610e1857506129db826001600160e01b03196129e2565b1592915050565b604080516001600160e01b0319831660248083019190915282518083039091018152604490910182526020810180516001600160e01b03166301ffc9a760e01b179052905160009190829081906001600160a01b0387169061753090612a499086906130ec565b6000604051808303818686fa925050503d8060008114612a85576040519150601f19603f3d011682016040523d82523d6000602084013e612a8a565b606091505b5091509150602081511015612aa55760009350505050610e18565b818015612ac1575080806020019051810190612ac19190612f5e565b9695505050505050565b600081815260028301602052604081205480151580612aef5750612aef8484612d89565b6121ad5760405162461bcd60e51b815260206004820152601e60248201527f456e756d657261626c654d61703a206e6f6e6578697374656e74206b657900006044820152606401610906565b600082815260028401602052604081208290556128c18484612d95565b60008181526001830160205260408120548015612c6b576000612b7c6001836133cc565b8554909150600090612b90906001906133cc565b9050818114612c11576000866000018281548110612bbe57634e487b7160e01b600052603260045260246000fd5b9060005260206000200154905080876000018481548110612bef57634e487b7160e01b600052603260045260246000fd5b6000918252602080832090910192909255918252600188019052604090208390555b8554869080612c3057634e487b7160e01b600052603160045260246000fd5b600190038181906000526020600020016000905590558560010160008681526020019081526020016000206000905560019350505050610e18565b6000915050610e18565b6000826000018281548110612c9a57634e487b7160e01b600052603260045260246000fd5b9060005260206000200154905092915050565b600081815260028301602052604081208190556121ad8383612da1565b6000610e188261292e565b60008080612ce38585612938565b600081815260029690960160205260409095205494959350505050565b6000818152600183016020526040812054612d4757508154600181810184556000848152602080822090930184905584548482528286019093526040902091909155610e18565b506000610e18565b6000818152600283016020526040812054819080612d7e57612d718585612d89565b92506000915061297b9050565b60019250905061297b565b60006121ad8383612dad565b60006121ad8383612d00565b60006121ad8383612b58565b600081815260018301602052604081205415156121ad565b6040518061018001604052806000815260200160006001600160a01b031681526020016000815260200160006001600160a01b031681526020016000815260200160008152602001600081526020016000815260200160006002811115612e3c57634e487b7160e01b600052602160045260246000fd5b81526000602082018190526040820181905260609091015290565b600060208284031215612e68578081fd5b81356121ad81613414565b60008060408385031215612e85578081fd5b8235612e9081613414565b91506020830135612ea081613414565b809150509250929050565b60008060408385031215612ebd578182fd5b8235612ec881613414565b946020939093013593505050565b60008060408385031215612ee8578182fd5b8251612ef381613414565b6020939093015192949293505050565b60008060008060008060c08789031215612f1b578182fd5b8635612f2681613414565b9550602087013594506040870135612f3d81613414565b959894975094956060810135955060808101359460a0909101359350915050565b600060208284031215612f6f578081fd5b815180151581146121ad578182fd5b600060208284031215612f8f578081fd5b5035919050565b600080600080600060a08688031215612fad578081fd5b853594506020860135612fbf81613414565b94979496505050506040830135926060810135926080909101359150565b600080600060608486031215612ff1578283fd5b505081359360208301359350604090920135919050565b6003811061302657634e487b7160e01b600052602160045260246000fd5b9052565b80518252602081015161304860208401826001600160a01b03169052565b5060408101516040830152606081015161306d60608401826001600160a01b03169052565b506080810151608083015260a081015160a083015260c081015160c083015260e081015160e0830152610100808201516130a982850182613008565b5050610120818101516001600160a01b038116848301525050610140818101516001600160a01b0381168483015250506101608181015180151584830152612884565b60008251815b8181101561310c57602081860181015185830152016130f2565b8181111561311a5782828501525b509190910192915050565b6001600160a01b039384168152919092166020820152604081019190915260600190565b6020808252825182820181905260009190848201906040850190845b8181101561318a5783516001600160a01b031683529284019291840191600101613165565b50909695505050505050565b6020808252825182820181905260009190848201906040850190845b8181101561318a576131c583855161302a565b9284019261018092909201916001016131b2565b602080825282518282018190526000919060409081850190868401855b8281101561322457815180516001600160a01b031685528601518685015292840192908501906001016131f6565b5091979650505050505050565b60208082526016908201527529b2b73232b91034b9903737ba103137b93937bbb2b960511b604082015260600190565b6020808252601d908201527f4c6f616e20636f76656e616e74206973206e6f74206c697374696e672e000000604082015260600190565b6020808252818101527f4f776e61626c653a2063616c6c6572206973206e6f7420746865206f776e6572604082015260600190565b602080825260149082015273135d5cdd081899481a1d588818dbdb9d1c9858dd60621b604082015260600190565b6020808252601f908201527f5265656e7472616e637947756172643a207265656e7472616e742063616c6c00604082015260600190565b6101808101610e18828461302a565b6101e08101613350828561302a565b825161018083015260208301516101a083015260408301516101c08301529392505050565b60008219821115613388576133886133fe565b500190565b6000826133a857634e487b7160e01b81526012600452602481fd5b500490565b60008160001904831182151516156133c7576133c76133fe565b500290565b6000828210156133de576133de6133fe565b500390565b60006000198214156133f7576133f76133fe565b5060010190565b634e487b7160e01b600052601160045260246000fd5b6001600160a01b038116811461267757600080fdfea264697066735822122010bcfdd2a5ac6065329518abca15b0cea6fc6ccf91f78115026a3d03ba61c70064736f6c63430008040033",
  "immutableReferences": {},
  "source": "// SPDX-License-Identifier: MIT\r\npragma solidity ^0.8.4;\r\n\r\nimport \"@openzeppelin/contracts/utils/Counters.sol\";\r\nimport \"@openzeppelin/contracts/token/ERC721/ERC721.sol\";\r\nimport \"@openzeppelin/contracts/token/ERC721/IERC721.sol\";\r\nimport \"@openzeppelin/contracts/interfaces/IERC2981.sol\";\r\nimport \"@openzeppelin/contracts/token/ERC20/IERC20.sol\";\r\nimport \"@openzeppelin/contracts/utils/introspection/ERC165Checker.sol\";\r\nimport \"@openzeppelin/contracts/utils/math/SafeMath.sol\";\r\nimport \"./HubChild.sol\";\r\n\r\ncontract NFTLoan is HubChild {\r\n    using Counters for Counters.Counter;\r\n    using SafeMath for uint256;\r\n    Counters.Counter private _itemCount;\r\n\r\n    mapping(uint256 => Covenant) private _idToCovenant;\r\n    mapping(uint256 => Proposal) private _idToProposal;\r\n    mapping(address => uint256) private _loanAccepted;\r\n    mapping(address => uint256) private _loanLiquidated;\r\n    \r\n    bytes4 public constant ERC721INTERFACE = type(IERC721).interfaceId;\r\n    bytes4 public constant ERC2981INTERFACE = type(IERC2981).interfaceId;\r\n\r\n    enum CovenantStatus {\r\n        LISTING,\r\n        LOCKED,\r\n        ENDED\r\n    }\r\n\r\n    struct Covenant {\r\n        uint256 itemId;\r\n        address nftContract;\r\n        uint256 tokenId;\r\n        address ftContract;\r\n        uint256 amount;\r\n        uint256 profit;\r\n        uint256 timeExpired;\r\n        uint256 timeDays;\r\n        CovenantStatus status;\r\n        address borrower;\r\n        address lender;\r\n        bool isLatest;\r\n    }\r\n\r\n    struct Proposal {\r\n        uint256 itemId;\r\n        uint256 profit;\r\n        uint256 timeExpired;\r\n    }\r\n\r\n    event CovenantListed(\r\n        uint256 itemId,\r\n        address nftContract,\r\n        uint256 tokenId,\r\n        address ftContract,\r\n        uint256 amount,\r\n        uint256 profit,\r\n        uint256 timeDays,\r\n        uint8 status,\r\n        address borrower,\r\n        address lender\r\n    );\r\n\r\n    event CovenantUnlisted(uint256 itemId);\r\n\r\n    event CovenantEdited(\r\n        uint256 itemId,\r\n        address ftContract,\r\n        uint256 amount,\r\n        uint256 profit,\r\n        uint256 timeDays\r\n    );\r\n\r\n    event CovenantPayOff(\r\n        uint256 itemId,\r\n        address nftContract,\r\n        uint256 tokenId,\r\n        address ftContract,\r\n        uint256 amount,\r\n        uint256 profit\r\n    );\r\n\r\n    event CovenantLiquidate(\r\n        uint256 itemId,\r\n        address nftContract,\r\n        uint256 tokenId\r\n    );\r\n\r\n    event CovenantAccept(\r\n        uint256 itemId,\r\n        address lender,\r\n        address ftContract,\r\n        uint256 amount,\r\n        uint256 profit,\r\n        uint256 timeExpired\r\n    );\r\n\r\n    event ProposalEdited(uint256 itemId, uint256 profit, uint256 timeExpired);\r\n\r\n    event ProposalAccepted(uint256 itemId, uint256 profit, uint256 timeExpired);\r\n\r\n    constructor(uint256 fee, address hub) {\r\n        RATE_FEE = fee;\r\n        setHub(hub);\r\n    }\r\n\r\n    modifier onlyBorrower(uint256 itemId) {\r\n        require(\r\n            _idToCovenant[itemId].borrower == msg.sender,\r\n            \"Sender is not borrower\"\r\n        );\r\n        _;\r\n    }\r\n\r\n    modifier onlyLender(uint256 itemId) {\r\n        require(\r\n            _idToCovenant[itemId].lender == msg.sender,\r\n            \"Sender is not lender\"\r\n        );\r\n        _;\r\n    }\r\n\r\n    // List the NFT on the marketplace\r\n    function listCovenant(\r\n        address nftContract,\r\n        uint256 tokenId,\r\n        address ftContract,\r\n        uint256 amount,\r\n        uint256 profit,\r\n        uint256 timeDays\r\n    ) public nonReentrant {\r\n        require(\r\n            amount > 0 && profit > 0,\r\n            \"Loan amount and profit must be at least 1\"\r\n        );\r\n        require(\r\n            ERC165Checker.supportsInterface(nftContract, ERC721INTERFACE),\r\n            \"Contract needs to be ERC721\"\r\n        );\r\n\r\n        IERC721(nftContract).transferFrom(msg.sender, address(this), tokenId);\r\n\r\n        uint256 itemId = _itemCount.current();\r\n        _idToCovenant[itemId] = Covenant(\r\n            itemId,\r\n            nftContract,\r\n            tokenId,\r\n            ftContract,\r\n            amount,\r\n            profit,\r\n            0,\r\n            timeDays,\r\n            CovenantStatus.LISTING,\r\n            msg.sender,\r\n            address(0),\r\n            true\r\n        );\r\n\r\n        _idToProposal[itemId] = Proposal(itemId, 0, 0);\r\n\r\n        emit CovenantListed(\r\n            _itemCount.current(),\r\n            nftContract,\r\n            tokenId,\r\n            ftContract,\r\n            amount,\r\n            profit,\r\n            timeDays,\r\n            uint8(CovenantStatus.LISTING),\r\n            msg.sender,\r\n            address(0)\r\n        );\r\n        _itemCount.increment();\r\n    }\r\n\r\n    function endListedItem(uint256 itemId)\r\n        external\r\n        onlyBorrower(itemId)\r\n        nonReentrant\r\n    {\r\n        require(\r\n            _idToCovenant[itemId].status == CovenantStatus.LISTING,\r\n            \"Loan covenant is not listing.\"\r\n        );\r\n        Covenant storage loanCovenant = _idToCovenant[itemId];\r\n        IERC721(loanCovenant.nftContract).transferFrom(\r\n            address(this),\r\n            msg.sender,\r\n            loanCovenant.tokenId\r\n        );\r\n        loanCovenant.status = CovenantStatus.ENDED;\r\n        loanCovenant.isLatest = false;\r\n        emit CovenantUnlisted(itemId);\r\n    }\r\n\r\n    function editListingItem(\r\n        uint256 itemId,\r\n        address ftContract,\r\n        uint256 amount,\r\n        uint256 profit,\r\n        uint256 timeDays\r\n    ) external onlyBorrower(itemId) nonReentrant {\r\n        require(\r\n            _idToCovenant[itemId].status == CovenantStatus.LISTING,\r\n            \"Loan covenant is not listing.\"\r\n        );\r\n        Covenant storage loanCovenant = _idToCovenant[itemId];\r\n\r\n        loanCovenant.ftContract = ftContract;\r\n        loanCovenant.amount = amount;\r\n        loanCovenant.profit = profit;\r\n        loanCovenant.timeDays = timeDays;\r\n        emit CovenantEdited(itemId, ftContract, amount, profit, timeDays);\r\n    }\r\n\r\n    function editProposal(\r\n        uint256 itemId,\r\n        uint256 profit,\r\n        uint256 timeAdd\r\n    ) external onlyBorrower(itemId) nonReentrant {\r\n        Proposal storage proposal = _idToProposal[itemId];\r\n        require(\r\n            _idToCovenant[itemId].status == CovenantStatus.LOCKED,\r\n            \"Loan covenant is not locked.\"\r\n        );\r\n\r\n        proposal.profit = profit;\r\n        proposal.timeExpired = _idToCovenant[itemId].timeExpired.add(\r\n            timeAdd.mul(1 minutes)\r\n        );\r\n        emit ProposalEdited(itemId, profit, proposal.timeExpired);\r\n    }\r\n\r\n    function acceptProposal(uint256 itemId)\r\n        external\r\n        onlyLender(itemId)\r\n        nonReentrant\r\n    {\r\n        require(\r\n            _idToCovenant[itemId].status == CovenantStatus.LOCKED,\r\n            \"Loan covenant is not locked.\"\r\n        );\r\n        require(\r\n            _idToProposal[itemId].timeExpired != 0,\r\n            \"There is no proposal for this covenant\"\r\n        );\r\n\r\n        Covenant storage loanCovenant = _idToCovenant[itemId];\r\n        Proposal storage proposal = _idToProposal[itemId];\r\n        uint256 newProfit = proposal.profit;\r\n        loanCovenant.profit = newProfit.add(loanCovenant.profit);\r\n        loanCovenant.timeExpired = _idToProposal[itemId].timeExpired;\r\n        proposal.timeExpired = 0;\r\n        emit ProposalAccepted(\r\n            itemId,\r\n            loanCovenant.profit,\r\n            loanCovenant.timeExpired\r\n        );\r\n    }\r\n\r\n    function acceptCovenant(uint256 itemId) public payable nonReentrant {\r\n        require(\r\n            _idToCovenant[itemId].borrower != msg.sender,\r\n            \"Sender must be not borrower\"\r\n        );\r\n        require(\r\n            _idToCovenant[itemId].borrower != address(0),\r\n            \"Loan covenant is not existed.\"\r\n        );\r\n        require(\r\n            _idToCovenant[itemId].lender == address(0) &&\r\n                _idToCovenant[itemId].status == CovenantStatus.LISTING,\r\n            \"Loan covenant is not listing.\"\r\n        );\r\n        Covenant storage loanCovenant = _idToCovenant[itemId];\r\n\r\n        if (loanCovenant.ftContract == address(0)) {\r\n            require(msg.value == loanCovenant.amount, \"Loan amount not exact\");\r\n        }\r\n        sendAssets(\r\n            msg.sender,\r\n            loanCovenant.borrower,\r\n            loanCovenant.ftContract,\r\n            loanCovenant.amount\r\n        );\r\n\r\n        loanCovenant.lender = msg.sender;\r\n        uint256 timeAdd = loanCovenant.timeDays;\r\n        loanCovenant.timeExpired = timeAdd.mul(1 minutes).add(block.timestamp);\r\n        loanCovenant.status = CovenantStatus.LOCKED;\r\n        _loanAccepted[msg.sender] = _loanAccepted[msg.sender].add(1);\r\n        emit CovenantAccept(\r\n            itemId,\r\n            msg.sender,\r\n            loanCovenant.ftContract,\r\n            loanCovenant.amount,\r\n            loanCovenant.profit,\r\n            loanCovenant.timeExpired\r\n        );\r\n    }\r\n\r\n    function payOff(uint256 itemId)\r\n        external\r\n        payable\r\n        onlyBorrower(itemId)\r\n        nonReentrant\r\n    {\r\n        require(\r\n            _idToCovenant[itemId].status == CovenantStatus.LOCKED &&\r\n                _idToCovenant[itemId].timeExpired > block.timestamp,\r\n            \"Time is up. Contact lender for extend time.\"\r\n        );\r\n        Covenant storage loanCovenant = _idToCovenant[itemId];\r\n        uint256 totalPaid = loanCovenant.amount;\r\n        totalPaid = totalPaid.add(loanCovenant.profit);\r\n        uint256 fee = _feeOf(msg.sender, loanCovenant.ftContract);\r\n        fee = loanCovenant.profit.mul(fee).div(DENOMINATOR);\r\n        if (loanCovenant.ftContract == address(0)) {\r\n            require(\r\n                msg.value == totalPaid,\r\n                \"You must add exact amount and profit.\"\r\n            );\r\n        }\r\n        if (\r\n            ERC165Checker.supportsInterface(\r\n                loanCovenant.nftContract,\r\n                ERC2981INTERFACE\r\n            )\r\n        ) {\r\n            (address creator, uint256 royaltyAmount) = IERC2981(\r\n                loanCovenant.nftContract\r\n            ).royaltyInfo(loanCovenant.tokenId, loanCovenant.profit);\r\n            if (royaltyAmount > 0) {\r\n                sendAssets(\r\n                    msg.sender,\r\n                    creator,\r\n                    loanCovenant.ftContract,\r\n                    royaltyAmount\r\n                );\r\n                sendAssets(\r\n                    msg.sender,\r\n                    loanCovenant.lender,\r\n                    loanCovenant.ftContract,\r\n                    totalPaid.sub(royaltyAmount.add(fee))\r\n                );\r\n            } else {\r\n                sendAssets(\r\n                    msg.sender,\r\n                    loanCovenant.lender,\r\n                    loanCovenant.ftContract,\r\n                    totalPaid.sub(fee)\r\n                );\r\n            }\r\n        } else {\r\n            sendAssets(\r\n                msg.sender,\r\n                loanCovenant.lender,\r\n                loanCovenant.ftContract,\r\n                totalPaid.sub(fee)\r\n            );\r\n        }\r\n\r\n        sendAssets(msg.sender, owner(), loanCovenant.ftContract, fee);\r\n\r\n        IERC721(loanCovenant.nftContract).transferFrom(\r\n            address(this),\r\n            msg.sender,\r\n            loanCovenant.tokenId\r\n        );\r\n        loanCovenant.status = CovenantStatus.ENDED;\r\n        loanCovenant.isLatest = false;\r\n        emit CovenantPayOff(\r\n            itemId,\r\n            loanCovenant.nftContract,\r\n            loanCovenant.tokenId,\r\n            loanCovenant.ftContract,\r\n            loanCovenant.amount,\r\n            loanCovenant.profit\r\n        );\r\n    }\r\n\r\n    function liquidate(uint256 itemId)\r\n        external\r\n        payable\r\n        onlyLender(itemId)\r\n        nonReentrant\r\n    {\r\n        require(\r\n            _idToCovenant[itemId].status == CovenantStatus.LOCKED &&\r\n                _idToCovenant[itemId].timeExpired < block.timestamp,\r\n            \"Not time for liquidate covenant\"\r\n        );\r\n        Covenant storage loanCovenant = _idToCovenant[itemId];\r\n        IERC721(loanCovenant.nftContract).transferFrom(\r\n            address(this),\r\n            msg.sender,\r\n            loanCovenant.tokenId\r\n        );\r\n        loanCovenant.status = CovenantStatus.ENDED;\r\n        loanCovenant.isLatest = false;\r\n        _loanLiquidated[msg.sender] = _loanLiquidated[msg.sender].add(1);\r\n        emit CovenantLiquidate(\r\n            itemId,\r\n            loanCovenant.nftContract,\r\n            loanCovenant.tokenId\r\n        );\r\n    }\r\n\r\n    function getCovenants() public view returns (Covenant[] memory) {\r\n        uint256 covenantCount = _itemCount.current();\r\n\r\n        Covenant[] memory covenants = new Covenant[](covenantCount);\r\n        uint256 covenantIndex = 0;\r\n        for (uint256 i = 0; i < covenantCount; i++) {\r\n            covenants[covenantIndex] = _idToCovenant[i];\r\n            covenantIndex++;\r\n        }\r\n        return covenants;\r\n    }\r\n\r\n    function getCovenantsByAddress(address addr)\r\n        public\r\n        view\r\n        returns (Covenant[] memory)\r\n    {\r\n        uint256 covenantCount = _itemCount.current();\r\n        uint256 myListedCovenantCount = 0;\r\n        for (uint256 i = 0; i < covenantCount; i++) {\r\n            if (\r\n                _idToCovenant[i].borrower == addr ||\r\n                _idToCovenant[i].lender == addr\r\n            ) {\r\n                myListedCovenantCount++;\r\n            }\r\n        }\r\n\r\n        Covenant[] memory covenants = new Covenant[](covenantCount);\r\n        uint256 covenantIndex = 0;\r\n        for (uint256 i = 0; i < myListedCovenantCount; i++) {\r\n            if (\r\n                _idToCovenant[i].borrower == addr ||\r\n                _idToCovenant[i].lender == addr\r\n            ) {\r\n                covenants[covenantIndex] = _idToCovenant[i];\r\n                covenantIndex++;\r\n            }\r\n        }\r\n        return covenants;\r\n    }\r\n\r\n    function getCovenant(uint256 itemId)\r\n        public\r\n        view\r\n        returns (Covenant memory, Proposal memory)\r\n    {\r\n        Covenant memory covenant = _idToCovenant[itemId];\r\n        Proposal memory proposal = _idToProposal[itemId];\r\n        return (covenant, proposal);\r\n    }\r\n\r\n    function getUserHealth(address addr)\r\n        public\r\n        view\r\n        returns (uint256, uint256)\r\n    {\r\n        return (_loanAccepted[addr], _loanLiquidated[addr]);\r\n    }\r\n\r\n    function getLoanData(address contractAddress, uint256 tokenId)\r\n        public\r\n        view\r\n        returns (Covenant memory)\r\n    {\r\n        Covenant memory covenant;\r\n        uint256 cCount = _itemCount.current();\r\n        for (uint256 i = 0; i < cCount; i++) {\r\n            if (\r\n                _idToCovenant[i].nftContract == contractAddress &&\r\n                _idToCovenant[i].tokenId == tokenId &&\r\n                _idToCovenant[i].isLatest\r\n            ) {\r\n                covenant = _idToCovenant[i];\r\n                break;\r\n            }\r\n        }\r\n\r\n        return covenant;\r\n    }\r\n\r\n    function sendAssets(\r\n        address from,\r\n        address to,\r\n        address ftToken,\r\n        uint256 value\r\n    ) private {\r\n        if (ftToken == address(0)) {\r\n            payable(to).transfer(value);\r\n        } else {\r\n            if (from != address(this)) {\r\n                IERC20(ftToken).transferFrom(from, to, value);\r\n            } else {\r\n                IERC20(ftToken).transfer(to, value);\r\n            }\r\n        }\r\n    }\r\n}\r\n",
  "sourcePath": "G:\\Learning\\Project\\source\\picasarts-contracts\\contracts\\NFTLoan.sol",
  "compiler": {
    "name": "solc",
    "version": "0.8.4+commit.c7e474f2.Emscripten.clang"
  },
  "schemaVersion": "3.4.10",
  "updatedAt": "2023-02-24T18:18:06.526Z",
  "devdoc": {
    "kind": "dev",
    "methods": {
      "owner()": {
        "details": "Returns the address of the current owner."
      },
      "renounceOwnership()": {
        "details": "Leaves the contract without owner. It will not be possible to call `onlyOwner` functions anymore. Can only be called by the current owner. NOTE: Renouncing ownership will leave the contract without an owner, thereby removing any functionality that is only available to the owner."
      },
      "transferOwnership(address)": {
        "details": "Transfers ownership of the contract to a new account (`newOwner`). Can only be called by the current owner."
      }
    },
    "version": 1
  },
  "userdoc": {
    "kind": "user",
    "methods": {},
    "version": 1
  }
}