{
  "_format": "hh-sol-artifact-1",
  "contractName": "NFTLoan",
  "sourceName": "contracts/NFTLoan.sol",
  "abi": [
    {
      "inputs": [
        {
          "internalType": "uint256",
          "name": "fee",
          "type": "uint256"
        },
        {
          "internalType": "address",
          "name": "hub",
          "type": "address"
        }
      ],
      "stateMutability": "nonpayable",
      "type": "constructor"
    },
    {
      "anonymous": false,
      "inputs": [
        {
          "indexed": false,
          "internalType": "uint256",
          "name": "itemId",
          "type": "uint256"
        },
        {
          "indexed": false,
          "internalType": "address",
          "name": "lender",
          "type": "address"
        },
        {
          "indexed": false,
          "internalType": "address",
          "name": "ftContract",
          "type": "address"
        },
        {
          "indexed": false,
          "internalType": "uint256",
          "name": "amount",
          "type": "uint256"
        },
        {
          "indexed": false,
          "internalType": "uint256",
          "name": "profit",
          "type": "uint256"
        },
        {
          "indexed": false,
          "internalType": "uint256",
          "name": "timeExpired",
          "type": "uint256"
        }
      ],
      "name": "CovenantAccept",
      "type": "event"
    },
    {
      "anonymous": false,
      "inputs": [
        {
          "indexed": false,
          "internalType": "uint256",
          "name": "itemId",
          "type": "uint256"
        },
        {
          "indexed": false,
          "internalType": "address",
          "name": "ftContract",
          "type": "address"
        },
        {
          "indexed": false,
          "internalType": "uint256",
          "name": "amount",
          "type": "uint256"
        },
        {
          "indexed": false,
          "internalType": "uint256",
          "name": "profit",
          "type": "uint256"
        },
        {
          "indexed": false,
          "internalType": "uint256",
          "name": "timeDays",
          "type": "uint256"
        }
      ],
      "name": "CovenantEdited",
      "type": "event"
    },
    {
      "anonymous": false,
      "inputs": [
        {
          "indexed": false,
          "internalType": "uint256",
          "name": "itemId",
          "type": "uint256"
        },
        {
          "indexed": false,
          "internalType": "address",
          "name": "nftContract",
          "type": "address"
        },
        {
          "indexed": false,
          "internalType": "uint256",
          "name": "tokenId",
          "type": "uint256"
        }
      ],
      "name": "CovenantLiquidate",
      "type": "event"
    },
    {
      "anonymous": false,
      "inputs": [
        {
          "indexed": false,
          "internalType": "uint256",
          "name": "itemId",
          "type": "uint256"
        },
        {
          "indexed": false,
          "internalType": "address",
          "name": "nftContract",
          "type": "address"
        },
        {
          "indexed": false,
          "internalType": "uint256",
          "name": "tokenId",
          "type": "uint256"
        },
        {
          "indexed": false,
          "internalType": "address",
          "name": "ftContract",
          "type": "address"
        },
        {
          "indexed": false,
          "internalType": "uint256",
          "name": "amount",
          "type": "uint256"
        },
        {
          "indexed": false,
          "internalType": "uint256",
          "name": "profit",
          "type": "uint256"
        },
        {
          "indexed": false,
          "internalType": "uint256",
          "name": "timeDays",
          "type": "uint256"
        },
        {
          "indexed": false,
          "internalType": "uint8",
          "name": "status",
          "type": "uint8"
        },
        {
          "indexed": false,
          "internalType": "address",
          "name": "borrower",
          "type": "address"
        },
        {
          "indexed": false,
          "internalType": "address",
          "name": "lender",
          "type": "address"
        }
      ],
      "name": "CovenantListed",
      "type": "event"
    },
    {
      "anonymous": false,
      "inputs": [
        {
          "indexed": false,
          "internalType": "uint256",
          "name": "itemId",
          "type": "uint256"
        },
        {
          "indexed": false,
          "internalType": "address",
          "name": "nftContract",
          "type": "address"
        },
        {
          "indexed": false,
          "internalType": "uint256",
          "name": "tokenId",
          "type": "uint256"
        },
        {
          "indexed": false,
          "internalType": "address",
          "name": "ftContract",
          "type": "address"
        },
        {
          "indexed": false,
          "internalType": "uint256",
          "name": "amount",
          "type": "uint256"
        },
        {
          "indexed": false,
          "internalType": "uint256",
          "name": "profit",
          "type": "uint256"
        }
      ],
      "name": "CovenantPayOff",
      "type": "event"
    },
    {
      "anonymous": false,
      "inputs": [
        {
          "indexed": false,
          "internalType": "uint256",
          "name": "itemId",
          "type": "uint256"
        }
      ],
      "name": "CovenantUnlisted",
      "type": "event"
    },
    {
      "anonymous": false,
      "inputs": [
        {
          "indexed": true,
          "internalType": "address",
          "name": "previousOwner",
          "type": "address"
        },
        {
          "indexed": true,
          "internalType": "address",
          "name": "newOwner",
          "type": "address"
        }
      ],
      "name": "OwnershipTransferred",
      "type": "event"
    },
    {
      "anonymous": false,
      "inputs": [
        {
          "indexed": false,
          "internalType": "uint256",
          "name": "itemId",
          "type": "uint256"
        },
        {
          "indexed": false,
          "internalType": "uint256",
          "name": "profit",
          "type": "uint256"
        },
        {
          "indexed": false,
          "internalType": "uint256",
          "name": "timeExpired",
          "type": "uint256"
        }
      ],
      "name": "ProposalAccepted",
      "type": "event"
    },
    {
      "anonymous": false,
      "inputs": [
        {
          "indexed": false,
          "internalType": "uint256",
          "name": "itemId",
          "type": "uint256"
        },
        {
          "indexed": false,
          "internalType": "uint256",
          "name": "profit",
          "type": "uint256"
        },
        {
          "indexed": false,
          "internalType": "uint256",
          "name": "timeExpired",
          "type": "uint256"
        }
      ],
      "name": "ProposalEdited",
      "type": "event"
    },
    {
      "inputs": [],
      "name": "DENOMINATOR",
      "outputs": [
        {
          "internalType": "uint256",
          "name": "",
          "type": "uint256"
        }
      ],
      "stateMutability": "view",
      "type": "function"
    },
    {
      "inputs": [],
      "name": "ERC2981INTERFACE",
      "outputs": [
        {
          "internalType": "bytes4",
          "name": "",
          "type": "bytes4"
        }
      ],
      "stateMutability": "view",
      "type": "function"
    },
    {
      "inputs": [],
      "name": "ERC721INTERFACE",
      "outputs": [
        {
          "internalType": "bytes4",
          "name": "",
          "type": "bytes4"
        }
      ],
      "stateMutability": "view",
      "type": "function"
    },
    {
      "inputs": [],
      "name": "RATE_FEE",
      "outputs": [
        {
          "internalType": "uint256",
          "name": "",
          "type": "uint256"
        }
      ],
      "stateMutability": "view",
      "type": "function"
    },
    {
      "inputs": [
        {
          "internalType": "uint256",
          "name": "itemId",
          "type": "uint256"
        }
      ],
      "name": "acceptCovenant",
      "outputs": [],
      "stateMutability": "payable",
      "type": "function"
    },
    {
      "inputs": [
        {
          "internalType": "uint256",
          "name": "itemId",
          "type": "uint256"
        }
      ],
      "name": "acceptProposal",
      "outputs": [],
      "stateMutability": "nonpayable",
      "type": "function"
    },
    {
      "inputs": [
        {
          "internalType": "address",
          "name": "tokenAddr",
          "type": "address"
        }
      ],
      "name": "addAcceptToken",
      "outputs": [],
      "stateMutability": "nonpayable",
      "type": "function"
    },
    {
      "inputs": [
        {
          "internalType": "address",
          "name": "whitelistAddress",
          "type": "address"
        },
        {
          "internalType": "uint256",
          "name": "fee",
          "type": "uint256"
        }
      ],
      "name": "addWhitelistAddress",
      "outputs": [],
      "stateMutability": "nonpayable",
      "type": "function"
    },
    {
      "inputs": [
        {
          "internalType": "uint256",
          "name": "itemId",
          "type": "uint256"
        },
        {
          "internalType": "address",
          "name": "ftContract",
          "type": "address"
        },
        {
          "internalType": "uint256",
          "name": "amount",
          "type": "uint256"
        },
        {
          "internalType": "uint256",
          "name": "profit",
          "type": "uint256"
        },
        {
          "internalType": "uint256",
          "name": "timeDays",
          "type": "uint256"
        }
      ],
      "name": "editListingItem",
      "outputs": [],
      "stateMutability": "nonpayable",
      "type": "function"
    },
    {
      "inputs": [
        {
          "internalType": "uint256",
          "name": "itemId",
          "type": "uint256"
        },
        {
          "internalType": "uint256",
          "name": "profit",
          "type": "uint256"
        },
        {
          "internalType": "uint256",
          "name": "timeAdd",
          "type": "uint256"
        }
      ],
      "name": "editProposal",
      "outputs": [],
      "stateMutability": "nonpayable",
      "type": "function"
    },
    {
      "inputs": [
        {
          "internalType": "uint256",
          "name": "itemId",
          "type": "uint256"
        }
      ],
      "name": "endListedItem",
      "outputs": [],
      "stateMutability": "nonpayable",
      "type": "function"
    },
    {
      "inputs": [
        {
          "internalType": "address",
          "name": "walletAddress",
          "type": "address"
        },
        {
          "internalType": "address",
          "name": "tokenAddress",
          "type": "address"
        }
      ],
      "name": "feeOf",
      "outputs": [
        {
          "internalType": "uint256",
          "name": "",
          "type": "uint256"
        }
      ],
      "stateMutability": "view",
      "type": "function"
    },
    {
      "inputs": [],
      "name": "getAcceptTokens",
      "outputs": [
        {
          "internalType": "address[]",
          "name": "",
          "type": "address[]"
        }
      ],
      "stateMutability": "view",
      "type": "function"
    },
    {
      "inputs": [
        {
          "internalType": "uint256",
          "name": "itemId",
          "type": "uint256"
        }
      ],
      "name": "getCovenant",
      "outputs": [
        {
          "components": [
            {
              "internalType": "uint256",
              "name": "itemId",
              "type": "uint256"
            },
            {
              "internalType": "address",
              "name": "nftContract",
              "type": "address"
            },
            {
              "internalType": "uint256",
              "name": "tokenId",
              "type": "uint256"
            },
            {
              "internalType": "address",
              "name": "ftContract",
              "type": "address"
            },
            {
              "internalType": "uint256",
              "name": "amount",
              "type": "uint256"
            },
            {
              "internalType": "uint256",
              "name": "profit",
              "type": "uint256"
            },
            {
              "internalType": "uint256",
              "name": "timeExpired",
              "type": "uint256"
            },
            {
              "internalType": "uint256",
              "name": "timeDays",
              "type": "uint256"
            },
            {
              "internalType": "enum NFTLoan.CovenantStatus",
              "name": "status",
              "type": "uint8"
            },
            {
              "internalType": "address",
              "name": "borrower",
              "type": "address"
            },
            {
              "internalType": "address",
              "name": "lender",
              "type": "address"
            },
            {
              "internalType": "bool",
              "name": "isLatest",
              "type": "bool"
            }
          ],
          "internalType": "struct NFTLoan.Covenant",
          "name": "",
          "type": "tuple"
        },
        {
          "components": [
            {
              "internalType": "uint256",
              "name": "itemId",
              "type": "uint256"
            },
            {
              "internalType": "uint256",
              "name": "profit",
              "type": "uint256"
            },
            {
              "internalType": "uint256",
              "name": "timeExpired",
              "type": "uint256"
            }
          ],
          "internalType": "struct NFTLoan.Proposal",
          "name": "",
          "type": "tuple"
        }
      ],
      "stateMutability": "view",
      "type": "function"
    },
    {
      "inputs": [],
      "name": "getCovenants",
      "outputs": [
        {
          "components": [
            {
              "internalType": "uint256",
              "name": "itemId",
              "type": "uint256"
            },
            {
              "internalType": "address",
              "name": "nftContract",
              "type": "address"
            },
            {
              "internalType": "uint256",
              "name": "tokenId",
              "type": "uint256"
            },
            {
              "internalType": "address",
              "name": "ftContract",
              "type": "address"
            },
            {
              "internalType": "uint256",
              "name": "amount",
              "type": "uint256"
            },
            {
              "internalType": "uint256",
              "name": "profit",
              "type": "uint256"
            },
            {
              "internalType": "uint256",
              "name": "timeExpired",
              "type": "uint256"
            },
            {
              "internalType": "uint256",
              "name": "timeDays",
              "type": "uint256"
            },
            {
              "internalType": "enum NFTLoan.CovenantStatus",
              "name": "status",
              "type": "uint8"
            },
            {
              "internalType": "address",
              "name": "borrower",
              "type": "address"
            },
            {
              "internalType": "address",
              "name": "lender",
              "type": "address"
            },
            {
              "internalType": "bool",
              "name": "isLatest",
              "type": "bool"
            }
          ],
          "internalType": "struct NFTLoan.Covenant[]",
          "name": "",
          "type": "tuple[]"
        }
      ],
      "stateMutability": "view",
      "type": "function"
    },
    {
      "inputs": [
        {
          "internalType": "address",
          "name": "addr",
          "type": "address"
        }
      ],
      "name": "getCovenantsByAddress",
      "outputs": [
        {
          "components": [
            {
              "internalType": "uint256",
              "name": "itemId",
              "type": "uint256"
            },
            {
              "internalType": "address",
              "name": "nftContract",
              "type": "address"
            },
            {
              "internalType": "uint256",
              "name": "tokenId",
              "type": "uint256"
            },
            {
              "internalType": "address",
              "name": "ftContract",
              "type": "address"
            },
            {
              "internalType": "uint256",
              "name": "amount",
              "type": "uint256"
            },
            {
              "internalType": "uint256",
              "name": "profit",
              "type": "uint256"
            },
            {
              "internalType": "uint256",
              "name": "timeExpired",
              "type": "uint256"
            },
            {
              "internalType": "uint256",
              "name": "timeDays",
              "type": "uint256"
            },
            {
              "internalType": "enum NFTLoan.CovenantStatus",
              "name": "status",
              "type": "uint8"
            },
            {
              "internalType": "address",
              "name": "borrower",
              "type": "address"
            },
            {
              "internalType": "address",
              "name": "lender",
              "type": "address"
            },
            {
              "internalType": "bool",
              "name": "isLatest",
              "type": "bool"
            }
          ],
          "internalType": "struct NFTLoan.Covenant[]",
          "name": "",
          "type": "tuple[]"
        }
      ],
      "stateMutability": "view",
      "type": "function"
    },
    {
      "inputs": [
        {
          "internalType": "address",
          "name": "contractAddress",
          "type": "address"
        },
        {
          "internalType": "uint256",
          "name": "tokenId",
          "type": "uint256"
        }
      ],
      "name": "getLoanData",
      "outputs": [
        {
          "components": [
            {
              "internalType": "uint256",
              "name": "itemId",
              "type": "uint256"
            },
            {
              "internalType": "address",
              "name": "nftContract",
              "type": "address"
            },
            {
              "internalType": "uint256",
              "name": "tokenId",
              "type": "uint256"
            },
            {
              "internalType": "address",
              "name": "ftContract",
              "type": "address"
            },
            {
              "internalType": "uint256",
              "name": "amount",
              "type": "uint256"
            },
            {
              "internalType": "uint256",
              "name": "profit",
              "type": "uint256"
            },
            {
              "internalType": "uint256",
              "name": "timeExpired",
              "type": "uint256"
            },
            {
              "internalType": "uint256",
              "name": "timeDays",
              "type": "uint256"
            },
            {
              "internalType": "enum NFTLoan.CovenantStatus",
              "name": "status",
              "type": "uint8"
            },
            {
              "internalType": "address",
              "name": "borrower",
              "type": "address"
            },
            {
              "internalType": "address",
              "name": "lender",
              "type": "address"
            },
            {
              "internalType": "bool",
              "name": "isLatest",
              "type": "bool"
            }
          ],
          "internalType": "struct NFTLoan.Covenant",
          "name": "",
          "type": "tuple"
        }
      ],
      "stateMutability": "view",
      "type": "function"
    },
    {
      "inputs": [],
      "name": "getRateFee",
      "outputs": [
        {
          "internalType": "uint256",
          "name": "",
          "type": "uint256"
        }
      ],
      "stateMutability": "view",
      "type": "function"
    },
    {
      "inputs": [
        {
          "internalType": "address",
          "name": "tokenAddress",
          "type": "address"
        }
      ],
      "name": "getTokenFee",
      "outputs": [
        {
          "internalType": "uint256",
          "name": "",
          "type": "uint256"
        }
      ],
      "stateMutability": "view",
      "type": "function"
    },
    {
      "inputs": [
        {
          "internalType": "address",
          "name": "addr",
          "type": "address"
        }
      ],
      "name": "getUserHealth",
      "outputs": [
        {
          "internalType": "uint256",
          "name": "",
          "type": "uint256"
        },
        {
          "internalType": "uint256",
          "name": "",
          "type": "uint256"
        }
      ],
      "stateMutability": "view",
      "type": "function"
    },
    {
      "inputs": [],
      "name": "getWhitelist",
      "outputs": [
        {
          "components": [
            {
              "internalType": "address",
              "name": "addr",
              "type": "address"
            },
            {
              "internalType": "uint256",
              "name": "fee",
              "type": "uint256"
            }
          ],
          "internalType": "struct IHubChild.WhitelistVars[]",
          "name": "",
          "type": "tuple[]"
        }
      ],
      "stateMutability": "view",
      "type": "function"
    },
    {
      "inputs": [],
      "name": "hubAddr",
      "outputs": [
        {
          "internalType": "address",
          "name": "",
          "type": "address"
        }
      ],
      "stateMutability": "view",
      "type": "function"
    },
    {
      "inputs": [
        {
          "internalType": "uint256",
          "name": "itemId",
          "type": "uint256"
        }
      ],
      "name": "liquidate",
      "outputs": [],
      "stateMutability": "payable",
      "type": "function"
    },
    {
      "inputs": [
        {
          "internalType": "address",
          "name": "nftContract",
          "type": "address"
        },
        {
          "internalType": "uint256",
          "name": "tokenId",
          "type": "uint256"
        },
        {
          "internalType": "address",
          "name": "ftContract",
          "type": "address"
        },
        {
          "internalType": "uint256",
          "name": "amount",
          "type": "uint256"
        },
        {
          "internalType": "uint256",
          "name": "profit",
          "type": "uint256"
        },
        {
          "internalType": "uint256",
          "name": "timeDays",
          "type": "uint256"
        }
      ],
      "name": "listCovenant",
      "outputs": [],
      "stateMutability": "nonpayable",
      "type": "function"
    },
    {
      "inputs": [],
      "name": "owner",
      "outputs": [
        {
          "internalType": "address",
          "name": "",
          "type": "address"
        }
      ],
      "stateMutability": "view",
      "type": "function"
    },
    {
      "inputs": [
        {
          "internalType": "uint256",
          "name": "itemId",
          "type": "uint256"
        }
      ],
      "name": "payOff",
      "outputs": [],
      "stateMutability": "payable",
      "type": "function"
    },
    {
      "inputs": [
        {
          "internalType": "address",
          "name": "tokenAddr",
          "type": "address"
        }
      ],
      "name": "removeToken",
      "outputs": [],
      "stateMutability": "nonpayable",
      "type": "function"
    },
    {
      "inputs": [
        {
          "internalType": "address",
          "name": "whitelistAddress",
          "type": "address"
        }
      ],
      "name": "removeWhitelistAddress",
      "outputs": [],
      "stateMutability": "nonpayable",
      "type": "function"
    },
    {
      "inputs": [],
      "name": "renounceOwnership",
      "outputs": [],
      "stateMutability": "nonpayable",
      "type": "function"
    },
    {
      "inputs": [
        {
          "internalType": "address",
          "name": "hub",
          "type": "address"
        }
      ],
      "name": "setHub",
      "outputs": [],
      "stateMutability": "nonpayable",
      "type": "function"
    },
    {
      "inputs": [
        {
          "internalType": "uint256",
          "name": "rateFee",
          "type": "uint256"
        }
      ],
      "name": "setRateFee",
      "outputs": [],
      "stateMutability": "nonpayable",
      "type": "function"
    },
    {
      "inputs": [
        {
          "internalType": "address",
          "name": "newOwner",
          "type": "address"
        }
      ],
      "name": "transferOwnership",
      "outputs": [],
      "stateMutability": "nonpayable",
      "type": "function"
    }
  ],
  "bytecode": "0x60806040523480156200001157600080fd5b50604051620037113803806200371183398101604081905262000034916200012c565b6200003f336200005b565b6001805560078290556200005381620000ab565b50506200016b565b600080546001600160a01b038381166001600160a01b0319831681178455604051919092169283917f8be0079c531659141344cd1fd0a4f28419497f9722a3daafe3b4186f6b6457e09190a35050565b6000546001600160a01b031633146200010a5760405162461bcd60e51b815260206004820181905260248201527f4f776e61626c653a2063616c6c6572206973206e6f7420746865206f776e6572604482015260640160405180910390fd5b600880546001600160a01b0319166001600160a01b0392909216919091179055565b600080604083850312156200014057600080fd5b825160208401519092506001600160a01b03811681146200016057600080fd5b809150509250929050565b613596806200017b6000396000f3fe6080604052600436106101e35760003560e01c806360373f5c11610102578063a89eccfd11610095578063d01f63f511610064578063d01f63f514610574578063debd227214610596578063f2fde38b146105b6578063f9d6c03b146105d657600080fd5b8063a89eccfd146104e6578063b1c005fa14610506578063b40e38e914610534578063b7ecbaae1461055457600080fd5b806386c3b08a116100d157806386c3b08a146104885780638da5cb5b1461049d578063918f8674146104bb57806393e4626e146104d157600080fd5b806360373f5c1461041e57806360c5cc3a14610431578063715018a6146104515780638563e10e1461046657600080fd5b8063415f12401161017a57806354324456116101495780635432445614610391578063566207af146103b157806356874480146103d15780635fa7b584146103fe57600080fd5b8063415f12401461031057806349095a2114610323578063502a676c1461035b5780635254aca91461037157600080fd5b8063243582ff116101b6578063243582ff1461028f578063252154fa146102a257806331962cdc146102d0578063321c5e84146102f057600080fd5b8063042ca242146101e857806307cb1a6e1461021e5780630f15e9be146102525780631879c75014610274575b600080fd5b3480156101f457600080fd5b50610208610203366004613061565b61062e565b6040516102159190613178565b60405180910390f35b34801561022a57600080fd5b506102396380ac58cd60e01b81565b6040516001600160e01b03199091168152602001610215565b34801561025e57600080fd5b5061027261026d3660046131c7565b6108a4565b005b34801561028057600080fd5b5061023963152a902d60e11b81565b61027261029d3660046131c7565b61095a565b3480156102ae57600080fd5b506102c26102bd366004613061565b610e26565b604051908152602001610215565b3480156102dc57600080fd5b506102726102eb366004613061565b610e39565b3480156102fc57600080fd5b5061027261030b3660046131e0565b610eb5565b61027261031e3660046131c7565b61105a565b34801561032f57600080fd5b50600854610343906001600160a01b031681565b6040516001600160a01b039091168152602001610215565b34801561036757600080fd5b506102c260075481565b34801561037d57600080fd5b5061027261038c36600461320c565b6112c4565b34801561039d57600080fd5b506102726103ac3660046131c7565b611326565b3480156103bd57600080fd5b506102726103cc366004613238565b611519565b3480156103dd57600080fd5b506103f16103ec36600461320c565b61191c565b6040516102159190613294565b34801561040a57600080fd5b50610272610419366004613061565b611ab6565b61027261042c3660046131c7565b611b16565b34801561043d57600080fd5b5061027261044c3660046131c7565b611e51565b34801561045d57600080fd5b50610272612074565b34801561047257600080fd5b5061047b6120da565b60405161021591906132a3565b34801561049457600080fd5b506007546102c2565b3480156104a957600080fd5b506000546001600160a01b0316610343565b3480156104c757600080fd5b506102c261271081565b3480156104dd57600080fd5b5061020861218a565b3480156104f257600080fd5b506102c26105013660046132e4565b61232f565b34801561051257600080fd5b506105266105213660046131c7565b612342565b60405161021592919061331d565b34801561054057600080fd5b5061027261054f366004613351565b612493565b34801561056057600080fd5b5061027261056f366004613061565b612653565b34801561058057600080fd5b506105896126af565b6040516102159190613399565b3480156105a257600080fd5b506102726105b1366004613061565b61278f565b3480156105c257600080fd5b506102726105d1366004613061565b6127eb565b3480156105e257600080fd5b506106196105f1366004613061565b6001600160a01b03166000908152600c6020908152604080832054600d909252909120549091565b60408051928352602083019190915201610215565b6060600061063b60095490565b90506000805b828110156106ba576000818152600a60205260409020600801546001600160a01b0386811661010090920416148061069557506000818152600a60205260409020600901546001600160a01b038681169116145b156106a857816106a481613407565b9250505b806106b281613407565b915050610641565b5060008267ffffffffffffffff8111156106d6576106d6613420565b60405190808252806020026020018201604052801561070f57816020015b6106fc612fc8565b8152602001906001900390816106f45790505b5090506000805b83811015610899576000818152600a60205260409020600801546001600160a01b0388811661010090920416148061076a57506000818152600a60205260409020600901546001600160a01b038881169116145b15610887576000818152600a60209081526040918290208251610180810184528154815260018201546001600160a01b0390811693820193909352600280830154948201949094526003820154909216606083015260048101546080830152600581015460a0830152600681015460c0830152600781015460e083015260088101549192909161010084019160ff9091169081111561080b5761080b61307e565b600281111561081c5761081c61307e565b8152600882015461010090046001600160a01b0390811660208301526009909201549182166040820152600160a01b90910460ff161515606090910152835184908490811061086d5761086d613436565b6020026020010181905250818061088390613407565b9250505b8061089181613407565b915050610716565b509095945050505050565b6008546001600160a01b031633146108fa5760405162461bcd60e51b8152602060048201526014602482015273135d5cdd081899481a1d588818dbdb9d1c9858dd60621b60448201526064015b60405180910390fd5b61271081106109555760405162461bcd60e51b815260206004820152602160248201527f466565206e756d657261746f72206d757374206c657373207468616e203130306044820152602560f81b60648201526084016108f1565b600755565b6000818152600a6020526040902060080154819061010090046001600160a01b031633146109c35760405162461bcd60e51b815260206004820152601660248201527529b2b73232b91034b9903737ba103137b93937bbb2b960511b60448201526064016108f1565b600260015403610a035760405162461bcd60e51b815260206004820152601f602482015260008051602061354183398151915260448201526064016108f1565b600260019081556000838152600a602052604090206008015460ff166002811115610a3057610a3061307e565b148015610a4d57506000828152600a602052604090206006015442105b610aad5760405162461bcd60e51b815260206004820152602b60248201527f54696d652069732075702e20436f6e74616374206c656e64657220666f72206560448201526a3c3a32b732103a34b6b29760a91b60648201526084016108f1565b6000828152600a6020526040902060048101546005820154610ad09082906128b6565b6003830154909150600090610aef9033906001600160a01b03166128c2565b9050610b14612710610b0e83866005015461292c90919063ffffffff16565b90612938565b60038401549091506001600160a01b0316610b8657813414610b865760405162461bcd60e51b815260206004820152602560248201527f596f75206d7573742061646420657861637420616d6f756e7420616e6420707260448201526437b334ba1760d91b60648201526084016108f1565b6001830154610ba5906001600160a01b031663152a902d60e11b612944565b15610cbd5760018301546002840154600585015460405163152a902d60e11b81526004810192909252602482015260009182916001600160a01b0390911690632a55205a906044016040805180830381865afa158015610c09573d6000803e3d6000fd5b505050506040513d601f19601f82011682018060405250810190610c2d919061344c565b90925090508015610c8f576003850154610c5490339084906001600160a01b031684612960565b60098501546003860154610c8a9133916001600160a01b039182169116610c85610c7e86896128b6565b8990612ab0565b612960565b610cb6565b60098501546003860154610cb69133916001600160a01b039182169116610c858888612ab0565b5050610ce4565b60098301546003840154610ce49133916001600160a01b039182169116610c858686612ab0565b610d0e33610cfa6000546001600160a01b031690565b60038601546001600160a01b031684612960565b600183015460028401546040516323b872dd60e01b815230600482015233602482015260448101919091526001600160a01b03909116906323b872dd90606401600060405180830381600087803b158015610d6857600080fd5b505af1158015610d7c573d6000803e3d6000fd5b5050505060088301805460ff1916600290811790915560098401805460ff60a01b19169055600184015490840154600385015460048601546005870154604080518b81526001600160a01b03968716602082015290810194909452939091166060830152608082015260a08101919091527fbfd8ce7cf08422e89b830095bc43e7a55d15c9766d431c5d7500eb024b33a9819060c0015b60405180910390a1505060018055505050565b6000610e33600483612abc565b92915050565b6000546001600160a01b03163314610e935760405162461bcd60e51b815260206004820181905260248201527f4f776e61626c653a2063616c6c6572206973206e6f7420746865206f776e657260448201526064016108f1565b600880546001600160a01b0319166001600160a01b0392909216919091179055565b6000838152600a6020526040902060080154839061010090046001600160a01b03163314610f1e5760405162461bcd60e51b815260206004820152601660248201527529b2b73232b91034b9903737ba103137b93937bbb2b960511b60448201526064016108f1565b600260015403610f5e5760405162461bcd60e51b815260206004820152601f602482015260008051602061354183398151915260448201526064016108f1565b600260019081556000858152600b60205260409020906000868152600a602052604090206008015460ff166002811115610f9a57610f9a61307e565b14610fe75760405162461bcd60e51b815260206004820152601c60248201527f4c6f616e20636f76656e616e74206973206e6f74206c6f636b65642e0000000060448201526064016108f1565b60018101849055611014610ffc84603c61292c565b6000878152600a6020526040902060060154906128b6565b600282018190556040805187815260208101879052908101919091527f41be7a7eec331566aaa888f4e2b06e04bff79d31fa0caa0dadff2fb85bd2f20a90606001610e13565b6000818152600a602052604090206009015481906001600160a01b031633146110bc5760405162461bcd60e51b815260206004820152601460248201527329b2b73232b91034b9903737ba103632b73232b960611b60448201526064016108f1565b6002600154036110fc5760405162461bcd60e51b815260206004820152601f602482015260008051602061354183398151915260448201526064016108f1565b600260019081556000838152600a602052604090206008015460ff1660028111156111295761112961307e565b14801561114657506000828152600a602052604090206006015442115b6111925760405162461bcd60e51b815260206004820152601f60248201527f4e6f742074696d6520666f72206c697175696461746520636f76656e616e740060448201526064016108f1565b6000828152600a6020526040908190206001810154600282015492516323b872dd60e01b8152306004820152336024820152604481019390935290916001600160a01b03909116906323b872dd90606401600060405180830381600087803b1580156111fd57600080fd5b505af1158015611211573d6000803e3d6000fd5b5050505060088101805460ff1916600217905560098101805460ff60a01b19169055336000908152600d602052604090205461124e9060016128b6565b336000908152600d6020908152604091829020929092556001830154600284015482518781526001600160a01b0390921693820193909352908101919091527f7e4e6bd95b1f1a8350d728e47e6f4708166dd069a9fe805fbff548ec13f8fac3906060015b60405180910390a150506001805550565b6008546001600160a01b031633146113155760405162461bcd60e51b8152602060048201526014602482015273135d5cdd081899481a1d588818dbdb9d1c9858dd60621b60448201526064016108f1565b61132160048383612ad1565b505050565b6000818152600a6020526040902060080154819061010090046001600160a01b0316331461138f5760405162461bcd60e51b815260206004820152601660248201527529b2b73232b91034b9903737ba103137b93937bbb2b960511b60448201526064016108f1565b6002600154036113cf5760405162461bcd60e51b815260206004820152601f602482015260008051602061354183398151915260448201526064016108f1565b6002600155600080838152600a602052604090206008015460ff1660028111156113fb576113fb61307e565b146114485760405162461bcd60e51b815260206004820152601d60248201527f4c6f616e20636f76656e616e74206973206e6f74206c697374696e672e00000060448201526064016108f1565b6000828152600a6020526040908190206001810154600282015492516323b872dd60e01b8152306004820152336024820152604481019390935290916001600160a01b03909116906323b872dd90606401600060405180830381600087803b1580156114b357600080fd5b505af11580156114c7573d6000803e3d6000fd5b5050505060088101805460ff1916600217905560098101805460ff60a01b191690556040518381527fcb2ea16eda1f7cedbfb69b422f48b5b5e71d11e0b1407a517dff82db913fdbce906020016112b3565b6002600154036115595760405162461bcd60e51b815260206004820152601f602482015260008051602061354183398151915260448201526064016108f1565b6002600155821580159061156d5750600082115b6115cb5760405162461bcd60e51b815260206004820152602960248201527f4c6f616e20616d6f756e7420616e642070726f666974206d757374206265206160448201526874206c65617374203160b81b60648201526084016108f1565b6115dc866380ac58cd60e01b612944565b6116285760405162461bcd60e51b815260206004820152601b60248201527f436f6e7472616374206e6565647320746f20626520455243373231000000000060448201526064016108f1565b6040516323b872dd60e01b8152336004820152306024820152604481018690526001600160a01b038716906323b872dd90606401600060405180830381600087803b15801561167657600080fd5b505af115801561168a573d6000803e3d6000fd5b50505050600061169960095490565b9050604051806101800160405280828152602001886001600160a01b03168152602001878152602001866001600160a01b0316815260200185815260200184815260200160008152602001838152602001600060028111156116fd576116fd61307e565b8152336020808301919091526000604080840182905260016060948501819052868352600a845291819020855181559285015183830180546001600160a01b03199081166001600160a01b0393841617909155918601516002808601919091559486015160038501805490931691161790556080840151600483015560a0840151600583015560c0840151600683015560e0840151600783015561010084015160088301805493949193909260ff199091169184908111156117c1576117c161307e565b02179055506101208201516008820180546001600160a01b039283166101000274ffffffffffffffffffffffffffffffffffffffff001990911617905561014083015160099283018054610160909501511515600160a01b0274ffffffffffffffffffffffffffffffffffffffffff199095169190921617929092179091556040805160608101825283815260006020808301828152838501838152878452600b90925293909120915182559151600182015590516002909101557f62a6f84d842436bc5e66e743bb90f02cc4c336f059709a5e6df843d402ca4c85906118a6905490565b604080519182526001600160a01b03808b166020840152908201899052871660608201526080810186905260a0810185905260c08101849052600060e08201819052336101008301526101208201526101400160405180910390a161190f600980546001019055565b5050600180555050505050565b611924612fc8565b61192c612fc8565b600061193760095490565b905060005b81811015611aac576000818152600a60205260409020600101546001600160a01b03878116911614801561198057506000818152600a602052604090206002015485145b80156119a457506000818152600a6020526040902060090154600160a01b900460ff165b15611a9a576000818152600a60209081526040918290208251610180810184528154815260018201546001600160a01b0390811693820193909352600280830154948201949094526003820154909216606083015260048101546080830152600581015460a0830152600681015460c0830152600781015460e083015260088101549192909161010084019160ff90911690811115611a4557611a4561307e565b6002811115611a5657611a5661307e565b8152600882015461010090046001600160a01b0390811660208301526009909201549182166040820152600160a01b90910460ff1615156060909101529250611aac565b80611aa481613407565b91505061193c565b5090949350505050565b6008546001600160a01b03163314611b075760405162461bcd60e51b8152602060048201526014602482015273135d5cdd081899481a1d588818dbdb9d1c9858dd60621b60448201526064016108f1565b611b12600282612aef565b5050565b600260015403611b565760405162461bcd60e51b815260206004820152601f602482015260008051602061354183398151915260448201526064016108f1565b60026001556000818152600a6020526040902060080154336101009091046001600160a01b031603611bca5760405162461bcd60e51b815260206004820152601b60248201527f53656e646572206d757374206265206e6f7420626f72726f776572000000000060448201526064016108f1565b6000818152600a602052604090206008015461010090046001600160a01b0316611c365760405162461bcd60e51b815260206004820152601d60248201527f4c6f616e20636f76656e616e74206973206e6f7420657869737465642e00000060448201526064016108f1565b6000818152600a60205260409020600901546001600160a01b0316158015611c8157506000818152600a602052604081206008015460ff166002811115611c7f57611c7f61307e565b145b611ccd5760405162461bcd60e51b815260206004820152601d60248201527f4c6f616e20636f76656e616e74206973206e6f74206c697374696e672e00000060448201526064016108f1565b6000818152600a6020526040902060038101546001600160a01b0316611d405780600401543414611d405760405162461bcd60e51b815260206004820152601560248201527f4c6f616e20616d6f756e74206e6f74206578616374000000000000000000000060448201526064016108f1565b600881015460038201546004830154611d6e9233926001600160a01b03610100909204821692911690612960565b6009810180546001600160a01b031916331790556007810154611d9c42611d9683603c61292c565b906128b6565b600683015560088201805460ff19166001908117909155336000908152600c6020526040902054611dcc916128b6565b336000818152600c602090815260409182902093909355600385015460048601546005870154600688015484518a8152968701959095526001600160a01b03909216928501929092526060840191909152608083015260a08201527f873c2e990e36955ded4605af1422f36b25a935eca109df3743cfb4ed2627b8fe9060c0016112b3565b6000818152600a602052604090206009015481906001600160a01b03163314611eb35760405162461bcd60e51b815260206004820152601460248201527329b2b73232b91034b9903737ba103632b73232b960611b60448201526064016108f1565b600260015403611ef35760405162461bcd60e51b815260206004820152601f602482015260008051602061354183398151915260448201526064016108f1565b600260019081556000838152600a602052604090206008015460ff166002811115611f2057611f2061307e565b14611f6d5760405162461bcd60e51b815260206004820152601c60248201527f4c6f616e20636f76656e616e74206973206e6f74206c6f636b65642e0000000060448201526064016108f1565b6000828152600b60205260408120600201549003611fdc5760405162461bcd60e51b815260206004820152602660248201527f5468657265206973206e6f2070726f706f73616c20666f72207468697320636f6044820152651d995b985b9d60d21b60648201526084016108f1565b6000828152600a60209081526040808320600b9092529091206001810154600583015461200a9082906128b6565b600584019081556000868152600b60209081526040808320600290810154600689019081559087019390935592549154835189815291820192909252918201527f4e26d2058422e671478446da4522b7c1527f240c0b68519a064219769b062dce90606001610e13565b6000546001600160a01b031633146120ce5760405162461bcd60e51b815260206004820181905260248201527f4f776e61626c653a2063616c6c6572206973206e6f7420746865206f776e657260448201526064016108f1565b6120d86000612b04565b565b606060006120e86002612b54565b905060008167ffffffffffffffff81111561210557612105613420565b60405190808252806020026020018201604052801561212e578160200160208202803683370190505b50905060005b8281101561218357612147600282612b5e565b82828151811061215957612159613436565b6001600160a01b03909216602092830291909101909101528061217b81613407565b915050612134565b5092915050565b6060600061219760095490565b905060008167ffffffffffffffff8111156121b4576121b4613420565b6040519080825280602002602001820160405280156121ed57816020015b6121da612fc8565b8152602001906001900390816121d25790505b5090506000805b83811015612326576000818152600a60209081526040918290208251610180810184528154815260018201546001600160a01b0390811693820193909352600280830154948201949094526003820154909216606083015260048101546080830152600581015460a0830152600681015460c0830152600781015460e083015260088101549192909161010084019160ff909116908111156122985761229861307e565b60028111156122a9576122a961307e565b8152600882015461010090046001600160a01b0390811660208301526009909201549182166040820152600160a01b90910460ff16151560609091015283518490849081106122fa576122fa613436565b6020026020010181905250818061231090613407565b925050808061231e90613407565b9150506121f4565b50909392505050565b600061233b83836128c2565b9392505050565b61234a612fc8565b61236e60405180606001604052806000815260200160008152602001600081525090565b6000838152600a602090815260408083208151610180810183528154815260018201546001600160a01b0390811694820194909452600280830154938201939093526003820154909316606084015260048101546080840152600581015460a0840152600681015460c0840152600781015460e08401526008810154909161010084019160ff16908111156124055761240561307e565b60028111156124165761241661307e565b8152600882015461010090046001600160a01b03908116602080840191909152600990930154908116604080840191909152600160a01b90910460ff1615156060928301526000978852600b8352968790208751918201885280548252600181015492820192909252600290910154958101959095529492505050565b6000858152600a6020526040902060080154859061010090046001600160a01b031633146124fc5760405162461bcd60e51b815260206004820152601660248201527529b2b73232b91034b9903737ba103137b93937bbb2b960511b60448201526064016108f1565b60026001540361253c5760405162461bcd60e51b815260206004820152601f602482015260008051602061354183398151915260448201526064016108f1565b6002600155600080878152600a602052604090206008015460ff1660028111156125685761256861307e565b146125b55760405162461bcd60e51b815260206004820152601d60248201527f4c6f616e20636f76656e616e74206973206e6f74206c697374696e672e00000060448201526064016108f1565b6000868152600a60209081526040918290206003810180546001600160a01b0319166001600160a01b038a1690811790915560048201889055600582018790556007820186905583518a81529283015291810186905260608101859052608081018490527ff9446b7a84a28ecf6763156215f0e6d3497ffb8c67b25c2c90c6c7afdbefe3e39060a00160405180910390a15050600180555050505050565b6008546001600160a01b031633146126a45760405162461bcd60e51b8152602060048201526014602482015273135d5cdd081899481a1d588818dbdb9d1c9858dd60621b60448201526064016108f1565b611b12600482612b6a565b606060006126bd6004612b7f565b905060008167ffffffffffffffff8111156126da576126da613420565b60405190808252806020026020018201604052801561271f57816020015b60408051808201909152600080825260208201528152602001906001900390816126f85790505b50905060005b828110156121835760008061273b600484612b8a565b915091506040518060400160405280836001600160a01b031681526020018281525084848151811061276f5761276f613436565b60200260200101819052505050808061278790613407565b915050612725565b6008546001600160a01b031633146127e05760405162461bcd60e51b8152602060048201526014602482015273135d5cdd081899481a1d588818dbdb9d1c9858dd60621b60448201526064016108f1565b611b12600282612ba8565b6000546001600160a01b031633146128455760405162461bcd60e51b815260206004820181905260248201527f4f776e61626c653a2063616c6c6572206973206e6f7420746865206f776e657260448201526064016108f1565b6001600160a01b0381166128aa5760405162461bcd60e51b815260206004820152602660248201527f4f776e61626c653a206e6577206f776e657220697320746865207a65726f206160448201526564647265737360d01b60648201526084016108f1565b6128b381612b04565b50565b600061233b828461347a565b60408051808201909152600080825260208201819052906128e4600485612bbd565b602083015215801582526128fd57602001519050610e33565b612908600484612bbd565b6020830152158015825261292157602001519050610e33565b505060075492915050565b600061233b828461348d565b600061233b82846134a4565b600061294f83612bd5565b801561233b575061233b8383612c08565b6001600160a01b0382166129aa576040516001600160a01b0384169082156108fc029083906000818181858888f193505050501580156129a4573d6000803e3d6000fd5b50612aaa565b6001600160a01b0384163014612a35576040516323b872dd60e01b81526001600160a01b0385811660048301528481166024830152604482018390528316906323b872dd906064016020604051808303816000875af1158015612a11573d6000803e3d6000fd5b505050506040513d601f19601f820116820180604052508101906129a491906134c6565b60405163a9059cbb60e01b81526001600160a01b0384811660048301526024820183905283169063a9059cbb906044016020604051808303816000875af1158015612a84573d6000803e3d6000fd5b505050506040513d601f19601f82011682018060405250810190612aa891906134c6565b505b50505050565b600061233b82846134e8565b600061233b836001600160a01b038416612d06565b6000612ae7846001600160a01b03851684612d76565b949350505050565b600061233b836001600160a01b038416612d93565b600080546001600160a01b038381166001600160a01b0319831681178455604051919092169283917f8be0079c531659141344cd1fd0a4f28419497f9722a3daafe3b4186f6b6457e09190a35050565b6000610e33825490565b600061233b8383612e86565b600061233b836001600160a01b038416612eb0565b6000610e3382612ecd565b6000808080612b998686612ed8565b909450925050505b9250929050565b600061233b836001600160a01b038416612f03565b6000808080612b99866001600160a01b038716612f52565b6000612be8826301ffc9a760e01b612c08565b8015610e335750612c01826001600160e01b0319612c08565b1592915050565b604080516001600160e01b0319831660248083019190915282518083039091018152604490910182526020810180517bffffffffffffffffffffffffffffffffffffffffffffffffffffffff166301ffc9a760e01b179052905160009190829081906001600160a01b0387169061753090612c849086906134fb565b6000604051808303818686fa925050503d8060008114612cc0576040519150601f19603f3d011682016040523d82523d6000602084013e612cc5565b606091505b5091509150602081511015612ce05760009350505050610e33565b818015612cfc575080806020019051810190612cfc91906134c6565b9695505050505050565b600081815260028301602052604081205480151580612d2a5750612d2a8484612f8c565b61233b5760405162461bcd60e51b815260206004820152601e60248201527f456e756d657261626c654d61703a206e6f6e6578697374656e74206b6579000060448201526064016108f1565b60008281526002840160205260408120829055612ae78484612f98565b60008181526001830160205260408120548015612e7c576000612db76001836134e8565b8554909150600090612dcb906001906134e8565b9050818114612e30576000866000018281548110612deb57612deb613436565b9060005260206000200154905080876000018481548110612e0e57612e0e613436565b6000918252602080832090910192909255918252600188019052604090208390555b8554869080612e4157612e4161352a565b600190038181906000526020600020016000905590558560010160008681526020019081526020016000206000905560019350505050610e33565b6000915050610e33565b6000826000018281548110612e9d57612e9d613436565b9060005260206000200154905092915050565b6000818152600283016020526040812081905561233b8383612fa4565b6000610e3382612b54565b60008080612ee68585612b5e565b600081815260029690960160205260409095205494959350505050565b6000818152600183016020526040812054612f4a57508154600181810184556000848152602080822090930184905584548482528286019093526040902091909155610e33565b506000610e33565b6000818152600283016020526040812054819080612f8157612f748585612f8c565b925060009150612ba19050565b600192509050612ba1565b600061233b8383612fb0565b600061233b8383612f03565b600061233b8383612d93565b6000818152600183016020526040812054151561233b565b6040518061018001604052806000815260200160006001600160a01b031681526020016000815260200160006001600160a01b0316815260200160008152602001600081526020016000815260200160008152602001600060028111156130315761303161307e565b81526000602082018190526040820181905260609091015290565b6001600160a01b03811681146128b357600080fd5b60006020828403121561307357600080fd5b813561233b8161304c565b634e487b7160e01b600052602160045260246000fd5b600381106130b257634e487b7160e01b600052602160045260246000fd5b9052565b8051825260208101516130d460208401826001600160a01b03169052565b506040810151604083015260608101516130f960608401826001600160a01b03169052565b506080810151608083015260a081015160a083015260c081015160c083015260e081015160e08301526101008082015161313582850182613094565b5050610120818101516001600160a01b038116848301525050610140818101516001600160a01b0381168483015250506101608181015180151584830152612aaa565b6020808252825182820181905260009190848201906040850190845b818110156131bb576131a78385516130b6565b928401926101809290920191600101613194565b50909695505050505050565b6000602082840312156131d957600080fd5b5035919050565b6000806000606084860312156131f557600080fd5b505081359360208301359350604090920135919050565b6000806040838503121561321f57600080fd5b823561322a8161304c565b946020939093013593505050565b60008060008060008060c0878903121561325157600080fd5b863561325c8161304c565b95506020870135945060408701356132738161304c565b959894975094956060810135955060808101359460a0909101359350915050565b6101808101610e3382846130b6565b6020808252825182820181905260009190848201906040850190845b818110156131bb5783516001600160a01b0316835292840192918401916001016132bf565b600080604083850312156132f757600080fd5b82356133028161304c565b915060208301356133128161304c565b809150509250929050565b6101e0810161332c82856130b6565b825161018083015260208301516101a083015260408301516101c08301529392505050565b600080600080600060a0868803121561336957600080fd5b85359450602086013561337b8161304c565b94979496505050506040830135926060810135926080909101359150565b602080825282518282018190526000919060409081850190868401855b828110156133e457815180516001600160a01b031685528601518685015292840192908501906001016133b6565b5091979650505050505050565b634e487b7160e01b600052601160045260246000fd5b600060018201613419576134196133f1565b5060010190565b634e487b7160e01b600052604160045260246000fd5b634e487b7160e01b600052603260045260246000fd5b6000806040838503121561345f57600080fd5b825161346a8161304c565b6020939093015192949293505050565b80820180821115610e3357610e336133f1565b8082028115828204841417610e3357610e336133f1565b6000826134c157634e487b7160e01b600052601260045260246000fd5b500490565b6000602082840312156134d857600080fd5b8151801515811461233b57600080fd5b81810381811115610e3357610e336133f1565b6000825160005b8181101561351c5760208186018101518583015201613502565b506000920191825250919050565b634e487b7160e01b600052603160045260246000fdfe5265656e7472616e637947756172643a207265656e7472616e742063616c6c00a2646970667358221220d293a3a3ab2980d88c6ad72a89f041ffe9eb74ee994632a63550514ed8db60bc64736f6c63430008110033",
  "linkReferences": {},
  "deployedLinkReferences": {}
}