{
  "contractName": "PNFT",
  "abi": [
    {
      "inputs": [
        {
          "internalType": "string",
          "name": "name",
          "type": "string"
        },
        {
          "internalType": "string",
          "name": "symbol",
          "type": "string"
        },
        {
          "internalType": "address",
          "name": "owner",
          "type": "address"
        }
      ],
      "stateMutability": "nonpayable",
      "type": "constructor"
    },
    {
      "anonymous": false,
      "inputs": [
        {
          "indexed": true,
          "internalType": "address",
          "name": "owner",
          "type": "address"
        },
        {
          "indexed": true,
          "internalType": "address",
          "name": "approved",
          "type": "address"
        },
        {
          "indexed": true,
          "internalType": "uint256",
          "name": "tokenId",
          "type": "uint256"
        }
      ],
      "name": "Approval",
      "type": "event"
    },
    {
      "anonymous": false,
      "inputs": [
        {
          "indexed": true,
          "internalType": "address",
          "name": "owner",
          "type": "address"
        },
        {
          "indexed": true,
          "internalType": "address",
          "name": "operator",
          "type": "address"
        },
        {
          "indexed": false,
          "internalType": "bool",
          "name": "approved",
          "type": "bool"
        }
      ],
      "name": "ApprovalForAll",
      "type": "event"
    },
    {
      "anonymous": false,
      "inputs": [
        {
          "indexed": true,
          "internalType": "address",
          "name": "previousOwner",
          "type": "address"
        },
        {
          "indexed": true,
          "internalType": "address",
          "name": "newOwner",
          "type": "address"
        }
      ],
      "name": "OwnershipTransferred",
      "type": "event"
    },
    {
      "anonymous": false,
      "inputs": [
        {
          "indexed": true,
          "internalType": "address",
          "name": "from",
          "type": "address"
        },
        {
          "indexed": true,
          "internalType": "address",
          "name": "to",
          "type": "address"
        },
        {
          "indexed": true,
          "internalType": "uint256",
          "name": "tokenId",
          "type": "uint256"
        }
      ],
      "name": "Transfer",
      "type": "event"
    },
    {
      "anonymous": false,
      "inputs": [
        {
          "indexed": true,
          "internalType": "uint256",
          "name": "tokenId",
          "type": "uint256"
        },
        {
          "indexed": true,
          "internalType": "address",
          "name": "user",
          "type": "address"
        },
        {
          "indexed": false,
          "internalType": "uint96",
          "name": "expires",
          "type": "uint96"
        }
      ],
      "name": "UpdateUser",
      "type": "event"
    },
    {
      "inputs": [
        {
          "internalType": "address",
          "name": "to",
          "type": "address"
        },
        {
          "internalType": "uint256",
          "name": "tokenId",
          "type": "uint256"
        }
      ],
      "name": "approve",
      "outputs": [],
      "stateMutability": "nonpayable",
      "type": "function"
    },
    {
      "inputs": [
        {
          "internalType": "address",
          "name": "owner",
          "type": "address"
        }
      ],
      "name": "balanceOf",
      "outputs": [
        {
          "internalType": "uint256",
          "name": "",
          "type": "uint256"
        }
      ],
      "stateMutability": "view",
      "type": "function"
    },
    {
      "inputs": [
        {
          "internalType": "uint256",
          "name": "tokenId",
          "type": "uint256"
        }
      ],
      "name": "burn",
      "outputs": [],
      "stateMutability": "nonpayable",
      "type": "function"
    },
    {
      "inputs": [
        {
          "internalType": "uint256",
          "name": "tokenId",
          "type": "uint256"
        }
      ],
      "name": "getApproved",
      "outputs": [
        {
          "internalType": "address",
          "name": "",
          "type": "address"
        }
      ],
      "stateMutability": "view",
      "type": "function"
    },
    {
      "inputs": [
        {
          "internalType": "address",
          "name": "owner",
          "type": "address"
        },
        {
          "internalType": "address",
          "name": "operator",
          "type": "address"
        }
      ],
      "name": "isApprovedForAll",
      "outputs": [
        {
          "internalType": "bool",
          "name": "",
          "type": "bool"
        }
      ],
      "stateMutability": "view",
      "type": "function"
    },
    {
      "inputs": [],
      "name": "name",
      "outputs": [
        {
          "internalType": "string",
          "name": "",
          "type": "string"
        }
      ],
      "stateMutability": "view",
      "type": "function"
    },
    {
      "inputs": [],
      "name": "owner",
      "outputs": [
        {
          "internalType": "address",
          "name": "",
          "type": "address"
        }
      ],
      "stateMutability": "view",
      "type": "function"
    },
    {
      "inputs": [
        {
          "internalType": "uint256",
          "name": "tokenId",
          "type": "uint256"
        }
      ],
      "name": "ownerOf",
      "outputs": [
        {
          "internalType": "address",
          "name": "",
          "type": "address"
        }
      ],
      "stateMutability": "view",
      "type": "function"
    },
    {
      "inputs": [],
      "name": "renounceOwnership",
      "outputs": [],
      "stateMutability": "nonpayable",
      "type": "function"
    },
    {
      "inputs": [
        {
          "internalType": "uint256",
          "name": "_tokenId",
          "type": "uint256"
        },
        {
          "internalType": "uint256",
          "name": "_salePrice",
          "type": "uint256"
        }
      ],
      "name": "royaltyInfo",
      "outputs": [
        {
          "internalType": "address",
          "name": "",
          "type": "address"
        },
        {
          "internalType": "uint256",
          "name": "",
          "type": "uint256"
        }
      ],
      "stateMutability": "view",
      "type": "function"
    },
    {
      "inputs": [
        {
          "internalType": "address",
          "name": "from",
          "type": "address"
        },
        {
          "internalType": "address",
          "name": "to",
          "type": "address"
        },
        {
          "internalType": "uint256",
          "name": "tokenId",
          "type": "uint256"
        }
      ],
      "name": "safeTransferFrom",
      "outputs": [],
      "stateMutability": "nonpayable",
      "type": "function"
    },
    {
      "inputs": [
        {
          "internalType": "address",
          "name": "from",
          "type": "address"
        },
        {
          "internalType": "address",
          "name": "to",
          "type": "address"
        },
        {
          "internalType": "uint256",
          "name": "tokenId",
          "type": "uint256"
        },
        {
          "internalType": "bytes",
          "name": "_data",
          "type": "bytes"
        }
      ],
      "name": "safeTransferFrom",
      "outputs": [],
      "stateMutability": "nonpayable",
      "type": "function"
    },
    {
      "inputs": [
        {
          "internalType": "address",
          "name": "operator",
          "type": "address"
        },
        {
          "internalType": "bool",
          "name": "approved",
          "type": "bool"
        }
      ],
      "name": "setApprovalForAll",
      "outputs": [],
      "stateMutability": "nonpayable",
      "type": "function"
    },
    {
      "inputs": [],
      "name": "symbol",
      "outputs": [
        {
          "internalType": "string",
          "name": "",
          "type": "string"
        }
      ],
      "stateMutability": "view",
      "type": "function"
    },
    {
      "inputs": [
        {
          "internalType": "uint256",
          "name": "index",
          "type": "uint256"
        }
      ],
      "name": "tokenByIndex",
      "outputs": [
        {
          "internalType": "uint256",
          "name": "",
          "type": "uint256"
        }
      ],
      "stateMutability": "view",
      "type": "function"
    },
    {
      "inputs": [
        {
          "internalType": "address",
          "name": "owner",
          "type": "address"
        },
        {
          "internalType": "uint256",
          "name": "index",
          "type": "uint256"
        }
      ],
      "name": "tokenOfOwnerByIndex",
      "outputs": [
        {
          "internalType": "uint256",
          "name": "",
          "type": "uint256"
        }
      ],
      "stateMutability": "view",
      "type": "function"
    },
    {
      "inputs": [],
      "name": "totalSupply",
      "outputs": [
        {
          "internalType": "uint256",
          "name": "",
          "type": "uint256"
        }
      ],
      "stateMutability": "view",
      "type": "function"
    },
    {
      "inputs": [
        {
          "internalType": "address",
          "name": "from",
          "type": "address"
        },
        {
          "internalType": "address",
          "name": "to",
          "type": "address"
        },
        {
          "internalType": "uint256",
          "name": "tokenId",
          "type": "uint256"
        }
      ],
      "name": "transferFrom",
      "outputs": [],
      "stateMutability": "nonpayable",
      "type": "function"
    },
    {
      "inputs": [
        {
          "internalType": "address",
          "name": "newOwner",
          "type": "address"
        }
      ],
      "name": "transferOwnership",
      "outputs": [],
      "stateMutability": "nonpayable",
      "type": "function"
    },
    {
      "inputs": [
        {
          "internalType": "address",
          "name": "to",
          "type": "address"
        },
        {
          "internalType": "string",
          "name": "uri",
          "type": "string"
        },
        {
          "internalType": "uint96",
          "name": "royaltyFeeNumerator",
          "type": "uint96"
        }
      ],
      "name": "safeMint",
      "outputs": [],
      "stateMutability": "nonpayable",
      "type": "function"
    },
    {
      "inputs": [
        {
          "internalType": "uint256",
          "name": "tokenId",
          "type": "uint256"
        },
        {
          "internalType": "address",
          "name": "user",
          "type": "address"
        },
        {
          "internalType": "uint96",
          "name": "expires",
          "type": "uint96"
        }
      ],
      "name": "setUser",
      "outputs": [],
      "stateMutability": "nonpayable",
      "type": "function"
    },
    {
      "inputs": [
        {
          "internalType": "uint256",
          "name": "tokenId",
          "type": "uint256"
        }
      ],
      "name": "userOf",
      "outputs": [
        {
          "internalType": "address",
          "name": "",
          "type": "address"
        }
      ],
      "stateMutability": "view",
      "type": "function"
    },
    {
      "inputs": [
        {
          "internalType": "uint256",
          "name": "tokenId",
          "type": "uint256"
        }
      ],
      "name": "userExpires",
      "outputs": [
        {
          "internalType": "uint96",
          "name": "",
          "type": "uint96"
        }
      ],
      "stateMutability": "view",
      "type": "function"
    },
    {
      "inputs": [
        {
          "internalType": "uint256",
          "name": "tokenId",
          "type": "uint256"
        }
      ],
      "name": "tokenURI",
      "outputs": [
        {
          "internalType": "string",
          "name": "",
          "type": "string"
        }
      ],
      "stateMutability": "view",
      "type": "function"
    },
    {
      "inputs": [
        {
          "internalType": "bytes4",
          "name": "interfaceId",
          "type": "bytes4"
        }
      ],
      "name": "supportsInterface",
      "outputs": [
        {
          "internalType": "bool",
          "name": "",
          "type": "bool"
        }
      ],
      "stateMutability": "view",
      "type": "function"
    }
  ],
  "bytecode": "0x60806040523480156200001157600080fd5b506040516200278038038062002780833981016040819052620000349162000243565b8251839083906200004d906002906020850190620000ea565b50805162000063906003906020840190620000ea565b505050620000806200007a6200009460201b60201c565b62000098565b6200008b8162000098565b5050506200031f565b3390565b600d80546001600160a01b038381166001600160a01b0319831681179093556040519116919082907f8be0079c531659141344cd1fd0a4f28419497f9722a3daafe3b4186f6b6457e090600090a35050565b828054620000f890620002cc565b90600052602060002090601f0160209004810192826200011c576000855562000167565b82601f106200013757805160ff191683800117855562000167565b8280016001018555821562000167579182015b82811115620001675782518255916020019190600101906200014a565b506200017592915062000179565b5090565b5b808211156200017557600081556001016200017a565b600082601f830112620001a1578081fd5b81516001600160401b0380821115620001be57620001be62000309565b604051601f8301601f19908116603f01168101908282118183101715620001e957620001e962000309565b8160405283815260209250868385880101111562000205578485fd5b8491505b8382101562000228578582018301518183018401529082019062000209565b838211156200023957848385830101525b9695505050505050565b60008060006060848603121562000258578283fd5b83516001600160401b03808211156200026f578485fd5b6200027d8783880162000190565b9450602086015191508082111562000293578384fd5b50620002a28682870162000190565b604086015190935090506001600160a01b0381168114620002c1578182fd5b809150509250925092565b600181811c90821680620002e157607f821691505b602082108114156200030357634e487b7160e01b600052602260045260246000fd5b50919050565b634e487b7160e01b600052604160045260246000fd5b612451806200032f6000396000f3fe608060405234801561001057600080fd5b50600436106101735760003560e01c80636352211e116100de578063a22cb46511610097578063c87b56dd11610071578063c87b56dd14610373578063e985e9c514610386578063eaf05b16146103c2578063f2fde38b146103d557600080fd5b8063a22cb4651461033a578063b88d4fde1461034d578063c2f1f14a1461036057600080fd5b80636352211e146102ab57806370a08231146102be578063715018a6146102d15780638da5cb5b146102d95780638fc88c48146102ea57806395d89b411461033257600080fd5b806323b872dd1161013057806323b872dd1461021a5780632a55205a1461022d5780632f745c591461025f57806342842e0e1461027257806342966c68146102855780634f6ccce71461029857600080fd5b806301ffc9a71461017857806306fdde03146101a0578063081812fc146101b5578063095ea7b3146101e057806318160ddd146101f55780631b2a61b714610207575b600080fd5b61018b6101863660046120a5565b6103e8565b60405190151581526020015b60405180910390f35b6101a8610413565b60405161019791906121e0565b6101c86101c33660046120dd565b6104a5565b6040516001600160a01b039091168152602001610197565b6101f36101ee36600461207c565b610532565b005b600a545b604051908152602001610197565b6101f361021536600461200d565b610648565b6101f3610228366004611f1f565b6106b2565b61024061023b366004612127565b6106e4565b604080516001600160a01b039093168352602083019190915201610197565b6101f961026d36600461207c565b610790565b6101f3610280366004611f1f565b610826565b6101f36102933660046120dd565b610841565b6101f96102a63660046120dd565b6108bb565b6101c86102b93660046120dd565b61095c565b6101f96102cc366004611ed3565b6109d3565b6101f3610a5a565b600d546001600160a01b03166101c8565b61031a6102f83660046120dd565b6000908152600f6020526040902054600160a01b90046001600160601b031690565b6040516001600160601b039091168152602001610197565b6101a8610a90565b6101f3610348366004611fd3565b610a9f565b6101f361035b366004611f5a565b610aae565b6101c861036e3660046120dd565b610ae0565b6101a86103813660046120dd565b610b30565b61018b610394366004611eed565b6001600160a01b03918216600090815260076020908152604080832093909416825291909152205460ff1690565b6101f36103d03660046120f5565b610b3b565b6101f36103e3366004611ed3565b610c19565b60006001600160e01b031982166329f2498560e21b148061040d575061040d82610cb1565b92915050565b60606002805461042290612359565b80601f016020809104026020016040519081016040528092919081815260200182805461044e90612359565b801561049b5780601f106104705761010080835404028352916020019161049b565b820191906000526020600020905b81548152906001019060200180831161047e57829003601f168201915b5050505050905090565b60006104b082610cbc565b6105165760405162461bcd60e51b815260206004820152602c60248201527f4552433732313a20617070726f76656420717565727920666f72206e6f6e657860448201526b34b9ba32b73a103a37b5b2b760a11b60648201526084015b60405180910390fd5b506000908152600660205260409020546001600160a01b031690565b600061053d8261095c565b9050806001600160a01b0316836001600160a01b031614156105ab5760405162461bcd60e51b815260206004820152602160248201527f4552433732313a20617070726f76616c20746f2063757272656e74206f776e656044820152603960f91b606482015260840161050d565b336001600160a01b03821614806105c757506105c78133610394565b6106395760405162461bcd60e51b815260206004820152603860248201527f4552433732313a20617070726f76652063616c6c6572206973206e6f74206f7760448201527f6e6572206e6f7220617070726f76656420666f7220616c6c0000000000000000606482015260840161050d565b6106438383610cd9565b505050565b600d546001600160a01b031633146106725760405162461bcd60e51b815260040161050d90612245565b600061067d600e5490565b905061068d600e80546001019055565b6106978482610d47565b6106a18184610d61565b6106ac818584610dec565b50505050565b6106bd335b82610efa565b6106d95760405162461bcd60e51b815260040161050d9061227a565b610643838383610fe4565b60008281526001602090815260408083208151808301909252546001600160a01b038116808352600160a01b9091046001600160601b03169282019290925282916107595750604080518082019091526000546001600160a01b0381168252600160a01b90046001600160601b031660208201525b60208101516000906107d090610778906001600160601b0316876122f7565b61078291906122e3565b915196919550909350505050565b600061079b836109d3565b82106107fd5760405162461bcd60e51b815260206004820152602b60248201527f455243373231456e756d657261626c653a206f776e657220696e646578206f7560448201526a74206f6620626f756e647360a81b606482015260840161050d565b506001600160a01b03919091166000908152600860209081526040808320938352929052205490565b61064383838360405180602001604052806000815250610aae565b61084a336106b7565b6108af5760405162461bcd60e51b815260206004820152603060248201527f4552433732314275726e61626c653a2063616c6c6572206973206e6f74206f7760448201526f1b995c881b9bdc88185c1c1c9bdd995960821b606482015260840161050d565b6108b88161118b565b50565b60006108c6600a5490565b82106109295760405162461bcd60e51b815260206004820152602c60248201527f455243373231456e756d657261626c653a20676c6f62616c20696e646578206f60448201526b7574206f6620626f756e647360a01b606482015260840161050d565b600a828154811061094a57634e487b7160e01b600052603260045260246000fd5b90600052602060002001549050919050565b6000818152600460205260408120546001600160a01b03168061040d5760405162461bcd60e51b815260206004820152602960248201527f4552433732313a206f776e657220717565727920666f72206e6f6e657869737460448201526832b73a103a37b5b2b760b91b606482015260840161050d565b60006001600160a01b038216610a3e5760405162461bcd60e51b815260206004820152602a60248201527f4552433732313a2062616c616e636520717565727920666f7220746865207a65604482015269726f206164647265737360b01b606482015260840161050d565b506001600160a01b031660009081526005602052604090205490565b600d546001600160a01b03163314610a845760405162461bcd60e51b815260040161050d90612245565b610a8e6000611194565b565b60606003805461042290612359565b610aaa3383836111e6565b5050565b610ab83383610efa565b610ad45760405162461bcd60e51b815260040161050d9061227a565b6106ac848484846112b6565b6000818152600f602052604081205442600160a01b9091046001600160601b031610610b2257506000908152600f60205260409020546001600160a01b031690565b61040d8261095c565b919050565b606061040d826112e9565b610b453384610efa565b610bac5760405162461bcd60e51b815260206004820152603260248201527f455243343930373a207472616e736665722063616c6c6572206973206e6f74206044820152711bdddb995c881b9bdc88185c1c1c9bdd995960721b606482015260840161050d565b6000838152600f60209081526040918290206001600160601b038416600160a01b81026001600160a01b0387169081178355935190815290929186917ff3eadda1a229156f3f0f663b8e3b1f2409cb8d447391afe7a1221b52401529ae910160405180910390a350505050565b600d546001600160a01b03163314610c435760405162461bcd60e51b815260040161050d90612245565b6001600160a01b038116610ca85760405162461bcd60e51b815260206004820152602660248201527f4f776e61626c653a206e6577206f776e657220697320746865207a65726f206160448201526564647265737360d01b606482015260840161050d565b6108b881611194565b600061040d82611458565b6000908152600460205260409020546001600160a01b0316151590565b600081815260066020526040902080546001600160a01b0319166001600160a01b0384169081179091558190610d0e8261095c565b6001600160a01b03167f8c5be1e5ebec7d5bd14f71427d1e84f3dd0314c0f7b2291e5b200ac8c7c3b92560405160405180910390a45050565b610aaa82826040518060200160405280600081525061147d565b610d6a82610cbc565b610dcd5760405162461bcd60e51b815260206004820152602e60248201527f45524337323155524953746f726167653a2055524920736574206f66206e6f6e60448201526d32bc34b9ba32b73a103a37b5b2b760911b606482015260840161050d565b6000828152600c60209081526040909120825161064392840190611d60565b6107d06001600160601b0382161115610e5a5760405162461bcd60e51b815260206004820152602a60248201527f455243323938313a20726f79616c7479206665652077696c6c206578636565646044820152692073616c65507269636560b01b606482015260840161050d565b6001600160a01b038216610eb05760405162461bcd60e51b815260206004820152601b60248201527f455243323938313a20496e76616c696420706172616d65746572730000000000604482015260640161050d565b6040805180820182526001600160a01b0393841681526001600160601b0392831660208083019182526000968752600190529190942093519051909116600160a01b029116179055565b6000610f0582610cbc565b610f665760405162461bcd60e51b815260206004820152602c60248201527f4552433732313a206f70657261746f7220717565727920666f72206e6f6e657860448201526b34b9ba32b73a103a37b5b2b760a11b606482015260840161050d565b6000610f718361095c565b9050806001600160a01b0316846001600160a01b03161480610fb857506001600160a01b0380821660009081526007602090815260408083209388168352929052205460ff165b80610fdc5750836001600160a01b0316610fd1846104a5565b6001600160a01b0316145b949350505050565b826001600160a01b0316610ff78261095c565b6001600160a01b03161461105b5760405162461bcd60e51b815260206004820152602560248201527f4552433732313a207472616e736665722066726f6d20696e636f72726563742060448201526437bbb732b960d91b606482015260840161050d565b6001600160a01b0382166110bd5760405162461bcd60e51b8152602060048201526024808201527f4552433732313a207472616e7366657220746f20746865207a65726f206164646044820152637265737360e01b606482015260840161050d565b6110c88383836114b0565b6110d3600082610cd9565b6001600160a01b03831660009081526005602052604081208054600192906110fc908490612316565b90915550506001600160a01b038216600090815260056020526040812080546001929061112a9084906122cb565b909155505060008181526004602052604080822080546001600160a01b0319166001600160a01b0386811691821790925591518493918716917fddf252ad1be2c89b69c2b068fc378daa952ba7f163c4a11628f55a4df523b3ef91a4505050565b6108b88161153a565b600d80546001600160a01b038381166001600160a01b0319831681179093556040519116919082907f8be0079c531659141344cd1fd0a4f28419497f9722a3daafe3b4186f6b6457e090600090a35050565b816001600160a01b0316836001600160a01b031614156112485760405162461bcd60e51b815260206004820152601960248201527f4552433732313a20617070726f766520746f2063616c6c657200000000000000604482015260640161050d565b6001600160a01b03838116600081815260076020908152604080832094871680845294825291829020805460ff191686151590811790915591519182527f17307eab39ab6107e8899845ad3d59bd9653f200f220920489ca2b5937696c3191015b60405180910390a3505050565b6112c1848484610fe4565b6112cd84848484611554565b6106ac5760405162461bcd60e51b815260040161050d906121f3565b60606112f482610cbc565b61135a5760405162461bcd60e51b815260206004820152603160248201527f45524337323155524953746f726167653a2055524920717565727920666f72206044820152703737b732bc34b9ba32b73a103a37b5b2b760791b606482015260840161050d565b6000828152600c60205260408120805461137390612359565b80601f016020809104026020016040519081016040528092919081815260200182805461139f90612359565b80156113ec5780601f106113c1576101008083540402835291602001916113ec565b820191906000526020600020905b8154815290600101906020018083116113cf57829003601f168201915b50505050509050600061140a60408051602081019091526000815290565b905080516000141561141d575092915050565b81511561144f578082604051602001611437929190612174565b60405160208183030381529060405292505050919050565b610fdc84611661565b60006001600160e01b0319821663780e9d6360e01b148061040d575061040d82611739565b6114878383611779565b6114946000848484611554565b6106435760405162461bcd60e51b815260040161050d906121f3565b6114bb8383836118b8565b816001600160a01b0316836001600160a01b0316141580156114f357506000818152600f60205260409020546001600160a01b031615155b15610643576000818152600f602090815260408083208390555182815283917ff3eadda1a229156f3f0f663b8e3b1f2409cb8d447391afe7a1221b52401529ae91016112a9565b61154381611970565b600090815260016020526040812055565b60006001600160a01b0384163b1561165657604051630a85bd0160e11b81526001600160a01b0385169063150b7a02906115989033908990889088906004016121a3565b602060405180830381600087803b1580156115b257600080fd5b505af19250505080156115e2575060408051601f3d908101601f191682019092526115df918101906120c1565b60015b61163c573d808015611610576040519150601f19603f3d011682016040523d82523d6000602084013e611615565b606091505b5080516116345760405162461bcd60e51b815260040161050d906121f3565b805181602001fd5b6001600160e01b031916630a85bd0160e11b149050610fdc565b506001949350505050565b606061166c82610cbc565b6116d05760405162461bcd60e51b815260206004820152602f60248201527f4552433732314d657461646174613a2055524920717565727920666f72206e6f60448201526e3732bc34b9ba32b73a103a37b5b2b760891b606482015260840161050d565b60006116e760408051602081019091526000815290565b905060008151116117075760405180602001604052806000815250611732565b80611711846119b0565b604051602001611722929190612174565b6040516020818303038152906040525b9392505050565b60006001600160e01b031982166380ac58cd60e01b148061176a57506001600160e01b03198216635b5e139f60e01b145b8061040d575061040d82611aca565b6001600160a01b0382166117cf5760405162461bcd60e51b815260206004820181905260248201527f4552433732313a206d696e7420746f20746865207a65726f2061646472657373604482015260640161050d565b6117d881610cbc565b156118255760405162461bcd60e51b815260206004820152601c60248201527f4552433732313a20746f6b656e20616c7265616479206d696e74656400000000604482015260640161050d565b611831600083836114b0565b6001600160a01b038216600090815260056020526040812080546001929061185a9084906122cb565b909155505060008181526004602052604080822080546001600160a01b0319166001600160a01b03861690811790915590518392907fddf252ad1be2c89b69c2b068fc378daa952ba7f163c4a11628f55a4df523b3ef908290a45050565b6001600160a01b0383166119135761190e81600a80546000838152600b60205260408120829055600182018355919091527fc65a7bb8d6351c1cf70c95a316cc6a92839c986682d98bc35f958f4883f9d2a80155565b611936565b816001600160a01b0316836001600160a01b031614611936576119368382611aff565b6001600160a01b03821661194d5761064381611b9c565b826001600160a01b0316826001600160a01b031614610643576106438282611c75565b61197981611cb9565b6000818152600c60205260409020805461199290612359565b1590506108b8576000818152600c602052604081206108b891611de4565b6060816119d45750506040805180820190915260018152600360fc1b602082015290565b8160005b81156119fe57806119e881612394565b91506119f79050600a836122e3565b91506119d8565b60008167ffffffffffffffff811115611a2757634e487b7160e01b600052604160045260246000fd5b6040519080825280601f01601f191660200182016040528015611a51576020820181803683370190505b5090505b8415610fdc57611a66600183612316565b9150611a73600a866123af565b611a7e9060306122cb565b60f81b818381518110611aa157634e487b7160e01b600052603260045260246000fd5b60200101906001600160f81b031916908160001a905350611ac3600a866122e3565b9450611a55565b60006001600160e01b0319821663152a902d60e11b148061040d57506301ffc9a760e01b6001600160e01b031983161461040d565b60006001611b0c846109d3565b611b169190612316565b600083815260096020526040902054909150808214611b69576001600160a01b03841660009081526008602090815260408083208584528252808320548484528184208190558352600990915290208190555b5060009182526009602090815260408084208490556001600160a01b039094168352600881528383209183525290812055565b600a54600090611bae90600190612316565b6000838152600b6020526040812054600a8054939450909284908110611be457634e487b7160e01b600052603260045260246000fd5b9060005260206000200154905080600a8381548110611c1357634e487b7160e01b600052603260045260246000fd5b6000918252602080832090910192909255828152600b9091526040808220849055858252812055600a805480611c5957634e487b7160e01b600052603160045260246000fd5b6001900381819060005260206000200160009055905550505050565b6000611c80836109d3565b6001600160a01b039093166000908152600860209081526040808320868452825280832085905593825260099052919091209190915550565b6000611cc48261095c565b9050611cd2816000846114b0565b611cdd600083610cd9565b6001600160a01b0381166000908152600560205260408120805460019290611d06908490612316565b909155505060008281526004602052604080822080546001600160a01b0319169055518391906001600160a01b038416907fddf252ad1be2c89b69c2b068fc378daa952ba7f163c4a11628f55a4df523b3ef908390a45050565b828054611d6c90612359565b90600052602060002090601f016020900481019282611d8e5760008555611dd4565b82601f10611da757805160ff1916838001178555611dd4565b82800160010185558215611dd4579182015b82811115611dd4578251825591602001919060010190611db9565b50611de0929150611e1a565b5090565b508054611df090612359565b6000825580601f10611e00575050565b601f0160209004906000526020600020908101906108b891905b5b80821115611de05760008155600101611e1b565b600067ffffffffffffffff80841115611e4a57611e4a6123ef565b604051601f8501601f19908116603f01168101908282118183101715611e7257611e726123ef565b81604052809350858152868686011115611e8b57600080fd5b858560208301376000602087830101525050509392505050565b80356001600160a01b0381168114610b2b57600080fd5b80356001600160601b0381168114610b2b57600080fd5b600060208284031215611ee4578081fd5b61173282611ea5565b60008060408385031215611eff578081fd5b611f0883611ea5565b9150611f1660208401611ea5565b90509250929050565b600080600060608486031215611f33578081fd5b611f3c84611ea5565b9250611f4a60208501611ea5565b9150604084013590509250925092565b60008060008060808587031215611f6f578081fd5b611f7885611ea5565b9350611f8660208601611ea5565b925060408501359150606085013567ffffffffffffffff811115611fa8578182fd5b8501601f81018713611fb8578182fd5b611fc787823560208401611e2f565b91505092959194509250565b60008060408385031215611fe5578182fd5b611fee83611ea5565b915060208301358015158114612002578182fd5b809150509250929050565b600080600060608486031215612021578283fd5b61202a84611ea5565b9250602084013567ffffffffffffffff811115612045578283fd5b8401601f81018613612055578283fd5b61206486823560208401611e2f565b92505061207360408501611ebc565b90509250925092565b6000806040838503121561208e578182fd5b61209783611ea5565b946020939093013593505050565b6000602082840312156120b6578081fd5b813561173281612405565b6000602082840312156120d2578081fd5b815161173281612405565b6000602082840312156120ee578081fd5b5035919050565b600080600060608486031215612109578283fd5b8335925061211960208501611ea5565b915061207360408501611ebc565b60008060408385031215612139578182fd5b50508035926020909101359150565b6000815180845261216081602086016020860161232d565b601f01601f19169290920160200192915050565b6000835161218681846020880161232d565b83519083019061219a81836020880161232d565b01949350505050565b6001600160a01b03858116825284166020820152604081018390526080606082018190526000906121d690830184612148565b9695505050505050565b6020815260006117326020830184612148565b60208082526032908201527f4552433732313a207472616e7366657220746f206e6f6e20455243373231526560408201527131b2b4bb32b91034b6b83632b6b2b73a32b960711b606082015260800190565b6020808252818101527f4f776e61626c653a2063616c6c6572206973206e6f7420746865206f776e6572604082015260600190565b60208082526031908201527f4552433732313a207472616e736665722063616c6c6572206973206e6f74206f6040820152701ddb995c881b9bdc88185c1c1c9bdd9959607a1b606082015260800190565b600082198211156122de576122de6123c3565b500190565b6000826122f2576122f26123d9565b500490565b6000816000190483118215151615612311576123116123c3565b500290565b600082821015612328576123286123c3565b500390565b60005b83811015612348578181015183820152602001612330565b838111156106ac5750506000910152565b600181811c9082168061236d57607f821691505b6020821081141561238e57634e487b7160e01b600052602260045260246000fd5b50919050565b60006000198214156123a8576123a86123c3565b5060010190565b6000826123be576123be6123d9565b500690565b634e487b7160e01b600052601160045260246000fd5b634e487b7160e01b600052601260045260246000fd5b634e487b7160e01b600052604160045260246000fd5b6001600160e01b0319811681146108b857600080fdfea264697066735822122022e302ae04a767701be07b817a9823bd01ef06ffe16644e3fc49f3ce152fe73c64736f6c63430008040033",
  "immutableReferences": {},
  "source": "// SPDX-License-Identifier: MIT\r\npragma solidity ^0.8.4;\r\n\r\nimport \"@openzeppelin/contracts/token/ERC721/ERC721.sol\";\r\nimport \"@openzeppelin/contracts/token/ERC721/extensions/ERC721Enumerable.sol\";\r\nimport \"@openzeppelin/contracts/token/ERC721/extensions/ERC721URIStorage.sol\";\r\nimport \"@openzeppelin/contracts/token/ERC721/extensions/ERC721Burnable.sol\";\r\nimport \"@openzeppelin/contracts/access/Ownable.sol\";\r\nimport \"@openzeppelin/contracts/utils/Counters.sol\";\r\nimport \"@openzeppelin/contracts/token/ERC721/extensions/ERC721Royalty.sol\";\r\nimport \"../interfaces/IERC4907.sol\";\r\n\r\ncontract PNFT is\r\n    IERC4907,\r\n    ERC721,\r\n    ERC721Enumerable,\r\n    ERC721URIStorage,\r\n    Ownable,\r\n    ERC721Burnable,\r\n    ERC721Royalty\r\n{\r\n    using Counters for Counters.Counter;\r\n\r\n    Counters.Counter private _tokenIdCounter;\r\n\r\n    struct UserInfo \r\n    {\r\n        address user;   // address of user role\r\n        uint96 expires; // unix timestamp, user expires\r\n    }\r\n\r\n    mapping (uint256  => UserInfo) internal _users;\r\n\r\n    constructor(\r\n        string memory name,\r\n        string memory symbol,\r\n        address owner\r\n    ) ERC721(name, symbol) {\r\n        _transferOwnership(owner);\r\n    }\r\n\r\n    function safeMint(\r\n        address to,\r\n        string memory uri,\r\n        uint96 royaltyFeeNumerator\r\n    ) public onlyOwner {\r\n        uint256 tokenId = _tokenIdCounter.current();\r\n        _tokenIdCounter.increment();\r\n        _safeMint(to, tokenId);\r\n        _setTokenURI(tokenId, uri);\r\n        _setTokenRoyalty(tokenId, to, royaltyFeeNumerator);\r\n    }\r\n\r\n    /// @notice set the user and expires of an NFT\r\n    /// @dev The zero address indicates there is no user\r\n    /// Throws if `tokenId` is not valid NFT\r\n    /// @param user  The new user of the NFT\r\n    /// @param expires  UNIX timestamp, The new user could use the NFT before expires\r\n    function setUser(uint256 tokenId, address user, uint96 expires) public override{\r\n        require(_isApprovedOrOwner(msg.sender, tokenId), \"ERC4907: transfer caller is not owner nor approved\");\r\n        UserInfo storage info =  _users[tokenId];\r\n        info.user = user;\r\n        info.expires = expires;\r\n        emit UpdateUser(tokenId, user, expires);\r\n    }\r\n\r\n    /// @notice Get the user address of an NFT\r\n    /// @dev The zero address indicates that there is no user or the user is expired\r\n    /// @param tokenId The NFT to get the user address for\r\n    /// @return The user address for this NFT\r\n    function userOf(uint256 tokenId) public view override returns(address){\r\n        if( uint256(_users[tokenId].expires) >=  block.timestamp){\r\n            return  _users[tokenId].user;\r\n        }\r\n        else{\r\n            return ownerOf(tokenId);\r\n        }\r\n    }\r\n\r\n    /// @notice Get the user expires of an NFT\r\n    /// @dev The zero value indicates that there is no user\r\n    /// @param tokenId The NFT to get the user expires for\r\n    /// @return The user expires for this NFT\r\n    function userExpires(uint256 tokenId) public view override returns(uint96){\r\n        return _users[tokenId].expires;\r\n    }\r\n\r\n    // The following functions are overrides required by Solidity.\r\n    function _beforeTokenTransfer(\r\n        address from,\r\n        address to,\r\n        uint256 tokenId\r\n    ) internal override(ERC721, ERC721Enumerable) {\r\n        super._beforeTokenTransfer(from, to, tokenId);\r\n\r\n        if (from != to && _users[tokenId].user != address(0)) {\r\n            delete _users[tokenId];\r\n            emit UpdateUser(tokenId, address(0), 0);\r\n        }\r\n    }\r\n\r\n    function _burn(uint256 tokenId)\r\n        internal\r\n        override(ERC721, ERC721URIStorage, ERC721Royalty)\r\n    {\r\n        super._burn(tokenId);\r\n    }\r\n\r\n    function tokenURI(uint256 tokenId)\r\n        public\r\n        view\r\n        override(ERC721, ERC721URIStorage)\r\n        returns (string memory)\r\n    {\r\n        return super.tokenURI(tokenId);\r\n    }\r\n\r\n    function supportsInterface(bytes4 interfaceId)\r\n        public\r\n        view\r\n        override(ERC721, ERC721Enumerable, ERC721Royalty)\r\n        returns (bool)\r\n    {\r\n        return interfaceId == type(IERC4907).interfaceId || super.supportsInterface(interfaceId);\r\n    }\r\n\r\n    function _feeDenominator()\r\n        internal\r\n        pure\r\n        override(ERC2981)\r\n        returns (uint96)\r\n    {\r\n        return 2000;\r\n    }\r\n}\r\n",
  "sourcePath": "G:\\Learning\\Project\\source\\picasarts-contracts\\contracts\\standards\\PNFT.sol",
  "compiler": {
    "name": "solc",
    "version": "0.8.4+commit.c7e474f2.Emscripten.clang"
  },
  "schemaVersion": "3.4.10",
  "updatedAt": "2023-02-24T18:18:06.564Z",
  "devdoc": {
    "kind": "dev",
    "methods": {
      "approve(address,uint256)": {
        "details": "See {IERC721-approve}."
      },
      "balanceOf(address)": {
        "details": "See {IERC721-balanceOf}."
      },
      "burn(uint256)": {
        "details": "Burns `tokenId`. See {ERC721-_burn}. Requirements: - The caller must own `tokenId` or be an approved operator."
      },
      "getApproved(uint256)": {
        "details": "See {IERC721-getApproved}."
      },
      "isApprovedForAll(address,address)": {
        "details": "See {IERC721-isApprovedForAll}."
      },
      "name()": {
        "details": "See {IERC721Metadata-name}."
      },
      "owner()": {
        "details": "Returns the address of the current owner."
      },
      "ownerOf(uint256)": {
        "details": "See {IERC721-ownerOf}."
      },
      "renounceOwnership()": {
        "details": "Leaves the contract without owner. It will not be possible to call `onlyOwner` functions anymore. Can only be called by the current owner. NOTE: Renouncing ownership will leave the contract without an owner, thereby removing any functionality that is only available to the owner."
      },
      "royaltyInfo(uint256,uint256)": {
        "details": "Returns how much royalty is owed and to whom, based on a sale price that may be denominated in any unit of exchange. The royalty amount is denominated and should be paid in that same unit of exchange."
      },
      "safeTransferFrom(address,address,uint256)": {
        "details": "See {IERC721-safeTransferFrom}."
      },
      "safeTransferFrom(address,address,uint256,bytes)": {
        "details": "See {IERC721-safeTransferFrom}."
      },
      "setApprovalForAll(address,bool)": {
        "details": "See {IERC721-setApprovalForAll}."
      },
      "setUser(uint256,address,uint96)": {
        "details": "The zero address indicates there is no user Throws if `tokenId` is not valid NFT",
        "params": {
          "expires": "UNIX timestamp, The new user could use the NFT before expires",
          "user": "The new user of the NFT"
        }
      },
      "symbol()": {
        "details": "See {IERC721Metadata-symbol}."
      },
      "tokenByIndex(uint256)": {
        "details": "See {IERC721Enumerable-tokenByIndex}."
      },
      "tokenOfOwnerByIndex(address,uint256)": {
        "details": "See {IERC721Enumerable-tokenOfOwnerByIndex}."
      },
      "totalSupply()": {
        "details": "See {IERC721Enumerable-totalSupply}."
      },
      "transferFrom(address,address,uint256)": {
        "details": "See {IERC721-transferFrom}."
      },
      "transferOwnership(address)": {
        "details": "Transfers ownership of the contract to a new account (`newOwner`). Can only be called by the current owner."
      },
      "userExpires(uint256)": {
        "details": "The zero value indicates that there is no user",
        "params": {
          "tokenId": "The NFT to get the user expires for"
        },
        "returns": {
          "_0": "The user expires for this NFT"
        }
      },
      "userOf(uint256)": {
        "details": "The zero address indicates that there is no user or the user is expired",
        "params": {
          "tokenId": "The NFT to get the user address for"
        },
        "returns": {
          "_0": "The user address for this NFT"
        }
      }
    },
    "version": 1
  },
  "userdoc": {
    "events": {
      "UpdateUser(uint256,address,uint96)": {
        "notice": "Emitted when the `user` of an NFT or the `expires` of the `user` is changed The zero address for user indicates that there is no user address"
      }
    },
    "kind": "user",
    "methods": {
      "setUser(uint256,address,uint96)": {
        "notice": "set the user and expires of an NFT"
      },
      "userExpires(uint256)": {
        "notice": "Get the user expires of an NFT"
      },
      "userOf(uint256)": {
        "notice": "Get the user address of an NFT"
      }
    },
    "version": 1
  }
}