{
  "_format": "hh-sol-artifact-1",
  "contractName": "PNFT",
  "sourceName": "contracts/standards/PNFT.sol",
  "abi": [
    {
      "inputs": [
        {
          "internalType": "string",
          "name": "name",
          "type": "string"
        },
        {
          "internalType": "string",
          "name": "symbol",
          "type": "string"
        },
        {
          "internalType": "address",
          "name": "owner",
          "type": "address"
        }
      ],
      "stateMutability": "nonpayable",
      "type": "constructor"
    },
    {
      "anonymous": false,
      "inputs": [
        {
          "indexed": true,
          "internalType": "address",
          "name": "owner",
          "type": "address"
        },
        {
          "indexed": true,
          "internalType": "address",
          "name": "approved",
          "type": "address"
        },
        {
          "indexed": true,
          "internalType": "uint256",
          "name": "tokenId",
          "type": "uint256"
        }
      ],
      "name": "Approval",
      "type": "event"
    },
    {
      "anonymous": false,
      "inputs": [
        {
          "indexed": true,
          "internalType": "address",
          "name": "owner",
          "type": "address"
        },
        {
          "indexed": true,
          "internalType": "address",
          "name": "operator",
          "type": "address"
        },
        {
          "indexed": false,
          "internalType": "bool",
          "name": "approved",
          "type": "bool"
        }
      ],
      "name": "ApprovalForAll",
      "type": "event"
    },
    {
      "anonymous": false,
      "inputs": [
        {
          "indexed": true,
          "internalType": "address",
          "name": "previousOwner",
          "type": "address"
        },
        {
          "indexed": true,
          "internalType": "address",
          "name": "newOwner",
          "type": "address"
        }
      ],
      "name": "OwnershipTransferred",
      "type": "event"
    },
    {
      "anonymous": false,
      "inputs": [
        {
          "indexed": true,
          "internalType": "address",
          "name": "from",
          "type": "address"
        },
        {
          "indexed": true,
          "internalType": "address",
          "name": "to",
          "type": "address"
        },
        {
          "indexed": true,
          "internalType": "uint256",
          "name": "tokenId",
          "type": "uint256"
        }
      ],
      "name": "Transfer",
      "type": "event"
    },
    {
      "anonymous": false,
      "inputs": [
        {
          "indexed": true,
          "internalType": "uint256",
          "name": "tokenId",
          "type": "uint256"
        },
        {
          "indexed": true,
          "internalType": "address",
          "name": "user",
          "type": "address"
        },
        {
          "indexed": false,
          "internalType": "uint96",
          "name": "expires",
          "type": "uint96"
        }
      ],
      "name": "UpdateUser",
      "type": "event"
    },
    {
      "inputs": [
        {
          "internalType": "address",
          "name": "to",
          "type": "address"
        },
        {
          "internalType": "uint256",
          "name": "tokenId",
          "type": "uint256"
        }
      ],
      "name": "approve",
      "outputs": [],
      "stateMutability": "nonpayable",
      "type": "function"
    },
    {
      "inputs": [
        {
          "internalType": "address",
          "name": "owner",
          "type": "address"
        }
      ],
      "name": "balanceOf",
      "outputs": [
        {
          "internalType": "uint256",
          "name": "",
          "type": "uint256"
        }
      ],
      "stateMutability": "view",
      "type": "function"
    },
    {
      "inputs": [
        {
          "internalType": "uint256",
          "name": "tokenId",
          "type": "uint256"
        }
      ],
      "name": "burn",
      "outputs": [],
      "stateMutability": "nonpayable",
      "type": "function"
    },
    {
      "inputs": [
        {
          "internalType": "uint256",
          "name": "tokenId",
          "type": "uint256"
        }
      ],
      "name": "getApproved",
      "outputs": [
        {
          "internalType": "address",
          "name": "",
          "type": "address"
        }
      ],
      "stateMutability": "view",
      "type": "function"
    },
    {
      "inputs": [
        {
          "internalType": "address",
          "name": "owner",
          "type": "address"
        },
        {
          "internalType": "address",
          "name": "operator",
          "type": "address"
        }
      ],
      "name": "isApprovedForAll",
      "outputs": [
        {
          "internalType": "bool",
          "name": "",
          "type": "bool"
        }
      ],
      "stateMutability": "view",
      "type": "function"
    },
    {
      "inputs": [],
      "name": "name",
      "outputs": [
        {
          "internalType": "string",
          "name": "",
          "type": "string"
        }
      ],
      "stateMutability": "view",
      "type": "function"
    },
    {
      "inputs": [],
      "name": "owner",
      "outputs": [
        {
          "internalType": "address",
          "name": "",
          "type": "address"
        }
      ],
      "stateMutability": "view",
      "type": "function"
    },
    {
      "inputs": [
        {
          "internalType": "uint256",
          "name": "tokenId",
          "type": "uint256"
        }
      ],
      "name": "ownerOf",
      "outputs": [
        {
          "internalType": "address",
          "name": "",
          "type": "address"
        }
      ],
      "stateMutability": "view",
      "type": "function"
    },
    {
      "inputs": [],
      "name": "renounceOwnership",
      "outputs": [],
      "stateMutability": "nonpayable",
      "type": "function"
    },
    {
      "inputs": [
        {
          "internalType": "uint256",
          "name": "_tokenId",
          "type": "uint256"
        },
        {
          "internalType": "uint256",
          "name": "_salePrice",
          "type": "uint256"
        }
      ],
      "name": "royaltyInfo",
      "outputs": [
        {
          "internalType": "address",
          "name": "",
          "type": "address"
        },
        {
          "internalType": "uint256",
          "name": "",
          "type": "uint256"
        }
      ],
      "stateMutability": "view",
      "type": "function"
    },
    {
      "inputs": [
        {
          "internalType": "address",
          "name": "to",
          "type": "address"
        },
        {
          "internalType": "string",
          "name": "uri",
          "type": "string"
        },
        {
          "internalType": "uint96",
          "name": "royaltyFeeNumerator",
          "type": "uint96"
        }
      ],
      "name": "safeMint",
      "outputs": [],
      "stateMutability": "nonpayable",
      "type": "function"
    },
    {
      "inputs": [
        {
          "internalType": "address",
          "name": "from",
          "type": "address"
        },
        {
          "internalType": "address",
          "name": "to",
          "type": "address"
        },
        {
          "internalType": "uint256",
          "name": "tokenId",
          "type": "uint256"
        }
      ],
      "name": "safeTransferFrom",
      "outputs": [],
      "stateMutability": "nonpayable",
      "type": "function"
    },
    {
      "inputs": [
        {
          "internalType": "address",
          "name": "from",
          "type": "address"
        },
        {
          "internalType": "address",
          "name": "to",
          "type": "address"
        },
        {
          "internalType": "uint256",
          "name": "tokenId",
          "type": "uint256"
        },
        {
          "internalType": "bytes",
          "name": "_data",
          "type": "bytes"
        }
      ],
      "name": "safeTransferFrom",
      "outputs": [],
      "stateMutability": "nonpayable",
      "type": "function"
    },
    {
      "inputs": [
        {
          "internalType": "address",
          "name": "operator",
          "type": "address"
        },
        {
          "internalType": "bool",
          "name": "approved",
          "type": "bool"
        }
      ],
      "name": "setApprovalForAll",
      "outputs": [],
      "stateMutability": "nonpayable",
      "type": "function"
    },
    {
      "inputs": [
        {
          "internalType": "uint256",
          "name": "tokenId",
          "type": "uint256"
        },
        {
          "internalType": "address",
          "name": "user",
          "type": "address"
        },
        {
          "internalType": "uint96",
          "name": "expires",
          "type": "uint96"
        }
      ],
      "name": "setUser",
      "outputs": [],
      "stateMutability": "nonpayable",
      "type": "function"
    },
    {
      "inputs": [
        {
          "internalType": "bytes4",
          "name": "interfaceId",
          "type": "bytes4"
        }
      ],
      "name": "supportsInterface",
      "outputs": [
        {
          "internalType": "bool",
          "name": "",
          "type": "bool"
        }
      ],
      "stateMutability": "view",
      "type": "function"
    },
    {
      "inputs": [],
      "name": "symbol",
      "outputs": [
        {
          "internalType": "string",
          "name": "",
          "type": "string"
        }
      ],
      "stateMutability": "view",
      "type": "function"
    },
    {
      "inputs": [
        {
          "internalType": "uint256",
          "name": "index",
          "type": "uint256"
        }
      ],
      "name": "tokenByIndex",
      "outputs": [
        {
          "internalType": "uint256",
          "name": "",
          "type": "uint256"
        }
      ],
      "stateMutability": "view",
      "type": "function"
    },
    {
      "inputs": [
        {
          "internalType": "address",
          "name": "owner",
          "type": "address"
        },
        {
          "internalType": "uint256",
          "name": "index",
          "type": "uint256"
        }
      ],
      "name": "tokenOfOwnerByIndex",
      "outputs": [
        {
          "internalType": "uint256",
          "name": "",
          "type": "uint256"
        }
      ],
      "stateMutability": "view",
      "type": "function"
    },
    {
      "inputs": [
        {
          "internalType": "uint256",
          "name": "tokenId",
          "type": "uint256"
        }
      ],
      "name": "tokenURI",
      "outputs": [
        {
          "internalType": "string",
          "name": "",
          "type": "string"
        }
      ],
      "stateMutability": "view",
      "type": "function"
    },
    {
      "inputs": [],
      "name": "totalSupply",
      "outputs": [
        {
          "internalType": "uint256",
          "name": "",
          "type": "uint256"
        }
      ],
      "stateMutability": "view",
      "type": "function"
    },
    {
      "inputs": [
        {
          "internalType": "address",
          "name": "from",
          "type": "address"
        },
        {
          "internalType": "address",
          "name": "to",
          "type": "address"
        },
        {
          "internalType": "uint256",
          "name": "tokenId",
          "type": "uint256"
        }
      ],
      "name": "transferFrom",
      "outputs": [],
      "stateMutability": "nonpayable",
      "type": "function"
    },
    {
      "inputs": [
        {
          "internalType": "address",
          "name": "newOwner",
          "type": "address"
        }
      ],
      "name": "transferOwnership",
      "outputs": [],
      "stateMutability": "nonpayable",
      "type": "function"
    },
    {
      "inputs": [
        {
          "internalType": "uint256",
          "name": "tokenId",
          "type": "uint256"
        }
      ],
      "name": "userExpires",
      "outputs": [
        {
          "internalType": "uint96",
          "name": "",
          "type": "uint96"
        }
      ],
      "stateMutability": "view",
      "type": "function"
    },
    {
      "inputs": [
        {
          "internalType": "uint256",
          "name": "tokenId",
          "type": "uint256"
        }
      ],
      "name": "userOf",
      "outputs": [
        {
          "internalType": "address",
          "name": "",
          "type": "address"
        }
      ],
      "stateMutability": "view",
      "type": "function"
    }
  ],
  "bytecode": "0x60806040523480156200001157600080fd5b5060405162002a1f38038062002a1f83398101604081905262000034916200019f565b82826002620000448382620002bb565b506003620000538282620002bb565b505050620000706200006a6200008460201b60201c565b62000088565b6200007b8162000088565b50505062000387565b3390565b600d80546001600160a01b038381166001600160a01b0319831681179093556040519116919082907f8be0079c531659141344cd1fd0a4f28419497f9722a3daafe3b4186f6b6457e090600090a35050565b634e487b7160e01b600052604160045260246000fd5b600082601f8301126200010257600080fd5b81516001600160401b03808211156200011f576200011f620000da565b604051601f8301601f19908116603f011681019082821181831017156200014a576200014a620000da565b816040528381526020925086838588010111156200016757600080fd5b600091505b838210156200018b57858201830151818301840152908201906200016c565b600093810190920192909252949350505050565b600080600060608486031215620001b557600080fd5b83516001600160401b0380821115620001cd57600080fd5b620001db87838801620000f0565b94506020860151915080821115620001f257600080fd5b506200020186828701620000f0565b604086015190935090506001600160a01b03811681146200022157600080fd5b809150509250925092565b600181811c908216806200024157607f821691505b6020821081036200026257634e487b7160e01b600052602260045260246000fd5b50919050565b601f821115620002b657600081815260208120601f850160051c81016020861015620002915750805b601f850160051c820191505b81811015620002b2578281556001016200029d565b5050505b505050565b81516001600160401b03811115620002d757620002d7620000da565b620002ef81620002e884546200022c565b8462000268565b602080601f8311600181146200032757600084156200030e5750858301515b600019600386901b1c1916600185901b178555620002b2565b600085815260208120601f198616915b82811015620003585788860151825594840194600190910190840162000337565b5085821015620003775787850151600019600388901b60f8161c191681555b5050505050600190811b01905550565b61268880620003976000396000f3fe608060405234801561001057600080fd5b50600436106101a35760003560e01c80636352211e116100ee578063a22cb46511610097578063c87b56dd11610071578063c87b56dd146103a3578063e985e9c5146103b6578063eaf05b16146103f2578063f2fde38b1461040557600080fd5b8063a22cb4651461036a578063b88d4fde1461037d578063c2f1f14a1461039057600080fd5b80638da5cb5b116100c85780638da5cb5b146103095780638fc88c481461031a57806395d89b411461036257600080fd5b80636352211e146102db57806370a08231146102ee578063715018a61461030157600080fd5b806323b872dd1161015057806342842e0e1161012a57806342842e0e146102a257806342966c68146102b55780634f6ccce7146102c857600080fd5b806323b872dd1461024a5780632a55205a1461025d5780632f745c591461028f57600080fd5b8063095ea7b311610181578063095ea7b31461021057806318160ddd146102255780631b2a61b71461023757600080fd5b806301ffc9a7146101a857806306fdde03146101d0578063081812fc146101e5575b600080fd5b6101bb6101b6366004612026565b610418565b60405190151581526020015b60405180910390f35b6101d8610443565b6040516101c79190612093565b6101f86101f33660046120a6565b6104d5565b6040516001600160a01b0390911681526020016101c7565b61022361021e3660046120d6565b61056f565b005b600a545b6040519081526020016101c7565b6102236102453660046121a3565b610684565b610223610258366004612215565b61071e565b61027061026b366004612251565b61079a565b604080516001600160a01b0390931683526020830191909152016101c7565b61022961029d3660046120d6565b610846565b6102236102b0366004612215565b6108dc565b6102236102c33660046120a6565b6108f7565b6102296102d63660046120a6565b61097e565b6101f86102e93660046120a6565b610a11565b6102296102fc366004612273565b610a88565b610223610b0f565b600d546001600160a01b03166101f8565b61034a6103283660046120a6565b6000908152600f6020526040902054600160a01b90046001600160601b031690565b6040516001600160601b0390911681526020016101c7565b6101d8610b75565b61022361037836600461228e565b610b84565b61022361038b3660046122ca565b610b93565b6101f861039e3660046120a6565b610c0f565b6101d86103b13660046120a6565b610c5f565b6101bb6103c4366004612346565b6001600160a01b03918216600090815260076020908152604080832093909416825291909152205460ff1690565b610223610400366004612379565b610c6a565b610223610413366004612273565b610d53565b60006001600160e01b031982166329f2498560e21b148061043d575061043d82610e1b565b92915050565b606060028054610452906123ac565b80601f016020809104026020016040519081016040528092919081815260200182805461047e906123ac565b80156104cb5780601f106104a0576101008083540402835291602001916104cb565b820191906000526020600020905b8154815290600101906020018083116104ae57829003601f168201915b5050505050905090565b6000818152600460205260408120546001600160a01b03166105535760405162461bcd60e51b815260206004820152602c60248201527f4552433732313a20617070726f76656420717565727920666f72206e6f6e657860448201526b34b9ba32b73a103a37b5b2b760a11b60648201526084015b60405180910390fd5b506000908152600660205260409020546001600160a01b031690565b600061057a82610a11565b9050806001600160a01b0316836001600160a01b0316036105e75760405162461bcd60e51b815260206004820152602160248201527f4552433732313a20617070726f76616c20746f2063757272656e74206f776e656044820152603960f91b606482015260840161054a565b336001600160a01b0382161480610603575061060381336103c4565b6106755760405162461bcd60e51b815260206004820152603860248201527f4552433732313a20617070726f76652063616c6c6572206973206e6f74206f7760448201527f6e6572206e6f7220617070726f76656420666f7220616c6c0000000000000000606482015260840161054a565b61067f8383610e26565b505050565b600d546001600160a01b031633146106de5760405162461bcd60e51b815260206004820181905260248201527f4f776e61626c653a2063616c6c6572206973206e6f7420746865206f776e6572604482015260640161054a565b60006106e9600e5490565b90506106f9600e80546001019055565b6107038482610e94565b61070d8184610eae565b610718818584610f50565b50505050565b610729335b8261105e565b61078f5760405162461bcd60e51b815260206004820152603160248201527f4552433732313a207472616e736665722063616c6c6572206973206e6f74206f6044820152701ddb995c881b9bdc88185c1c1c9bdd9959607a1b606482015260840161054a565b61067f838383611155565b60008281526001602090815260408083208151808301909252546001600160a01b038116808352600160a01b9091046001600160601b031692820192909252829161080f5750604080518082019091526000546001600160a01b0381168252600160a01b90046001600160601b031660208201525b60208101516000906107d09061082e906001600160601b0316876123fc565b6108389190612429565b915196919550909350505050565b600061085183610a88565b82106108b35760405162461bcd60e51b815260206004820152602b60248201527f455243373231456e756d657261626c653a206f776e657220696e646578206f7560448201526a74206f6620626f756e647360a81b606482015260840161054a565b506001600160a01b03919091166000908152600860209081526040808320938352929052205490565b61067f83838360405180602001604052806000815250610b93565b61090033610723565b6109725760405162461bcd60e51b815260206004820152603060248201527f4552433732314275726e61626c653a2063616c6c6572206973206e6f74206f7760448201527f6e6572206e6f7220617070726f76656400000000000000000000000000000000606482015260840161054a565b61097b816112fc565b50565b6000610989600a5490565b82106109ec5760405162461bcd60e51b815260206004820152602c60248201527f455243373231456e756d657261626c653a20676c6f62616c20696e646578206f60448201526b7574206f6620626f756e647360a01b606482015260840161054a565b600a82815481106109ff576109ff61243d565b90600052602060002001549050919050565b6000818152600460205260408120546001600160a01b03168061043d5760405162461bcd60e51b815260206004820152602960248201527f4552433732313a206f776e657220717565727920666f72206e6f6e657869737460448201526832b73a103a37b5b2b760b91b606482015260840161054a565b60006001600160a01b038216610af35760405162461bcd60e51b815260206004820152602a60248201527f4552433732313a2062616c616e636520717565727920666f7220746865207a65604482015269726f206164647265737360b01b606482015260840161054a565b506001600160a01b031660009081526005602052604090205490565b600d546001600160a01b03163314610b695760405162461bcd60e51b815260206004820181905260248201527f4f776e61626c653a2063616c6c6572206973206e6f7420746865206f776e6572604482015260640161054a565b610b736000611305565b565b606060038054610452906123ac565b610b8f338383611357565b5050565b610b9d338361105e565b610c035760405162461bcd60e51b815260206004820152603160248201527f4552433732313a207472616e736665722063616c6c6572206973206e6f74206f6044820152701ddb995c881b9bdc88185c1c1c9bdd9959607a1b606482015260840161054a565b61071884848484611426565b6000818152600f602052604081205442600160a01b9091046001600160601b031610610c5157506000908152600f60205260409020546001600160a01b031690565b61043d82610a11565b919050565b606061043d826114a4565b610c74338461105e565b610ce65760405162461bcd60e51b815260206004820152603260248201527f455243343930373a207472616e736665722063616c6c6572206973206e6f742060448201527f6f776e6572206e6f7220617070726f7665640000000000000000000000000000606482015260840161054a565b6000838152600f60209081526040918290206001600160601b038416600160a01b81026001600160a01b0387169081178355935190815290929186917ff3eadda1a229156f3f0f663b8e3b1f2409cb8d447391afe7a1221b52401529ae910160405180910390a350505050565b600d546001600160a01b03163314610dad5760405162461bcd60e51b815260206004820181905260248201527f4f776e61626c653a2063616c6c6572206973206e6f7420746865206f776e6572604482015260640161054a565b6001600160a01b038116610e125760405162461bcd60e51b815260206004820152602660248201527f4f776e61626c653a206e6577206f776e657220697320746865207a65726f206160448201526564647265737360d01b606482015260840161054a565b61097b81611305565b600061043d8261162e565b600081815260066020526040902080546001600160a01b0319166001600160a01b0384169081179091558190610e5b82610a11565b6001600160a01b03167f8c5be1e5ebec7d5bd14f71427d1e84f3dd0314c0f7b2291e5b200ac8c7c3b92560405160405180910390a45050565b610b8f828260405180602001604052806000815250611653565b6000828152600460205260409020546001600160a01b0316610f385760405162461bcd60e51b815260206004820152602e60248201527f45524337323155524953746f726167653a2055524920736574206f66206e6f6e60448201527f6578697374656e7420746f6b656e000000000000000000000000000000000000606482015260840161054a565b6000828152600c6020526040902061067f82826124a1565b6107d06001600160601b0382161115610fbe5760405162461bcd60e51b815260206004820152602a60248201527f455243323938313a20726f79616c7479206665652077696c6c206578636565646044820152692073616c65507269636560b01b606482015260840161054a565b6001600160a01b0382166110145760405162461bcd60e51b815260206004820152601b60248201527f455243323938313a20496e76616c696420706172616d65746572730000000000604482015260640161054a565b6040805180820182526001600160a01b0393841681526001600160601b0392831660208083019182526000968752600190529190942093519051909116600160a01b029116179055565b6000818152600460205260408120546001600160a01b03166110d75760405162461bcd60e51b815260206004820152602c60248201527f4552433732313a206f70657261746f7220717565727920666f72206e6f6e657860448201526b34b9ba32b73a103a37b5b2b760a11b606482015260840161054a565b60006110e283610a11565b9050806001600160a01b0316846001600160a01b0316148061112957506001600160a01b0380821660009081526007602090815260408083209388168352929052205460ff165b8061114d5750836001600160a01b0316611142846104d5565b6001600160a01b0316145b949350505050565b826001600160a01b031661116882610a11565b6001600160a01b0316146111cc5760405162461bcd60e51b815260206004820152602560248201527f4552433732313a207472616e736665722066726f6d20696e636f72726563742060448201526437bbb732b960d91b606482015260840161054a565b6001600160a01b03821661122e5760405162461bcd60e51b8152602060048201526024808201527f4552433732313a207472616e7366657220746f20746865207a65726f206164646044820152637265737360e01b606482015260840161054a565b6112398383836116d1565b611244600082610e26565b6001600160a01b038316600090815260056020526040812080546001929061126d908490612561565b90915550506001600160a01b038216600090815260056020526040812080546001929061129b908490612574565b909155505060008181526004602052604080822080546001600160a01b0319166001600160a01b0386811691821790925591518493918716917fddf252ad1be2c89b69c2b068fc378daa952ba7f163c4a11628f55a4df523b3ef91a4505050565b61097b8161175b565b600d80546001600160a01b038381166001600160a01b0319831681179093556040519116919082907f8be0079c531659141344cd1fd0a4f28419497f9722a3daafe3b4186f6b6457e090600090a35050565b816001600160a01b0316836001600160a01b0316036113b85760405162461bcd60e51b815260206004820152601960248201527f4552433732313a20617070726f766520746f2063616c6c657200000000000000604482015260640161054a565b6001600160a01b03838116600081815260076020908152604080832094871680845294825291829020805460ff191686151590811790915591519182527f17307eab39ab6107e8899845ad3d59bd9653f200f220920489ca2b5937696c3191015b60405180910390a3505050565b611431848484611155565b61143d84848484611775565b6107185760405162461bcd60e51b815260206004820152603260248201527f4552433732313a207472616e7366657220746f206e6f6e20455243373231526560448201527131b2b4bb32b91034b6b83632b6b2b73a32b960711b606482015260840161054a565b6000818152600460205260409020546060906001600160a01b03166115315760405162461bcd60e51b815260206004820152603160248201527f45524337323155524953746f726167653a2055524920717565727920666f722060448201527f6e6f6e6578697374656e7420746f6b656e000000000000000000000000000000606482015260840161054a565b6000828152600c60205260408120805461154a906123ac565b80601f0160208091040260200160405190810160405280929190818152602001828054611576906123ac565b80156115c35780601f10611598576101008083540402835291602001916115c3565b820191906000526020600020905b8154815290600101906020018083116115a657829003601f168201915b5050505050905060006115e160408051602081019091526000815290565b905080516000036115f3575092915050565b81511561162557808260405160200161160d929190612587565b60405160208183030381529060405292505050919050565b61114d846118c1565b60006001600160e01b0319821663780e9d6360e01b148061043d575061043d826119b7565b61165d83836119f7565b61166a6000848484611775565b61067f5760405162461bcd60e51b815260206004820152603260248201527f4552433732313a207472616e7366657220746f206e6f6e20455243373231526560448201527131b2b4bb32b91034b6b83632b6b2b73a32b960711b606482015260840161054a565b6116dc838383611b45565b816001600160a01b0316836001600160a01b03161415801561171457506000818152600f60205260409020546001600160a01b031615155b1561067f576000818152600f602090815260408083208390555182815283917ff3eadda1a229156f3f0f663b8e3b1f2409cb8d447391afe7a1221b52401529ae9101611419565b61176481611bfd565b600090815260016020526040812055565b60006001600160a01b0384163b156118b657604051630a85bd0160e11b81526001600160a01b0385169063150b7a02906117b99033908990889088906004016125b6565b6020604051808303816000875af19250505080156117f4575060408051601f3d908101601f191682019092526117f1918101906125f2565b60015b61189c573d808015611822576040519150601f19603f3d011682016040523d82523d6000602084013e611827565b606091505b5080516000036118945760405162461bcd60e51b815260206004820152603260248201527f4552433732313a207472616e7366657220746f206e6f6e20455243373231526560448201527131b2b4bb32b91034b6b83632b6b2b73a32b960711b606482015260840161054a565b805181602001fd5b6001600160e01b031916630a85bd0160e11b14905061114d565b506001949350505050565b6000818152600460205260409020546060906001600160a01b031661194e5760405162461bcd60e51b815260206004820152602f60248201527f4552433732314d657461646174613a2055524920717565727920666f72206e6f60448201527f6e6578697374656e7420746f6b656e0000000000000000000000000000000000606482015260840161054a565b600061196560408051602081019091526000815290565b9050600081511161198557604051806020016040528060008152506119b0565b8061198f84611c3d565b6040516020016119a0929190612587565b6040516020818303038152906040525b9392505050565b60006001600160e01b031982166380ac58cd60e01b14806119e857506001600160e01b03198216635b5e139f60e01b145b8061043d575061043d82611d56565b6001600160a01b038216611a4d5760405162461bcd60e51b815260206004820181905260248201527f4552433732313a206d696e7420746f20746865207a65726f2061646472657373604482015260640161054a565b6000818152600460205260409020546001600160a01b031615611ab25760405162461bcd60e51b815260206004820152601c60248201527f4552433732313a20746f6b656e20616c7265616479206d696e74656400000000604482015260640161054a565b611abe600083836116d1565b6001600160a01b0382166000908152600560205260408120805460019290611ae7908490612574565b909155505060008181526004602052604080822080546001600160a01b0319166001600160a01b03861690811790915590518392907fddf252ad1be2c89b69c2b068fc378daa952ba7f163c4a11628f55a4df523b3ef908290a45050565b6001600160a01b038316611ba057611b9b81600a80546000838152600b60205260408120829055600182018355919091527fc65a7bb8d6351c1cf70c95a316cc6a92839c986682d98bc35f958f4883f9d2a80155565b611bc3565b816001600160a01b0316836001600160a01b031614611bc357611bc38382611d8b565b6001600160a01b038216611bda5761067f81611e28565b826001600160a01b0316826001600160a01b03161461067f5761067f8282611ed7565b611c0681611f1b565b6000818152600c602052604090208054611c1f906123ac565b15905061097b576000818152600c6020526040812061097b91611fc2565b606081600003611c645750506040805180820190915260018152600360fc1b602082015290565b8160005b8115611c8e5780611c788161260f565b9150611c879050600a83612429565b9150611c68565b60008167ffffffffffffffff811115611ca957611ca9612100565b6040519080825280601f01601f191660200182016040528015611cd3576020820181803683370190505b5090505b841561114d57611ce8600183612561565b9150611cf5600a86612628565b611d00906030612574565b60f81b818381518110611d1557611d1561243d565b60200101907effffffffffffffffffffffffffffffffffffffffffffffffffffffffffffff1916908160001a905350611d4f600a86612429565b9450611cd7565b60006001600160e01b0319821663152a902d60e11b148061043d57506301ffc9a760e01b6001600160e01b031983161461043d565b60006001611d9884610a88565b611da29190612561565b600083815260096020526040902054909150808214611df5576001600160a01b03841660009081526008602090815260408083208584528252808320548484528184208190558352600990915290208190555b5060009182526009602090815260408084208490556001600160a01b039094168352600881528383209183525290812055565b600a54600090611e3a90600190612561565b6000838152600b6020526040812054600a8054939450909284908110611e6257611e6261243d565b9060005260206000200154905080600a8381548110611e8357611e8361243d565b6000918252602080832090910192909255828152600b9091526040808220849055858252812055600a805480611ebb57611ebb61263c565b6001900381819060005260206000200160009055905550505050565b6000611ee283610a88565b6001600160a01b039093166000908152600860209081526040808320868452825280832085905593825260099052919091209190915550565b6000611f2682610a11565b9050611f34816000846116d1565b611f3f600083610e26565b6001600160a01b0381166000908152600560205260408120805460019290611f68908490612561565b909155505060008281526004602052604080822080546001600160a01b0319169055518391906001600160a01b038416907fddf252ad1be2c89b69c2b068fc378daa952ba7f163c4a11628f55a4df523b3ef908390a45050565b508054611fce906123ac565b6000825580601f10611fde575050565b601f01602090049060005260206000209081019061097b91905b8082111561200c5760008155600101611ff8565b5090565b6001600160e01b03198116811461097b57600080fd5b60006020828403121561203857600080fd5b81356119b081612010565b60005b8381101561205e578181015183820152602001612046565b50506000910152565b6000815180845261207f816020860160208601612043565b601f01601f19169290920160200192915050565b6020815260006119b06020830184612067565b6000602082840312156120b857600080fd5b5035919050565b80356001600160a01b0381168114610c5a57600080fd5b600080604083850312156120e957600080fd5b6120f2836120bf565b946020939093013593505050565b634e487b7160e01b600052604160045260246000fd5b600067ffffffffffffffff8084111561213157612131612100565b604051601f8501601f19908116603f0116810190828211818310171561215957612159612100565b8160405280935085815286868601111561217257600080fd5b858560208301376000602087830101525050509392505050565b80356001600160601b0381168114610c5a57600080fd5b6000806000606084860312156121b857600080fd5b6121c1846120bf565b9250602084013567ffffffffffffffff8111156121dd57600080fd5b8401601f810186136121ee57600080fd5b6121fd86823560208401612116565b92505061220c6040850161218c565b90509250925092565b60008060006060848603121561222a57600080fd5b612233846120bf565b9250612241602085016120bf565b9150604084013590509250925092565b6000806040838503121561226457600080fd5b50508035926020909101359150565b60006020828403121561228557600080fd5b6119b0826120bf565b600080604083850312156122a157600080fd5b6122aa836120bf565b9150602083013580151581146122bf57600080fd5b809150509250929050565b600080600080608085870312156122e057600080fd5b6122e9856120bf565b93506122f7602086016120bf565b925060408501359150606085013567ffffffffffffffff81111561231a57600080fd5b8501601f8101871361232b57600080fd5b61233a87823560208401612116565b91505092959194509250565b6000806040838503121561235957600080fd5b612362836120bf565b9150612370602084016120bf565b90509250929050565b60008060006060848603121561238e57600080fd5b8335925061239e602085016120bf565b915061220c6040850161218c565b600181811c908216806123c057607f821691505b6020821081036123e057634e487b7160e01b600052602260045260246000fd5b50919050565b634e487b7160e01b600052601160045260246000fd5b808202811582820484141761043d5761043d6123e6565b634e487b7160e01b600052601260045260246000fd5b60008261243857612438612413565b500490565b634e487b7160e01b600052603260045260246000fd5b601f82111561067f57600081815260208120601f850160051c8101602086101561247a5750805b601f850160051c820191505b8181101561249957828155600101612486565b505050505050565b815167ffffffffffffffff8111156124bb576124bb612100565b6124cf816124c984546123ac565b84612453565b602080601f83116001811461250457600084156124ec5750858301515b600019600386901b1c1916600185901b178555612499565b600085815260208120601f198616915b8281101561253357888601518255948401946001909101908401612514565b50858210156125515787850151600019600388901b60f8161c191681555b5050505050600190811b01905550565b8181038181111561043d5761043d6123e6565b8082018082111561043d5761043d6123e6565b60008351612599818460208801612043565b8351908301906125ad818360208801612043565b01949350505050565b60006001600160a01b038087168352808616602084015250836040830152608060608301526125e86080830184612067565b9695505050505050565b60006020828403121561260457600080fd5b81516119b081612010565b600060018201612621576126216123e6565b5060010190565b60008261263757612637612413565b500690565b634e487b7160e01b600052603160045260246000fdfea26469706673582212202a6a3846dfcbc7a095d5aaad2e2c286c331ea987ff49073f52a3a5956344686364736f6c63430008110033",
  "linkReferences": {},
  "deployedLinkReferences": {}
}