{
  "_format": "hh-sol-artifact-1",
  "contractName": "Rental",
  "sourceName": "contracts/Rental.sol",
  "abi": [
    {
      "inputs": [
        {
          "internalType": "uint256",
          "name": "fee",
          "type": "uint256"
        },
        {
          "internalType": "address",
          "name": "hub",
          "type": "address"
        }
      ],
      "stateMutability": "nonpayable",
      "type": "constructor"
    },
    {
      "anonymous": false,
      "inputs": [
        {
          "indexed": true,
          "internalType": "address",
          "name": "previousOwner",
          "type": "address"
        },
        {
          "indexed": true,
          "internalType": "address",
          "name": "newOwner",
          "type": "address"
        }
      ],
      "name": "OwnershipTransferred",
      "type": "event"
    },
    {
      "inputs": [],
      "name": "DENOMINATOR",
      "outputs": [
        {
          "internalType": "uint256",
          "name": "",
          "type": "uint256"
        }
      ],
      "stateMutability": "view",
      "type": "function"
    },
    {
      "inputs": [],
      "name": "ERC2981INTERFACE",
      "outputs": [
        {
          "internalType": "bytes4",
          "name": "",
          "type": "bytes4"
        }
      ],
      "stateMutability": "view",
      "type": "function"
    },
    {
      "inputs": [],
      "name": "ERC721INTERFACE",
      "outputs": [
        {
          "internalType": "bytes4",
          "name": "",
          "type": "bytes4"
        }
      ],
      "stateMutability": "view",
      "type": "function"
    },
    {
      "inputs": [],
      "name": "RATE_FEE",
      "outputs": [
        {
          "internalType": "uint256",
          "name": "",
          "type": "uint256"
        }
      ],
      "stateMutability": "view",
      "type": "function"
    },
    {
      "inputs": [
        {
          "internalType": "address",
          "name": "tokenAddr",
          "type": "address"
        }
      ],
      "name": "addAcceptToken",
      "outputs": [],
      "stateMutability": "nonpayable",
      "type": "function"
    },
    {
      "inputs": [
        {
          "internalType": "address",
          "name": "whitelistAddress",
          "type": "address"
        },
        {
          "internalType": "uint256",
          "name": "fee",
          "type": "uint256"
        }
      ],
      "name": "addWhitelistAddress",
      "outputs": [],
      "stateMutability": "nonpayable",
      "type": "function"
    },
    {
      "inputs": [
        {
          "internalType": "uint256",
          "name": "itemId",
          "type": "uint256"
        }
      ],
      "name": "cancel",
      "outputs": [],
      "stateMutability": "payable",
      "type": "function"
    },
    {
      "inputs": [
        {
          "internalType": "uint256",
          "name": "itemId",
          "type": "uint256"
        },
        {
          "internalType": "address",
          "name": "ftContract",
          "type": "address"
        },
        {
          "internalType": "uint256",
          "name": "releaseFrequency",
          "type": "uint256"
        },
        {
          "internalType": "uint256",
          "name": "cycleTime",
          "type": "uint256"
        },
        {
          "internalType": "uint256",
          "name": "cycleEnded",
          "type": "uint256"
        }
      ],
      "name": "edit",
      "outputs": [],
      "stateMutability": "nonpayable",
      "type": "function"
    },
    {
      "inputs": [
        {
          "internalType": "address",
          "name": "walletAddress",
          "type": "address"
        },
        {
          "internalType": "address",
          "name": "tokenAddress",
          "type": "address"
        }
      ],
      "name": "feeOf",
      "outputs": [
        {
          "internalType": "uint256",
          "name": "",
          "type": "uint256"
        }
      ],
      "stateMutability": "view",
      "type": "function"
    },
    {
      "inputs": [],
      "name": "getAcceptTokens",
      "outputs": [
        {
          "internalType": "address[]",
          "name": "",
          "type": "address[]"
        }
      ],
      "stateMutability": "view",
      "type": "function"
    },
    {
      "inputs": [
        {
          "internalType": "uint256",
          "name": "itemId",
          "type": "uint256"
        }
      ],
      "name": "getCovenant",
      "outputs": [
        {
          "components": [
            {
              "internalType": "uint256",
              "name": "itemId",
              "type": "uint256"
            },
            {
              "internalType": "address",
              "name": "nftContract",
              "type": "address"
            },
            {
              "internalType": "uint256",
              "name": "tokenId",
              "type": "uint256"
            },
            {
              "internalType": "address",
              "name": "ftContract",
              "type": "address"
            },
            {
              "internalType": "uint256",
              "name": "releaseFrequency",
              "type": "uint256"
            },
            {
              "internalType": "uint256",
              "name": "cycleTime",
              "type": "uint256"
            },
            {
              "internalType": "uint256",
              "name": "cycleEnded",
              "type": "uint256"
            },
            {
              "internalType": "enum Rental.CovenantStatus",
              "name": "status",
              "type": "uint8"
            },
            {
              "internalType": "address",
              "name": "lender",
              "type": "address"
            }
          ],
          "internalType": "struct Rental.Covenant",
          "name": "",
          "type": "tuple"
        },
        {
          "components": [
            {
              "internalType": "address",
              "name": "borrower",
              "type": "address"
            },
            {
              "internalType": "uint256",
              "name": "startTime",
              "type": "uint256"
            },
            {
              "internalType": "uint256",
              "name": "duration",
              "type": "uint256"
            },
            {
              "internalType": "uint256",
              "name": "withdrawRound",
              "type": "uint256"
            }
          ],
          "internalType": "struct Rental.CovenantProfile",
          "name": "",
          "type": "tuple"
        }
      ],
      "stateMutability": "view",
      "type": "function"
    },
    {
      "inputs": [],
      "name": "getCovenants",
      "outputs": [
        {
          "components": [
            {
              "internalType": "uint256",
              "name": "itemId",
              "type": "uint256"
            },
            {
              "internalType": "address",
              "name": "nftContract",
              "type": "address"
            },
            {
              "internalType": "uint256",
              "name": "tokenId",
              "type": "uint256"
            },
            {
              "internalType": "address",
              "name": "ftContract",
              "type": "address"
            },
            {
              "internalType": "uint256",
              "name": "releaseFrequency",
              "type": "uint256"
            },
            {
              "internalType": "uint256",
              "name": "cycleTime",
              "type": "uint256"
            },
            {
              "internalType": "uint256",
              "name": "cycleEnded",
              "type": "uint256"
            },
            {
              "internalType": "enum Rental.CovenantStatus",
              "name": "status",
              "type": "uint8"
            },
            {
              "internalType": "address",
              "name": "lender",
              "type": "address"
            }
          ],
          "internalType": "struct Rental.Covenant[]",
          "name": "",
          "type": "tuple[]"
        }
      ],
      "stateMutability": "view",
      "type": "function"
    },
    {
      "inputs": [
        {
          "internalType": "address",
          "name": "addr",
          "type": "address"
        }
      ],
      "name": "getCovenantsByAddress",
      "outputs": [
        {
          "components": [
            {
              "internalType": "uint256",
              "name": "itemId",
              "type": "uint256"
            },
            {
              "internalType": "address",
              "name": "nftContract",
              "type": "address"
            },
            {
              "internalType": "uint256",
              "name": "tokenId",
              "type": "uint256"
            },
            {
              "internalType": "address",
              "name": "ftContract",
              "type": "address"
            },
            {
              "internalType": "uint256",
              "name": "releaseFrequency",
              "type": "uint256"
            },
            {
              "internalType": "uint256",
              "name": "cycleTime",
              "type": "uint256"
            },
            {
              "internalType": "uint256",
              "name": "cycleEnded",
              "type": "uint256"
            },
            {
              "internalType": "enum Rental.CovenantStatus",
              "name": "status",
              "type": "uint8"
            },
            {
              "internalType": "address",
              "name": "lender",
              "type": "address"
            }
          ],
          "internalType": "struct Rental.Covenant[]",
          "name": "",
          "type": "tuple[]"
        }
      ],
      "stateMutability": "view",
      "type": "function"
    },
    {
      "inputs": [],
      "name": "getRateFee",
      "outputs": [
        {
          "internalType": "uint256",
          "name": "",
          "type": "uint256"
        }
      ],
      "stateMutability": "view",
      "type": "function"
    },
    {
      "inputs": [
        {
          "internalType": "address",
          "name": "contractAddress",
          "type": "address"
        },
        {
          "internalType": "uint256",
          "name": "tokenId",
          "type": "uint256"
        }
      ],
      "name": "getRentalData",
      "outputs": [
        {
          "components": [
            {
              "internalType": "uint256",
              "name": "itemId",
              "type": "uint256"
            },
            {
              "internalType": "address",
              "name": "nftContract",
              "type": "address"
            },
            {
              "internalType": "uint256",
              "name": "tokenId",
              "type": "uint256"
            },
            {
              "internalType": "address",
              "name": "ftContract",
              "type": "address"
            },
            {
              "internalType": "uint256",
              "name": "releaseFrequency",
              "type": "uint256"
            },
            {
              "internalType": "uint256",
              "name": "cycleTime",
              "type": "uint256"
            },
            {
              "internalType": "uint256",
              "name": "cycleEnded",
              "type": "uint256"
            },
            {
              "internalType": "enum Rental.CovenantStatus",
              "name": "status",
              "type": "uint8"
            },
            {
              "internalType": "address",
              "name": "lender",
              "type": "address"
            }
          ],
          "internalType": "struct Rental.Covenant",
          "name": "",
          "type": "tuple"
        }
      ],
      "stateMutability": "view",
      "type": "function"
    },
    {
      "inputs": [
        {
          "internalType": "address",
          "name": "tokenAddress",
          "type": "address"
        }
      ],
      "name": "getTokenFee",
      "outputs": [
        {
          "internalType": "uint256",
          "name": "",
          "type": "uint256"
        }
      ],
      "stateMutability": "view",
      "type": "function"
    },
    {
      "inputs": [],
      "name": "getWhitelist",
      "outputs": [
        {
          "components": [
            {
              "internalType": "address",
              "name": "addr",
              "type": "address"
            },
            {
              "internalType": "uint256",
              "name": "fee",
              "type": "uint256"
            }
          ],
          "internalType": "struct IHubChild.WhitelistVars[]",
          "name": "",
          "type": "tuple[]"
        }
      ],
      "stateMutability": "view",
      "type": "function"
    },
    {
      "inputs": [],
      "name": "hubAddr",
      "outputs": [
        {
          "internalType": "address",
          "name": "",
          "type": "address"
        }
      ],
      "stateMutability": "view",
      "type": "function"
    },
    {
      "inputs": [
        {
          "internalType": "address",
          "name": "nftContract",
          "type": "address"
        },
        {
          "internalType": "uint256",
          "name": "tokenId",
          "type": "uint256"
        },
        {
          "internalType": "address",
          "name": "ftContract",
          "type": "address"
        },
        {
          "internalType": "uint256",
          "name": "releaseFrequency",
          "type": "uint256"
        },
        {
          "internalType": "uint256",
          "name": "cycleTime",
          "type": "uint256"
        },
        {
          "internalType": "uint256",
          "name": "cycleEnded",
          "type": "uint256"
        }
      ],
      "name": "list",
      "outputs": [],
      "stateMutability": "nonpayable",
      "type": "function"
    },
    {
      "inputs": [],
      "name": "owner",
      "outputs": [
        {
          "internalType": "address",
          "name": "",
          "type": "address"
        }
      ],
      "stateMutability": "view",
      "type": "function"
    },
    {
      "inputs": [
        {
          "internalType": "uint256",
          "name": "itemId",
          "type": "uint256"
        }
      ],
      "name": "redeem",
      "outputs": [],
      "stateMutability": "nonpayable",
      "type": "function"
    },
    {
      "inputs": [
        {
          "internalType": "uint256",
          "name": "itemId",
          "type": "uint256"
        },
        {
          "internalType": "address",
          "name": "ftContract",
          "type": "address"
        },
        {
          "internalType": "uint256",
          "name": "releaseFrequency",
          "type": "uint256"
        },
        {
          "internalType": "uint256",
          "name": "cycleTime",
          "type": "uint256"
        },
        {
          "internalType": "uint256",
          "name": "cycleEnded",
          "type": "uint256"
        }
      ],
      "name": "relist",
      "outputs": [],
      "stateMutability": "nonpayable",
      "type": "function"
    },
    {
      "inputs": [
        {
          "internalType": "address",
          "name": "tokenAddr",
          "type": "address"
        }
      ],
      "name": "removeToken",
      "outputs": [],
      "stateMutability": "nonpayable",
      "type": "function"
    },
    {
      "inputs": [
        {
          "internalType": "address",
          "name": "whitelistAddress",
          "type": "address"
        }
      ],
      "name": "removeWhitelistAddress",
      "outputs": [],
      "stateMutability": "nonpayable",
      "type": "function"
    },
    {
      "inputs": [],
      "name": "renounceOwnership",
      "outputs": [],
      "stateMutability": "nonpayable",
      "type": "function"
    },
    {
      "inputs": [
        {
          "internalType": "uint256",
          "name": "itemId",
          "type": "uint256"
        },
        {
          "internalType": "uint256",
          "name": "amount",
          "type": "uint256"
        }
      ],
      "name": "rent",
      "outputs": [],
      "stateMutability": "payable",
      "type": "function"
    },
    {
      "inputs": [
        {
          "internalType": "address",
          "name": "hub",
          "type": "address"
        }
      ],
      "name": "setHub",
      "outputs": [],
      "stateMutability": "nonpayable",
      "type": "function"
    },
    {
      "inputs": [
        {
          "internalType": "uint256",
          "name": "rateFee",
          "type": "uint256"
        }
      ],
      "name": "setRateFee",
      "outputs": [],
      "stateMutability": "nonpayable",
      "type": "function"
    },
    {
      "inputs": [
        {
          "internalType": "uint256",
          "name": "itemId",
          "type": "uint256"
        }
      ],
      "name": "stop",
      "outputs": [],
      "stateMutability": "payable",
      "type": "function"
    },
    {
      "inputs": [
        {
          "internalType": "uint256",
          "name": "itemId",
          "type": "uint256"
        },
        {
          "internalType": "uint256",
          "name": "amount",
          "type": "uint256"
        }
      ],
      "name": "topup",
      "outputs": [],
      "stateMutability": "payable",
      "type": "function"
    },
    {
      "inputs": [
        {
          "internalType": "address",
          "name": "newOwner",
          "type": "address"
        }
      ],
      "name": "transferOwnership",
      "outputs": [],
      "stateMutability": "nonpayable",
      "type": "function"
    },
    {
      "inputs": [
        {
          "internalType": "uint256",
          "name": "itemId",
          "type": "uint256"
        }
      ],
      "name": "unlist",
      "outputs": [],
      "stateMutability": "nonpayable",
      "type": "function"
    },
    {
      "inputs": [
        {
          "internalType": "uint256",
          "name": "itemId",
          "type": "uint256"
        }
      ],
      "name": "withdraw",
      "outputs": [],
      "stateMutability": "payable",
      "type": "function"
    }
  ],
  "bytecode": "0x60806040523480156200001157600080fd5b5060405162003fc538038062003fc583398101604081905262000034916200012c565b6200003f336200005b565b6001805560078290556200005381620000ab565b50506200016b565b600080546001600160a01b038381166001600160a01b0319831681178455604051919092169283917f8be0079c531659141344cd1fd0a4f28419497f9722a3daafe3b4186f6b6457e09190a35050565b6000546001600160a01b031633146200010a5760405162461bcd60e51b815260206004820181905260248201527f4f776e61626c653a2063616c6c6572206973206e6f7420746865206f776e6572604482015260640160405180910390fd5b600880546001600160a01b0319166001600160a01b0392909216919091179055565b600080604083850312156200014057600080fd5b825160208401519092506001600160a01b03811681146200016057600080fd5b809150509250929050565b613e4a806200017b6000396000f3fe6080604052600436106101ee5760003560e01c8063715018a61161010d578063b1c005fa116100a0578063d9042f851161006f578063d9042f851461055a578063db006a751461057a578063debd22721461059a578063f2fde38b146105ba578063ffd62f7b146105da57600080fd5b8063b1c005fa146104ca578063b7ecbaae146104f8578063bf5a4dd314610518578063d01f63f51461053857600080fd5b80638da5cb5b116100dc5780638da5cb5b14610461578063918f86741461047f57806393e4626e14610495578063a89eccfd146104aa57600080fd5b8063715018a614610402578063783a112b146104175780638563e10e1461042a57806386c3b08a1461044c57600080fd5b806340e58ee5116101855780635a24a0b5116101545780635a24a0b51461038f5780635fa7b584146103af5780636299f8cf146103cf5780636eeaa63c146103e257600080fd5b806340e58ee51461030e57806349095a2114610321578063502a676c146103595780635254aca91461036f57600080fd5b80631879c750116101c15780631879c75014610292578063252154fa146102ad5780632e1a7d4d146102db57806331962cdc146102ee57600080fd5b8063042ca242146101f357806307cb1a6e146102295780630f15e9be1461025d578063184ff47f1461027f575b600080fd5b3480156101ff57600080fd5b5061021361020e36600461395e565b610607565b6040516102209190613a22565b60405180910390f35b34801561023557600080fd5b506102446380ac58cd60e01b81565b6040516001600160e01b03199091168152602001610220565b34801561026957600080fd5b5061027d610278366004613a71565b610848565b005b61027d61028d366004613a8a565b6108fe565b34801561029e57600080fd5b5061024463152a902d60e11b81565b3480156102b957600080fd5b506102cd6102c836600461395e565b610c22565b604051908152602001610220565b61027d6102e9366004613a71565b610c35565b3480156102fa57600080fd5b5061027d61030936600461395e565b610cf2565b61027d61031c366004613a71565b610d6e565b34801561032d57600080fd5b50600854610341906001600160a01b031681565b6040516001600160a01b039091168152602001610220565b34801561036557600080fd5b506102cd60075481565b34801561037b57600080fd5b5061027d61038a366004613aac565b611281565b34801561039b57600080fd5b5061027d6103aa366004613ad8565b6112e3565b3480156103bb57600080fd5b5061027d6103ca36600461395e565b611553565b61027d6103dd366004613a71565b6115b3565b3480156103ee57600080fd5b5061027d6103fd366004613b20565b611791565b34801561040e57600080fd5b5061027d611ad1565b61027d610425366004613a8a565b611b37565b34801561043657600080fd5b5061043f611fa1565b6040516102209190613b7c565b34801561045857600080fd5b506007546102cd565b34801561046d57600080fd5b506000546001600160a01b0316610341565b34801561048b57600080fd5b506102cd61271081565b3480156104a157600080fd5b50610213612051565b3480156104b657600080fd5b506102cd6104c5366004613bbd565b6121c7565b3480156104d657600080fd5b506104ea6104e5366004613a71565b6121da565b604051610220929190613bf6565b34801561050457600080fd5b5061027d61051336600461395e565b61231b565b34801561052457600080fd5b5061027d610533366004613a71565b612377565b34801561054457600080fd5b5061054d612636565b6040516102209190613c3e565b34801561056657600080fd5b5061027d610575366004613ad8565b612716565b34801561058657600080fd5b5061027d610595366004613a71565b612986565b3480156105a657600080fd5b5061027d6105b536600461395e565b612c23565b3480156105c657600080fd5b5061027d6105d536600461395e565b612c7f565b3480156105e657600080fd5b506105fa6105f5366004613aac565b612d4a565b6040516102209190613c96565b6060600061061460095490565b90506000805b82811015610690576000818152600b60205260409020546001600160a01b038681169116148061066b57506000818152600a60205260409020600701546001600160a01b0386811661010090920416145b1561067e578161067a81613cbb565b9250505b8061068881613cbb565b91505061061a565b5060008267ffffffffffffffff8111156106ac576106ac613cd4565b6040519080825280602002602001820160405280156106e557816020015b6106d26138da565b8152602001906001900390816106ca5790505b5090506000805b8381101561083d576000818152600b60205260409020546001600160a01b038881169116148061073d57506000818152600a60205260409020600701546001600160a01b0388811661010090920416145b1561082b576000818152600a60209081526040918290208251610120810184528154815260018201546001600160a01b0390811693820193909352600282015493810193909352600381015490911660608301526004808201546080840152600582015460a0840152600682015460c0840152600782015460e084019160ff909116908111156107cf576107cf61397b565b60048111156107e0576107e061397b565b81526007919091015461010090046001600160a01b0316602090910152835184908490811061081157610811613cea565b6020026020010181905250818061082790613cbb565b9250505b8061083581613cbb565b9150506106ec565b509095945050505050565b6008546001600160a01b0316331461089e5760405162461bcd60e51b8152602060048201526014602482015273135d5cdd081899481a1d588818dbdb9d1c9858dd60621b60448201526064015b60405180910390fd5b61271081106108f95760405162461bcd60e51b815260206004820152602160248201527f466565206e756d657261746f72206d757374206c657373207468616e203130306044820152602560f81b6064820152608401610895565b600755565b6000828152600b602052604090205482906001600160a01b0316331461095f5760405162461bcd60e51b815260206004820152601660248201527529b2b73232b91034b9903737ba103137b93937bbb2b960511b6044820152606401610895565b60026001540361099f5760405162461bcd60e51b815260206004820152601f6024820152600080516020613df58339815191526044820152606401610895565b600260018190556000848152600a602052604090206007015460ff1660048111156109cc576109cc61397b565b14610a195760405162461bcd60e51b815260206004820181905260248201527f52656e74616c20636f76656e616e74206d7573742062652072656e74696e672e6044820152606401610895565b6000838152600a602052604081206004810154909190610a399085613d00565b90506000826004015482610a4d9190613d22565b90506000610a5b8287613d39565b60038501549091506001600160a01b0316610ae657853414610abf5760405162461bcd60e51b815260206004820152601760248201527f52656e74616c20616d6f756e74206e6f742065786163740000000000000000006044820152606401610895565b8015610ae1576003840154610ae190309033906001600160a01b031684612e91565b610b02565b6003840154610b0290339030906001600160a01b031685612e91565b6000878152600b6020526040902060020154610b1e9084613d4c565b600180860154600287015460008b8152600b602052604090209092015460058801549396506001600160a01b039091169263eaf05b1692913391610b629089613d22565b610b6c9190613d4c565b6040516001600160e01b031960e086901b16815260048101939093526001600160a01b0390911660248301526bffffffffffffffffffffffff166044820152606401600060405180830381600087803b158015610bc857600080fd5b505af1158015610bdc573d6000803e3d6000fd5b505050506007939093018054600260ff1990911681179091556000968752600b602052604090962080546001600160a01b03191633178155909501555050600180555050565b6000610c2f600483612fe1565b92915050565b6000818152600a6020526040902060070154819061010090046001600160a01b03163314610c9c5760405162461bcd60e51b815260206004820152601460248201527329b2b73232b91034b9903737ba103632b73232b960611b6044820152606401610895565b600260015403610cdc5760405162461bcd60e51b815260206004820152601f6024820152600080516020613df58339815191526044820152606401610895565b6002600155610cea82612ff6565b505060018055565b6000546001600160a01b03163314610d4c5760405162461bcd60e51b815260206004820181905260248201527f4f776e61626c653a2063616c6c6572206973206e6f7420746865206f776e65726044820152606401610895565b600880546001600160a01b0319166001600160a01b0392909216919091179055565b6000818152600b602052604090205481906001600160a01b03163314610dcf5760405162461bcd60e51b815260206004820152601660248201527529b2b73232b91034b9903737ba103137b93937bbb2b960511b6044820152606401610895565b600260015403610e0f5760405162461bcd60e51b815260206004820152601f6024820152600080516020613df58339815191526044820152606401610895565b600260019081556000838152600a6020908152604080832060050154600b909252822090920154429290610e439084613d39565b610e4d9190613d00565b905080610e5981613cbb565b9150600290506000858152600a602052604090206007015460ff166004811115610e8557610e8561397b565b1480610eb6575060036000858152600a602052604090206007015460ff166004811115610eb457610eb461397b565b145b8015610ed257506000848152600b602052604090206002015481105b610f1e5760405162461bcd60e51b815260206004820181905260248201527f52656e74616c20636f76656e616e74206d7573742062652072656e74696e672e6044820152606401610895565b6000848152600a60209081526040808320600b909252822060020154909190610f48908490613d39565b8260040154610f579190613d22565b6000878152600b60205260409020546003840154919250610f879130916001600160a01b03908116911684612e91565b6000838360040154610f999190613d22565b60078401546003850154919250600091610fc4916001600160a01b036101009091048116911661335d565b9050612710610fd38284613d22565b610fdd9190613d00565b6001850154909150610fff906001600160a01b031663152a902d60e11b6133c7565b15611148576001840154600285015460405163152a902d60e11b815260009283926001600160a01b0390911691632a55205a91611049918890600401918252602082015260400190565b6040805180830381865afa158015611065573d6000803e3d6000fd5b505050506040513d601f19601f820116820180604052508101906110899190613d5f565b600788015491935091506001600160a01b0380841661010090920416148015906110b35750600081115b156111155760038601546110d490309084906001600160a01b031684612e91565b600786015460038701546111109130916001600160a01b036101009092048216911684611101888a613d39565b61110b9190613d39565b612e91565b611141565b600786015460038701546111419130916001600160a01b036101009092048216911661110b8789613d39565b5050611174565b600784015460038501546111749130916001600160a01b036101009092048216911661110b8587613d39565b6111a23061118a6000546001600160a01b031690565b60038701546001600160a01b031661110b8587613d39565b600180850154600286015460008b8152600b602052604090209092015460058701546001600160a01b039092169263eaf05b1692909133916111e4908b613d22565b6111ee9190613d4c565b6040516001600160e01b031960e086901b16815260048101939093526001600160a01b0390911660248301526bffffffffffffffffffffffff166044820152606401600060405180830381600087803b15801561124a57600080fd5b505af115801561125e573d6000803e3d6000fd5b50505060009889525050600b602052505060409094206002015550506001805550565b6008546001600160a01b031633146112d25760405162461bcd60e51b8152602060048201526014602482015273135d5cdd081899481a1d588818dbdb9d1c9858dd60621b6044820152606401610895565b6112de600483836133e3565b505050565b6000858152600a6020526040902060070154859061010090046001600160a01b0316331461134a5760405162461bcd60e51b815260206004820152601460248201527329b2b73232b91034b9903737ba103632b73232b960611b6044820152606401610895565b8560016000828152600a602052604090206007015460ff1660048111156113735761137361397b565b1415806113f557506000818152600a6020908152604080832060050154600b9092529091206002015442916113a791613d22565b6000838152600b60205260409020600101546113c39190613d4c565b1180156113f5575060026000828152600a602052604090206007015460ff1660048111156113f3576113f361397b565b145b6114355760405162461bcd60e51b8152602060048201526011602482015270139bdd081d1a5b5948199bdc881c995b9d607a1b6044820152606401610895565b6002600154036114755760405162461bcd60e51b815260206004820152601f6024820152600080516020613df58339815191526044820152606401610895565b600260018190556000888152600a60209081526040808320600380820180546001600160a01b0319166001600160a01b038e16179055600482018b9055600582018a905560068201899055600b9093529220908101549201549091146114de576114de88612ff6565b50506040805160808101825260008082526020808301828152838501838152606085018481529b8452600b90925293909120915182546001600160a01b0319166001600160a01b0390911617825591516001808301919091559151600282015596516003909701969096555050509180555050565b6008546001600160a01b031633146115a45760405162461bcd60e51b8152602060048201526014602482015273135d5cdd081899481a1d588818dbdb9d1c9858dd60621b6044820152606401610895565b6115af600282613401565b5050565b6000818152600a6020526040902060070154819061010090046001600160a01b0316331461161a5760405162461bcd60e51b815260206004820152601460248201527329b2b73232b91034b9903737ba103632b73232b960611b6044820152606401610895565b60026001540361165a5760405162461bcd60e51b815260206004820152601f6024820152600080516020613df58339815191526044820152606401610895565b600260019081556000838152600a6020908152604080832060050154600b90925282209092015442929061168e9084613d39565b6116989190613d00565b6000858152600a60205260409020600601549091506116b79082613d4c565b6000858152600b602052604090206002015490915081106116e9576000848152600b60205260409020600201546116eb565b805b6000858152600a60209081526040808320600b90925282206002015492935091611716908490613d39565b6000878152600a60205260409020600401546117329190613d22565b90508015611767576000868152600b602052604090205460038301546117679130916001600160a01b03918216911684612e91565b506000948552600b6020526040909420600201555050600701805460ff1916600317905560018055565b6002600154036117d15760405162461bcd60e51b815260206004820152601f6024820152600080516020613df58339815191526044820152606401610895565b600260015582158015906117e55750600082115b61183f5760405162461bcd60e51b815260206004820152602560248201527f52656c65617365206672657175656e6379206d75737420677265617465722074604482015264068616e20360dc1b6064820152608401610895565b611850866380ac58cd60e01b6133c7565b61189c5760405162461bcd60e51b815260206004820152601b60248201527f436f6e7472616374206e6565647320746f2062652045524337323100000000006044820152606401610895565b6040516323b872dd60e01b8152336004820152306024820152604481018690526001600160a01b038716906323b872dd90606401600060405180830381600087803b1580156118ea57600080fd5b505af11580156118fe573d6000803e3d6000fd5b50505050611910600980546001019055565b600061191b60095490565b9050604051806101200160405280828152602001886001600160a01b03168152602001878152602001866001600160a01b03168152602001858152602001848152602001838152602001600160048111156119785761197861397b565b8152336020918201526000838152600a82526040908190208351815591830151600180840180546001600160a01b039384166001600160a01b0319918216179091559285015160028501556060850151600385018054919093169316929092179055608083015160048084019190915560a0840151600584015560c0840151600684015560e08401516007840180549193909260ff19909216918490811115611a2357611a2361397b565b021790555061010091820151600791909101805474ffffffffffffffffffffffffffffffffffffffff0019166001600160a01b0392831690930292909217909155604080516080810182526000808252602080830182815283850183815260608501848152978452600b90925293909120915182546001600160a01b031916941693909317815590516001828101919091559151600282015591516003909201919091558055505050505050565b6000546001600160a01b03163314611b2b5760405162461bcd60e51b815260206004820181905260248201527f4f776e61626c653a2063616c6c6572206973206e6f7420746865206f776e65726044820152606401610895565b611b356000613416565b565b600260015403611b775760405162461bcd60e51b815260206004820152601f6024820152600080516020613df58339815191526044820152606401610895565b60026001556000828152600a6020526040902060070154336101009091046001600160a01b031603611beb5760405162461bcd60e51b815260206004820152601960248201527f53656e646572206d757374206265206e6f74206c656e646572000000000000006044820152606401610895565b60026000838152600a602052604090206007015460ff166004811115611c1357611c1361397b565b1480611c44575060016000838152600a602052604090206007015460ff166004811115611c4257611c4261397b565b145b611c905760405162461bcd60e51b815260206004820152601260248201527f4e6f7420616363657074656420737461746500000000000000000000000000006044820152606401610895565b6000828152600a602052604081206004810154909190611cb09084613d00565b90506000826004015482611cc49190613d22565b90506000611cd28286613d39565b90504260026000888152600a602052604090206007015460ff166004811115611cfd57611cfd61397b565b03611e02576000878152600a6020908152604080832060050154600b909252909120600201544291611d2e91613d22565b6000898152600b6020526040902060010154611d4a9190613d4c565b11611d975760405162461bcd60e51b815260206004820152601d60248201527f52656e74616c20636f76656e616e74206d75737420626520656e6465640000006044820152606401610895565b6000878152600b60205260409020600381015460029091015414611e025760058501546000888152600b6020526040902060020154611dd69190613d22565b611de09082613d39565b6000888152600b6020526040902060020154909150611dff9085613d4c565b93505b60038501546001600160a01b0316611e8a57853414611e635760405162461bcd60e51b815260206004820152601760248201527f52656e74616c20616d6f756e74206e6f742065786163740000000000000000006044820152606401610895565b8115611e85576003850154611e8590309033906001600160a01b031685612e91565b611ea6565b6003850154611ea690339030906001600160a01b031686612e91565b6001850154600286015460058701546001600160a01b039092169163eaf05b16919033908590611ed6908a613d22565b611ee09190613d4c565b6040516001600160e01b031960e086901b16815260048101939093526001600160a01b0390911660248301526bffffffffffffffffffffffff166044820152606401600060405180830381600087803b158015611f3c57600080fd5b505af1158015611f50573d6000803e3d6000fd5b5050506007860180546002925060ff191660018302179055506000968752600b602052604090962080546001600160a01b031916331781556001808201979097556002019290925550505090805550565b60606000611faf6002613466565b905060008167ffffffffffffffff811115611fcc57611fcc613cd4565b604051908082528060200260200182016040528015611ff5578160200160208202803683370190505b50905060005b8281101561204a5761200e600282613470565b82828151811061202057612020613cea565b6001600160a01b03909216602092830291909101909101528061204281613cbb565b915050611ffb565b5092915050565b6060600061205e60095490565b905060008167ffffffffffffffff81111561207b5761207b613cd4565b6040519080825280602002602001820160405280156120b457816020015b6120a16138da565b8152602001906001900390816120995790505b5090506000805b838110156121be576000818152600a60209081526040918290208251610120810184528154815260018201546001600160a01b0390811693820193909352600282015493810193909352600381015490911660608301526004808201546080840152600582015460a0840152600682015460c0840152600782015460e084019160ff909116908111156121505761215061397b565b60048111156121615761216161397b565b81526007919091015461010090046001600160a01b0316602090910152835184908490811061219257612192613cea565b602002602001018190525081806121a890613cbb565b92505080806121b690613cbb565b9150506120bb565b50909392505050565b60006121d3838361335d565b9392505050565b6121e26138da565b612216604051806080016040528060006001600160a01b031681526020016000815260200160008152602001600081525090565b6000838152600a602090815260408083208151610120810183528154815260018201546001600160a01b0390811694820194909452600282015492810192909252600381015490921660608201526004808301546080830152600583015460a0830152600683015460c0830152600783015491929160e084019160ff909116908111156122a5576122a561397b565b60048111156122b6576122b661397b565b8152600791909101546001600160a01b0361010090910481166020928301526000968752600b82526040968790208751608081018952815490921682526001810154928201929092526002820154968101969096526003015460608601529492505050565b6008546001600160a01b0316331461236c5760405162461bcd60e51b8152602060048201526014602482015273135d5cdd081899481a1d588818dbdb9d1c9858dd60621b6044820152606401610895565b6115af60048261347c565b6000818152600a6020526040902060070154819061010090046001600160a01b031633146123de5760405162461bcd60e51b815260206004820152601460248201527329b2b73232b91034b9903737ba103632b73232b960611b6044820152606401610895565b8160016000828152600a602052604090206007015460ff1660048111156124075761240761397b565b14158061248957506000818152600a6020908152604080832060050154600b90925290912060020154429161243b91613d22565b6000838152600b60205260409020600101546124579190613d4c565b118015612489575060026000828152600a602052604090206007015460ff1660048111156124875761248761397b565b145b6124c95760405162461bcd60e51b8152602060048201526011602482015270139bdd081d1a5b5948199bdc881c995b9d607a1b6044820152606401610895565b6002600154036125095760405162461bcd60e51b815260206004820152601f6024820152600080516020613df58339815191526044820152606401610895565b600260018181556000858152600a602052604090819020918201549282015490516323b872dd60e01b8152306004820152336024820152604481019190915290916001600160a01b0316906323b872dd90606401600060405180830381600087803b15801561257757600080fd5b505af115801561258b573d6000803e3d6000fd5b5050506000858152600b6020526040902060038101546002909101541490506125b7576125b784612ff6565b604080516080810182526000808252602080830182815283850183815260608501848152998452600b90925293909120915182546001600160a01b039091166001600160a01b03199091161782559151600180830191909155915160028201559451600390950194909455600701805460ff1916600417905550508055565b606060006126446004613491565b905060008167ffffffffffffffff81111561266157612661613cd4565b6040519080825280602002602001820160405280156126a657816020015b604080518082019091526000808252602082015281526020019060019003908161267f5790505b50905060005b8281101561204a576000806126c260048461349c565b915091506040518060400160405280836001600160a01b03168152602001828152508484815181106126f6576126f6613cea565b60200260200101819052505050808061270e90613cbb565b9150506126ac565b6002600154036127565760405162461bcd60e51b815260206004820152601f6024820152600080516020613df58339815191526044820152606401610895565b600260015560046000868152600a602052604090206007015460ff1660048111156127835761278361397b565b146127d05760405162461bcd60e51b815260206004820152601d60248201527f436f76656e616e74206d75737420756e6c6973746564206265666f72650000006044820152606401610895565b6000831180156127e05750600082115b61283a5760405162461bcd60e51b815260206004820152602560248201527f52656c65617365206672657175656e6379206d75737420677265617465722074604482015264068616e20360dc1b6064820152608401610895565b6000858152600a602052604090819020600181015460029091015491516323b872dd60e01b815233600482015230602482015260448101929092526001600160a01b0316906323b872dd90606401600060405180830381600087803b1580156128a257600080fd5b505af11580156128b6573d6000803e3d6000fd5b5050506000868152600a60209081526040808320600380820180546001600160a01b039b8c166001600160a01b03199182161790915560048301999099556005820197909755600681019590955560079094018054610100330274ffffffffffffffffffffffffffffffffffffffffff199091161760019081179091558451608081018652838152808301848152818701858152606083018681529b8652600b90945295909320925183549816979096169690961781559151828501555092516002840155925191909201558055565b6000818152600a6020526040902060070154819061010090046001600160a01b031633146129ed5760405162461bcd60e51b815260206004820152601460248201527329b2b73232b91034b9903737ba103632b73232b960611b6044820152606401610895565b600260015403612a2d5760405162461bcd60e51b815260206004820152601f6024820152600080516020613df58339815191526044820152606401610895565b600260018190556000838152600a6020908152604080832060050154600b909252909120909101544291612a6091613d22565b6000848152600b6020526040902060010154612a7c9190613d4c565b108015612aae575060036000838152600a602052604090206007015460ff166004811115612aac57612aac61397b565b145b612afa5760405162461bcd60e51b815260206004820152601760248201527f436f76656e616e74206d7573742062652072656465656d0000000000000000006044820152606401610895565b6000828152600a6020526040908190206001810154600282015492516323b872dd60e01b8152306004820152336024820152604481019390935290916001600160a01b03909116906323b872dd90606401600060405180830381600087803b158015612b6557600080fd5b505af1158015612b79573d6000803e3d6000fd5b5050506000848152600b602052604090206003810154600290910154149050612ba557612ba583612ff6565b604080516080810182526000808252602080830182815283850183815260608501848152988452600b90925293909120915182546001600160a01b039091166001600160a01b03199091161782559151600180830191909155915160028201559351600390940193909355600701805460ff19166004179055508055565b6008546001600160a01b03163314612c745760405162461bcd60e51b8152602060048201526014602482015273135d5cdd081899481a1d588818dbdb9d1c9858dd60621b6044820152606401610895565b6115af6002826134ba565b6000546001600160a01b03163314612cd95760405162461bcd60e51b815260206004820181905260248201527f4f776e61626c653a2063616c6c6572206973206e6f7420746865206f776e65726044820152606401610895565b6001600160a01b038116612d3e5760405162461bcd60e51b815260206004820152602660248201527f4f776e61626c653a206e6577206f776e657220697320746865207a65726f206160448201526564647265737360d01b6064820152608401610895565b612d4781613416565b50565b612d526138da565b612d5a6138da565b6000612d6560095490565b905060005b81811015612e87576000818152600a60205260409020600101546001600160a01b038781169116148015612dae57506000818152600a602052604090206002015485145b15612e75576000818152600a60209081526040918290208251610120810184528154815260018201546001600160a01b0390811693820193909352600282015493810193909352600381015490911660608301526004808201546080840152600582015460a0840152600682015460c0840152600782015460e084019160ff90911690811115612e4057612e4061397b565b6004811115612e5157612e5161397b565b81526007919091015461010090046001600160a01b03166020909101529250612e87565b80612e7f81613cbb565b915050612d6a565b5090949350505050565b6001600160a01b038216612edb576040516001600160a01b0384169082156108fc029083906000818181858888f19350505050158015612ed5573d6000803e3d6000fd5b50612fdb565b6001600160a01b0384163014612f66576040516323b872dd60e01b81526001600160a01b0385811660048301528481166024830152604482018390528316906323b872dd906064016020604051808303816000875af1158015612f42573d6000803e3d6000fd5b505050506040513d601f19601f82011682018060405250810190612ed59190613d8d565b60405163a9059cbb60e01b81526001600160a01b0384811660048301526024820183905283169063a9059cbb906044016020604051808303816000875af1158015612fb5573d6000803e3d6000fd5b505050506040513d601f19601f82011682018060405250810190612fd99190613d8d565b505b50505050565b60006121d3836001600160a01b0384166134cf565b6002600154036130365760405162461bcd60e51b815260206004820152601f6024820152600080516020613df58339815191526044820152606401610895565b600260019081556000828152600a6020908152604080832060050154600b90925282209092015442929061306a9084613d39565b6130749190613d00565b6000848152600b602052604090206002015490915081106130a6576000838152600b60205260409020600201546130a8565b805b6000848152600b6020526040902060030154909150811161310b5760405162461bcd60e51b815260206004820152601a60248201527f596f7520776974686472617720616c6c20617661696c61626c650000000000006044820152606401610895565b6000838152600a60209081526040808320600b9092528220600301549091906131349084613d39565b82600401546131439190613d22565b6007830154600384015491925060009161316e916001600160a01b036101009091048116911661335d565b905061271061317d8284613d22565b6131879190613d00565b60018401549091506131a9906001600160a01b031663152a902d60e11b6133c7565b156132e3576001830154600284015460405163152a902d60e11b815260009283926001600160a01b0390911691632a55205a916131f3918890600401918252602082015260400190565b6040805180830381865afa15801561320f573d6000803e3d6000fd5b505050506040513d601f19601f820116820180604052508101906132339190613d5f565b600787015491935091506001600160a01b03808416610100909204161480159061325d5750600081115b156132b057600385015461327e90309084906001600160a01b031684612e91565b600785015460038601546132ab9130916001600160a01b036101009092048216911684611101888a613d39565b6132dc565b600785015460038601546132dc9130916001600160a01b036101009092048216911661110b8789613d39565b505061330f565b6007830154600384015461330f9130916001600160a01b036101009092048216911661110b8587613d39565b61333d306133256000546001600160a01b031690565b60038601546001600160a01b031661110b8587613d39565b5050506000928352600b6020526040909220600301919091555060018055565b604080518082019091526000808252602082018190529061337f60048561353f565b6020830152158015825261339857602001519050610c2f565b6133a360048461353f565b602083015215801582526133bc57602001519050610c2f565b505060075492915050565b60006133d283613557565b80156121d357506121d3838361358a565b60006133f9846001600160a01b03851684613688565b949350505050565b60006121d3836001600160a01b0384166136a5565b600080546001600160a01b038381166001600160a01b0319831681178455604051919092169283917f8be0079c531659141344cd1fd0a4f28419497f9722a3daafe3b4186f6b6457e09190a35050565b6000610c2f825490565b60006121d38383613798565b60006121d3836001600160a01b0384166137c2565b6000610c2f826137df565b60008080806134ab86866137ea565b909450925050505b9250929050565b60006121d3836001600160a01b038416613815565b6000818152600283016020526040812054801515806134f357506134f38484613864565b6121d35760405162461bcd60e51b815260206004820152601e60248201527f456e756d657261626c654d61703a206e6f6e6578697374656e74206b657900006044820152606401610895565b60008080806134ab866001600160a01b038716613870565b600061356a826301ffc9a760e01b61358a565b8015610c2f5750613583826001600160e01b031961358a565b1592915050565b604080516001600160e01b0319831660248083019190915282518083039091018152604490910182526020810180517bffffffffffffffffffffffffffffffffffffffffffffffffffffffff166301ffc9a760e01b179052905160009190829081906001600160a01b0387169061753090613606908690613daf565b6000604051808303818686fa925050503d8060008114613642576040519150601f19603f3d011682016040523d82523d6000602084013e613647565b606091505b50915091506020815110156136625760009350505050610c2f565b81801561367e57508080602001905181019061367e9190613d8d565b9695505050505050565b600082815260028401602052604081208290556133f984846138aa565b6000818152600183016020526040812054801561378e5760006136c9600183613d39565b85549091506000906136dd90600190613d39565b90508181146137425760008660000182815481106136fd576136fd613cea565b906000526020600020015490508087600001848154811061372057613720613cea565b6000918252602080832090910192909255918252600188019052604090208390555b855486908061375357613753613dde565b600190038181906000526020600020016000905590558560010160008681526020019081526020016000206000905560019350505050610c2f565b6000915050610c2f565b60008260000182815481106137af576137af613cea565b9060005260206000200154905092915050565b600081815260028301602052604081208190556121d383836138b6565b6000610c2f82613466565b600080806137f88585613470565b600081815260029690960160205260409095205494959350505050565b600081815260018301602052604081205461385c57508154600181810184556000848152602080822090930184905584548482528286019093526040902091909155610c2f565b506000610c2f565b60006121d383836138c2565b600081815260028301602052604081205481908061389f576138928585613864565b9250600091506134b39050565b6001925090506134b3565b60006121d38383613815565b60006121d383836136a5565b600081815260018301602052604081205415156121d3565b6040518061012001604052806000815260200160006001600160a01b031681526020016000815260200160006001600160a01b031681526020016000815260200160008152602001600081526020016000600481111561393c5761393c61397b565b8152600060209091015290565b6001600160a01b0381168114612d4757600080fd5b60006020828403121561397057600080fd5b81356121d381613949565b634e487b7160e01b600052602160045260246000fd5b8051825260208101516001600160a01b0380821660208501526040830151604085015280606084015116606085015250506080810151608083015260a081015160a083015260c081015160c083015260e081015160058110613a0357634e487b7160e01b600052602160045260246000fd5b60e0830152610100818101516001600160a01b03811682850152612fdb565b6020808252825182820181905260009190848201906040850190845b81811015613a6557613a51838551613991565b928401926101209290920191600101613a3e565b50909695505050505050565b600060208284031215613a8357600080fd5b5035919050565b60008060408385031215613a9d57600080fd5b50508035926020909101359150565b60008060408385031215613abf57600080fd5b8235613aca81613949565b946020939093013593505050565b600080600080600060a08688031215613af057600080fd5b853594506020860135613b0281613949565b94979496505050506040830135926060810135926080909101359150565b60008060008060008060c08789031215613b3957600080fd5b8635613b4481613949565b9550602087013594506040870135613b5b81613949565b959894975094956060810135955060808101359460a0909101359350915050565b6020808252825182820181905260009190848201906040850190845b81811015613a655783516001600160a01b031683529284019291840191600101613b98565b60008060408385031215613bd057600080fd5b8235613bdb81613949565b91506020830135613beb81613949565b809150509250929050565b6101a08101613c058285613991565b6001600160a01b038351166101208301526020830151610140830152604083015161016083015260608301516101808301529392505050565b602080825282518282018190526000919060409081850190868401855b82811015613c8957815180516001600160a01b03168552860151868501529284019290850190600101613c5b565b5091979650505050505050565b6101208101610c2f8284613991565b634e487b7160e01b600052601160045260246000fd5b600060018201613ccd57613ccd613ca5565b5060010190565b634e487b7160e01b600052604160045260246000fd5b634e487b7160e01b600052603260045260246000fd5b600082613d1d57634e487b7160e01b600052601260045260246000fd5b500490565b8082028115828204841417610c2f57610c2f613ca5565b81810381811115610c2f57610c2f613ca5565b80820180821115610c2f57610c2f613ca5565b60008060408385031215613d7257600080fd5b8251613d7d81613949565b6020939093015192949293505050565b600060208284031215613d9f57600080fd5b815180151581146121d357600080fd5b6000825160005b81811015613dd05760208186018101518583015201613db6565b506000920191825250919050565b634e487b7160e01b600052603160045260246000fdfe5265656e7472616e637947756172643a207265656e7472616e742063616c6c00a264697066735822122095d26af2fafb2fd441f36aff3c6d6b5c15fb72a73fd56689892faafab589da9264736f6c63430008110033",
  "linkReferences": {},
  "deployedLinkReferences": {}
}