{
  "contractName": "Rental",
  "abi": [
    {
      "inputs": [
        {
          "internalType": "uint256",
          "name": "fee",
          "type": "uint256"
        },
        {
          "internalType": "address",
          "name": "hub",
          "type": "address"
        }
      ],
      "stateMutability": "nonpayable",
      "type": "constructor"
    },
    {
      "anonymous": false,
      "inputs": [
        {
          "indexed": true,
          "internalType": "address",
          "name": "previousOwner",
          "type": "address"
        },
        {
          "indexed": true,
          "internalType": "address",
          "name": "newOwner",
          "type": "address"
        }
      ],
      "name": "OwnershipTransferred",
      "type": "event"
    },
    {
      "inputs": [],
      "name": "DENOMINATOR",
      "outputs": [
        {
          "internalType": "uint256",
          "name": "",
          "type": "uint256"
        }
      ],
      "stateMutability": "view",
      "type": "function"
    },
    {
      "inputs": [],
      "name": "ERC2981INTERFACE",
      "outputs": [
        {
          "internalType": "bytes4",
          "name": "",
          "type": "bytes4"
        }
      ],
      "stateMutability": "view",
      "type": "function"
    },
    {
      "inputs": [],
      "name": "ERC721INTERFACE",
      "outputs": [
        {
          "internalType": "bytes4",
          "name": "",
          "type": "bytes4"
        }
      ],
      "stateMutability": "view",
      "type": "function"
    },
    {
      "inputs": [],
      "name": "RATE_FEE",
      "outputs": [
        {
          "internalType": "uint256",
          "name": "",
          "type": "uint256"
        }
      ],
      "stateMutability": "view",
      "type": "function"
    },
    {
      "inputs": [
        {
          "internalType": "address",
          "name": "tokenAddr",
          "type": "address"
        }
      ],
      "name": "addAcceptToken",
      "outputs": [],
      "stateMutability": "nonpayable",
      "type": "function"
    },
    {
      "inputs": [
        {
          "internalType": "address",
          "name": "whitelistAddress",
          "type": "address"
        },
        {
          "internalType": "uint256",
          "name": "fee",
          "type": "uint256"
        }
      ],
      "name": "addWhitelistAddress",
      "outputs": [],
      "stateMutability": "nonpayable",
      "type": "function"
    },
    {
      "inputs": [
        {
          "internalType": "address",
          "name": "walletAddress",
          "type": "address"
        },
        {
          "internalType": "address",
          "name": "tokenAddress",
          "type": "address"
        }
      ],
      "name": "feeOf",
      "outputs": [
        {
          "internalType": "uint256",
          "name": "",
          "type": "uint256"
        }
      ],
      "stateMutability": "view",
      "type": "function"
    },
    {
      "inputs": [],
      "name": "getAcceptTokens",
      "outputs": [
        {
          "internalType": "address[]",
          "name": "",
          "type": "address[]"
        }
      ],
      "stateMutability": "view",
      "type": "function"
    },
    {
      "inputs": [],
      "name": "getRateFee",
      "outputs": [
        {
          "internalType": "uint256",
          "name": "",
          "type": "uint256"
        }
      ],
      "stateMutability": "view",
      "type": "function"
    },
    {
      "inputs": [
        {
          "internalType": "address",
          "name": "tokenAddress",
          "type": "address"
        }
      ],
      "name": "getTokenFee",
      "outputs": [
        {
          "internalType": "uint256",
          "name": "",
          "type": "uint256"
        }
      ],
      "stateMutability": "view",
      "type": "function"
    },
    {
      "inputs": [],
      "name": "getWhitelist",
      "outputs": [
        {
          "components": [
            {
              "internalType": "address",
              "name": "addr",
              "type": "address"
            },
            {
              "internalType": "uint256",
              "name": "fee",
              "type": "uint256"
            }
          ],
          "internalType": "struct IHubChild.WhitelistVars[]",
          "name": "",
          "type": "tuple[]"
        }
      ],
      "stateMutability": "view",
      "type": "function"
    },
    {
      "inputs": [],
      "name": "hubAddr",
      "outputs": [
        {
          "internalType": "address",
          "name": "",
          "type": "address"
        }
      ],
      "stateMutability": "view",
      "type": "function"
    },
    {
      "inputs": [],
      "name": "owner",
      "outputs": [
        {
          "internalType": "address",
          "name": "",
          "type": "address"
        }
      ],
      "stateMutability": "view",
      "type": "function"
    },
    {
      "inputs": [
        {
          "internalType": "address",
          "name": "tokenAddr",
          "type": "address"
        }
      ],
      "name": "removeToken",
      "outputs": [],
      "stateMutability": "nonpayable",
      "type": "function"
    },
    {
      "inputs": [
        {
          "internalType": "address",
          "name": "whitelistAddress",
          "type": "address"
        }
      ],
      "name": "removeWhitelistAddress",
      "outputs": [],
      "stateMutability": "nonpayable",
      "type": "function"
    },
    {
      "inputs": [],
      "name": "renounceOwnership",
      "outputs": [],
      "stateMutability": "nonpayable",
      "type": "function"
    },
    {
      "inputs": [
        {
          "internalType": "address",
          "name": "hub",
          "type": "address"
        }
      ],
      "name": "setHub",
      "outputs": [],
      "stateMutability": "nonpayable",
      "type": "function"
    },
    {
      "inputs": [
        {
          "internalType": "uint256",
          "name": "rateFee",
          "type": "uint256"
        }
      ],
      "name": "setRateFee",
      "outputs": [],
      "stateMutability": "nonpayable",
      "type": "function"
    },
    {
      "inputs": [
        {
          "internalType": "address",
          "name": "newOwner",
          "type": "address"
        }
      ],
      "name": "transferOwnership",
      "outputs": [],
      "stateMutability": "nonpayable",
      "type": "function"
    },
    {
      "inputs": [
        {
          "internalType": "address",
          "name": "nftContract",
          "type": "address"
        },
        {
          "internalType": "uint256",
          "name": "tokenId",
          "type": "uint256"
        },
        {
          "internalType": "address",
          "name": "ftContract",
          "type": "address"
        },
        {
          "internalType": "uint256",
          "name": "releaseFrequency",
          "type": "uint256"
        },
        {
          "internalType": "uint256",
          "name": "cycleTime",
          "type": "uint256"
        },
        {
          "internalType": "uint256",
          "name": "cycleEnded",
          "type": "uint256"
        }
      ],
      "name": "list",
      "outputs": [],
      "stateMutability": "nonpayable",
      "type": "function"
    },
    {
      "inputs": [
        {
          "internalType": "uint256",
          "name": "itemId",
          "type": "uint256"
        },
        {
          "internalType": "address",
          "name": "ftContract",
          "type": "address"
        },
        {
          "internalType": "uint256",
          "name": "releaseFrequency",
          "type": "uint256"
        },
        {
          "internalType": "uint256",
          "name": "cycleTime",
          "type": "uint256"
        },
        {
          "internalType": "uint256",
          "name": "cycleEnded",
          "type": "uint256"
        }
      ],
      "name": "relist",
      "outputs": [],
      "stateMutability": "nonpayable",
      "type": "function"
    },
    {
      "inputs": [
        {
          "internalType": "uint256",
          "name": "itemId",
          "type": "uint256"
        },
        {
          "internalType": "address",
          "name": "ftContract",
          "type": "address"
        },
        {
          "internalType": "uint256",
          "name": "releaseFrequency",
          "type": "uint256"
        },
        {
          "internalType": "uint256",
          "name": "cycleTime",
          "type": "uint256"
        },
        {
          "internalType": "uint256",
          "name": "cycleEnded",
          "type": "uint256"
        }
      ],
      "name": "edit",
      "outputs": [],
      "stateMutability": "nonpayable",
      "type": "function"
    },
    {
      "inputs": [
        {
          "internalType": "uint256",
          "name": "itemId",
          "type": "uint256"
        }
      ],
      "name": "unlist",
      "outputs": [],
      "stateMutability": "nonpayable",
      "type": "function"
    },
    {
      "inputs": [
        {
          "internalType": "uint256",
          "name": "itemId",
          "type": "uint256"
        },
        {
          "internalType": "uint256",
          "name": "amount",
          "type": "uint256"
        }
      ],
      "name": "rent",
      "outputs": [],
      "stateMutability": "payable",
      "type": "function"
    },
    {
      "inputs": [
        {
          "internalType": "uint256",
          "name": "itemId",
          "type": "uint256"
        },
        {
          "internalType": "uint256",
          "name": "amount",
          "type": "uint256"
        }
      ],
      "name": "topup",
      "outputs": [],
      "stateMutability": "payable",
      "type": "function"
    },
    {
      "inputs": [
        {
          "internalType": "uint256",
          "name": "itemId",
          "type": "uint256"
        }
      ],
      "name": "cancel",
      "outputs": [],
      "stateMutability": "payable",
      "type": "function"
    },
    {
      "inputs": [
        {
          "internalType": "uint256",
          "name": "itemId",
          "type": "uint256"
        }
      ],
      "name": "withdraw",
      "outputs": [],
      "stateMutability": "payable",
      "type": "function"
    },
    {
      "inputs": [
        {
          "internalType": "uint256",
          "name": "itemId",
          "type": "uint256"
        }
      ],
      "name": "stop",
      "outputs": [],
      "stateMutability": "payable",
      "type": "function"
    },
    {
      "inputs": [
        {
          "internalType": "uint256",
          "name": "itemId",
          "type": "uint256"
        }
      ],
      "name": "redeem",
      "outputs": [],
      "stateMutability": "nonpayable",
      "type": "function"
    },
    {
      "inputs": [],
      "name": "getCovenants",
      "outputs": [
        {
          "components": [
            {
              "internalType": "uint256",
              "name": "itemId",
              "type": "uint256"
            },
            {
              "internalType": "address",
              "name": "nftContract",
              "type": "address"
            },
            {
              "internalType": "uint256",
              "name": "tokenId",
              "type": "uint256"
            },
            {
              "internalType": "address",
              "name": "ftContract",
              "type": "address"
            },
            {
              "internalType": "uint256",
              "name": "releaseFrequency",
              "type": "uint256"
            },
            {
              "internalType": "uint256",
              "name": "cycleTime",
              "type": "uint256"
            },
            {
              "internalType": "uint256",
              "name": "cycleEnded",
              "type": "uint256"
            },
            {
              "internalType": "enum Rental.CovenantStatus",
              "name": "status",
              "type": "uint8"
            },
            {
              "internalType": "address",
              "name": "lender",
              "type": "address"
            }
          ],
          "internalType": "struct Rental.Covenant[]",
          "name": "",
          "type": "tuple[]"
        }
      ],
      "stateMutability": "view",
      "type": "function"
    },
    {
      "inputs": [
        {
          "internalType": "address",
          "name": "addr",
          "type": "address"
        }
      ],
      "name": "getCovenantsByAddress",
      "outputs": [
        {
          "components": [
            {
              "internalType": "uint256",
              "name": "itemId",
              "type": "uint256"
            },
            {
              "internalType": "address",
              "name": "nftContract",
              "type": "address"
            },
            {
              "internalType": "uint256",
              "name": "tokenId",
              "type": "uint256"
            },
            {
              "internalType": "address",
              "name": "ftContract",
              "type": "address"
            },
            {
              "internalType": "uint256",
              "name": "releaseFrequency",
              "type": "uint256"
            },
            {
              "internalType": "uint256",
              "name": "cycleTime",
              "type": "uint256"
            },
            {
              "internalType": "uint256",
              "name": "cycleEnded",
              "type": "uint256"
            },
            {
              "internalType": "enum Rental.CovenantStatus",
              "name": "status",
              "type": "uint8"
            },
            {
              "internalType": "address",
              "name": "lender",
              "type": "address"
            }
          ],
          "internalType": "struct Rental.Covenant[]",
          "name": "",
          "type": "tuple[]"
        }
      ],
      "stateMutability": "view",
      "type": "function"
    },
    {
      "inputs": [
        {
          "internalType": "uint256",
          "name": "itemId",
          "type": "uint256"
        }
      ],
      "name": "getCovenant",
      "outputs": [
        {
          "components": [
            {
              "internalType": "uint256",
              "name": "itemId",
              "type": "uint256"
            },
            {
              "internalType": "address",
              "name": "nftContract",
              "type": "address"
            },
            {
              "internalType": "uint256",
              "name": "tokenId",
              "type": "uint256"
            },
            {
              "internalType": "address",
              "name": "ftContract",
              "type": "address"
            },
            {
              "internalType": "uint256",
              "name": "releaseFrequency",
              "type": "uint256"
            },
            {
              "internalType": "uint256",
              "name": "cycleTime",
              "type": "uint256"
            },
            {
              "internalType": "uint256",
              "name": "cycleEnded",
              "type": "uint256"
            },
            {
              "internalType": "enum Rental.CovenantStatus",
              "name": "status",
              "type": "uint8"
            },
            {
              "internalType": "address",
              "name": "lender",
              "type": "address"
            }
          ],
          "internalType": "struct Rental.Covenant",
          "name": "",
          "type": "tuple"
        },
        {
          "components": [
            {
              "internalType": "address",
              "name": "borrower",
              "type": "address"
            },
            {
              "internalType": "uint256",
              "name": "startTime",
              "type": "uint256"
            },
            {
              "internalType": "uint256",
              "name": "duration",
              "type": "uint256"
            },
            {
              "internalType": "uint256",
              "name": "withdrawRound",
              "type": "uint256"
            }
          ],
          "internalType": "struct Rental.CovenantProfile",
          "name": "",
          "type": "tuple"
        }
      ],
      "stateMutability": "view",
      "type": "function"
    },
    {
      "inputs": [
        {
          "internalType": "address",
          "name": "contractAddress",
          "type": "address"
        },
        {
          "internalType": "uint256",
          "name": "tokenId",
          "type": "uint256"
        }
      ],
      "name": "getRentalData",
      "outputs": [
        {
          "components": [
            {
              "internalType": "uint256",
              "name": "itemId",
              "type": "uint256"
            },
            {
              "internalType": "address",
              "name": "nftContract",
              "type": "address"
            },
            {
              "internalType": "uint256",
              "name": "tokenId",
              "type": "uint256"
            },
            {
              "internalType": "address",
              "name": "ftContract",
              "type": "address"
            },
            {
              "internalType": "uint256",
              "name": "releaseFrequency",
              "type": "uint256"
            },
            {
              "internalType": "uint256",
              "name": "cycleTime",
              "type": "uint256"
            },
            {
              "internalType": "uint256",
              "name": "cycleEnded",
              "type": "uint256"
            },
            {
              "internalType": "enum Rental.CovenantStatus",
              "name": "status",
              "type": "uint8"
            },
            {
              "internalType": "address",
              "name": "lender",
              "type": "address"
            }
          ],
          "internalType": "struct Rental.Covenant",
          "name": "",
          "type": "tuple"
        }
      ],
      "stateMutability": "view",
      "type": "function"
    }
  ],
  "bytecode": "0x60806040523480156200001157600080fd5b5060405162003e4138038062003e4183398101604081905262000034916200012c565b6200003f336200005b565b6001805560078290556200005381620000ab565b505062000169565b600080546001600160a01b038381166001600160a01b0319831681178455604051919092169283917f8be0079c531659141344cd1fd0a4f28419497f9722a3daafe3b4186f6b6457e09190a35050565b6000546001600160a01b031633146200010a5760405162461bcd60e51b815260206004820181905260248201527f4f776e61626c653a2063616c6c6572206973206e6f7420746865206f776e6572604482015260640160405180910390fd5b600880546001600160a01b0319166001600160a01b0392909216919091179055565b600080604083850312156200013f578182fd5b825160208401519092506001600160a01b03811681146200015e578182fd5b809150509250929050565b613cc880620001796000396000f3fe6080604052600436106101ee5760003560e01c8063715018a61161010d578063b1c005fa116100a0578063d9042f851161006f578063d9042f851461055a578063db006a751461057a578063debd22721461059a578063f2fde38b146105ba578063ffd62f7b146105da57600080fd5b8063b1c005fa146104ca578063b7ecbaae146104f8578063bf5a4dd314610518578063d01f63f51461053857600080fd5b80638da5cb5b116100dc5780638da5cb5b14610461578063918f86741461047f57806393e4626e14610495578063a89eccfd146104aa57600080fd5b8063715018a614610402578063783a112b146104175780638563e10e1461042a57806386c3b08a1461044c57600080fd5b806340e58ee5116101855780635a24a0b5116101545780635a24a0b51461038f5780635fa7b584146103af5780636299f8cf146103cf5780636eeaa63c146103e257600080fd5b806340e58ee51461030e57806349095a2114610321578063502a676c146103595780635254aca91461036f57600080fd5b80631879c750116101c15780631879c75014610292578063252154fa146102ad5780632e1a7d4d146102db57806331962cdc146102ee57600080fd5b8063042ca242146101f357806307cb1a6e146102295780630f15e9be1461025d578063184ff47f1461027f575b600080fd5b3480156101ff57600080fd5b5061021361020e3660046136d1565b610607565b60405161022091906139b2565b60405180910390f35b34801561023557600080fd5b506102446380ac58cd60e01b81565b6040516001600160e01b03199091168152602001610220565b34801561026957600080fd5b5061027d6102783660046137f8565b610880565b005b61027d61028d366004613857565b610913565b34801561029e57600080fd5b5061024463152a902d60e11b81565b3480156102b957600080fd5b506102cd6102c83660046136d1565b610bfe565b604051908152602001610220565b61027d6102e93660046137f8565b610c11565b3480156102fa57600080fd5b5061027d6103093660046136d1565b610c8a565b61027d61031c3660046137f8565b610cd6565b34801561032d57600080fd5b50600854610341906001600160a01b031681565b6040516001600160a01b039091168152602001610220565b34801561036557600080fd5b506102cd60075481565b34801561037b57600080fd5b5061027d61038a366004613725565b6111d3565b34801561039b57600080fd5b5061027d6103aa366004613810565b61120e565b3480156103bb57600080fd5b5061027d6103ca3660046136d1565b611456565b61027d6103dd3660046137f8565b61148f565b3480156103ee57600080fd5b5061027d6103fd36600461377d565b611629565b34801561040e57600080fd5b5061027d611919565b61027d610425366004613857565b61194f565b34801561043657600080fd5b5061043f611d92565b6040516102209190613965565b34801561045857600080fd5b506007546102cd565b34801561046d57600080fd5b506000546001600160a01b0316610341565b34801561048b57600080fd5b506102cd61271081565b3480156104a157600080fd5b50610213611e5e565b3480156104b657600080fd5b506102cd6104c53660046136ed565b61200c565b3480156104d657600080fd5b506104ea6104e53660046137f8565b61201f565b604051610220929190613b69565b34801561050457600080fd5b5061027d6105133660046136d1565b61217c565b34801561052457600080fd5b5061027d6105333660046137f8565b6121b1565b34801561054457600080fd5b5061054d612441565b60405161022091906139f5565b34801561056657600080fd5b5061027d610575366004613810565b61253d565b34801561058657600080fd5b5061027d6105953660046137f8565b61274e565b3480156105a657600080fd5b5061027d6105b53660046136d1565b6129ae565b3480156105c657600080fd5b5061027d6105d53660046136d1565b6129e3565b3480156105e657600080fd5b506105fa6105f5366004613725565b612a7e565b6040516102209190613b5a565b6060600061061460095490565b9050600060015b828111610690576000818152600b60205260409020546001600160a01b038681169116148061066b57506000818152600a60205260409020600701546001600160a01b0386811661010090920416145b1561067e578161067a81613c4c565b9250505b8061068881613c4c565b91505061061b565b5060008267ffffffffffffffff8111156106ba57634e487b7160e01b600052604160045260246000fd5b6040519080825280602002602001820160405280156106f357816020015b6106e0613654565b8152602001906001900390816106d85790505b509050600060015b838111610875576000818152600b60205260409020546001600160a01b038881169116148061074b57506000818152600a60205260409020600701546001600160a01b0388811661010090920416145b15610863576000818152600a60209081526040918290208251610120810184528154815260018201546001600160a01b0390811693820193909352600282015493810193909352600381015490911660608301526004808201546080840152600582015460a0840152600682015460c0840152600782015460e084019160ff909116908111156107eb57634e487b7160e01b600052602160045260246000fd5b600481111561080a57634e487b7160e01b600052602160045260246000fd5b81526007919091015461010090046001600160a01b0316602090910152835184908490811061084957634e487b7160e01b600052603260045260246000fd5b6020026020010181905250818061085f90613c4c565b9250505b8061086d81613c4c565b9150506106fb565b509095945050505050565b6008546001600160a01b031633146108b35760405162461bcd60e51b81526004016108aa90613af5565b60405180910390fd5b612710811061090e5760405162461bcd60e51b815260206004820152602160248201527f466565206e756d657261746f72206d757374206c657373207468616e203130306044820152602560f81b60648201526084016108aa565b600755565b6000828152600b602052604090205482906001600160a01b031633146109745760405162461bcd60e51b815260206004820152601660248201527529b2b73232b91034b9903737ba103137b93937bbb2b960511b60448201526064016108aa565b600260015414156109975760405162461bcd60e51b81526004016108aa90613b23565b600260018190556000848152600a602052604090206007015460ff1660048111156109d257634e487b7160e01b600052602160045260246000fd5b14610a1f5760405162461bcd60e51b815260206004820181905260248201527f52656e74616c20636f76656e616e74206d7573742062652072656e74696e672e60448201526064016108aa565b6000838152600a602052604081206004810154909190610a3f9085613bf6565b90506000826004015482610a539190613c16565b90506000610a618287613c35565b60038501549091506001600160a01b0316610ae657853414610abf5760405162461bcd60e51b815260206004820152601760248201527614995b9d185b08185b5bdd5b9d081b9bdd08195e1858dd604a1b60448201526064016108aa565b8015610ae1576003840154610ae190309033906001600160a01b031684612be0565b610b02565b6003840154610b0290339030906001600160a01b031685612be0565b6000878152600b6020526040902060020154610b1e9084613bde565b600180860154600287015460008b8152600b602052604090209092015460058801549396506001600160a01b039091169263eaf05b1692913391610b629089613c16565b610b6c9190613bde565b6040518463ffffffff1660e01b8152600401610b8a93929190613bb1565b600060405180830381600087803b158015610ba457600080fd5b505af1158015610bb8573d6000803e3d6000fd5b505050506007939093018054600260ff1990911681179091556000968752600b602052604090962080546001600160a01b03191633178155909501555050600180555050565b6000610c0b600483612d46565b92915050565b6000818152600a6020526040902060070154819061010090046001600160a01b03163314610c515760405162461bcd60e51b81526004016108aa90613a92565b60026001541415610c745760405162461bcd60e51b81526004016108aa90613b23565b6002600155610c8282612d5b565b505060018055565b6000546001600160a01b03163314610cb45760405162461bcd60e51b81526004016108aa90613ac0565b600880546001600160a01b0319166001600160a01b0392909216919091179055565b6000818152600b602052604090205481906001600160a01b03163314610d375760405162461bcd60e51b815260206004820152601660248201527529b2b73232b91034b9903737ba103137b93937bbb2b960511b60448201526064016108aa565b60026001541415610d5a5760405162461bcd60e51b81526004016108aa90613b23565b600260019081556000838152600a6020908152604080832060050154600b909252822090920154429290610d8e9084613c35565b610d989190613bf6565b905080610da481613c4c565b9150600290506000858152600a602052604090206007015460ff166004811115610dde57634e487b7160e01b600052602160045260246000fd5b1480610e1d575060036000858152600a602052604090206007015460ff166004811115610e1b57634e487b7160e01b600052602160045260246000fd5b145b8015610e3957506000848152600b602052604090206002015481105b610e855760405162461bcd60e51b815260206004820181905260248201527f52656e74616c20636f76656e616e74206d7573742062652072656e74696e672e60448201526064016108aa565b6000848152600a60209081526040808320600b909252822060020154909190610eaf908490613c35565b8260040154610ebe9190613c16565b6000878152600b60205260409020546003840154919250610eee9130916001600160a01b03908116911684612be0565b6000838360040154610f009190613c16565b60078401546003850154919250600091610f2b916001600160a01b03610100909104811691166130b4565b9050612710610f3a8284613c16565b610f449190613bf6565b6001850154909150610f66906001600160a01b031663152a902d60e11b61311e565b156110be576001840154600285015460405163152a902d60e11b815260009283926001600160a01b0390911691632a55205a91610fb0918890600401918252602082015260400190565b604080518083038186803b158015610fc757600080fd5b505afa158015610fdb573d6000803e3d6000fd5b505050506040513d601f19601f82011682018060405250810190610fff9190613750565b600788015491935091506001600160a01b0380841661010090920416148015906110295750600081115b1561108b57600386015461104a90309084906001600160a01b031684612be0565b600786015460038701546110869130916001600160a01b036101009092048216911684611077888a613c35565b6110819190613c35565b612be0565b6110b7565b600786015460038701546110b79130916001600160a01b03610100909204821691166110818789613c35565b50506110ea565b600784015460038501546110ea9130916001600160a01b03610100909204821691166110818587613c35565b611118306111006000546001600160a01b031690565b60038701546001600160a01b03166110818587613c35565b600180850154600286015460008b8152600b602052604090209092015460058701546001600160a01b039092169263eaf05b16929091339161115a908b613c16565b6111649190613bde565b6040518463ffffffff1660e01b815260040161118293929190613bb1565b600060405180830381600087803b15801561119c57600080fd5b505af11580156111b0573d6000803e3d6000fd5b50505060009889525050600b602052505060409094206002015550506001805550565b6008546001600160a01b031633146111fd5760405162461bcd60e51b81526004016108aa90613af5565b6112096004838361313a565b505050565b6000858152600a6020526040902060070154859061010090046001600160a01b0316331461124e5760405162461bcd60e51b81526004016108aa90613a92565b8560016000828152600a602052604090206007015460ff16600481111561128557634e487b7160e01b600052602160045260246000fd5b14158061131557506000818152600a6020908152604080832060050154600b9092529091206002015442916112b991613c16565b6000838152600b60205260409020600101546112d59190613bde565b118015611315575060026000828152600a602052604090206007015460ff16600481111561131357634e487b7160e01b600052602160045260246000fd5b145b6113555760405162461bcd60e51b8152602060048201526011602482015270139bdd081d1a5b5948199bdc881c995b9d607a1b60448201526064016108aa565b600260015414156113785760405162461bcd60e51b81526004016108aa90613b23565b600260018190556000888152600a60209081526040808320600380820180546001600160a01b0319166001600160a01b038e16179055600482018b9055600582018a905560068201899055600b9093529220908101549201549091146113e1576113e188612d5b565b50506040805160808101825260008082526020808301828152838501838152606085018481529b8452600b90925293909120915182546001600160a01b0319166001600160a01b0390911617825591516001808301919091559151600282015596516003909701969096555050509180555050565b6008546001600160a01b031633146114805760405162461bcd60e51b81526004016108aa90613af5565b61148b600282613158565b5050565b6000818152600a6020526040902060070154819061010090046001600160a01b031633146114cf5760405162461bcd60e51b81526004016108aa90613a92565b600260015414156114f25760405162461bcd60e51b81526004016108aa90613b23565b600260019081556000838152600a6020908152604080832060050154600b9092528220909201544292906115269084613c35565b6115309190613bf6565b6000858152600a602052604090206006015490915061154f9082613bde565b6000858152600b60205260409020600201549091508110611581576000848152600b6020526040902060020154611583565b805b6000858152600a60209081526040808320600b909252822060020154929350916115ae908490613c35565b6000878152600a60205260409020600401546115ca9190613c16565b905080156115ff576000868152600b602052604090205460038301546115ff9130916001600160a01b03918216911684612be0565b506000948552600b6020526040909420600201555050600701805460ff1916600317905560018055565b6002600154141561164c5760405162461bcd60e51b81526004016108aa90613b23565b600260015582158015906116605750600082115b61167c5760405162461bcd60e51b81526004016108aa90613a4d565b61168d866380ac58cd60e01b61311e565b6116d95760405162461bcd60e51b815260206004820152601b60248201527f436f6e7472616374206e6565647320746f20626520455243373231000000000060448201526064016108aa565b6040516323b872dd60e01b81526001600160a01b038716906323b872dd9061170990339030908a90600401613941565b600060405180830381600087803b15801561172357600080fd5b505af1158015611737573d6000803e3d6000fd5b50505050611749600980546001019055565b600061175460095490565b9050604051806101200160405280828152602001886001600160a01b03168152602001878152602001866001600160a01b03168152602001858152602001848152602001838152602001600160048111156117bf57634e487b7160e01b600052602160045260246000fd5b8152336020918201526000838152600a82526040908190208351815591830151600180840180546001600160a01b039384166001600160a01b0319918216179091559285015160028501556060850151600385018054919093169316929092179055608083015160048084019190915560a0840151600584015560c0840151600684015560e08401516007840180549193909260ff1990921691849081111561187857634e487b7160e01b600052602160045260246000fd5b0217905550610100918201516007919091018054610100600160a81b0319166001600160a01b0392831690930292909217909155604080516080810182526000808252602080830182815283850183815260608501848152978452600b90925293909120915182546001600160a01b031916941693909317815590516001828101919091559151600282015591516003909201919091558055505050505050565b6000546001600160a01b031633146119435760405162461bcd60e51b81526004016108aa90613ac0565b61194d600061316d565b565b600260015414156119725760405162461bcd60e51b81526004016108aa90613b23565b60026001556000828152600a602052604090206007015461010090046001600160a01b03163314156119e65760405162461bcd60e51b815260206004820152601960248201527f53656e646572206d757374206265206e6f74206c656e6465720000000000000060448201526064016108aa565b60026000838152600a602052604090206007015460ff166004811115611a1c57634e487b7160e01b600052602160045260246000fd5b1480611a5b575060016000838152600a602052604090206007015460ff166004811115611a5957634e487b7160e01b600052602160045260246000fd5b145b611a9c5760405162461bcd60e51b81526020600482015260126024820152714e6f7420616363657074656420737461746560701b60448201526064016108aa565b6000828152600a602052604081206004810154909190611abc9084613bf6565b90506000826004015482611ad09190613c16565b90506000611ade8286613c35565b90504260026000888152600a602052604090206007015460ff166004811115611b1757634e487b7160e01b600052602160045260246000fd5b1415611c1d576000878152600a6020908152604080832060050154600b909252909120600201544291611b4991613c16565b6000898152600b6020526040902060010154611b659190613bde565b11611bb25760405162461bcd60e51b815260206004820152601d60248201527f52656e74616c20636f76656e616e74206d75737420626520656e64656400000060448201526064016108aa565b6000878152600b60205260409020600381015460029091015414611c1d5760058501546000888152600b6020526040902060020154611bf19190613c16565b611bfb9082613c35565b6000888152600b6020526040902060020154909150611c1a9085613bde565b93505b60038501546001600160a01b0316611c9f57853414611c785760405162461bcd60e51b815260206004820152601760248201527614995b9d185b08185b5bdd5b9d081b9bdd08195e1858dd604a1b60448201526064016108aa565b8115611c9a576003850154611c9a90309033906001600160a01b031685612be0565b611cbb565b6003850154611cbb90339030906001600160a01b031686612be0565b6001850154600286015460058701546001600160a01b039092169163eaf05b16919033908590611ceb908a613c16565b611cf59190613bde565b6040518463ffffffff1660e01b8152600401611d1393929190613bb1565b600060405180830381600087803b158015611d2d57600080fd5b505af1158015611d41573d6000803e3d6000fd5b5050506007860180546002925060ff191660018302179055506000968752600b602052604090962080546001600160a01b031916331781556001808201979097556002019290925550505090805550565b60606000611da060026131bd565b905060008167ffffffffffffffff811115611dcb57634e487b7160e01b600052604160045260246000fd5b604051908082528060200260200182016040528015611df4578160200160208202803683370190505b50905060005b82811015611e5757611e0d6002826131c7565b828281518110611e2d57634e487b7160e01b600052603260045260246000fd5b6001600160a01b039092166020928302919091019091015280611e4f81613c4c565b915050611dfa565b5092915050565b60606000611e6b60095490565b905060008167ffffffffffffffff811115611e9657634e487b7160e01b600052604160045260246000fd5b604051908082528060200260200182016040528015611ecf57816020015b611ebc613654565b815260200190600190039081611eb45790505b509050600060015b838111612003576000818152600a60209081526040918290208251610120810184528154815260018201546001600160a01b0390811693820193909352600282015493810193909352600381015490911660608301526004808201546080840152600582015460a0840152600682015460c0840152600782015460e084019160ff90911690811115611f7957634e487b7160e01b600052602160045260246000fd5b6004811115611f9857634e487b7160e01b600052602160045260246000fd5b81526007919091015461010090046001600160a01b03166020909101528351849084908110611fd757634e487b7160e01b600052603260045260246000fd5b60200260200101819052508180611fed90613c4c565b9250508080611ffb90613c4c565b915050611ed7565b50909392505050565b600061201883836130b4565b9392505050565b612027613654565b61205b604051806080016040528060006001600160a01b031681526020016000815260200160008152602001600081525090565b6000838152600a602090815260408083208151610120810183528154815260018201546001600160a01b0390811694820194909452600282015492810192909252600381015490921660608201526004808301546080830152600583015460a0830152600683015460c0830152600783015491929160e084019160ff909116908111156120f857634e487b7160e01b600052602160045260246000fd5b600481111561211757634e487b7160e01b600052602160045260246000fd5b8152600791909101546001600160a01b0361010090910481166020928301526000968752600b82526040968790208751608081018952815490921682526001810154928201929092526002820154968101969096526003015460608601529492505050565b6008546001600160a01b031633146121a65760405162461bcd60e51b81526004016108aa90613af5565b61148b6004826131d3565b6000818152600a6020526040902060070154819061010090046001600160a01b031633146121f15760405162461bcd60e51b81526004016108aa90613a92565b8160016000828152600a602052604090206007015460ff16600481111561222857634e487b7160e01b600052602160045260246000fd5b1415806122b857506000818152600a6020908152604080832060050154600b90925290912060020154429161225c91613c16565b6000838152600b60205260409020600101546122789190613bde565b1180156122b8575060026000828152600a602052604090206007015460ff1660048111156122b657634e487b7160e01b600052602160045260246000fd5b145b6122f85760405162461bcd60e51b8152602060048201526011602482015270139bdd081d1a5b5948199bdc881c995b9d607a1b60448201526064016108aa565b6002600154141561231b5760405162461bcd60e51b81526004016108aa90613b23565b600260018181556000858152600a602052604090819020918201549282015490516323b872dd60e01b815291926001600160a01b0316916323b872dd916123689130913391600401613941565b600060405180830381600087803b15801561238257600080fd5b505af1158015612396573d6000803e3d6000fd5b5050506000858152600b6020526040902060038101546002909101541490506123c2576123c284612d5b565b604080516080810182526000808252602080830182815283850183815260608501848152998452600b90925293909120915182546001600160a01b039091166001600160a01b03199091161782559151600180830191909155915160028201559451600390950194909455600701805460ff1916600417905550508055565b6060600061244f60046131e8565b905060008167ffffffffffffffff81111561247a57634e487b7160e01b600052604160045260246000fd5b6040519080825280602002602001820160405280156124bf57816020015b60408051808201909152600080825260208201528152602001906001900390816124985790505b50905060005b82811015611e57576000806124db6004846131f3565b915091506040518060400160405280836001600160a01b031681526020018281525084848151811061251d57634e487b7160e01b600052603260045260246000fd5b60200260200101819052505050808061253590613c4c565b9150506124c5565b600260015414156125605760405162461bcd60e51b81526004016108aa90613b23565b600260015560046000868152600a602052604090206007015460ff16600481111561259b57634e487b7160e01b600052602160045260246000fd5b146125e85760405162461bcd60e51b815260206004820152601d60248201527f436f76656e616e74206d75737420756e6c6973746564206265666f726500000060448201526064016108aa565b6000831180156125f85750600082115b6126145760405162461bcd60e51b81526004016108aa90613a4d565b6000858152600a602052604090819020600181015460029091015491516323b872dd60e01b81526001600160a01b03909116916323b872dd9161265e913391309190600401613941565b600060405180830381600087803b15801561267857600080fd5b505af115801561268c573d6000803e3d6000fd5b5050506000868152600a60209081526040808320600380820180546001600160a01b039b8c166001600160a01b0319918216179091556004830199909955600582019790975560068101959095556007909401805461010033026001600160a81b03199091161760019081179091558451608081018652838152808301848152818701858152606083018681529b8652600b90945295909320925183549816979096169690961781559151828501555092516002840155925191909201558055565b6000818152600a6020526040902060070154819061010090046001600160a01b0316331461278e5760405162461bcd60e51b81526004016108aa90613a92565b600260015414156127b15760405162461bcd60e51b81526004016108aa90613b23565b600260018190556000838152600a6020908152604080832060050154600b9092529091209091015442916127e491613c16565b6000848152600b60205260409020600101546128009190613bde565b108015612840575060036000838152600a602052604090206007015460ff16600481111561283e57634e487b7160e01b600052602160045260246000fd5b145b61288c5760405162461bcd60e51b815260206004820152601760248201527f436f76656e616e74206d7573742062652072656465656d00000000000000000060448201526064016108aa565b6000828152600a6020526040908190206001810154600282015492516323b872dd60e01b815291926001600160a01b03909116916323b872dd916128d69130913391600401613941565b600060405180830381600087803b1580156128f057600080fd5b505af1158015612904573d6000803e3d6000fd5b5050506000848152600b6020526040902060038101546002909101541490506129305761293083612d5b565b604080516080810182526000808252602080830182815283850183815260608501848152988452600b90925293909120915182546001600160a01b039091166001600160a01b03199091161782559151600180830191909155915160028201559351600390940193909355600701805460ff19166004179055508055565b6008546001600160a01b031633146129d85760405162461bcd60e51b81526004016108aa90613af5565b61148b600282613211565b6000546001600160a01b03163314612a0d5760405162461bcd60e51b81526004016108aa90613ac0565b6001600160a01b038116612a725760405162461bcd60e51b815260206004820152602660248201527f4f776e61626c653a206e6577206f776e657220697320746865207a65726f206160448201526564647265737360d01b60648201526084016108aa565b612a7b8161316d565b50565b612a86613654565b612a8e613654565b6000612a9960095490565b905060015b818111612bd6576000818152600a60205260409020600101546001600160a01b038781169116148015612ae157506000818152600a602052604090206002015485145b15612bc4576000818152600a60209081526040918290208251610120810184528154815260018201546001600160a01b0390811693820193909352600282015493810193909352600381015490911660608301526004808201546080840152600582015460a0840152600682015460c0840152600782015460e084019160ff90911690811115612b8157634e487b7160e01b600052602160045260246000fd5b6004811115612ba057634e487b7160e01b600052602160045260246000fd5b81526007919091015461010090046001600160a01b03166020909101529250612bd6565b80612bce81613c4c565b915050612a9e565b5090949350505050565b6001600160a01b038216612c2a576040516001600160a01b0384169082156108fc029083906000818181858888f19350505050158015612c24573d6000803e3d6000fd5b50612d40565b6001600160a01b0384163014612cbc576040516323b872dd60e01b81526001600160a01b038316906323b872dd90612c6a90879087908690600401613941565b602060405180830381600087803b158015612c8457600080fd5b505af1158015612c98573d6000803e3d6000fd5b505050506040513d601f19601f82011682018060405250810190612c2491906137d8565b60405163a9059cbb60e01b81526001600160a01b0384811660048301526024820183905283169063a9059cbb90604401602060405180830381600087803b158015612d0657600080fd5b505af1158015612d1a573d6000803e3d6000fd5b505050506040513d601f19601f82011682018060405250810190612d3e91906137d8565b505b50505050565b6000612018836001600160a01b038416613226565b60026001541415612d7e5760405162461bcd60e51b81526004016108aa90613b23565b600260019081556000828152600a6020908152604080832060050154600b909252822090920154429290612db29084613c35565b612dbc9190613bf6565b6000848152600b60205260409020600201549091508110612dee576000838152600b6020526040902060020154612df0565b805b6000848152600b60205260409020600301549091508111612e535760405162461bcd60e51b815260206004820152601a60248201527f596f7520776974686472617720616c6c20617661696c61626c6500000000000060448201526064016108aa565b6000838152600a60209081526040808320600b909252822060030154909190612e7c9084613c35565b8260040154612e8b9190613c16565b60078301546003840154919250600091612eb6916001600160a01b03610100909104811691166130b4565b9050612710612ec58284613c16565b612ecf9190613bf6565b6001840154909150612ef1906001600160a01b031663152a902d60e11b61311e565b1561303a576001830154600284015460405163152a902d60e11b815260009283926001600160a01b0390911691632a55205a91612f3b918890600401918252602082015260400190565b604080518083038186803b158015612f5257600080fd5b505afa158015612f66573d6000803e3d6000fd5b505050506040513d601f19601f82011682018060405250810190612f8a9190613750565b600787015491935091506001600160a01b038084166101009092041614801590612fb45750600081115b15613007576003850154612fd590309084906001600160a01b031684612be0565b600785015460038601546130029130916001600160a01b036101009092048216911684611077888a613c35565b613033565b600785015460038601546130339130916001600160a01b03610100909204821691166110818789613c35565b5050613066565b600783015460038401546130669130916001600160a01b03610100909204821691166110818587613c35565b6130943061307c6000546001600160a01b031690565b60038601546001600160a01b03166110818587613c35565b5050506000928352600b6020526040909220600301919091555060018055565b60408051808201909152600080825260208201819052906130d6600485613296565b602083015215801582526130ef57602001519050610c0b565b6130fa600484613296565b6020830152158015825261311357602001519050610c0b565b505060075492915050565b6000613129836132ae565b8015612018575061201883836132e1565b6000613150846001600160a01b038516846133ca565b949350505050565b6000612018836001600160a01b0384166133e7565b600080546001600160a01b038381166001600160a01b0319831681178455604051919092169283917f8be0079c531659141344cd1fd0a4f28419497f9722a3daafe3b4186f6b6457e09190a35050565b6000610c0b825490565b60006120188383613504565b6000612018836001600160a01b03841661353c565b6000610c0b82613559565b60008080806132028686613564565b909450925050505b9250929050565b6000612018836001600160a01b03841661358f565b60008181526002830160205260408120548015158061324a575061324a84846135de565b6120185760405162461bcd60e51b815260206004820152601e60248201527f456e756d657261626c654d61703a206e6f6e6578697374656e74206b6579000060448201526064016108aa565b6000808080613202866001600160a01b0387166135ea565b60006132c1826301ffc9a760e01b6132e1565b8015610c0b57506132da826001600160e01b03196132e1565b1592915050565b604080516001600160e01b0319831660248083019190915282518083039091018152604490910182526020810180516001600160e01b03166301ffc9a760e01b179052905160009190829081906001600160a01b0387169061753090613348908690613908565b6000604051808303818686fa925050503d8060008114613384576040519150601f19603f3d011682016040523d82523d6000602084013e613389565b606091505b50915091506020815110156133a45760009350505050610c0b565b8180156133c05750808060200190518101906133c091906137d8565b9695505050505050565b600082815260028401602052604081208290556131508484613624565b600081815260018301602052604081205480156134fa57600061340b600183613c35565b855490915060009061341f90600190613c35565b90508181146134a057600086600001828154811061344d57634e487b7160e01b600052603260045260246000fd5b906000526020600020015490508087600001848154811061347e57634e487b7160e01b600052603260045260246000fd5b6000918252602080832090910192909255918252600188019052604090208390555b85548690806134bf57634e487b7160e01b600052603160045260246000fd5b600190038181906000526020600020016000905590558560010160008681526020019081526020016000206000905560019350505050610c0b565b6000915050610c0b565b600082600001828154811061352957634e487b7160e01b600052603260045260246000fd5b9060005260206000200154905092915050565b600081815260028301602052604081208190556120188383613630565b6000610c0b826131bd565b6000808061357285856131c7565b600081815260029690960160205260409095205494959350505050565b60008181526001830160205260408120546135d657508154600181810184556000848152602080822090930184905584548482528286019093526040902091909155610c0b565b506000610c0b565b6000612018838361363c565b60008181526002830160205260408120548190806136195761360c85856135de565b92506000915061320a9050565b60019250905061320a565b6000612018838361358f565b600061201883836133e7565b60008181526001830160205260408120541515612018565b6040518061012001604052806000815260200160006001600160a01b031681526020016000815260200160006001600160a01b03168152602001600081526020016000815260200160008152602001600060048111156136c457634e487b7160e01b600052602160045260246000fd5b8152600060209091015290565b6000602082840312156136e2578081fd5b813561201881613c7d565b600080604083850312156136ff578081fd5b823561370a81613c7d565b9150602083013561371a81613c7d565b809150509250929050565b60008060408385031215613737578182fd5b823561374281613c7d565b946020939093013593505050565b60008060408385031215613762578182fd5b825161376d81613c7d565b6020939093015192949293505050565b60008060008060008060c08789031215613795578182fd5b86356137a081613c7d565b95506020870135945060408701356137b781613c7d565b959894975094956060810135955060808101359460a0909101359350915050565b6000602082840312156137e9578081fd5b81518015158114612018578182fd5b600060208284031215613809578081fd5b5035919050565b600080600080600060a08688031215613827578081fd5b85359450602086013561383981613c7d565b94979496505050506040830135926060810135926080909101359150565b60008060408385031215613869578182fd5b50508035926020909101359150565b80518252602081015160018060a01b0380821660208501526040830151604085015280606084015116606085015250506080810151608083015260a081015160a083015260c081015160c083015260e0810151600581106138e957634e487b7160e01b600052602160045260246000fd5b60e0830152610100818101516001600160a01b03811682850152612d40565b60008251815b81811015613928576020818601810151858301520161390e565b818111156139365782828501525b509190910192915050565b6001600160a01b039384168152919092166020820152604081019190915260600190565b6020808252825182820181905260009190848201906040850190845b818110156139a65783516001600160a01b031683529284019291840191600101613981565b50909695505050505050565b6020808252825182820181905260009190848201906040850190845b818110156139a6576139e1838551613878565b9284019261012092909201916001016139ce565b602080825282518282018190526000919060409081850190868401855b82811015613a4057815180516001600160a01b03168552860151868501529284019290850190600101613a12565b5091979650505050505050565b60208082526025908201527f52656c65617365206672657175656e6379206d75737420677265617465722074604082015264068616e20360dc1b606082015260800190565b60208082526014908201527329b2b73232b91034b9903737ba103632b73232b960611b604082015260600190565b6020808252818101527f4f776e61626c653a2063616c6c6572206973206e6f7420746865206f776e6572604082015260600190565b602080825260149082015273135d5cdd081899481a1d588818dbdb9d1c9858dd60621b604082015260600190565b6020808252601f908201527f5265656e7472616e637947756172643a207265656e7472616e742063616c6c00604082015260600190565b6101208101610c0b8284613878565b6101a08101613b788285613878565b82516001600160a01b03166101208301526020830151610140830152604083015161016083015260609092015161018090910152919050565b9283526001600160a01b039190911660208301526bffffffffffffffffffffffff16604082015260600190565b60008219821115613bf157613bf1613c67565b500190565b600082613c1157634e487b7160e01b81526012600452602481fd5b500490565b6000816000190483118215151615613c3057613c30613c67565b500290565b600082821015613c4757613c47613c67565b500390565b6000600019821415613c6057613c60613c67565b5060010190565b634e487b7160e01b600052601160045260246000fd5b6001600160a01b0381168114612a7b57600080fdfea2646970667358221220d827c4292507c6d57eff617b05b8e678222b9834e62bf5e6974a80ef811a122664736f6c63430008040033",
  "immutableReferences": {},
  "source": "// SPDX-License-Identifier: MIT\r\npragma solidity ^0.8.4;\r\n\r\nimport \"@openzeppelin/contracts/utils/Counters.sol\";\r\nimport \"@openzeppelin/contracts/token/ERC721/ERC721.sol\";\r\nimport \"@openzeppelin/contracts/token/ERC721/IERC721.sol\";\r\nimport \"@openzeppelin/contracts/interfaces/IERC2981.sol\";\r\nimport \"@openzeppelin/contracts/token/ERC20/IERC20.sol\";\r\nimport \"@openzeppelin/contracts/utils/introspection/ERC165Checker.sol\";\r\nimport \"./interfaces/IERC4907.sol\";\r\nimport \"./HubChild.sol\";\r\n\r\ncontract Rental is HubChild {\r\n    using Counters for Counters.Counter;\r\n    Counters.Counter private _itemCount;\r\n    mapping(uint256 => Covenant) private _idToCovenant;\r\n    mapping(uint256 => CovenantProfile) private _idToProfile;\r\n    bytes4 public constant ERC721INTERFACE = type(IERC721).interfaceId;\r\n    bytes4 public constant ERC2981INTERFACE = type(IERC2981).interfaceId;\r\n\r\n    enum CovenantStatus {\r\n        NOT_INITIAL,\r\n        LISTING,\r\n        RENTING,\r\n        REDEEM,\r\n        UNLISTED\r\n    }\r\n\r\n    struct CovenantProfile {\r\n        address borrower;\r\n        uint256 startTime;\r\n        uint256 duration;\r\n        uint256 withdrawRound;\r\n    }\r\n\r\n    struct Covenant {\r\n        uint256 itemId;\r\n        address nftContract;\r\n        uint256 tokenId;\r\n        address ftContract;\r\n        uint256 releaseFrequency;\r\n        uint256 cycleTime;\r\n        uint256 cycleEnded;\r\n        CovenantStatus status;\r\n        address lender;\r\n    }\r\n\r\n    constructor(uint256 fee, address hub) {\r\n        RATE_FEE = fee;\r\n        setHub(hub);\r\n    }\r\n    \r\n    modifier onlyBorrower(uint256 itemId) {\r\n        require(\r\n            _idToProfile[itemId].borrower == msg.sender,\r\n            \"Sender is not borrower\"\r\n        );\r\n        _;\r\n    }\r\n\r\n    modifier onlyLender(uint256 itemId) {\r\n        require(\r\n            _idToCovenant[itemId].lender == msg.sender,\r\n            \"Sender is not lender\"\r\n        );\r\n        _;\r\n    }\r\n\r\n    modifier rentAvailable(uint256 itemId) {\r\n        require(\r\n            _idToCovenant[itemId].status != CovenantStatus.LISTING ||\r\n                (_idToProfile[itemId].startTime +\r\n                    _idToProfile[itemId].duration *\r\n                    _idToCovenant[itemId].cycleTime >\r\n                    block.timestamp &&\r\n                    _idToCovenant[itemId].status == CovenantStatus.RENTING),\r\n            \"Not time for rent\"\r\n        );\r\n        _;\r\n    }\r\n\r\n    function list(\r\n        address nftContract,\r\n        uint256 tokenId,\r\n        address ftContract,\r\n        uint256 releaseFrequency,\r\n        uint256 cycleTime,\r\n        uint256 cycleEnded\r\n    ) public nonReentrant {\r\n        require(\r\n            releaseFrequency > 0 && cycleTime > 0,\r\n            \"Release frequency must greater than 0\"\r\n        );\r\n        require(\r\n            ERC165Checker.supportsInterface(nftContract, ERC721INTERFACE),\r\n            \"Contract needs to be ERC721\"\r\n        );\r\n\r\n        IERC721(nftContract).transferFrom(msg.sender, address(this), tokenId);\r\n        _itemCount.increment();\r\n        uint256 itemId = _itemCount.current();\r\n\r\n        _idToCovenant[itemId] = Covenant(\r\n            itemId,\r\n            nftContract,\r\n            tokenId,\r\n            ftContract,\r\n            releaseFrequency,\r\n            cycleTime,\r\n            cycleEnded,\r\n            CovenantStatus.LISTING,\r\n            msg.sender\r\n        );\r\n\r\n        _idToProfile[itemId] = CovenantProfile(address(0), 0, 0, 0);\r\n    }\r\n\r\n    function relist(\r\n        uint256 itemId,\r\n        address ftContract,\r\n        uint256 releaseFrequency,\r\n        uint256 cycleTime,\r\n        uint256 cycleEnded\r\n    ) public nonReentrant {\r\n        require(\r\n            _idToCovenant[itemId].status == CovenantStatus.UNLISTED,\r\n            \"Covenant must unlisted before\"\r\n        );\r\n        require(\r\n            releaseFrequency > 0 && cycleTime > 0,\r\n            \"Release frequency must greater than 0\"\r\n        );\r\n        IERC721(_idToCovenant[itemId].nftContract).transferFrom(\r\n            msg.sender,\r\n            address(this),\r\n            _idToCovenant[itemId].tokenId\r\n        );\r\n\r\n        _idToCovenant[itemId].ftContract = ftContract;\r\n        _idToCovenant[itemId].releaseFrequency = releaseFrequency;\r\n        _idToCovenant[itemId].cycleTime = cycleTime;\r\n        _idToCovenant[itemId].cycleEnded = cycleEnded;\r\n        _idToCovenant[itemId].status = CovenantStatus.LISTING;\r\n        _idToCovenant[itemId].lender = msg.sender;\r\n        _idToProfile[itemId] = CovenantProfile(address(0), 0, 0, 0);\r\n    }\r\n\r\n    function edit(\r\n        uint256 itemId,\r\n        address ftContract,\r\n        uint256 releaseFrequency,\r\n        uint256 cycleTime,\r\n        uint256 cycleEnded\r\n    ) external onlyLender(itemId) rentAvailable(itemId) nonReentrant {\r\n        Covenant storage rentalCovenant = _idToCovenant[itemId];\r\n\r\n        rentalCovenant.ftContract = ftContract;\r\n        rentalCovenant.releaseFrequency = releaseFrequency;\r\n        rentalCovenant.cycleTime = cycleTime;\r\n        rentalCovenant.cycleEnded = cycleEnded;\r\n\r\n        if (\r\n            _idToProfile[itemId].duration != _idToProfile[itemId].withdrawRound\r\n        ) {\r\n            internalWithdraw(itemId);\r\n        }\r\n\r\n        _idToProfile[itemId] = CovenantProfile(address(0), 0, 0, 0);\r\n    }\r\n\r\n    function unlist(uint256 itemId)\r\n        external\r\n        onlyLender(itemId)\r\n        rentAvailable(itemId)\r\n        nonReentrant\r\n    {\r\n        Covenant storage rentalCovenant = _idToCovenant[itemId];\r\n        IERC721(rentalCovenant.nftContract).transferFrom(\r\n            address(this),\r\n            msg.sender,\r\n            rentalCovenant.tokenId\r\n        );\r\n        if (\r\n            _idToProfile[itemId].duration != _idToProfile[itemId].withdrawRound\r\n        ) {\r\n            internalWithdraw(itemId);\r\n        }\r\n\r\n        _idToProfile[itemId] = CovenantProfile(address(0), 0, 0, 0);\r\n        rentalCovenant.status = CovenantStatus.UNLISTED;\r\n    }\r\n\r\n    function rent(uint256 itemId, uint256 amount) public payable nonReentrant {\r\n        require(\r\n            _idToCovenant[itemId].lender != msg.sender,\r\n            \"Sender must be not lender\"\r\n        );\r\n\r\n        require(\r\n            _idToCovenant[itemId].status == CovenantStatus.RENTING ||\r\n                _idToCovenant[itemId].status == CovenantStatus.LISTING,\r\n            \"Not accepted state\"\r\n        );\r\n        Covenant storage rentalCovenant = _idToCovenant[itemId];\r\n        uint256 duration = amount / rentalCovenant.releaseFrequency;\r\n        uint256 realAmount = duration * rentalCovenant.releaseFrequency;\r\n        uint256 refund = amount - realAmount;\r\n\r\n        uint256 startTime = block.timestamp;\r\n        if (_idToCovenant[itemId].status == CovenantStatus.RENTING) {\r\n            require(\r\n                _idToProfile[itemId].startTime +\r\n                    _idToProfile[itemId].duration *\r\n                    _idToCovenant[itemId].cycleTime >\r\n                    block.timestamp,\r\n                \"Rental covenant must be ended\"\r\n            );\r\n            if (\r\n                _idToProfile[itemId].duration !=\r\n                _idToProfile[itemId].withdrawRound\r\n            ) {\r\n                startTime -=\r\n                    _idToProfile[itemId].duration *\r\n                    rentalCovenant.cycleTime;\r\n                duration += _idToProfile[itemId].duration;\r\n            }\r\n        }\r\n\r\n        if (rentalCovenant.ftContract == address(0)) {\r\n            require(msg.value == amount, \"Rental amount not exact\");\r\n            if (refund > 0) {\r\n                sendAssets(\r\n                    address(this),\r\n                    msg.sender,\r\n                    rentalCovenant.ftContract,\r\n                    refund\r\n                );\r\n            }\r\n        } else {\r\n            sendAssets(\r\n                msg.sender,\r\n                address(this),\r\n                rentalCovenant.ftContract,\r\n                realAmount\r\n            );\r\n        }\r\n\r\n        IERC4907(rentalCovenant.nftContract).setUser(\r\n            rentalCovenant.tokenId,\r\n            msg.sender,\r\n            uint96(duration * rentalCovenant.cycleTime + startTime)\r\n        );\r\n        rentalCovenant.status = CovenantStatus.RENTING;\r\n        _idToProfile[itemId].borrower = msg.sender;\r\n        _idToProfile[itemId].startTime = startTime;\r\n        _idToProfile[itemId].duration = duration;\r\n    }\r\n\r\n    function topup(uint256 itemId, uint256 amount)\r\n        public\r\n        payable\r\n        onlyBorrower(itemId)\r\n        nonReentrant\r\n    {\r\n        require(\r\n            _idToCovenant[itemId].status == CovenantStatus.RENTING,\r\n            \"Rental covenant must be renting.\"\r\n        );\r\n\r\n        Covenant storage rentalCovenant = _idToCovenant[itemId];\r\n        uint256 duration = amount / rentalCovenant.releaseFrequency;\r\n        uint256 realAmount = duration * rentalCovenant.releaseFrequency;\r\n        uint256 refund = amount - realAmount;\r\n\r\n        if (rentalCovenant.ftContract == address(0)) {\r\n            require(msg.value == amount, \"Rental amount not exact\");\r\n            if (refund > 0) {\r\n                sendAssets(\r\n                    address(this),\r\n                    msg.sender,\r\n                    rentalCovenant.ftContract,\r\n                    refund\r\n                );\r\n            }\r\n        } else {\r\n            sendAssets(\r\n                msg.sender,\r\n                address(this),\r\n                rentalCovenant.ftContract,\r\n                realAmount\r\n            );\r\n        }\r\n        duration += _idToProfile[itemId].duration;\r\n        IERC4907(rentalCovenant.nftContract).setUser(\r\n            rentalCovenant.tokenId,\r\n            msg.sender,\r\n            uint96(duration * rentalCovenant.cycleTime + _idToProfile[itemId].startTime)\r\n        );\r\n        rentalCovenant.status = CovenantStatus.RENTING;\r\n        _idToProfile[itemId].borrower = msg.sender;\r\n        _idToProfile[itemId].duration = duration;\r\n    }\r\n\r\n    function cancel(uint256 itemId)\r\n        public\r\n        payable\r\n        onlyBorrower(itemId)\r\n        nonReentrant\r\n    {\r\n        uint256 currentTime = block.timestamp;\r\n        uint256 currentCycle = (currentTime - _idToProfile[itemId].startTime) /\r\n            _idToCovenant[itemId].cycleTime;\r\n        currentCycle++;\r\n\r\n        require(\r\n            (_idToCovenant[itemId].status == CovenantStatus.RENTING ||\r\n                _idToCovenant[itemId].status == CovenantStatus.REDEEM) &&\r\n                currentCycle < _idToProfile[itemId].duration,\r\n            \"Rental covenant must be renting.\"\r\n        );\r\n\r\n        Covenant storage rentalCovenant = _idToCovenant[itemId];\r\n        uint256 refund = rentalCovenant.releaseFrequency *\r\n            (_idToProfile[itemId].duration - currentCycle);\r\n\r\n        // refund user\r\n        sendAssets(\r\n            address(this),\r\n            _idToProfile[itemId].borrower,\r\n            rentalCovenant.ftContract,\r\n            refund\r\n        );\r\n        uint256 amount = rentalCovenant.releaseFrequency * currentCycle;\r\n        uint256 fee = _feeOf(rentalCovenant.lender, rentalCovenant.ftContract);\r\n        fee = (amount * fee) / DENOMINATOR;\r\n        if (\r\n            ERC165Checker.supportsInterface(\r\n                rentalCovenant.nftContract,\r\n                ERC2981INTERFACE\r\n            )\r\n        ) {\r\n            (address creator, uint256 royaltyAmount) = IERC2981(\r\n                rentalCovenant.nftContract\r\n            ).royaltyInfo(rentalCovenant.tokenId, amount);\r\n            if (creator != rentalCovenant.lender && royaltyAmount > 0) {\r\n                sendAssets(\r\n                    address(this),\r\n                    creator,\r\n                    rentalCovenant.ftContract,\r\n                    royaltyAmount\r\n                );\r\n                sendAssets(\r\n                    address(this),\r\n                    rentalCovenant.lender,\r\n                    rentalCovenant.ftContract,\r\n                    amount - fee - royaltyAmount\r\n                );\r\n            } else {\r\n                sendAssets(\r\n                    address(this),\r\n                    rentalCovenant.lender,\r\n                    rentalCovenant.ftContract,\r\n                    amount - fee\r\n                );\r\n            }\r\n        } else {\r\n            sendAssets(\r\n                address(this),\r\n                rentalCovenant.lender,\r\n                rentalCovenant.ftContract,\r\n                amount - fee\r\n            );\r\n        }\r\n        sendAssets(\r\n            address(this),\r\n            owner(),\r\n            rentalCovenant.ftContract,\r\n            amount - fee\r\n        );\r\n        IERC4907(rentalCovenant.nftContract).setUser(\r\n            rentalCovenant.tokenId,\r\n            msg.sender,\r\n            uint96(currentCycle *\r\n                rentalCovenant.cycleTime +\r\n                _idToProfile[itemId].startTime)\r\n        );\r\n        _idToProfile[itemId].duration = currentCycle;\r\n    }\r\n\r\n    function withdraw(uint256 itemId)\r\n        public\r\n        payable\r\n        onlyLender(itemId)\r\n        nonReentrant\r\n    {\r\n        internalWithdraw(itemId);\r\n    }\r\n\r\n    function internalWithdraw(uint256 itemId) private nonReentrant {\r\n        uint256 currentTime = block.timestamp;\r\n        uint256 currentCycle = (currentTime - _idToProfile[itemId].startTime) /\r\n            _idToCovenant[itemId].cycleTime;\r\n        currentCycle = currentCycle < _idToProfile[itemId].duration\r\n            ? currentCycle\r\n            : _idToProfile[itemId].duration;\r\n        require(\r\n            currentCycle > _idToProfile[itemId].withdrawRound,\r\n            \"You withdraw all available\"\r\n        );\r\n\r\n        Covenant storage rentalCovenant = _idToCovenant[itemId];\r\n\r\n        uint256 amount = rentalCovenant.releaseFrequency *\r\n            (currentCycle - _idToProfile[itemId].withdrawRound);\r\n        uint256 fee = _feeOf(rentalCovenant.lender, rentalCovenant.ftContract);\r\n        fee = (amount * fee) / DENOMINATOR;\r\n        if (\r\n            ERC165Checker.supportsInterface(\r\n                rentalCovenant.nftContract,\r\n                ERC2981INTERFACE\r\n            )\r\n        ) {\r\n            (address creator, uint256 royaltyAmount) = IERC2981(\r\n                rentalCovenant.nftContract\r\n            ).royaltyInfo(rentalCovenant.tokenId, amount);\r\n            if (creator != rentalCovenant.lender && royaltyAmount > 0) {\r\n                sendAssets(\r\n                    address(this),\r\n                    creator,\r\n                    rentalCovenant.ftContract,\r\n                    royaltyAmount\r\n                );\r\n                sendAssets(\r\n                    address(this),\r\n                    rentalCovenant.lender,\r\n                    rentalCovenant.ftContract,\r\n                    amount - fee - royaltyAmount\r\n                );\r\n            } else {\r\n                sendAssets(\r\n                    address(this),\r\n                    rentalCovenant.lender,\r\n                    rentalCovenant.ftContract,\r\n                    amount - fee\r\n                );\r\n            }\r\n        } else {\r\n            sendAssets(\r\n                address(this),\r\n                rentalCovenant.lender,\r\n                rentalCovenant.ftContract,\r\n                amount - fee\r\n            );\r\n        }\r\n        sendAssets(\r\n            address(this),\r\n            owner(),\r\n            rentalCovenant.ftContract,\r\n            amount - fee\r\n        );\r\n\r\n        _idToProfile[itemId].withdrawRound = currentCycle;\r\n    }\r\n\r\n    function stop(uint256 itemId)\r\n        public\r\n        payable\r\n        onlyLender(itemId)\r\n        nonReentrant\r\n    {\r\n        uint256 currentTime = block.timestamp;\r\n        uint256 endCycle = (currentTime - _idToProfile[itemId].startTime) /\r\n            _idToCovenant[itemId].cycleTime;\r\n        endCycle += _idToCovenant[itemId].cycleEnded;\r\n        endCycle = endCycle < _idToProfile[itemId].duration\r\n            ? endCycle\r\n            : _idToProfile[itemId].duration;\r\n\r\n        Covenant storage rentalCovenant = _idToCovenant[itemId];\r\n        uint256 refund = _idToCovenant[itemId].releaseFrequency *\r\n            (_idToProfile[itemId].duration - endCycle);\r\n        if (refund > 0) {\r\n            sendAssets(\r\n                address(this),\r\n                _idToProfile[itemId].borrower,\r\n                rentalCovenant.ftContract,\r\n                refund\r\n            );\r\n        }\r\n\r\n        _idToProfile[itemId].duration = endCycle;\r\n        rentalCovenant.status = CovenantStatus.REDEEM;\r\n    }\r\n\r\n    function redeem(uint256 itemId) external onlyLender(itemId) nonReentrant {\r\n        require(\r\n            _idToProfile[itemId].startTime +\r\n                _idToProfile[itemId].duration *\r\n                _idToCovenant[itemId].cycleTime <\r\n                block.timestamp &&\r\n                _idToCovenant[itemId].status == CovenantStatus.REDEEM,\r\n            \"Covenant must be redeem\"\r\n        );\r\n        Covenant storage rentalCovenant = _idToCovenant[itemId];\r\n        IERC721(rentalCovenant.nftContract).transferFrom(\r\n            address(this),\r\n            msg.sender,\r\n            rentalCovenant.tokenId\r\n        );\r\n        if (\r\n            _idToProfile[itemId].duration != _idToProfile[itemId].withdrawRound\r\n        ) {\r\n            internalWithdraw(itemId);\r\n        }\r\n\r\n        _idToProfile[itemId] = CovenantProfile(address(0), 0, 0, 0);\r\n        rentalCovenant.status = CovenantStatus.UNLISTED;\r\n    }\r\n\r\n    function getCovenants() public view returns (Covenant[] memory) {\r\n        uint256 covenantCount = _itemCount.current();\r\n\r\n        Covenant[] memory covenants = new Covenant[](covenantCount);\r\n        uint256 covenantIndex = 0;\r\n        for (uint256 i = 1; i <= covenantCount; i++) {\r\n            covenants[covenantIndex] = _idToCovenant[i];\r\n            covenantIndex++;\r\n        }\r\n        return covenants;\r\n    }\r\n\r\n    function getCovenantsByAddress(address addr)\r\n        public\r\n        view\r\n        returns (Covenant[] memory)\r\n    {\r\n        uint256 covenantCount = _itemCount.current();\r\n        uint256 myListedCovenantCount = 0;\r\n        for (uint256 i = 1; i <= covenantCount; i++) {\r\n            if (\r\n                _idToProfile[i].borrower == addr ||\r\n                _idToCovenant[i].lender == addr\r\n            ) {\r\n                myListedCovenantCount++;\r\n            }\r\n        }\r\n\r\n        Covenant[] memory covenants = new Covenant[](covenantCount);\r\n        uint256 covenantIndex = 0;\r\n        for (uint256 i = 1; i <= myListedCovenantCount; i++) {\r\n            if (\r\n                _idToProfile[i].borrower == addr ||\r\n                _idToCovenant[i].lender == addr\r\n            ) {\r\n                covenants[covenantIndex] = _idToCovenant[i];\r\n                covenantIndex++;\r\n            }\r\n        }\r\n        return covenants;\r\n    }\r\n\r\n    function getCovenant(uint256 itemId)\r\n        public\r\n        view\r\n        returns (Covenant memory, CovenantProfile memory)\r\n    {\r\n        Covenant memory covenant = _idToCovenant[itemId];\r\n        CovenantProfile memory profile = _idToProfile[itemId];\r\n        return (covenant, profile);\r\n    }\r\n\r\n    function getRentalData(address contractAddress, uint256 tokenId)\r\n        public\r\n        view\r\n        returns (Covenant memory)\r\n    {\r\n        Covenant memory covenant;\r\n        uint256 cCount = _itemCount.current();\r\n        for (uint256 i = 1; i <= cCount; i++) {\r\n            if (\r\n                _idToCovenant[i].nftContract == contractAddress &&\r\n                _idToCovenant[i].tokenId == tokenId\r\n            ) {\r\n                covenant = _idToCovenant[i];\r\n                break;\r\n            }\r\n        }\r\n\r\n        return covenant;\r\n    }\r\n\r\n    function sendAssets(\r\n        address from,\r\n        address to,\r\n        address ftToken,\r\n        uint256 value\r\n    ) private {\r\n        if (ftToken == address(0)) {\r\n            payable(to).transfer(value);\r\n        } else {\r\n            if (from != address(this)) {\r\n                IERC20(ftToken).transferFrom(from, to, value);\r\n            } else {\r\n                IERC20(ftToken).transfer(to, value);\r\n            }\r\n        }\r\n    }\r\n}\r\n",
  "sourcePath": "G:\\Learning\\Project\\source\\picasarts-contracts\\contracts\\Rental.sol",
  "compiler": {
    "name": "solc",
    "version": "0.8.4+commit.c7e474f2.Emscripten.clang"
  },
  "schemaVersion": "3.4.10",
  "updatedAt": "2023-02-24T18:18:06.542Z",
  "devdoc": {
    "kind": "dev",
    "methods": {
      "owner()": {
        "details": "Returns the address of the current owner."
      },
      "renounceOwnership()": {
        "details": "Leaves the contract without owner. It will not be possible to call `onlyOwner` functions anymore. Can only be called by the current owner. NOTE: Renouncing ownership will leave the contract without an owner, thereby removing any functionality that is only available to the owner."
      },
      "transferOwnership(address)": {
        "details": "Transfers ownership of the contract to a new account (`newOwner`). Can only be called by the current owner."
      }
    },
    "version": 1
  },
  "userdoc": {
    "kind": "user",
    "methods": {},
    "version": 1
  }
}